ARM GAS  /tmp/ccUpC65v.s 			page 1


   1              		.cpu cortex-m4
   2              		.eabi_attribute 20, 1
   3              		.eabi_attribute 21, 1
   4              		.eabi_attribute 23, 3
   5              		.eabi_attribute 24, 1
   6              		.eabi_attribute 25, 1
   7              		.eabi_attribute 26, 1
   8              		.eabi_attribute 30, 2
   9              		.eabi_attribute 34, 1
  10              		.eabi_attribute 18, 4
  11              		.file	"ch_test.c"
  12              		.text
  13              	.Ltext0:
  14              		.section	.gnu.lto_.profile.a541ece7b3318314,"",%progbits
  15 0000 789C6365 		.ascii	"x\234ce`b`c```dX\307\361\230\031\000\005G\001\253"
  15      60626063 
  15      60606064 
  15      58C7F198 
  15      19000547 
  16              		.text
  17              		.section	.gnu.lto_.icf.a541ece7b3318314,"",%progbits
  18 0000 789C6365 		.ascii	"x\234ce`bh`@\000Q\206\353+\276\256dd\334\373\360];+"
  18      60626860 
  18      40005186 
  18      EB2BBEAE 
  18      6464DCFB 
  19 0018 D3A39F5D 		.ascii	"\323\243\237]k\370\231'm_|\227\231\345q\307\3033l\254"
  19      6BF89927 
  19      6D5F7C97 
  19      99E571C7 
  19      C3336CAC 
  20 002c 6071B686 		.ascii	"`q\266\206\355\035\373y\331\217o\276\332\310\311\361"
  20      ED1DFB79 
  20      D98F6FBE 
  20      DAC8C9F1 
  21 003c FCEEC55F 		.ascii	"\374\356\305_\334\234`5\\`Y\356K/\366\276\343\340\331"
  21      DC9C6035 
  21      5C6059EE 
  21      4B2FF6BE 
  21      E3E0D9
  22 004f DEF6631D 		.ascii	"\336\366c\035/\357\241\336\251?\371\370\316\314\270"
  22      2FEFA1DE 
  22      A93FF9F8 
  22      CECCB8
  23 005e D9CFC4FF 		.ascii	"\331\317\304\377\354\361\274'\\\002\373\036\3676\262"
  23      ECF1BC27 
  23      5C02FB1E 
  23      F736B2
  24 006d 099E6EB9 		.ascii	"\011\236n\271\370\217S\350\302\2139\027\330\204\037"
  24      F88F53E8 
  24      C28B3917 
  24      D8841F
  25 007c BEFFF595 		.ascii	"\276\377\365\225E\004\254\227\001\000\214\273A\365"
  25      4504AC97 
  25      01008CBB 
  25      41F5
  26              		.text
ARM GAS  /tmp/ccUpC65v.s 			page 2


  27              		.section	.gnu.lto_.jmpfuncs.a541ece7b3318314,"",%progbits
  28 0000 789CCDD2 		.ascii	"x\234\315\322KL\023A\030\007\360\371\272}Q`[\036\212"
  28      4B4C1341 
  28      1807F0F9 
  28      BA7D5160 
  28      5B1E8A
  29 0013 1A0FB3DE 		.ascii	"\032\017\263\336 \326P\244\030I<\030\204\250QC(\234"
  29      20D650A4 
  29      18493C18 
  29      84A85143 
  29      289C
  30 0025 3C98A6AE 		.ascii	"<\230\246\256\322\004\333\244\224x\\\204@\214\202\210"
  30      D204DBA4 
  30      94785C84 
  30      408C8288 
  31 0035 B1C107D2 		.ascii	"\261\301\007\322\240\250<\025T\344U\025y*`\364@ \030"
  31      A0A83C15 
  31      54E45515 
  31      792A60F4 
  31      402018
  32 0048 8DF1028A 		.ascii	"\215\361\002\212\021\0371&\0321\356\314lq5\036z\264"
  32      111F3126 
  32      1A31EECC 
  32      6C71351E 
  32      7AB4
  33 005a 69B79DF9 		.ascii	"i\267\235\371\346\367\237\351\267\253C\032d\324!\324"
  33      E6F79FE9 
  33      B7AB431A 
  33      64D421D4 
  34 006a 8BD88B47 		.ascii	"\213\330\213G\000 !\311B\336h\035\326\"\244\227\247"
  34      002021C9 
  34      42DE681D 
  34      D622A497 
  34      A7
  35 007b A18E83B3 		.ascii	"\241\216\203\263\037[\313\242\004\010\226\236\303A\016"
  35      1F5BCBA2 
  35      0408969E 
  35      C3410E
  36 008a 21796672 		.ascii	"!yfr\242\341X\224\264\\\272&\310\001\\\007A^\327,c\320"
  36      A2E15894 
  36      B45CBA26 
  36      C8015C07 
  36      415ED72C 
  37 00a0 D2F5A160 		.ascii	"\322\365\241`U\213\351\024\027\3444\240\201\026X\217"
  37      558BE914 
  37      17E434A0 
  37      8116588F 
  38 00b0 E448AD92 		.ascii	"\344H\255\222u\376\315\211i\236\3248\260B+\253\351#"
  38      75FECD89 
  38      699ED438 
  38      B0422BAB 
  38      E923
  39 00c2 DEAA8D6E 		.ascii	"\336\252\215n\325\256l\365wv`\251\274\021X\3666\350"
  39      D5AE6CF5 
  39      777660A9 
  39      BC1158F6 
  39      36E8
ARM GAS  /tmp/ccUpC65v.s 			page 3


  40 00d4 60350342 		.ascii	"`5\003B\341\362\225\316\346J\216\225S\341\006+\033\311"
  40      E1F295CE 
  40      E64A8E95 
  40      53E1062B 
  40      1BC9
  41 00e6 9F8ED600 		.ascii	"\237\216\326\000p\222\024\303\276b\345}\300 I\022O\033"
  41      709214C3 
  41      BE62E57D 
  41      C0204912 
  41      4F1B
  42 00f8 A265ED91 		.ascii	"\242e\355\221,f2\\\031Y\310(\302S\337\244\247\356\374"
  42      2C66325C 
  42      1959C828 
  42      C253DFA4 
  42      A7EEFC
  43 010b C7A96954 		.ascii	"\307\251iT\034\211\212'\227\004v\002\015\311\\\276T"
  43      1C898A27 
  43      97047602 
  43      0DC95CBE 
  43      54
  44 011c 590B828E 		.ascii	"Y\013\202\216ejIf\365\373\361\247\032\226\251\203.\232"
  44      656A4966 
  44      F5FBF1A7 
  44      1A96A983 
  44      2E9A
  45 012e 798B6552 		.ascii	"y\213eR\360b\272\253>Z\340U \360y\261B\037\006\267)"
  45      F062BAAB 
  45      3E5AE055 
  45      20F079B1 
  45      421F06B7 
  46 0143 B8A302DD 		.ascii	"\270\243\002\335e\315cz!\211\001=\001m\335\263\001\003"
  46      65CD637A 
  46      2189013D 
  46      016DDDB3 
  46      0103
  47 0155 0306E8A6 		.ascii	"\003\006\350\246\340.\003L|\377\261\364\316$\254e\302"
  47      E02E034C 
  47      7CFFB1F4 
  47      CE24AC65 
  47      C2
  48 0166 48C4604D 		.ascii	"H\304`M\315\234r\246(\350\241\242W\265\305\320\302\350"
  48      CD9C72A6 
  48      28E8A1A2 
  48      57B5C5D0 
  48      C2E8
  49 0178 7E6193AA 		.ascii	"~a\223\252/S/\313^\353\302}\351\243\353\373\225\365"
  49      2F532FCB 
  49      5EEBC27D 
  49      E9A3EBFB 
  49      95F5
  50 018a 722FE887 		.ascii	"r/\350\207\270\311\267\227\027\364\344V\231\340\231"
  50      B8C9B797 
  50      17F4E456 
  50      99E099
  51 0199 190648C3 		.ascii	"\031\006H\303\350|\177c(\304\013i,0\232\004\366}\272"
  51      E87C7F63 
  51      28C40B69 
ARM GAS  /tmp/ccUpC65v.s 			page 4


  51      2C309A04 
  51      F67DBA
  52 01ac 78553972 		.ascii	"xU9r\014\204h\340\275?\003#\222\367\251|\360[F\324\242"
  52      0C8468E0 
  52      BD3F0323 
  52      92F7A97C 
  52      F05B46D4 
  53 01c1 41AA1EAA 		.ascii	"A\252\036\252\376py\375\360WN\2603\020K@\317\351\237"
  53      FE7079FD 
  53      F0574EB0 
  53      33104B40 
  53      CFE99F
  54 01d4 0D1C033C 		.ascii	"\015\034\003<\014Q0\254\002\307\253\353\006x\341\000"
  54      0C5130AC 
  54      02C7ABEB 
  54      0678E100 
  55 01e4 036602BE 		.ascii	"\003f\002\2765M\217\360\014X`\204\202Q\025\010\264_"
  55      354D8FF0 
  55      0C586084 
  55      82511508 
  55      B45F
  56 01f6 9BE1852A 		.ascii	"\233\341\205*\345a\213#\342y\307\311y3\023\3610F\305"
  56      E5618B23 
  56      E279C7C9 
  56      793313F1 
  56      3046C5
  57 0209 B84ACC2E 		.ascii	"\270J\314.\177\230\323\012M\212H bqh\346K\014\023\211"
  57      7F98D30A 
  57      4D8A4820 
  57      627168E6 
  57      4B0C1389 
  58 021d F0888AC7 		.ascii	"\360\210\212\307*q\241\242\341\214QhQ\304*\"^\265\316"
  58      2A71A1A2 
  58      E18C5168 
  58      51C42A22 
  58      5EB5CE
  59 0230 D72A376E 		.ascii	"\327*7n5LP1\251\352s\004\315\232\242\350\011C+\017\377"
  59      354C5031 
  59      A9EA7304 
  59      CD9AA2E8 
  59      09432B0F 
  60 0245 FFF60371 		.ascii	"\377\366\003q\261&dt\024dee;\034\310\230\263}\327\236"
  60      B1266474 
  60      14646565 
  60      3B1CC898 
  60      B37DD79E 
  61 0259 82BC6C04 		.ascii	"\202\274l\004(\321j\265\342<\261\270\244\310\237\211"
  61      28D16AB5 
  61      E23CB1B8 
  61      A4C89F89 
  62 0269 C3756E43 		.ascii	"\303unC2\322$\243dG\376^\267\313\347\025\213D\227\337"
  62      32D224A3 
  62      6447FE5E 
  62      B7CBE715 
  62      8B4497DF 
  63 027d E7F5B85D 		.ascii	"\347\365\270]\305X\236\332\234\206\367\225\270\212D"
  63      C5589EDA 
ARM GAS  /tmp/ccUpC65v.s 			page 5


  63      9C86F795 
  63      B88A44
  64 028c 6F46BA35 		.ascii	"oF\2725'\335f\223s6\322i2\300;\335\207\013q\256\350"
  64      27DD6693 
  64      7336D269 
  64      32C03BDD 
  64      870B71AE 
  65 02a1 3BE4F51D 		.ascii	";\344\365\035qz\\\">\352\366\027\342\035\216\\\354\364"
  65      717A5C22 
  65      3EEAF617 
  65      E21D8E5C 
  65      ECF4
  66 02b3 1CC439B9 		.ascii	"\034\3049\271\005(i\267\323\203mv\234\226j\333\212\255"
  66      052869B7 
  66      D3836D76 
  66      9C966ADB 
  66      8AAD
  67 02c5 D8969E69 		.ascii	"\330\226\236i\317\310\264oA\332\224\224\024d\226/8_"
  67      CFC8B46F 
  67      41DA9494 
  67      1464962F 
  67      385F
  68 02d7 2CF66347 		.ascii	",\366cG\211\333/\242_\377\253a\363"
  68      89DB2FA2 
  68      5FFFAB61 
  68      F3
  69              		.text
  70              		.section	.gnu.lto_.inline.a541ece7b3318314,"",%progbits
  71 0000 789CAD50 		.ascii	"x\234\255P\273J\003Q\020=so\366\275\311\356&\032\023"
  71      BB4A0351 
  71      103D736F 
  71      F6BDC9EE 
  71      261A13
  72 0013 58C856DA 		.ascii	"X\310V\332\005K\377!\260?\340\037$?!\021!\340\203\255"
  72      054BFF21 
  72      B03FE01F 
  72      243F2111 
  72      21E083AD 
  73 0027 B4B0480A 		.ascii	"\264\260H\012!\332\350\017XYX\250\240Xkc\245\330\244"
  73      21DAE80F 
  73      585958A8 
  73      A0586B63 
  73      A5D8A4
  74 003a B04825DE 		.ascii	"\260H%\336\331\304e\325\004-\\.3g\347\314\353\214\006"
  74      D9C465D5 
  74      042D5C2E 
  74      3367E7CC 
  74      EB8C06
  75 004d 819644F6 		.ascii	"\201\226D\366\225\200\305U\222\210:\007\222\366\267"
  75      9580C555 
  75      92883A07 
  75      92F6B7
  76 005c 2E6E8D3D 		.ascii	".n\215=\331\227K\004\032R(#D\355O@\220Q\301Nb\230\243"
  76      D9974B04 
  76      1A522823 
  76      44ED4F40 
  76      9051C14E 
ARM GAS  /tmp/ccUpC65v.s 			page 6


  77 0073 A6003D1B 		.ascii	"\246\000=\033\276\200\326[\361\271\213\364r\246\000"
  77      BE80D65B 
  77      F1B98BF4 
  77      72A600
  78 0082 F5965E8B 		.ascii	"\365\226^\213\004Q~;\\\203>h\010N\322\313\212V\365\320"
  78      04517E3B 
  78      5C833E68 
  78      084ED2CB 
  78      8A56F5D0 
  79 0096 024529A0 		.ascii	"\002E)\240\377)\313\360\235\252B\372\250\231\345h\001"
  79      FF29CBF0 
  79      9DAA42FA 
  79      A899E568 
  79      01
  80 00a7 52CA84AE 		.ascii	"R\312\204\256}\243\034\230\272\222c\266\363rjJ\3161"
  80      7DA31C98 
  80      BA9263B6 
  80      F3726A4A 
  80      CE31
  81 00b9 8580D999 		.ascii	"\205\200\331\231z\342\0351\251*\014\032>\364\233\220"
  81      7AE21D31 
  81      A92A0C1A 
  81      3EF49B90 
  82 00c9 0370517D 		.ascii	"\003pQ}\201\352\271\374~\345fM\213p,\022\244N\000\276"
  82      81EAB9FC 
  82      7EE5664D 
  82      8B702C12 
  82      A44E00BE 
  83 00dd 03646967 		.ascii	"\003dig}B\212;\317M\317\350\327\273\202\317\370en]\315"
  83      7D428A3B 
  83      CF4DCFE8 
  83      D7BB82CF 
  83      F8656E5D 
  84 00f2 3DE17951 		.ascii	"=\341yQg\352\177\314\015\217\266K&w \233\031%\332di"
  84      67EA7FCC 
  84      0D8FB64B 
  84      2677209B 
  84      1925DA64 
  85 0107 49ECC11B 		.ascii	"I\354\301\033\223Z\244\364\264a\345\204\323\204\365"
  85      935AA4F4 
  85      B461E584 
  85      D384F5
  86 0116 51DB150A 		.ascii	"Q\333\025\012/\334\237YsO\227\304\001/\016\341?\264"
  86      2FDC9F59 
  86      734F97C4 
  86      012F0EE1 
  86      3FB4
  87 0128 B3A4322C 		.ascii	"\263\2442,C\205\334\363V\026\252\340T\364/\271\335\265"
  87      4385DCF3 
  87      5616AAE0 
  87      54F42FB9 
  87      DDB5
  88 013a E80E371D 		.ascii	"\350\0167\035\024{\343J\312\010\007|\214\234UkrX\244"
  88      147BE34A 
  88      CA08077C 
  88      8C9C556B 
  88      7258A4
ARM GAS  /tmp/ccUpC65v.s 			page 7


  89 014d 81CC2671 		.ascii	"\201\314&q\336\315`\036\015\262\005\027RJ\020\023d\323"
  89      DECD601E 
  89      0DB20517 
  89      524A1013 
  89      64D3
  90 015f AC09732C 		.ascii	"\254\011s,7\342\237L\233\026\310\377\006b>\240_\001"
  90      37E29F4C 
  90      9B16C8FF 
  90      06623EA0 
  90      5F01
  91 0171 3E002BD6 		.ascii	">\000+\326v\035"
  91      761D
  92              		.text
  93              		.section	.gnu.lto_.pureconst.a541ece7b3318314,"",%progbits
  94 0000 789C6365 		.ascii	"x\234ce`b\220c``\340c\220d\221d\223d\227\344\220\340"
  94      60629063 
  94      6060E063 
  94      90649164 
  94      936497E4 
  95 0016 96E0B1E4 		.ascii	"\226\340\261\344\225\342\263\344\267\024\260\024\334"
  95      95E2B3E4 
  95      B714B014 
  95      DC
  96 0023 C5282425 		.ascii	"\305($%l\011\000,-\003t"
  96      6C09002C 
  96      2D0374
  97              		.text
  98              		.section	.gnu.lto_execute_test.a541ece7b3318314,"",%progbits
  99 0000 789C9592 		.ascii	"x\234\225\222MHTQ\024\307\317\377\335\367\356<_\243"
  99      4D485451 
  99      14C7CFFF 
  99      DDF7EE3C 
  99      5FA3
 100 0012 B46B23E4 		.ascii	"\264k#\344\"\0207\275M\010A\256\212v\321\"Z\007\016"
 100      221037BD 
 100      4D0841AE 
 100      8A76D122 
 100      5A070E
 101 0025 034A69D2 		.ascii	"\003Ji\322\314\252\315\\\315P*\313\215\251\3314\003"
 101      CCAACD5C 
 101      CD502ACB 
 101      8DA9D934 
 101      03
 102 0036 527E4E7E 		.ascii	"R~N~\364\345h\345\244\201T\366\011\266q\021\244D\246"
 102      F4E568E5 
 102      A48154F6 
 102      09B67111 
 102      A444A6
 103 0049 2DA22232 		.ascii	"-\242\"2\262\316\275\2432\015m|\360\336\273\367\334"
 103      B2CEBDA3 
 103      320D6D7C 
 103      F0DEBBF7 
 103      DC
 104 005a 737FFFF3 		.ascii	"s\177\377\363?\367:d\321\250 \332GD\207\370E\200`\265"
 104      3FF73A64 
 104      D1A820DA 
 104      474487F8 
ARM GAS  /tmp/ccUpC65v.s 			page 8


 104      458060B5 
 105 006e BE20AA77 		.ascii	"\276 \252w-K\314\224\223\362\354';H\005\005\354l\330"
 105      2D4BCC94 
 105      93F2EC27 
 105      3B480505 
 105      EC6CD8
 106 0081 B69CAE0A 		.ascii	"\266\234\256\012\016\313\357\3339\354@f\303\022\320"
 106      0ECBEFDB 
 106      39EC4066 
 106      C312D0
 107 0090 03E58262 		.ascii	"\003\345\202b\226\260\035\211\030.\211v\201\251\246"
 107      96B01D89 
 107      182E8976 
 107      81A9A6
 108 009f 0F69ABAC 		.ascii	"\017i\253\254G\361\223i\037\223q\365J\211\004+v\362"
 108      47F19369 
 108      1F9371F5 
 108      4A89042B 
 108      76F2
 109 00b1 AB1FF4A0 		.ascii	"\253\037\364\240\214\323^7\016_\025\027y\005\260y\372"
 109      8CD35E37 
 109      0E5F1517 
 109      7905B079 
 109      FA
 110 00c2 E5F99585 		.ascii	"\345\371\225\205\"=\265P\302\323\366\225_o!\366\202"
 110      223DB550 
 110      C2D3F695 
 110      5F6F21F6 
 110      82
 111 00d3 78BCDCB7 		.ascii	"x\274\334\267\372L\226^W\252Ae\026\333\204\332\225\020"
 111      FA4C965E 
 111      57AA4165 
 111      16DB84DA 
 111      9510
 112 00e5 02FD100C 		.ascii	"\002\375\020\014D\037\212\321\213b\342\020a\000\245"
 112      441F8AD1 
 112      8B62E210 
 112      6100A5
 113 00f4 3AFFFDC8 		.ascii	":\377\375\310Z[\241\264\263\202\030\204\004\377\207"
 113      5A5BA1B4 
 113      B3821884 
 113      04FF87
 114 0103 DE20A3D6 		.ascii	"\336 \243\326\3764\251\314\354\015\274;X\350@\247K\336"
 114      FE34A9CC 
 114      EC0DBC3B 
 114      58E840A7 
 114      4BDE
 115 0115 68BBFAE3 		.ascii	"h\273\372\343\351\017\3219\336\243m\235\027\226\376"
 115      E90FD139 
 115      DEA36D9D 
 115      1796FE
 116 0124 8B2534AC 		.ascii	"\213%4\2546\245F\242\233\330F\343k\255S\032r\247@\256"
 116      36A546A2 
 116      9BD846E3 
 116      6BAD531A 
 116      72A740AE 
 117 0138 2252902C 		.ascii	"\"R\220,y\023\222\203\227\317N\275\014hG\216\311I\247"
ARM GAS  /tmp/ccUpC65v.s 			page 9


 117      79139283 
 117      97CF4EBD 
 117      0C68478E 
 117      C949A7
 118 014b 57E603B1 		.ascii	"W\346\003\261\337\312\345@\267\256\214c\237f\347\036"
 118      DFCAE540 
 118      B7AE8C63 
 118      9F66E71E 
 119 015b 7B09C491 		.ascii	"{\011\304\221\020\022\303\334\300!\266B\030A\002\271"
 119      1012C3DC 
 119      C021B642 
 119      184102B9 
 120 016b 80403E20 		.ascii	"\200@> \320\315\272y\000\027\267\0300\252\001\274\220"
 120      D0CDBA79 
 120      0017B718 
 120      30AA01BC 
 120      90
 121 017c 5CFD3917 		.ascii	"\\\3759\027\344\344f\245\222\003\027vj\306m\246\232"
 121      E4E466A5 
 121      92031776 
 121      6AC66DA6 
 121      9A
 122 018d 02710731 		.ascii	"\002q\0071bc\337>\366.x\332E\256VA\276VA7\267\"O\313"
 122      6263DF3E 
 122      F62E78DA 
 122      45AE5641 
 122      BE564137 
 123 01a5 C33DD6BA 		.ascii	"\303=\326\272k\212\035\313+\326\003!\315+,0\276\324"
 123      6B8A1DCB 
 123      2BD60321 
 123      CD2B2C30 
 123      BED4
 124 01b7 3F2DB540 		.ascii	"?-\265@\\\374\243\221m\332\217\231\247\315A\346\325"
 124      5CFCA391 
 124      6DDA8F99 
 124      A7CD41E6 
 124      D5
 125 01c8 73434B12 		.ascii	"sCK\022b[\234\0335\276^\376\265\216\261\257E~J\265\232"
 125      625B9C1B 
 125      35BE5EFE 
 125      B58EB1AF 
 125      457E4AB5 
 126 01dd A5202658 		.ascii	"\245 &X\244\303\334\037\334\207O\213h\234\237\336\363"
 126      A4C3DC1F 
 126      DC874F8B 
 126      689C9FDE 
 126      F3
 127 01ee 1F7290C5 		.ascii	"\037r\220\305\037h\006\351#\0244S.\226q&9\324\342\350"
 127      1F6806E9 
 127      23143453 
 127      2E967126 
 127      39D4E2E8 
 128 0202 64E26C3E 		.ascii	"d\342l>\346B\263ho\234\357\370\322\3404\262,w\213e="
 128      E642B368 
 128      6F9CEFF8 
 128      D2E034B2 
 128      2C778B65 
ARM GAS  /tmp/ccUpC65v.s 			page 10


 129 0217 3465E9EB 		.ascii	"4e\351\353\205I.KK\025\255\013\271F\310\340S\033M\360"
 129      85492E4B 
 129      4B15AD0B 
 129      B946C8E0 
 129      531B4DF0 
 130 022b B688CF18 		.ascii	"\266\210\317\030\274\245\361\217\362\\{96\035\352\252"
 130      BCA5F18F 
 130      F25C7B39 
 130      361DEAAA 
 131 023b 30362736 		.ascii	"06'6mz\2336\245\261\371\031\015\311\311\026\343\322"
 131      6D7A9B36 
 131      A5B1F919 
 131      0DC9C916 
 131      E3D2
 132 024d 6C3AC745 		.ascii	"l:\307Es\234\321\345~Mm\324\017\371G#\341S\021\277\266"
 132      739CD1E5 
 132      7E4D6DD4 
 132      0FF94723 
 132      E15311BF 
 133 0262 261C3DED 		.ascii	"&\034=\355\037\010G\216GO\326\371\373\253\252+\253\017"
 133      1F08478E 
 133      474FD6F9 
 133      FBABAA2B 
 133      AB0F
 134 0274 1FF1A3E1 		.ascii	"\037\361\243\341H\324?Q]\351\207\252\216\351\361\356"
 134      48D43F51 
 134      5DE987AA 
 134      8EE9F1EE 
 135 0284 108968A8 		.ascii	"\020\211h\250\356/iVI\263"
 135      EE2F6956 
 135      49B3
 136              		.text
 137              		.section	.gnu.lto_print_line.a541ece7b3318314,"",%progbits
 138 0000 789C8D93 		.ascii	"x\234\215\223MH\025Q\024\307\317\177\356\314\363\275"
 138      4D481551 
 138      14C7CF7F 
 138      EECCF3BD 
 139 0010 A7EF99D1 		.ascii	"\247\357\231\321\"\312\205.\\\270\250\331\005\021\264"
 139      22CA852E 
 139      5CB8A8D9 
 139      0511B4
 140 001f A97D44B4 		.ascii	"\251}D\264\016\024A)-\362\255\332\274\353354\315\242"
 140      0E144129 
 140      2DF2ADDA 
 140      BCEB3335 
 140      34CDA2
 141 0032 FCA89E13 		.ascii	"\374\250\236\023H\230\226_e\3513\265\347\007\030~\226"
 141      4898965F 
 141      65E933B5 
 141      E707187E 
 141      96
 142 0043 589B1645 		.ascii	"X\233\026EYd\031T\026\322\"\355\334;Z\026\012\015\314"
 142      59641954 
 142      16D222ED 
 142      DC3B5A16 
 142      0A0DCC
 143 0056 9D7BCF3D 		.ascii	"\235{\317=\367w\346\374\3773\026\031\264\315$\332OD"
ARM GAS  /tmp/ccUpC65v.s 			page 11


 143      F777E6FC 
 143      FF331619 
 143      B4CD24DA 
 143      4F44
 144 0068 87F98687 		.ascii	"\207\371\206\207`TO\021\025y\015\230\356D\270\223A\257"
 144      60544F11 
 144      15790D98 
 144      EE44B893 
 144      41AF
 145 007a 6988AA49 		.ascii	"i\210\252I\"\351\267\" \231d\001*.\275\240\260!L\013"
 145      22E9B722 
 145      20996401 
 145      2A2EBDA0 
 145      B0214C0B 
 146 008e 61C324C4 		.ascii	"a\303$\304ML\254\216\352\272 j\005\206\312\336\305\214"
 146      4D4CAC8E 
 146      EABA206A 
 146      0586CADE 
 146      C58C
 147 00a0 CC26C957 		.ascii	"\314&\311W\274\366\253'*\237H\341\010\242z\241s\010"
 147      BCF6AB27 
 147      2A9F48E1 
 147      08A27AA1 
 147      7308
 148 00b2 4DC824CE 		.ascii	"M\310$\316{z\266\343\272\250\342-\300\344\345\227\311"
 148      7B7AB6E3 
 148      BAA8E22D 
 148      C0E4E597 
 148      C9
 149 00c3 AB6F826A 		.ascii	"\253o\202ji \215\2277\307\207\007\202b/T\346\254\354"
 149      69208D97 
 149      37C78707 
 149      82622F54 
 149      E6ACEC
 150 00d6 5A4146A3 		.ascii	"ZAF\243\224\021\031\177~m\373\305b\371X\232\216\020"
 150      9411197F 
 150      7E6DFBC5 
 150      62F9589A 
 150      8E10
 151 00e8 6881602A 		.ascii	"h\201`*\232\221\212[H\325tN\177\335\271|%\3401q\033"
 151      9A918A5B 
 151      48D5744E 
 151      7FDDB97C 
 151      25E03171 
 152 00fd 196E51DC 		.ascii	"\031nQ\334\201\007\374P\221\366\031\304\345\362J\231"
 152      8107FC50 
 152      91F619C4 
 152      E5F24A99 
 153 010d 8C4FED1C 		.ascii	"\214O\355\034\370\3662%\000Ra\223\034n\212\007\313\303"
 153      F8F63225 
 153      00526193 
 153      1C6E8A07 
 153      CBC3
 154 011f 83C7AB83 		.ascii	"\203\307\253\203>\025\364\253`\"\017\011D\345Lc5*\204"
 154      3E15F4AB 
 154      60220F09 
 154      44E54C63 
ARM GAS  /tmp/ccUpC65v.s 			page 12


 154      352A84
 155 0132 C10FF116 		.ascii	"\301\017\361\026\221\033\213\225;4\235\263\271r\373"
 155      911B8B95 
 155      3B349DB3 
 155      B972FB
 156 0141 42EC4740 		.ascii	"B\354G@\365 \230\332\252\337\250B\010b\035\305<\"5\363"
 156      F52098DA 
 156      AADFA842 
 156      08621DC5 
 156      3C2235F3 
 157 0155 FD8D50D9 		.ascii	"\375\215P\331Q\241\032\256)\031\232NP\311^\335d,\266"
 157      51A11AAE 
 157      29199A4E 
 157      50C95EDD 
 157      642CB6
 158 0168 F02221FC 		.ascii	"\360\"!\374Sz9\320(\334N>L<\033\361;\210\202\337\003"
 158      537A39D0 
 158      28DC4E3E 
 158      4C3C1BF1 
 158      3B8882DF 
 159 017d ED08A34D 		.ascii	"\355\010\243M1\321\001\007\304\300^\237K\263\326\323"
 159      31D10107 
 159      C4C05E9F 
 159      4BB3D6D3 
 160 018d 4C4D5B1A 		.ascii	"LM[\032\035;\227\304'\213\330\2054G\370\270$:\325a%"
 160      1D3B97C4 
 160      278BD885 
 160      3447F8B8 
 160      243AD561 
 161 01a2 ED5CA42D 		.ascii	"\355\\\244-\301n\225\356\226\205\273\214\253\323\346"
 161      C16E95EE 
 161      9685BB8C 
 161      ABD3E6
 162 01b1 E01EECF5 		.ascii	"\340\036\354\365`\317z\260\265\021\330\317\325\321\265"
 162      60CF7AB0 
 162      B511D8CF 
 162      D5D1B5
 163 01c0 0A6EA8EB 		.ascii	"\012n\250\353Y\0142\270Zo%\342\276\006C\201\0370\370"
 163      590C32B8 
 163      5A6F25E2 
 163      BE064381 
 163      1F30F8
 164 01d3 234AD214 		.ascii	"#J\322\024\227\030L\256\006\365\357\313g\265\351I\330"
 164      97184CAE 
 164      06F5EFCB 
 164      67B5E949 
 164      D8
 165 01e4 856EA43A 		.ascii	"\205n\244:\"\300\365\213kJ'\273_\255J\345\215\012pf"
 165      22C0F58B 
 165      6B4A27BB 
 165      5FAD4AE5 
 165      8D0A7066 
 166 01f8 D7C868A9 		.ascii	"\327\310h\251\327\225\026\350\341\202\254~\332\232\364"
 166      D79516E8 
 166      E182AC7E 
 166      DA9AF4
 167 0207 9CA5A536 		.ascii	"\234\245\2456\211\277Q\366\305 7\012\232\303\331\351"
ARM GAS  /tmp/ccUpC65v.s 			page 13


 167      89BF51F6 
 167      C520370A 
 167      9AC3D9E9 
 168 0217 E15497A4 		.ascii	"\341T\227\2440\203K}\013\311.f\234\020s?\232\357\214"
 168      30834B7D 
 168      0BC92E66 
 168      9C10733F 
 168      9AEF8C
 169 022a 64B78C19 		.ascii	"d\267\214\031UN\\\0122\311R\006k\317\006\262\335\323"
 169      554E5C0A 
 169      32C95206 
 169      6BCF06B2 
 169      DDD3
 170 023c BEFFF1A8 		.ascii	"\276\377\361\250\367\267G\017\377\361\310\277\241)\276"
 170      F7B7470F 
 170      FFF1C8BF 
 170      A129BE
 171 024b 4D4DE9FB 		.ascii	"MM\351\373cJ\377\337\246$n\350\202\177\023\027\202\030"
 171      634AFFDF 
 171      A6246EE8 
 171      827F1317 
 171      8218
 172 025d D0244391 		.ascii	"\320$C\221\036i\027J\327\\H$\267\255\313\237[\"\276"
 172      1E69174A 
 172      D75C4824 
 172      B7ADCB9F 
 172      5B22BE
 173 0270 F47D8EAC 		.ascii	"\364}\216\254\343\003\311\2121>\326P\344\343F\3534c"
 173      E303C98A 
 173      313ED650 
 173      E4E346EB 
 173      3463
 174 0282 0BE248D7 		.ascii	"\013\342H\327g0\2100o\3679\347\233\375J\305\024\030"
 174      67308830 
 174      6FF739E7 
 174      9BFD4AC5 
 174      1418
 175 0294 1852B66D 		.ascii	"\030R\266m\245O\3747\254Tj\323\364\217X\316\352G\330"
 175      A54FFC37 
 175      AC546AD3 
 175      F48F58CE 
 175      EA47D8
 176 02a7 09DA63E7 		.ascii	"\011\332c\347\027\204\354l\373ha\316\351B\273 ?'t\306"
 176      1784EC6C 
 176      FB6861CE 
 176      E942BB20 
 176      3F2774C6 
 177 02bb 3E985378 		.ascii	">\230Sx<t\362\224} 7/+\357\320\021;\224S\030\262O\344"
 177      3C74F294 
 177      7D20372F 
 177      2BEFD011 
 177      3B945318 
 178 02d2 65D9D9B9 		.ascii	"e\331\331\271\307\324|w6!O\004\374\364\013\307\205W"
 178      C7D47C77 
 178      36214F04 
 178      FCF40BC7 
 178      8557
ARM GAS  /tmp/ccUpC65v.s 			page 14


 179 02e4 59       		.ascii	"Y"
 180              		.text
 181              		.section	.gnu.lto_print_fat_line.a541ece7b3318314,"",%progbits
 182 0000 789C8D93 		.ascii	"x\234\215\223MH\025Q\024\307\317\177\356\314\373\322"
 182      4D481551 
 182      14C7CF7F 
 182      EECCFBD2 
 183 0010 F7CC6811 		.ascii	"\367\314h\021\361\026\272p\341\246\331\005\021\265\251"
 183      F116BA70 
 183      E1A6D905 
 183      11B5A9
 184 001f 7D44B40E 		.ascii	"}D\264\016\024A)-\362\255\332\274\353\32344\314$\365"
 184      1441292D 
 184      F2ADDABC 
 184      EBD33434 
 184      CC24F5
 185 0032 15EA1412 		.ascii	"\025\352\024\022\246\345WZ\371\314\364\371\001\206\237"
 185      A6E5575A 
 185      F9CCF4F9 
 185      01869F
 186 0041 25D5A64D 		.ascii	"%\325\246M\224\025\226EQ!-\322\316\275\243e\241\320"
 186      94159645 
 186      51212DD2 
 186      CEBDA365 
 186      A1D0
 187 0053 C0DCB9F7 		.ascii	"\300\334\271\367\334s\177g\316\377?c\221A;L\242\003"
 187      DC737F67 
 187      CEFF3F63 
 187      91413B4C 
 187      A203
 188 0065 4474846F 		.ascii	"Dt\204ox\010F\315,Q\211\317\200\351N\204;\031\361\231"
 188      780846CD 
 188      2C5189CF 
 188      80E94E84 
 188      3B19F199 
 189 0079 86A89E21 		.ascii	"\206\250\236!\222\001+\006\222\251\026\240\342\322\007"
 189      92012B06 
 189      92A916A0 
 189      E2D207
 190 0088 8A1AC2B4 		.ascii	"\212\032\302\264\0205LB\322\304\364\332\250\256\213"
 190      10354C42 
 190      D2C4F4DA 
 190      A8AE8B
 191 0097 A24160B4 		.ascii	"\242A`\264\342m\302\310n\225|%\033j\275M\362\261\024"
 191      E26DC2C8 
 191      6E957C25 
 191      1B6ABD4D 
 191      F2B114
 192 00aa 8E20BA22 		.ascii	"\216 \272\"t\016\241\025\331\304yO\312\272\033E5o\001"
 192      740EA115 
 192      D9C4794F 
 192      CABA1B45 
 192      356F01
 193 00bd 262FBFCC 		.ascii	"&/\277\314\\}\035RK\003\031\274\274156\024\022{\241"
 193      5C7D1D52 
 193      4B0319BC 
 193      BC313536 
ARM GAS  /tmp/ccUpC65v.s 			page 15


 193      14127BA1 
 194 00d1 329FCABE 		.ascii	"2\237\312\276Ud\265H\031\223\311\347\215;/\225\312G"
 194      5564B548 
 194      1993C9E7 
 194      8D3B2F95 
 194      CA47
 195 00e3 D2748440 		.ascii	"\322t\204@;\004S\321\2060n\"\254\351\234\376\252g\245"
 195      3B0453D1 
 195      86306E22 
 195      ACE99CFE 
 195      AA67A5
 196 00f6 2EE83171 		.ascii	".\3501q\013YnQ\334\206\007\374P\221\256y$\345\312j\205"
 196      0B596E51 
 196      DC8607FC 
 196      5091AE79 
 196      24E5CA6A 
 197 010b 4CCE8627 		.ascii	"L\316\206'\277\275K\017\202T\330$\207\233\342\301\362"
 197      BFBD4B0F 
 197      8254D824 
 197      879BE2C1 
 197      F2
 198 011c F0E0F1E9 		.ascii	"\360\340\361\351\240_\005\003*\230\302\203\227\250\222"
 198      A05F0503 
 198      2A98C283 
 198      97A892
 199 012b 69AC4695 		.ascii	"i\254F\2250\370!\336 v\255\267z\227\246s6W\356ZJ\374"
 199      30F821DE 
 199      2076ADB7 
 199      7A97A673 
 199      3657EE5A 
 200 0141 08AA1E04 		.ascii	"\010\252\036\004S;\364\033U\011A\254\243XD\254~q\246"
 200      533BF41B 
 200      550941AC 
 200      A35844AC 
 200      7E71A6
 201 0154 052ABB49 		.ascii	"\005*\273I\250\206\353\317\215\316yU\262O7\231H,\275"
 201      A886EBCF 
 201      8DCE7955 
 201      B24F3799 
 201      482CBD
 202 0167 F0467F4A 		.ascii	"\360F\177J\037\007Z\204\333\311\373\351g\343\001\007"
 202      1F075A84 
 202      DBC9FBE9 
 202      67E30107 
 203 0177 4DE0F740 		.ascii	"M\340\367@\027\242\350TLt\303\0011p\300\357\322\254"
 203      17A2E854 
 203      4C74C301 
 203      3170C0EF 
 203      D2AC
 204 0189 8D3453D3 		.ascii	"\2154S\323\226'&\317\247\362\311\022v!\303\021~.\211"
 204      962726CF 
 204      A7F2C912 
 204      7621C311 
 204      7E2E89
 205 019c 1E755849 		.ascii	"\036uXI\273\020\353\364\332\035\322\335\262p\207qqm"
 205      BB10EBF4 
 205      DA1DD2DD 
ARM GAS  /tmp/ccUpC65v.s 			page 16


 205      B2708771 
 205      716D
 206 01ae 0E7A616F 		.ascii	"\016zao\004{6\202\255\315\300\001\256\216\2765ps\274"
 206      047B3682 
 206      ADCDC001 
 206      AE8EBE35 
 206      7073BC
 207 01c1 FF6B88C1 		.ascii	"\377k\210\3015z+\005w5\030\012|\217\301\037p.Cq\211"
 207      357A2B05 
 207      7735180A 
 207      7C8FC11F 
 207      702E4371 
 208 01d6 C1E46A50 		.ascii	"\301\344jP\367\251\364:\024<\025\373q\037aG\004\271"
 208      F7A9F43A 
 208      143C15FB 
 208      711F6147 
 208      04B9
 209 01e8 7E697DF9 		.ascii	"~i}\371L\342\345\232T\276&\001\316\354\033\237(\367"
 209      4CE2E59A 
 209      54BE2601 
 209      CEEC1B9F 
 209      28F7
 210 01fa B9D202FD 		.ascii	"\271\322\002\375\\\220\325\317X\227\236\263\264\324"
 210      5C90D5CF 
 210      58979EB3 
 210      B4D4
 211 0208 26F137CA 		.ascii	"&\3617\312\276\030\344FA\013(\233\033\013\273$\205\031"
 211      BE18E446 
 211      410B289B 
 211      1B0BBB24 
 211      8519
 212 021a 591E5C4A 		.ascii	"Y\036\\Js1S\204\204\373\321|g$\273e\314\253r\2426\304"
 212      73315384 
 212      84FBD17C 
 212      6724BB65 
 212      CCAB72A2 
 213 0230 244B19AC 		.ascii	"$K\031\254=\233\315uO\373\377\307\243\201\337\036=\370"
 213      3D9BCD75 
 213      4FFBFFC7 
 213      A381DF1E 
 213      3DF8
 214 0242 C7A3C0A6 		.ascii	"\307\243\300\246\246\370\2674e\360\217)\017\3776%eS"
 214      A6F8B734 
 214      65F08F29 
 214      0FFF3625 
 214      6553
 215 0254 17025BB8 		.ascii	"\027\002[\270\020\302\220&\031\2124\254](_w!\205\334"
 215      10C29026 
 215      198A34AC 
 215      5D285F77 
 215      2185DC
 216 0267 B62E7F6E 		.ascii	"\266.\177n\217\3713\36792\316\007\322\024cj\262\271"
 216      8FF933F7 
 216      3932CE07 
 216      D214636A 
 216      B2B9
 217 0279 C4CF8DC6 		.ascii	"\304\317\215\3065c\033\222\310\324g0\202(o\017:\027"
ARM GAS  /tmp/ccUpC65v.s 			page 17


 217      35631B92 
 217      C8D46730 
 217      82286F0F 
 217      3A17
 218 028b DA024AC5 		.ascii	"\332\002J\305t\030\030U\266m\247\217\3747\014Wk\323"
 218      74181855 
 218      B66DA78F 
 218      FC370C57 
 218      6BD3
 219 029d F48F58C9 		.ascii	"\364\217X\311\352\307\330\011\332c\027\026E\354\\\373"
 219      EAC7D809 
 219      DA631716 
 219      45EC5CFB 
 220 02ad 5871DE99 		.ascii	"Xq\336\231b\273\2500/r\326>\224W|\"r\352\264}0\277 "
 220      62BBA830 
 220      2F72D63E 
 220      94577C22 
 220      72EAB47D 
 221 02c4 A7E0F051 		.ascii	"\247\340\360Q;\222W\034\261O\026\344\330\271\371\307"
 221      3B92571C 
 221      B14F16E4 
 221      D8B9F9C7 
 222 02d4 D57C772E 		.ascii	"\325|w.\241@\004\003\364\013yrV\177"
 222      A1400403 
 222      F40B7972 
 222      567F
 223              		.text
 224              		.section	.gnu.lto_test_printn.part.0.a541ece7b3318314,"",%progbits
 225 0000 789C6D93 		.ascii	"x\234m\223]H\024Q\024\307\317\177\356\354\207\253.\025"
 225      5D481451 
 225      14C7CF7F 
 225      EEEC87AB 
 225      2E15
 226 0012 113DF8E0 		.ascii	"\021=\370\340\213\210BM\020\204\021APPo>D\317\201\262"
 226      8B88424D 
 226      10841141 
 226      50506F3E 
 226      44CF81B2 
 227 0026 A19426ED 		.ascii	"\241\224&\355\366\322\213\2675?2(\321\\5\264\221\314"
 227      F6D28BB7 
 227      353F3228 
 227      D15C35B4 
 227      91CC
 228 0038 DCDAFCEA 		.ascii	"\334\332\374\352\303\\3]\226(++\022\242\007#\244R\320"
 228      C35C335D 
 228      96282B2B 
 228      12A20723 
 228      A452D0
 229 004b 0A8CA228 		.ascii	"\012\214\242(X\353\334;f\022\015\334\271\367\314\234"
 229      58EBDC3B 
 229      66120DDC 
 229      B9F7CC9C 
 230 005b FFEF9CFB 		.ascii	"\377\357\234\373\2773.2h\257 \332ED\233x\300E0\033\236"
 230      BF332E32 
 230      68AF20DA 
 230      45449B78 
 230      C045301B 
ARM GAS  /tmp/ccUpC65v.s 			page 18


 231 0070 F1C284A1 		.ascii	"\361\302\204\241g\003B\315'\275\002P\013\351\005U\232"
 231      670342CD 
 231      27BD0250 
 231      0BE90555 
 231      9A
 232 0081 864025CE 		.ascii	"\206@%\316\211\026\201d\355\\\334\310\353\221|%Z\276"
 232      89168164 
 232      ED5CDCC8 
 232      EB917C25 
 232      5ABE
 233 0093 F96A64F5 		.ascii	"\371jd\365F\233\201m<\324\205\036\344\021\247\27585"
 233      469B816D 
 233      3CD4851E 
 233      E411A7BD 
 233      3835
 234 00a5 D02ECE0A 		.ascii	"\320.\316\012\233)&\207\237\237^x\347W\241\201l\016"
 234      9B292687 
 234      9F9F5E78 
 234      E757A181 
 234      6C0E
 235 00b7 53F27CC4 		.ascii	"S\362|\304/\266Ce\376\230I]q\345tI\031\226\211\011L"
 235      2FB64365 
 235      FE98495D 
 235      71E57449 
 235      19968909 
 236 00cc 48D31602 		.ascii	"H\323\026\002\327 \230\210\253\310B\024Y\232\314\251"
 236      D7209888 
 236      ABC84214 
 236      599ACCA9 
 237 00dc 9389D3FD 		.ascii	"\223\211\323\375>\261C\313\226\246\346\027\377\310\346"
 237      3EB143CB 
 237      96A6E617 
 237      FFC8E6
 238 00eb 62EB1BAB 		.ascii	"b\353\033\253\244\226\232\270\376_\351\324\342dG\272"
 238      A4969AB8 
 238      FE5FE9D4 
 238      E26447BA 
 239 00fb D3CF1A0E 		.ascii	"\323\317\032\016\207\346\036=\3609\375Hp\034\373\232"
 239      87E61E3D 
 239      F039FD48 
 239      701CFB9A 
 240 010b 7A628A9D 		.ascii	"zb\212\235\232\034m\031m\36719\301;\274\277V^\226\206"
 240      9A1C6D19 
 240      6DF73139 
 240      C13BBCBF 
 240      565E9686 
 241 011f 2D5C1870 		.ascii	"-\\\030p\260\375\214\355\373\213};\270\324\234\3516"
 241      B0FD8CED 
 241      FB8B7D3B 
 241      B8D49CE9 
 241      36
 242 0130 31881CF4 		.ascii	"1\210\034\364\362\210!\307\261\0027\340\006\221PO\364"
 242      F28821C7 
 242      B10237E0 
 242      0691504F 
 242      F4
 243 0141 1BCEE89F 		.ascii	"\033\316\350\237\202\224K\277j\245\374\271u\235\007"
ARM GAS  /tmp/ccUpC65v.s 			page 19


 243      82944BBF 
 243      6AA5FCB9 
 243      759D07
 244 0150 640BB7C1 		.ascii	"d\013\267\3017\217\340\233\227\250\236u\312\3613\302"
 244      378FE09B 
 244      97A89E75 
 244      CAF133C2 
 245 0160 54B39845 		.ascii	"T\263\230EX\367\363\352\322X\223??\252\035_(l\353\364"
 245      58F7F3EA 
 245      D258933F 
 245      3FAA1D5F 
 245      286CEBF4 
 246 0174 B241B4EC 		.ascii	"\262A\264\354\366M\344sF[\262y:3\267[{\361&\266\241"
 246      F64DE473 
 246      465BB279 
 246      3A33B75B 
 246      7BF126B6 
 247 0189 A94AEE5B 		.ascii	"\251J\356[1\021+N(\031n!\227fa\220\356\213\325\244\352"
 247      31112B4E 
 247      28196E21 
 247      97666190 
 247      EE8BD5A4 
 248 019e 19BADE3C 		.ascii	"\031\272\336<\302\221\371\361n\250\326;\204r%R\235|"
 248      C291F9F1 
 248      6EA8D63B 
 248      84722552 
 248      9D7C
 249 01b0 EE512EA5 		.ascii	"\356Q.\245\351F\342\361\217\323\236\312\224\344\006"
 249      E946E2F1 
 249      8FD39ECA 
 249      94E406
 250 01bf D2BA8463 		.ascii	"\322\272\204c\300\302\344\313\373>\033\035\340\315`"
 250      C0C2E4CB 
 250      FB3E1B1D 
 250      E0CD60
 251 01ce 883F92DB 		.ascii	"\210?\222\333\312\034\334\201\015b\340H\232C3V\323\334"
 251      CA1CDC81 
 251      0D62E048 
 251      9A433356 
 251      D3DC
 252 01e0 9AF6FDE1 		.ascii	"\232\366\375\341\343\272\014G\351\343r\030VB~\336\375"
 252      E3BA0C47 
 252      E9E37218 
 252      56427EDE 
 252      FD
 253 01f1 3EDCE7B1 		.ascii	">\334\347\261z\325v\263\331\034\304\031\325\2527\214"
 253      7AD576B3 
 253      D91CC419 
 253      D5AA378C 
 254 0201 1158ABA1 		.ascii	"\021X\253\241b5\324\363/4\235\253\342\3562\364b\353"
 254      6235D4F3 
 254      2F349DAB 
 254      E2EE32F4 
 254      62EB
 255 0213 F0173F43 		.ascii	"\360\027?C\03344\003\243\032\012\005\275\307\320\017"
 255      1B343403 
 255      A31A0A05 
ARM GAS  /tmp/ccUpC65v.s 			page 20


 255      BDC7D00F 
 256 0223 A8CE564C 		.ascii	"\250\316VLb(9{\357\032\210\326\350\0178\023[0\206,["
 256      6228397B 
 256      EF1A88D6 
 256      E80F3813 
 256      5B30862C 
 257 0238 F8B55762 		.ascii	"\370\265Wb\331\253\344km\224:Wu\0023\211FW\301\220\254"
 257      D9ABE46B 
 257      6D943A57 
 257      75023389 
 257      4657C190 
 258 024d E3C2FC4B 		.ascii	"\343\302\374K\215\243\200>!\3349\036\321I\372\254\352"
 258      8DA3803E 
 258      21DC391E 
 258      D149FAAC 
 258      EA
 259 025e B91C4B0D 		.ascii	"\271\034K\015\242mVYy\310*\266\016\004\003\307\202V"
 259      A26D5659 
 259      79C82AB6 
 259      0E0403C7 
 259      8256
 260 0270 79592074 		.ascii	"yY t\302\332\023\010\036\016\035\255\260v\227\224\026"
 260      C2DA1308 
 260      1E0E1DAD 
 260      B0769794 
 260      16
 261 0281 9516EEB7 		.ascii	"\225\026\356\267B\201`\310:RZd\025\227\034T\353\315"
 261      428160C8 
 261      3A525A64 
 261      15971C54 
 261      EBCD
 262 0293 C5847254 		.ascii	"\305\204rT\210\242\343\207~\003\025\025\026\273"
 262      88A2E387 
 262      7E031515 
 262      16BB
 263              		.text
 264              		.section	.gnu.lto__test_fail.a541ece7b3318314,"",%progbits
 265 0000 789C6590 		.ascii	"x\234e\220MHTa\024\206\317{\317\235\037\006\324m\344"
 265      4D485461 
 265      1486CF7B 
 265      CF9D1F06 
 265      D46DE4
 266 0013 2C5A08E2 		.ascii	",Z\010\342\306/\020\002\301]A\313\026\342Zp\030t\320"
 266      C62F1002 
 266      C15D41CB 
 266      16E25A70 
 266      1874D0
 267 0026 31F1DE95 		.ascii	"1\361\336\225\233\271N\212\220\222\201\250(\312\015"
 267      9BB94E8A 
 267      909281A8 
 267      28CA0D
 268 0035 54FCD799 		.ascii	"T\374\327\231\322\305\264\032$\"h*\224\304\205\213\240"
 268      D2C5B41A 
 268      2422682A 
 268      94C4858B 
 268      A0
 269 0046 361AB608 		.ascii	"6\032\266\010\"\003I=\347R\202\343\342\343;\277\317"
ARM GAS  /tmp/ccUpC65v.s 			page 21


 269      2203493D 
 269      E75282E3 
 269      E2E33BBF 
 269      CF
 270 0057 79CF0991 		.ascii	"y\317\011\221E\373 j\"\242jy`\202\365\374#Q\177\324"
 270      45FB206A 
 270      22A26A79 
 270      6082F5FC 
 270      23517FD4 
 271 006b 02D4F0A2 		.ascii	"\002\324\360\242\240\214\205\014Fy\222\361\376\364\335"
 271      A08C850C 
 271      467992F1 
 271      FEF4DD
 272 007a 48AC6ED1 		.ascii	"H\254n\321\363\262^q\362u\344wv\360\226\317DS\322\326"
 272      F3B25E71 
 272      F275E477 
 272      76F096CF 
 272      4453D2D6 
 273 008e 10C7DDB8 		.ascii	"\020\307\335\270\"\026Q'\225\273\003\271\031~\306>\003"
 273      22165127 
 273      95BB03B9 
 273      197EC63E 
 273      03
 274 009f B6B83F3F 		.ascii	"\266\270??L\177\253T\327\302\035qK\271\302\201\315\215"
 274      4C7FAB54 
 274      D7C21D71 
 274      4BB9C281 
 274      CD8D
 275 00b1 20B1FFBC 		.ascii	" \261\377\274=\273\250\252]\010\230'c\354\325\370\314"
 275      3DBBA8AA 
 275      5D089827 
 275      63ECD5F8 
 275      CC
 276 00c2 58012B74 		.ascii	"X\001+t\031q,!N\022\"\254\242V\353\277\346\317\307+"
 276      19712C21 
 276      4E1222AC 
 276      A256EBBF 
 276      E6CFC72B 
 277 00d6 C2B60E95 		.ascii	"\302\266\016\225ik\010\213~\332\334C\321;\277\030\362"
 277      696B088B 
 277      7EDADC43 
 277      D13BBF18 
 277      F2
 278 00e7 8A9FE771 		.ascii	"\212\237\347q\3600l#(\247\247R\244k\014\263\245?\037"
 278      F0306C23 
 278      28A7A752 
 278      A46B0CB3 
 278      A53F1F
 279 00fa 23FBEBE8 		.ascii	"#\373\353\350\313\223J\355\023\326\304\340\316\247\210"
 279      CB934AED 
 279      13D6C4E0 
 279      CEA788
 280 0109 CAB20329 		.ascii	"\312\262\003)\205\302\311a$\363\327\213J`N\361\022\373"
 280      85C2C961 
 280      24F3D78B 
 280      4A604EF1 
 280      12FB
ARM GAS  /tmp/ccUpC65v.s 			page 22


 281 011b 5EDA7F13 		.ascii	"^\332\177\023\3631\013Y\024\033r\210u\321C\330\204\017"
 281      F3310B59 
 281      141B7288 
 281      75D143D8 
 281      840F
 282 012d C96E0F95 		.ascii	"\311n\017\225\3621\005\020\200\234dt\300\322\021\377"
 282      F2310510 
 282      809C6474 
 282      C0D211FF 
 283 013d E35F07E2 		.ascii	"\343_\007\342&0\177\005|)\300\377\204\351\345c.W\030"
 283      26307F05 
 283      7C29C0FF 
 283      84E9E563 
 283      2E5718
 284 0150 2A57189A 		.ascii	"*W\030\232\223\235\312\200\214-\001\276\012\200\333"
 284      939DCA80 
 284      8C2D01BE 
 284      0A80DB
 285 015f 029C659B 		.ascii	"\002\234e\233~ \373bu\364vp)\345\223^\005z\015i\277"
 285      7E20FB62 
 285      75F47670 
 285      29E5935E 
 285      057A0D69 
 286 0174 67D2DDAE 		.ascii	"g\322\335\256I\230\026'\331\353\230\356t\322\3553\017"
 286      49981627 
 286      D9EB98EE 
 286      74D2ED33 
 286      0F
 287 0185 924EA7FB 		.ascii	"\222N\247\373\270\307\334\357H\265\245\0365\0337\351"
 287      B8C7DCEF 
 287      48B5A51E 
 287      351B37E9 
 288 0195 B8A62BD5 		.ascii	"\270\246+\325f\022\035\255j\327'\210\323N\373%3\320"
 288      66121DAD 
 288      6AD72788 
 288      D34EFB25 
 288      33D0
 289 01a7 AEA9     		.ascii	"\256\251"
 290              		.text
 291              		.section	.gnu.lto__test_assert.a541ece7b3318314,"",%progbits
 292 0000 789C6D92 		.ascii	"x\234m\222MHTQ\024\307\357\377\235\367F\035t\332\272"
 292      4D485451 
 292      14C7EFFF 
 292      9DF7461D 
 292      74DABA
 293 0013 18C44532 		.ascii	"\030\304E2\270\351\005E\320\332\250e\213h\0358\0159"
 293      B8E90545 
 293      D0DAA865 
 293      8B681D38 
 293      0D39
 294 0025 9463346F 		.ascii	"\224c4o\325\306\3338\"Xd\033\023\245i\242\241\314\276"
 294      D5C6DB38 
 294      2258641B 
 294      13A569A2 
 294      A1CCBE
 295 0038 9CA9ACC6 		.ascii	"\234\251\254\306Z\014%\0264}bE\015\024\244\202J-\312"
 295      5A0C2516 
ARM GAS  /tmp/ccUpC65v.s 			page 23


 295      347D6245 
 295      0D14A482 
 295      4A2DCA
 296 004b EC8372EC 		.ascii	"\354\203r\354\2347f6u\341q\277\316\371\235\377\375\237"
 296      9C376636 
 296      75E171BF 
 296      CEF99DFF 
 296      FD9F
 297 005d 672943BD 		.ascii	"g)C\2750\224\332\252\224\332\310\037,\005\343\330#\245"
 297      3094DAAA 
 297      94DAC81F 
 297      2C05E3D8 
 297      23A5
 298 006f 0E551A06 		.ascii	"\016U\032\006M\330JW\233\267\353\224\366\022\314\322"
 298      4DD84A57 
 298      9BB7EB94 
 298      F612CCD2 
 299 007f B109C842 		.ascii	"\261\011\310BWB\265\033d\242\035=\324Gx\360\365\376"
 299      5742B51B 
 299      64A21D3D 
 299      D44778F0 
 299      F5FE
 300 0091 116FE3A0 		.ascii	"\021o\343\240\3261\235\353{]\361%\326Y\233$\245\372"
 300      D6319DEB 
 300      7B5DF125 
 300      D6599B24 
 300      A5FA
 301 00a3 4961831F 		.ascii	"Ia\203\037\353\375\302\036D#G\236\376\376\351U\015m"
 301      EBFDC21E 
 301      4423479E 
 301      FEFEE955 
 301      0D6D
 302 00b5 86E2F562 		.ascii	"\206\342\365b\346^\301\0238\343f\215\315\033\272\232"
 302      E65EC113 
 302      38E3668D 
 302      CD1BBA9A 
 303 00c5 73700EF4 		.ascii	"sp\016\364'M \030B\200\203\237\306\323'\350(%\0110y"
 303      274D2018 
 303      4280839F 
 303      C6D327E8 
 303      28250930 
 304 00da FBF1E1C0 		.ascii	"\373\361\341\300\244O\266\006\352y\233Og_\232\324\344"
 304      A44FB606 
 304      EA799B4F 
 304      675F9AD4 
 304      E4
 305 00eb 62BF8DFF 		.ascii	"b\277\215\377XZ\263\214\375\331Kzm\222\010\027K\330"
 305      585AB38C 
 305      FDD94B7A 
 305      6D920817 
 305      4BD8
 306 00fd 0BF0E33C 		.ascii	"\013\360\343<\004\314\233K\010H\374\273L\261\267\306"
 306      04CC9B4B 
 306      0848FCBB 
 306      4CB1B7C6 
 307 010d 638A5AAE 		.ascii	"c\212Z\256v\031\036\360<\374\0149]\\\352\322\271\251"
 307      76191EF0 
ARM GAS  /tmp/ccUpC65v.s 			page 24


 307      3CFC0C39 
 307      5D5CEAD2 
 307      B9A9
 308 011f B358D856 		.ascii	"\263X\330V\005\321\302\265Y\214\0057Sus\274\230q\230"
 308      05D1C2B5 
 308      598C0537 
 308      537573BC 
 308      987198
 309 0132 0C99690A 		.ascii	"\014\231i\012\361\302\335\342\311jA$Hl9\336y\347q\205"
 309      F1C2DDE2 
 309      C96A4124 
 309      486C39DE 
 309      79E77185 
 310 0146 88545018 		.ascii	"\210TP\030\206\330 \341\244&l\232\206\341\212}3_\327"
 310      86D820E1 
 310      A4266C9A 
 310      86E18A7D 
 310      335FD7
 311 0159 9072B5CE 		.ascii	"\220r\265\316\325\365\353\\\274\376?je \215\206\004"
 311      D5F5EB5C 
 311      BCFE3F6A 
 311      65208D86 
 311      04
 312 016a 596A16B1 		.ascii	"Yj\026\261\3173o;|+\302\343\232Gn<Y\013\011q\037\320"
 312      CF336F3B 
 312      7C2BC2E3 
 312      9A476E3C 
 312      590B0971 
 313 0180 4F58FD30 		.ascii	"OX\3750d\340a\300\025xVk2\335\230l\366}\241\242}QW\362"
 313      64E061C0 
 313      1578566B 
 313      32DD986C 
 313      F67DA1A2 
 314 0198 414A0CE0 		.ascii	"AJ\014\340\263\271\374\3631o\022\011\210\360k\334\343"
 314      B3B9FCF3 
 314      316F1209 
 314      88F06BDC 
 314      E3
 315 01a9 ABA20123 		.ascii	"\253\242\001#H\202oG\272\362\031o\351Q\300u\276q\025"
 315      48826F47 
 315      BAF2196F 
 315      E951C075 
 315      BE7115
 316 01bc CD74F896 		.ascii	"\315t\370\226\013\374M\304\277\304\033+\304\233L\374"
 316      0BFC4DC4 
 316      BFC41B2B 
 316      C49B4CFC 
 317 01cc 8D18189A 		.ascii	"\215\030\030\232\245r\211V\271D+\305^\227\001\011\243"
 317      A5728956 
 317      B9442BC5 
 317      5E970109 
 317      A3
 318 01dd 0CCCBAC0 		.ascii	"\014\314\272\300[\014\024\223\246\021;5\331\343w\233"
 318      5B0C1493 
 318      A6113B35 
 318      D9E3779B 
 319 01ed 29A6B8B6 		.ascii	")\246\270\266\233n\227>\260\357\011\221\245\026J\372"
ARM GAS  /tmp/ccUpC65v.s 			page 25


 319      9B6E973E 
 319      B0EF0991 
 319      A5164AFA 
 320 01fd F90FE2D6 		.ascii	"\371\017\342\326\030\243\305'\340\226B\202\270\306&"
 320      18A3C527 
 320      E0964282 
 320      B8C626
 321 020c BB35E2D8 		.ascii	"\2735\342\330A{g4t jGZC\316A{K(\272\327i\333o7\265\204"
 321      417B6734 
 321      74206A47 
 321      5A43CE41 
 321      7B4B28BA 
 322 0227 9BC3DB77 		.ascii	"\233\303\333w\330N(\352\330\373\302\315v\260e\227\254"
 322      D84E28EA 
 322      D8FBC2CD 
 322      76B06597 
 322      AC
 323 0238 D7055555 		.ascii	"\327\005UU\260-\262;\354\204\333\"\324\032\335\363\013"
 323      B02DB23B 
 323      EC84DB22 
 323      D41ADDF3 
 323      0B
 324 0249 83AB0268 		.ascii	"\203\253\002h"
 325              		.text
 326              		.section	.gnu.lto__test_assert_sequence.a541ece7b3318314,"",%progbits
 327 0000 789C8594 		.ascii	"x\234\205\224]l\024U\024\307\357\271w\276v\272\255\011"
 327      5D6C1455 
 327      14C7EFB9 
 327      77BE76BA 
 327      AD09
 328 0012 89099AB5 		.ascii	"\211\011\232\265\355\203\244\341\3051\321\230\370\350"
 328      ED83A4E1 
 328      C531D198 
 328      F8E8
 329 0020 478C6F3E 		.ascii	"G\214o>\030\237MX7\322h\261q\367\301\360\262\303n\241"
 329      189F4D58 
 329      37D268B1 
 329      71F7C1F0 
 329      B2C36EA1 
 330 0034 8445ABA6 		.ascii	"\204E\253\246\037iC\263\015\033l+B?\004q+\350\332\326"
 330      1F6943B3 
 330      0D1B6C2B 
 330      423F0471 
 330      2BE8DAD6 
 331 0048 B696EDE2 		.ascii	"\266\226\355\342B+\"\011\004T\244(U\202X\304\320z\316"
 331      422B2209 
 331      0454A428 
 331      558258C4 
 331      D07ACE
 332 005b 9DD9753B 		.ascii	"\235\331u;\214u\223\246w\356\234\363\277\377s\316o\256"
 332      8C7593A6 
 332      77EE9CF3 
 332      BFFF73CE 
 332      6FAE
 333 006d CA381BD5 		.ascii	"\3128\033\325\031{\2361\226\304?\250b\300\337-0\266"
 333      197B9E31 
 333      96C43FA8 
ARM GAS  /tmp/ccUpC65v.s 			page 26


 333      62C0DF2D 
 333      30B6
 334 007f C3E0A03A 		.ascii	"\303\340\240:\013\301\225q\301l\323,\3142f\007\025\010"
 334      0BC19571 
 334      C16CD32C 
 334      CC326607 
 334      1508
 335 0091 38FBA613 		.ascii	"8\373\246\023\360\224\312\205|cj\024\026\324\270~\274"
 335      F094CA85 
 335      7C636A14 
 335      16D4B87E 
 335      BC
 336 00a2 169F8C79 		.ascii	"\026\237\214y\013\237\364R\264QZ\004\000ha\033\300\342"
 336      0B9FF452 
 336      B4515A04 
 336      0068611B 
 336      C0E2
 337 00b4 5C28A6AA 		.ascii	"\\(\246\252\351\270\027\347*s~m\242K\300\311\345\231"
 337      E9B817E7 
 337      2A737E6D 
 337      A24BC0C9 
 337      E599
 338 00c6 BDE6E67E 		.ascii	"\275\346\346~\333N\330\271\256\333\372\237\211\235\033"
 338      DB4ED8B9 
 338      AEDBFA9F 
 338      899D1B
 339 00d5 D382B16E 		.ascii	"\323\202\261n\301\340\261\020<\032\"\253\375\260\031"
 339      C1E0B110 
 339      3C1A22AB 
 339      FDB019
 340 00e4 238B2DC3 		.ascii	"#\213-\303\373\304;\"-\000\024|\2741\327\363C\015=r"
 340      FBC43B22 
 340      2D00147C 
 340      BC31D7F3 
 340      430D3D72 
 341 00f8 A8C7C76B 		.ascii	"\250\307\307k\327\227\016h\342I`\270\376e\327D\256\272"
 341      D7970E68 
 341      E24960B8 
 341      FE65D744 
 341      AEBA
 342 010a E180D49C 		.ascii	"\341\200\324\234o\027\366\303i!\340C\020$:\010!\030"
 342      6F17F6C3 
 342      6921E043 
 342      10243A08 
 342      2118
 343 011c 8010C32D 		.ascii	"\200\020\303-\006\007\241\001\303\363\303\331\263\212"
 343      0607A101 
 343      C3F3C3D9 
 343      B38A
 344 012a 785AA6DE 		.ascii	"xZ\246\336\236\372{\365>7u\262K\246*\360\2217Uap\010"
 344      9EFA7BF5 
 344      3E3775B2 
 344      4BA62AF0 
 344      91375561 
 345 0140 1A28FECC 		.ascii	"\032(\376\314\317\235'\014\361\234\314\355\370m\252"
 345      CF9D270C 
 345      F19CCCED 
ARM GAS  /tmp/ccUpC65v.s 			page 27


 345      F86DAA
 346 014f 03366564 		.ascii	"\0036ed\356Rz\303{I{\306V\350\350\303k\363\351\207\341"
 346      EE527AC3 
 346      7B497BC6 
 346      56E8E8C3 
 346      6BF3E987 
 347 0164 9747563A 		.ascii	"\227GV:\2525\005\206`\023\225\213u\016\203\006\370\217"
 347      AA350586 
 347      6013958B 
 347      750E8306 
 347      F88F
 348 0176 76864E43 		.ascii	"v\206NC\316^Ym\265sW\352\356\036\231\333p?H\267\234"
 348      CE5E596D 
 348      B57357EA 
 348      EE1E99DB 
 348      703F48B7 
 349 018b D14B8116 		.ascii	"\321K\201\026\230\012\264\241S!\206\334\015\340R5eX"
 349      980AB4A1 
 349      532186DC 
 349      0DE05235 
 349      6558
 350 019d 152D8340 		.ascii	"\025-\203@&\253i\311\330\036<\340w\215\245\004\307\177"
 350      26AB69C9 
 350      D81E3CE0 
 350      778DA504 
 350      C77F
 351 01af E22748F4 		.ascii	"\342'H\364-\267= \017\304L4\323\271s\374\224N\335\324"
 351      2DB73D20 
 351      0FC44C34 
 351      D3B973FC 
 351      944EDDD4 
 352 01c3 6429D9EC 		.ascii	"d)\331\354\257\347\365\370]\333\300\215\214p\374^\313"
 352      AFE7F5F8 
 352      5DDBC08D 
 352      8C70FC5E 
 352      CB
 353 01d4 2F4C9A69 		.ascii	"/L\232i\350\205\264\320a\024\3420B\265\340\213\276;"
 353      E885B4D0 
 353      6114E230 
 353      42B5E08B 
 353      BE3B
 354 01e6 7F2D0431 		.ascii	"\177-\0041x\267m\367m'\205\217!Mu\034\2018f\246\260"
 354      78B76DF7 
 354      6D27858F 
 354      214D751C 
 354      813866A6 
 355 01fb D1488D58 		.ascii	"\321H\215X\204\344\276]o\027\233\351\320^a\364\342\334"
 355      84E4BE5D 
 355      6F179BE9 
 355      D05E61F4 
 355      E2DC
 356 020d 70BAE8A4 		.ascii	"p\272\350\244\276d\003w\331\"$\356\354\351\026NP\240"
 356      BE640377 
 356      D92224EE 
 356      ECE9164E 
 356      50A0
 357 021f D29890C6 		.ascii	"\322\230\220\306\226\247gw\007\321\304\016\333\266\353"
ARM GAS  /tmp/ccUpC65v.s 			page 28


 357      96A76777 
 357      07D1C40E 
 357      DBB6EB
 358 022e B1329239 		.ascii	"\2612\2229J>\340\023:T\036\222\325\235t\263\027Q\251"
 358      4A3EE013 
 358      3A541E92 
 358      D59D74B3 
 358      1751A9
 359 0241 3C033B83 		.ascii	"<\003;\203\273\316\031\203\252\023T\345+\012\256\350"
 359      BBCE1983 
 359      AA1354E5 
 359      2B0AAEE8 
 360 0251 3112FD11 		.ascii	"1\022\375\021Z\316OL\202\353\011S\344\004SH\301a\201"
 360      5ACE4F4C 
 360      82EB0953 
 360      E4045348 
 360      C16181
 361 0264 ADE4929B 		.ascii	"\255\344\222\233\0137k\335\321_I\007\273\355\\K\275"
 361      0B376BDD 
 361      D15F4907 
 361      BBED5C4B 
 361      BD
 362 0275 0F39F483 		.ascii	"\0179\364\203O\251\322 \271\370\343\352\305dM\231\204"
 362      4FA9D220 
 362      B9F8E3EA 
 362      C5644D99 
 362      84
 363 0286 163CDDCE 		.ascii	"\026<\335\316\025\006\036\004\012\2214t;E\273\2440\310"
 363      15061E04 
 363      0A913474 
 363      3B45BBA4 
 363      30C8
 364 0298 82860263 		.ascii	"\202\206\002c\240U6\306\360N\314\310`\232gb\014\216"
 364      A05536C6 
 364      F04ECCC8 
 364      609A6762 
 364      0C8E
 365 02aa E3C43E93 		.ascii	"\343\304>\223E\235\300\242\360\355\321\326\374\210I"
 365      459DC0A2 
 365      F0EDD1D6 
 365      FC8849
 366 02b9 02481C7C 		.ascii	"\002H\034|\216o\244\243\253\311\032\367\200\265\212"
 366      8E6FA4A3 
 366      ABC91AF7 
 366      80B58A
 367 02c8 FC5EC52F 		.ascii	"\374^\305/\312\2129T,I\364\014.\012\257\305\200\327"
 367      CA8A3954 
 367      2C49F40C 
 367      2E0AAFC5 
 367      80D7
 368 02da 62208354 		.ascii	"b \203Tx\004\025\030G\301/\245\340\004\012R\223\010"
 368      78041518 
 368      47C12FA5 
 368      E0040A52 
 368      9308
 369 02ec D4FEF687 		.ascii	"\324\376\366\207\344\364\250)\214H6Y\3374\203\024b\215"
 369      E4F4A829 
ARM GAS  /tmp/ccUpC65v.s 			page 29


 369      8C483659 
 369      DF348314 
 369      628D
 370 02fe D78B1C80 		.ascii	"\327\213\034\200C\017gr-\247L($:\007W]\222\364J7\246"
 370      430F6772 
 370      2DA74C28 
 370      243A0757 
 370      5D92F44A 
 371 0314 D78D99C1 		.ascii	"\327\215\231\301Yz\334\010\370\012\335LJ7S.\005\205"
 371      597ADC08 
 371      F80ADD4C 
 371      4A37532E 
 371      0585
 372 0326 89BC4B01 		.ascii	"\211\274K\001GI2s\013\320\246\312\031be\366\354?'n\001"
 372      47493273 
 372      0BD0A6CA 
 372      196265F6 
 372      EC3F276E 
 373 033b AF90A60F 		.ascii	"\257\220\246\017b\271\255\266\364\015\3014^~\243\004"
 373      62B9ADB6 
 373      F40DC134 
 373      5E7EA304 
 374 034b 3FC65E02 		.ascii	"?\306^\002$Hc\343BH\034\347\212!G\271z]\036g\312<>\376"
 374      244863E3 
 374      42481CE7 
 374      8A2147B9 
 374      7A5D1E67 
 375 0363 6F78B930 		.ascii	"ox\2710\025/\211\257]\314Rhp\010|\360\274\\\267.\235"
 375      152F89AF 
 375      5DCC5268 
 375      70087CF0 
 375      BC5CB72E 
 376 0378 B3EBD2B9 		.ascii	"\263\353\322\2714\260\021(\304\227\316\223\222\316\274"
 376      34B01128 
 376      C497CE93 
 376      92CEBC
 377 0387 0F3C3E38 		.ascii	"\017<>8\316\225\341)T\300\343\360\347'\341\303\337\251"
 377      CE95E129 
 377      54C0E3F0 
 377      E727E1C3 
 377      DFA9
 378 0399 B2C4375E 		.ascii	"\262\3047^\376\356Q\360\007\256X\006\356t\005p\307\332"
 378      FEEE51F0 
 378      07AE5806 
 378      EE740570 
 378      C7DA
 379 03ab E52C649D 		.ascii	"\345,d\235\262\223\006{\237\3131\265\036\032\211y:\262"
 379      B293067B 
 379      9FCB31B5 
 379      1E1A8979 
 379      3AB2
 380 03bd 32A0B9CD 		.ascii	"2\240\271\315\340k\232qF6c\336\353\303\037\265\2052"
 380      E06B9A71 
 380      463663DE 
 380      EBC31FB5 
 380      8532
 381 03cf 6ADF3ADF 		.ascii	"j\337:\337\346\377\336\277g\377\343\376=\270\267\216"
ARM GAS  /tmp/ccUpC65v.s 			page 30


 381      E6FFDEBF 
 381      67FFE3FE 
 381      3DB8B78E 
 382 03df 6EE0EFA8 		.ascii	"n\340\357\250!d\001\316\271\227p\200\356\375\353@\250"
 382      216401CE 
 382      B9977080 
 382      EEFDEB40 
 382      A8
 383 03f0 0A09AEA0 		.ascii	"\012\011\256\240\206)c\373\027e\347\364\261\314%\250"
 383      862963FB 
 383      1765E7F4 
 383      B1CC25A8 
 384 0400 6489214B 		.ascii	"d\211!K\337C\310\030\373\240\010\370\315\001\246\343"
 384      DF43C818 
 384      FBA008F8 
 384      CD01A6E3 
 385 0410 089EB09A 		.ascii	"\010\236\260\232\266\305\254\260\365R4\362f\324\332"
 385      B6C5ACB0 
 385      F55234F2 
 385      66D4DA
 386 041f D614896D 		.ascii	"\326\024\211m\267\236\215D_\213\275\321l=\263\265qK"
 386      B79E8D44 
 386      5F8BBDD1 
 386      6C3DB3B5 
 386      714B
 387 0431 E30B2F5A 		.ascii	"\343\013/Z\261H4f\275\336\270\305\012o}\231\326\217"
 387      B1483466 
 387      BDDEB8C5 
 387      0A6F7D99 
 387      D68F
 388 0443 84991179 		.ascii	"\204\231\021y\2539\022\216E^\021M\321Wy\270\371\037"
 388      AB39128E 
 388      455E114D 
 388      D15779B8 
 388      F91F
 389 0455 35B1976A 		.ascii	"5\261\227j"
 390              		.text
 391              		.section	.gnu.lto__test_assert_time_window.a541ece7b3318314,"",%progbits
 392 0000 789C9D55 		.ascii	"x\234\235UmL[e\024~\317}o?\250\200&\032\263\220\212"
 392      6D4C5B65 
 392      147ECF7D 
 392      6F3FA880 
 392      261AB390 
 393 0015 FD214112 		.ascii	"\375!A\022\263;\2351\233\177\214a?\234\0311q\3637\031"
 393      B33B9D31 
 393      9B7F8C61 
 393      3F9C1931 
 393      71F33719 
 394 0029 A59146DA 		.ascii	"\245\221F\332.\355u1\376\220K\001\347\006\221e\2562"
 394      2EED7531 
 394      FE904B01 
 394      E7069165 
 394      AE32
 395 003b 50ECB246 		.ascii	"P\354\262F\006u\335\306\224\015&\333*e\214Ia\014!f1"
 395      0675DDC6 
 395      940D26DB 
 395      2A658C49 
ARM GAS  /tmp/ccUpC65v.s 			page 31


 395      610C2166 
 396 0050 D12A6E19 		.ascii	"\321*n\031\373\360c\037ls\021<\347\355\207m\351\014"
 396      FBF0631F 
 396      6C73113C 
 396      E7ED876D 
 396      E90C
 397 0062 B13F6EDF 		.ascii	"\261?n\337\257\3479\317y\316\271\357\3251\211U\031\030"
 397      AFE739CF 
 397      79CEB9EF 
 397      D5318955 
 397      1918
 398 0074 FB04187B 		.ascii	"\373\004\030{\2361\006:\006\322\316\011\306\352\215"
 398      9E31063A 
 398      06D2CE09 
 398      C6EA8D
 399 0083 92C4A715 		.ascii	"\222\304\247\025\246\345\313\203\305L3q\220\343\313"
 399      A6E5CB83 
 399      C54C3371 
 399      90E3CB
 400 0092 32000D34 		.ascii	"2\000\0154#\260:\211\313P\007\255\274\215\303\330\235"
 400      23B03A89 
 400      CB5007AD 
 400      BC8DC3D8 
 400      9D
 401 00a3 D11653D9 		.ascii	"\321\026S\331~M\363j\341\266~\323\274\267i\205\2373"
 401      7E4DF36A 
 401      E1B67ED3 
 401      BCB76985 
 401      9F33
 402 00b5 D6CE19AC 		.ascii	"\326\316\031\2546\303*3q\357\2072<y\276\361\360\247"
 402      36C32A33 
 402      71EF8732 
 402      3C79BEF1 
 402      F0A7
 403 00c7 FC43EEE7 		.ascii	"\374C\356\347\0002N\377\034\357\230-\244\251\004\026"
 403      00324EFF 
 403      1CEF982D 
 403      A4A90416 
 404 00d7 9C46BCA1 		.ascii	"\234F\274\241\346B\276\026\030\216\207/\355\016\350"
 404      E642BE16 
 404      188E872F 
 404      ED0EE8
 405 00e6 4A3F179C 		.ascii	"J?\027\234Q\037\327\236\362s\016A\340D\332\003f\350"
 405      511FD79E 
 405      F2730E41 
 405      E044DA03 
 405      66E8
 406 00f8 0633C325 		.ascii	"\0063\303%\006_@)\036\277\276\2635\222\307_\022\320"
 406      065F4029 
 406      1EBFBEB3 
 406      3592C75F 
 406      12D0
 407 010a DBBB9B2E 		.ascii	"\333\273\233.>\234\200^)k\327\3022a\017\344\300\206"
 407      3E9C805E 
 407      296BD7C2 
 407      32610FE4 
 407      C086
ARM GAS  /tmp/ccUpC65v.s 			page 32


 408 011c 04367A78 		.ascii	"\0046zx\340{\231\227\013\354\335\221\373\213I\354|\317"
 408      E07B9997 
 408      0BECDD91 
 408      FB8B49EC 
 408      7CCF
 409 012e E3BE06ED 		.ascii	"\343\276\006\355\025?&z0\033,38\004\245\204\370\245"
 409      153F267A 
 409      301B2C33 
 409      3804A584 
 409      F8A5
 410 0140 77C157A0 		.ascii	"w\301W\240\227)[L\3630\350\321Mvh\012\302\332\302\342"
 410      97295B4C 
 410      F330E8D1 
 410      4D76680A 
 410      C2DAC2E2 
 411 0154 362D3CDC 		.ascii	"6-<\334\0053\257\026H@:1k\214(#\234\351\200\360z\034"
 411      0533AF16 
 411      48403A31 
 411      6B8C2823 
 411      9CE980F0 
 412 016a EA0CF430 		.ascii	"\352\014\3640\322\203\261\035HB\0167s\211\376\371\034"
 412      D283B11D 
 412      48420E37 
 412      7389FEF9 
 412      1C
 413 017b 0C1DBFD7 		.ascii	"\014\035\277\327\032\231\330\307S\221\0325\374\205?"
 413      1A99D8C7 
 413      53911A35 
 413      FC853F
 414 018a 9A348960 		.ascii	"\2324\211`\355\034X\326\326\325\340*\014\000\275\264"
 414      ED1C58D6 
 414      D6D5E02A 
 414      0C00BDB4 
 415 019a 29656FDE 		.ascii	")eo\336\037\260<\311\340\010\355\361\354\275\310\331"
 415      1FB03CC9 
 415      E008EDF1 
 415      ECBDC8D9 
 416 01aa 679E60F0 		.ascii	"g\236`\360%\355\311\351\231\301W\240\307\324\372@\337"
 416      25EDC9E9 
 416      99C157A0 
 416      C7D4FA40 
 416      DF
 417 01bb C98DB8FE 		.ascii	"\311\215\270\376q\323\3209\003UM/bO\204\356\374a\212"
 417      71D3D039 
 417      03554D2F 
 417      624F84EE 
 417      FC618A
 418 01ce 4F8986EA 		.ascii	"O\211\206\352\03288\177\306\350\207N\360s\003\034C\323"
 418      1A38387F 
 418      C6E8874E 
 418      F073031C 
 418      43D3
 419 01e0 8EA26974 		.ascii	"\216\242it68~\353\246A\011i\215\365Z\354TKQ\317.<a\204"
 419      36387EEB 
 419      A6410969 
 419      8DF55AEC 
 419      544B51CF 
ARM GAS  /tmp/ccUpC65v.s 			page 33


 420 01f8 7EF0C31E 		.ascii	"~\360\303\036\314\\\004\202\001P\330E\360\306\232\273"
 420      CC5C0482 
 420      0150D845 
 420      F0C69ABB 
 421 0208 4FEB2945 		.ascii	"O\353)E\204m\017\357\0306\361)I\304\363\007\217^\203"
 421      846D0FEF 
 421      1836F129 
 421      49C4F307 
 421      8F5E83
 422 021b 928028D1 		.ascii	"\222\200(\321\245\236|\254o\243\205\012|<\263F\364\203"
 422      A59E7CAC 
 422      6FA3850A 
 422      7C3CB346 
 422      F483
 423 022d AFA18411 		.ascii	"\257\241\204\021\331\336\200\257(\3015\024\355\357*"
 423      D9DE80AF 
 423      28C13514 
 423      EDEF2A
 424 023c CC010FE6 		.ascii	"\314\001\017\346\200\017BI'z\230I\260\317w\262+?\007"
 424      800F4249 
 424      277A9849 
 424      B0CF77B2 
 424      2B3F07
 425 024f C1811C04 		.ascii	"\301\201\034\004'\210\200#\201\224\255\374\367\340\323"
 425      27888023 
 425      8194ADFC 
 425      F7E0D3
 426 025e A186B116 		.ascii	"\241\206\261\026m\257\367\221\007\211?\031\027/\240"
 426      6DAFF791 
 426      07893F19 
 426      172FA0
 427 026d E9AA4761 		.ascii	"\351\252GaT\223\037$\371TR\262\200\245kM\301r\011\015"
 427      54931F24 
 427      F95452B2 
 427      80A56B4D 
 427      C172090D 
 428 0281 C785CE41 		.ascii	"\307\205\316A\303\236\367\027\373~\376`\366\241\254"
 428      C39EF717 
 428      FB7EFE60 
 428      F6A1AC
 429 0290 E6689B34 		.ascii	"\346h\2334\025Q:\344\211\2605\336}\272\245\335\267&"
 429      15513AE4 
 429      89B035DE 
 429      7DBAA5DD 
 429      B726
 430 02a2 C4898E94 		.ascii	"\304\211\216\224\210\024\340\033:\250\317\350\250!\321"
 430      8814E01B 
 430      3AA8CFE8 
 430      A821D1
 431 02b1 5111EA28 		.ascii	"Q\021\352(j*R\374o\350G\343\033\006\024\224p?v\3147"
 431      6A2A52FC 
 431      6FE847E3 
 431      1B061494 
 431      703F76CC 
 432 02c6 78751252 		.ascii	"xu\022R\226x-\"\321\3440\234\030\306\266w\353\304\033"
 432      96782D22 
 432      D1E4309C 
ARM GAS  /tmp/ccUpC65v.s 			page 34


 432      18C6B677 
 432      EBC41B
 433 02d9 982CBB45 		.ascii	"\230,\273E\314\0063f'\322gd\321\275\033\027\012\370"
 433      CC063366 
 433      27D26764 
 433      D1BD1B17 
 433      0AF8
 434 02eb AEF87B74 		.ascii	"\256\370{t\241=v#\255\266mZ\270\336B/\323p\334\262\344"
 434      A13D7623 
 434      ADB66D5A 
 434      B8DE422F 
 434      D370DCB2 
 435 0300 6D86DA4F 		.ascii	"m\206\332O/\355\254\273?\336,^\322\027K\356\016\201"
 435      2FEDACBB 
 435      3FDE2C5E 
 435      D2174BEE 
 435      0E81
 436 0312 1E21BB75 		.ascii	"\036!\273u\354Wh\234\210\374U\234e\341H\3601\240\023"
 436      EC57689C 
 436      88FC559C 
 436      65E148F0 
 436      31A013
 437 0325 2246DC66 		.ascii	"\"F\334fC\206{g\204{\243\011\367\014\202\262\031\253"
 437      43867B67 
 437      847BA309 
 437      F70C82B2 
 437      19AB
 438 0337 37ADF044 		.ascii	"7\255\360D\335\323\244\374\366\331\177K9\033\2272\007"
 438      DDD3A4FC 
 438      F6D97F4B 
 438      391B9732 
 438      07
 439 0348 DE5B977F 		.ascii	"\336[\227\177j(\314\326\342_\001tD\204k\347\306\014"
 439      6A28CCD6 
 439      E25F0174 
 439      44846BE7 
 439      C60C
 440 035a 1DDF0A1D 		.ascii	"\035\337\012\035c\"\371\324\245\220'\214\034\030\270"
 440      6322F9D4 
 440      A590278C 
 440      1C18B8
 441 0369 F683A1EE 		.ascii	"\366\203\241\356o\315\210\013\001\272\031q\355Jtf\330"
 441      6FCD880B 
 441      01BA1971 
 441      ED4A7466 
 441      D8
 442 037a 14BF1518 		.ascii	"\024\277\025\030\214\343\307#J\032`\002\337~\334\355"
 442      8CE3C723 
 442      4A1A6002 
 442      DF7EDCED 
 443 038a DB16ED15 		.ascii	"\333\026\355\025\327\010\003\200s\270#\024]n(L\004\310"
 443      D7080380 
 443      73B82314 
 443      5D6E284C 
 443      04C8
 444 039c 6484A58C 		.ascii	"d\204\245\214\223)\306\363\310\230\244\350\350\231\343"
 444      9329C6F3 
ARM GAS  /tmp/ccUpC65v.s 			page 35


 444      C898A4E8 
 444      E899E3
 445 03ab D9124DD9 		.ascii	"\331\022M\331\022M\001\354\263,B\031\276C\302)A8\215"
 445      124D01EC 
 445      B32C4219 
 445      BE43C229 
 445      41388D
 446 03be 846412D5 		.ascii	"\204d\022\325{\266\325L^\010S\204\357\262\270\251\323"
 446      7BB6D54C 
 446      5E085384 
 446      EFB2B8A9 
 446      D3
 447 03cf 5A21D51B 		.ascii	"Z!\325\033\361\206\033\241\331\365\304\254\023\2173"
 447      F1861BA1 
 447      D9F5C4AC 
 447      138F33
 448 03de 765B7CFD 		.ascii	"v[|\375Rz\030v\366\014\230\245\340{\244\232w,\304\000"
 448      527A1876 
 448      F60C98A5 
 448      E07BA49A 
 448      772CC400 
 449 03f2 BF0440BC 		.ascii	"\277\004@\274(\353\005\305\341T\025\253\362\206\307"
 449      28EB05C5 
 449      E15415AB 
 449      F286C7
 450 0401 E6F6284E 		.ascii	"\346\366(N\207M}WYg\363\274\245\272\266(\3455\366*\373"
 450      874D7D57 
 450      5967F3BC 
 450      A5BAB628 
 450      E535F62A 
 451 0416 6B1B15D5 		.ascii	"k\033\025\325\346Q\225Z{\225b\255\251\244\361J+\323"
 451      E651955A 
 451      7B9562AD 
 451      A9A4F14A 
 451      2BD3
 452 0428 79D4CD6E 		.ascii	"y\324\315n\225\333\234\325\334\341y\263b\031$.\217R"
 452      95DB9CD5 
 452      DCE179B3 
 452      6219242E 
 452      8F52
 453 043a B3B956D9 		.ascii	"\263\271V\331\342r\253\036e\343\246\212\325\317)\033"
 453      E272AB1E 
 453      65E3A68A 
 453      D5CF291B 
 454 044a 36AC5336 		.ascii	"6\254S6\255\257\330\372,\355Tz\324\312\332\332\352\225"
 454      ADAFD8FA 
 454      2CED547A 
 454      D4CADADA 
 454      EA95
 455 045c 356CEDF2 		.ascii	"5l\355\362\331\\\036|\270U\361\217\3105\313C\"\300\356"
 455      D95C1E7C 
 455      B855F18F 
 455      C835CB43 
 455      22C0EE
 456 046f B4D6BE5D 		.ascii	"\264\326\276]m\303\214\266\252\010\\\277<\240\325\345"
 456      6DC38CB6 
 456      AA085CBF 
ARM GAS  /tmp/ccUpC65v.s 			page 36


 456      3CA0D5E5 
 457 047f 70B89C89 		.ascii	"p\270\234\211\034^~\275\242\274\342\035d\260\272\334"
 457      1C5E7EBD 
 457      A2BCE21D 
 457      64B0BADC 
 458 048f B64AD5EE 		.ascii	"\266J\325\356\260\271\221I\246\301\213\377C\007\341"
 458      B0B99149 
 458      A6C18BFF 
 458      4307E1
 459 049e 109F6775 		.ascii	"\020\237gu9\253\355\252\335\345\374\007x\202\351\330"
 459      39ABEDAA 
 459      DDE5FC07 
 459      7882E9D8 
 460              		.text
 461              		.section	.gnu.lto_test_printn.a541ece7b3318314,"",%progbits
 462 0000 789C6D54 		.ascii	"x\234mT]l\024U\024>\337\334\371\337\355\322\037K\324"
 462      5D6C1455 
 462      143EDFDC 
 462      F9DFEDD2 
 462      1F4BD4
 463 0013 34A60F36 		.ascii	"4\246\0176\004H\030\236\010\304\220\230\350\273\017"
 463      0448189E 
 463      08C49098 
 463      E8BB0F
 464 0022 C66793D6 		.ascii	"\306g\223\326\032\032\245\022[_x\331ai\267P\214\"\310"
 464      1A1AA512 
 464      5B5F78D9 
 464      6169B750 
 464      8C22C8
 465 0035 969AAEDB 		.ascii	"\226\232\256\333XI\213\013\264\024\255m\205\262\375"
 465      58498B0B 
 465      B414AD6D 
 465      85B2FD
 466 0044 91821690 		.ascii	"\221\202\026\220&j\260h\374\2415KU*R\014$-\236{g\200"
 466      266AB068 
 466      FCA1354B 
 466      552A520C 
 466      242D9E7B 
 467 005a 529C64EE 		.ascii	"R\234d\356\334{\356w\276{\276s\316\035\2034\2325\210"
 467      DC7BEE77 
 467      BE7BBE73 
 467      CE1D8334 
 467      9A3588
 468 006d 9E25A2F7 		.ascii	"\236%\242\367\370E\204\240\355\275@\264\303\3264\275"
 468      F84584A0 
 468      EDBD40B4 
 468      C3D634BD 
 469 007d A5907C57 		.ascii	"\245\220|W\334\336L~T\300\224f\350p\325\327\010\326"
 469      DCDE4C7E 
 469      54C09466 
 469      E870D5D7 
 469      08D6
 470 008f C3B6A919 		.ascii	"\303\266\251\031o\217\023\343\254\006\213q\026\034\265"
 470      6F8F13E3 
 470      AC068B71 
 470      161CB5
 471 009e 6F07DF61 		.ascii	"o\007\337a\333\321\354`\337U\373. \355\276\015\212k"
ARM GAS  /tmp/ccUpC65v.s 			page 37


 471      DBD1EC60 
 471      DF55FB2E 
 471      20EDBE0D 
 471      8A6B
 472 00b0 42374CCB 		.ascii	"B7L\313v\\\304\205I\301\343\020r:\356\362\263B\255\337"
 472      765CC485 
 472      49C1E310 
 472      723AEEF2 
 472      B342ADDF 
 473 00c4 152D0223 		.ascii	"\025-\002#M3\003\332\352N\237\237\\\313-7\3517>\236"
 473      4D3303DA 
 473      EA4E9F9F 
 473      5CCB2D37 
 473      E9373E9E 
 474 00d8 1144AD22 		.ascii	"\021D\255\"\360A'V3\352RCO\233xGd\004\240\363\362\357"
 474      F0412756 
 474      33EA5243 
 474      4F9B7847 
 474      6404A0F3 
 475 00ee F31FFC16 		.ascii	"\363\037\374\026\223K\015\345\274\\\360\337O\305\304"
 475      934B0DE5 
 475      BC5CF0DF 
 475      4FC5C4
 476 00fd 2610CF5B 		.ascii	"&\020\317[G\016L\025\254:\344\373\011?we\277\360\237"
 476      470E4C15 
 476      AC3AE4FB 
 476      093F7765 
 476      BFF09F
 477 0110 CE08814F 		.ascii	"\316\010\201O \230\020\207Q\206.\224\021\233\010Y\254"
 477      20981087 
 477      51862E94 
 477      119B0859 
 477      AC
 478 0121 92F889DC 		.ascii	"\222\370\211\334\356nW<\243|\027'\363sFE\207\362\235"
 478      EE6E573C 
 478      A37C1727 
 478      F3734645 
 478      87F29D
 479 0134 C93EB66F 		.ascii	"\311>\266o\247\177\326\3273B\307\221\207\375\345\303"
 479      A77FD6D7 
 479      3342C791 
 479      87FDE5C3 
 480 0144 F0C9B989 		.ascii	"\360\311\271\211t$\010\252\220\227}3\347\316\270AP>"
 480      742408AA 
 480      90977D33 
 480      E7CEB841 
 480      503E
 481 0156 789DBDB9 		.ascii	"x\235\275\271\360\265.6+\346\256\226\223m.3\347X\345"
 481      F0B52E36 
 481      2BE6AE96 
 481      936D2E33 
 481      E758E5
 482 0169 5891FFB1 		.ascii	"X\221\377\261\257e\204\201\236\200\266\233i\217=\240"
 482      AF658481 
 482      9E80B69B 
 482      698F3DA0 
 483 0179 FDF5F8E2 		.ascii	"\375\365\370\342\201\002S\307qT\340(*\202T\240\027&"
ARM GAS  /tmp/ccUpC65v.s 			page 38


 483      810253C7 
 483      7154E028 
 483      2A8254A0 
 483      1726
 484 018b 88B47BD6 		.ascii	"\210\264{\326\356I\344\374\305\273M~\356\247\265C7\177"
 484      EE49E4FC 
 484      C5BB4D7E 
 484      EEA7B543 
 484      377F
 485 019d 2F7E124A 		.ascii	"/~\022J\221FrS\250\321\204\264\330j\356\250]W\315#j"
 485      91467253 
 485      A8D184B4 
 485      D86AEEA8 
 485      5D57CD23 
 486 01b2 8C7216CC 		.ascii	"\214r\026\314\002\036\254\230\034\012\025\240\210\247"
 486      021EAC98 
 486      1C0A15A0 
 486      88A7
 487 01c0 76310F4E 		.ascii	"v1\017N\011\017n\251B\256\224\373D\315\034\306u\233"
 487      090F6EA9 
 487      42AE94FB 
 487      44CD1CC6 
 487      759B
 488 01d2 F6088D3F 		.ascii	"\366\010\215?\342*\032~\030\275\225\215\312\270\322"
 488      E22A1A7E 
 488      18BD958D 
 488      CAB8D2
 489 01e1 C2E4B053 		.ascii	"\302\344\260S\215#\027-)_p('B9{8\323\015\226\240y8\214"
 489      8D23172D 
 489      295F7028 
 489      2742397B 
 489      38D30D96 
 490 01f9 D2F8EB32 		.ascii	"\322\370\3532\364\332\345_\326\306\027d\311\333;SOd"
 490      F4DAE55F 
 490      D6C61764 
 490      C9DB3B53 
 490      4F64
 491 020b 4444AA62 		.ascii	"DD\252b\215\237\"\256\335\000;\3514\0131\015M\2623\376"
 491      8D9F22AE 
 491      DD003BE9 
 491      340B310D 
 491      4DB233FE 
 492 021f FB8F86F6 		.ascii	"\373\217\206\366\307\326t\251\036\371\353\242\326\332"
 492      C7D674A9 
 492      1EF9EBA2 
 492      D6DA
 493 022d 6ECB0A86 		.ascii	"n\313\012\206\015\362\031\3260\265t\220h\231\300\201"
 493      0DF219D6 
 493      30B57490 
 493      6899C081 
 494 023d 813FA62C 		.ascii	"\201?\246,\346gT\264\225\243!\364!\316\"\012T@\006q"
 494      E66754B4 
 494      95A321F4 
 494      21CE220A 
 494      54400671 
 495 0251 CF8A3C76 		.ascii	"\317\212<v\266%O]~%\210?\222\346\242\255/\243i$\312"
 495      B6254F5D 
ARM GAS  /tmp/ccUpC65v.s 			page 39


 495      7E25883F 
 495      92E6A2AD 
 495      2FA36924 
 496 0266 55A65936 		.ascii	"U\246Y6[\211Q\375\311V#\000E\323B\226ua\356\233\205"
 496      5B8951FD 
 496      C9562300 
 496      45D34296 
 496      7561EE9B 
 497 027b A8D469C2 		.ascii	"\250\324i\302\305\347\2543\217\304\215\246\333!\250"
 497      C5E7AC33 
 497      8FC48DA6 
 497      DB21A8
 498 028a 8071D22D 		.ascii	"\200q\322-\225D`\210\261\215\275:z\272\222\252\201-"
 498      95446088 
 498      B18DBD3A 
 498      7ABA92AA 
 498      812D
 499 029c AC477FE0 		.ascii	"\254G\177\340\225:W\026\012\274\237;]u\313\277\343_"
 499      953A5716 
 499      0ABC9F3B 
 499      5D75CBBF 
 499      E35F
 500 02ae ED8A6690 		.ascii	"\355\212f\220\336!3\364\024\373\310\360\006dJ1\010\266"
 500      DE2133F4 
 500      14FBC8F0 
 500      06644A31 
 500      08B6
 501 02c0 8B983CA2 		.ascii	"\213\230<\242'\271\333\011\316(\344\310T(\367\343\347"
 501      27B9DB09 
 501      CE28E4C8 
 501      5428F7E3 
 501      E7
 502 02d1 5AB259E9 		.ascii	"Z\262Y\3515\211/\245L&\005\2524Rs\205\000q\035\247F"
 502      35892FA5 
 502      4C2605AA 
 502      34527385 
 502      00711DA7 
 503 02e6 BF3BB221 		.ascii	"\277;\262! \302\275\302\315\203Oq\0041\211q\247wX\237"
 503      20C2BDC2 
 503      CD834F71 
 503      04318971 
 503      A777589F 
 504 02fa 879616AE 		.ascii	"\207\226\026\256\\G\214^\223Y\255\260\2546\023\232\362"
 504      5C478C5E 
 504      9359ADB0 
 504      AC36139A 
 504      F2
 505 030b 183B4C6B 		.ascii	"\030;Lk\"\225??\035j/Z*-\206e\265\211u\210\240\341\257"
 505      22953F3F 
 505      1D6A2F5A 
 505      2A2D8665 
 505      B5897588 
 506 0322 4D7C3BE6 		.ascii	"M|;\346\262,p\363\341$\342\370BI=\305Re\232\006C\225"
 506      B22C70F3 
 506      E124E2F8 
 506      42493DC5 
 506      52659A06 
ARM GAS  /tmp/ccUpC65v.s 			page 40


 507 0338 C54BD9EC 		.ascii	"\305K\331\354G\022U\236\021+\370H\014Ig\336;t5q\314"
 507      4712559E 
 507      112BF848 
 507      0C4967DE 
 507      3B743571 
 508 034d F28EFAC1 		.ascii	"\362\216\372\301\226\203\323LwPu\015r\360\226\022\227"
 508      9683D34C 
 508      7750750D 
 508      72F09612 
 508      97
 509 035e 2C2576FE 		.ascii	",%v\376\217\230\023\\\214\341\220\370\303\203\375\377"
 509      8F98135C 
 509      8CE190F8 
 509      C383FDFF 
 510 036e C49878AF 		.ascii	"\304\230x\257\332*\302\210\"\206$\036U\304\334Ya\002"
 510      DA2AC288 
 510      2286241E 
 510      55C4DC59 
 510      6102
 511 0380 4AD342FE 		.ascii	"J\323B\376\343~<{8\033\376\275\324\337\017cX\336k\245"
 511      E37E3C7B 
 511      381BFEBD 
 511      D4DF0F63 
 511      58DE6BA5 
 512 0394 32A03BCD 		.ascii	"2\240;\315\241\337\312GC\340\036(\015{\340K\231\230"
 512      A1DFCA47 
 512      43E01E28 
 512      0D7BE04B 
 512      9998
 513 03a6 59342A77 		.ascii	"Y4*w.I\011\277E\354\224\021\305\252\342\316\262\212"
 513      2E4909BF 
 513      45EC9411 
 513      C5AAE2CE 
 513      B28A
 514 03b8 0B59E50B 		.ascii	"\013Y\345\013\2433A\225\037\276\177\333\037\334\276"
 514      A3334195 
 514      1FBE7FDB 
 514      1FDCBE
 515 03c7 3388A783 		.ascii	"3\210\247\203k5\017\221\026\266\305\264\245\366\340"
 515      6B350F91 
 515      16B6C5B4 
 515      A5F6E0
 516 03d6 894D4CE9 		.ascii	"\211ML\351\312;\237\307\310\025\025\240t\220\277\332"
 516      CA3B9FC7 
 516      C81515A0 
 516      7490BFDA 
 517 03e6 9F73FB8C 		.ascii	"\237s\373\214\215}\376..\234A\030\307F\372\023\211\366"
 517      8D7DFE2E 
 517      2E9C4118 
 517      C746FA13 
 517      89F6
 518 03f8 D3290552 		.ascii	"\323)\005R\267\263\231\363r\335\326\2106x[k\353\275"
 518      B7B399F3 
 518      72DDD688 
 518      36785B6B 
 518      EBBD
 519 040a 2AEFA5BA 		.ascii	"*\357\245\272\3527\353\274\332\255\325\365\333\275\347"
ARM GAS  /tmp/ccUpC65v.s 			page 41


 519      EA37EBBC 
 519      DAADD5F5 
 519      DBBDE7
 520 0419 ABEB5EAB 		.ascii	"\253\353^\253\177c\233\367\334\226\232\312\232\027^"
 520      7F639BF7 
 520      DC969ACA 
 520      9A175E
 521 0428 F4EAABEB 		.ascii	"\364\352\253\353\352\275\327k*\275\252-/\313\371\272"
 521      EABDD76B 
 521      2ABDAA2D 
 521      2FCBF9BA 
 522 0438 2A422DB6 		.ascii	"*B-\266\211\312\267^\375\017\376\350\351\005"
 522      89CAB75E 
 522      FD0FFEE8 
 522      E905
 523              		.text
 524              		.section	.gnu.lto_test_print.a541ece7b3318314,"",%progbits
 525 0000 789C6D93 		.ascii	"x\234m\223MHTQ\024\307\317\377\235\3675\243\343\272"
 525      4D485451 
 525      14C7CFFF 
 525      9DF735A3 
 525      E3BA
 526 0012 858B5904 		.ascii	"\205\213Y\004\342\246\327*h\321\252\240E\213\026\321"
 526      E2A6D72A 
 526      68D1AAA0 
 526      458B16D1 
 527 0022 3A701852 		.ascii	":p\030RJ\223fVm\346:\215\032c\224P\251\205\366\202\022"
 527      4A936656 
 527      6DE63A8D 
 527      1A639450 
 527      A985F682 
 528 0037 FB1A3FB2 		.ascii	"\373\032?\262\017\307\325\250\201\020V\026\264\010k"
 528      0FC7D5A8 
 528      81105616 
 528      B4086B
 529 0046 531A9846 		.ascii	"S\032\230F\204D d\235{\237\213Y\314\203w\337\275\347"
 529      84442064 
 529      9D7B9F8B 
 529      59CC8377 
 529      DFBDE7
 530 0059 9EF3FB9F 		.ascii	"\236\363\373\237\367\277\3579d\321\262Et\210\210\216"
 530      F7BFEF39 
 530      64D1B245 
 530      7488888E 
 531 0069 CA0D9760 		.ascii	"\312\015\227`\365\277!\352\362-\330\321\204\243\311"
 531      F5BF21EA 
 531      F22DD8D1 
 531      84A3C9
 532 0078 9C6F5B7C 		.ascii	"\234o[|y\221H\305\235\202G\252\336\001t\\\371\240\234"
 532      799148C5 
 532      9D8247AA 
 532      DE01745C 
 532      F9A09C
 533 008b C5B6839C 		.ascii	"\305\266\203\234eSt]\345A\306|\357\267\262\325<\246"
 533      6553745D 
 533      E541C67C 
 533      EFB7B2D5 
ARM GAS  /tmp/ccUpC65v.s 			page 42


 533      3CA6
 534 009d E4AA0C2E 		.ascii	"\344\252\014.\327\365\250\356=!\023\335\344(\007ch\226"
 534      D7F5A8EE 
 534      3D2113DD 
 534      E4280763 
 534      6896
 535 00af AC7785C9 		.ascii	"\254w\205\311a\276\302!\003\266,\177\275\276\365\265"
 535      61BEC221 
 535      03B62C7F 
 535      BDBEF5B5 
 536 00bf 412F2D24 		.ascii	"A/-$e9\327\365s\313\343\203 \231o__\230r\232F\225\312"
 536      6539D7F5 
 536      73CBE383 
 536      20996F5F 
 536      5F98729A 
 537 00d6 ABCAE635 		.ascii	"\253\312\3465V{Cf<\004\013\020\017\320\210\373h$\011"
 537      567B4366 
 537      3C040B10 
 537      0FD088FB 
 537      682409
 538 00e9 111EA149 		.ascii	"\021\036\241I\347\177\231\332\271\221p\355H\020\217"
 538      E77F99DA 
 538      B99170ED 
 538      48108F
 539 00f8 E1429E13 		.ascii	"\341B\236\023\357QQ;\377zU\345\323=|<V\007\223.\342"
 539      EF51513B 
 539      FF7A55E5 
 539      D33D7C3C 
 539      5607932E 
 540 010d 323A526E 		.ascii	"2:Rn\27328\236\014\256/\203\027\213pT\024\210\274u\221"
 540      BB32389E 
 540      0CAE2F83 
 540      178B7054 
 540      1488BC75 
 541 0122 2D79709F 		.ascii	"-yp\237\310\210\025\274\216\374\300\372\306(4}\204]"
 541      C88815BC 
 541      8EFCC0FA 
 541      C628347D 
 541      845D
 542 0134 111DE89E 		.ascii	"\021\035\350\236\177\353\351\376}\323s\271\274\271\342"
 542      7FEBE9FE 
 542      7DD373B9 
 542      BCB9E2
 543 0143 E5FE2A5F 		.ascii	"\345\376*_\002wu\037\022\373\276\364\341e<\304\010D"
 543      0277751F 
 543      12FBBEF4 
 543      E1653CC4 
 543      0844
 544 0155 08E3C8A1 		.ascii	"\010\343\310\241$\215\023&\020\202\0048\033\213h^5\315"
 544      248D1326 
 544      10820438 
 544      1B8B685E 
 544      35CD
 545 0167 31B43F8B 		.ascii	"1\264?\213\257.\325Ke\227X\232\0149&\222\230\324\305"
 545      AF2ED54B 
 545      6597589A 
 545      0C392692 
ARM GAS  /tmp/ccUpC65v.s 			page 43


 545      98D4C5
 546 017a B237BA9A 		.ascii	"\2627\272\232\037\367\202\222\212\266\\L\011n\310X\215"
 546      1FF78292 
 546      8AB65C4C 
 546      096EC858 
 546      8D
 547 018b 2708AAC1 		.ascii	"'\010\252\301~5\330\255\005\216\213:\246w\301\267\207"
 547      7E35D8AD 
 547      058E8B3A 
 547      A677C1B7 
 547      87
 548 019c 66B61A04 		.ascii	"f\266\032\004\334o\266\352\360\324\200\265\227xf\300"
 548      DC6FB6EA 
 548      F0D480B5 
 548      977866C0 
 549 01ac 17877B76 		.ascii	"\027\207{v\015\220\206\200\375\215\264\206|\322\030"
 549      0D908680 
 549      FD8DB486 
 549      7CD218
 550 01bb 2ED64994 		.ascii	".\326I\2246\320m\326$\342rK\246\023r\275\020\372\330"
 550      36D06DD6 
 550      24E2724B 
 550      A61372BD 
 550      10FAD8
 551 01ce 26F98678 		.ascii	"&\371\206x\015\026E\311\306\202\355b\351sk\204t\252"
 551      0D1645C9 
 551      C682ED62 
 551      E9736B84 
 551      74AA
 552 01e0 9BE55ACD 		.ascii	"\233\345Z\315&\264\350sc\341\013m\341*\012+\013K\250"
 552      26B4E873 
 552      63E10B6D 
 552      E12A0A2B 
 552      0B4BA8
 553 01f3 519E90C3 		.ascii	"Q\236\220\303\236\321\211D\277\201\021\226\263\224\356"
 553      9ED18944 
 553      BF811196 
 553      B394EE
 554 0202 787BB659 		.ascii	"x{\266Y\032q\364\271\376@\376\316\364\240\2515\337h"
 554      1A71F4B9 
 554      FE40FECE 
 554      F4A0A935 
 554      DF68
 555 0214 51140B9E 		.ascii	"Q\024\013\236\374\037\007\202\366\216l\220\012Nf\322"
 555      FC1F0782 
 555      F68E6C90 
 555      0A4E66D2 
 556 0224 E7334147 		.ascii	"\3473AG{:{!8\222\316\234\311\236\353\014\016\267\266"
 556      7B3A7B21 
 556      3892CE9C 
 556      C99EEB0C 
 556      0EB7B6
 557 0237 B5B41D3F 		.ascii	"\265\264\035?\021d\323\231lp\266\255%H\265\236\322\363"
 557      1164D399 
 557      6C70B6AD 
 557      2548B59E 
 557      D2F3
ARM GAS  /tmp/ccUpC65v.s 			page 44


 558 0249 7D29B2DB 		.ascii	"})\262\3333\247;\377\003K\366\360\235"
 558      33A73BFF 
 558      034BF6F0 
 558      9D
 559              		.text
 560              		.section	.gnu.lto_test_println.a541ece7b3318314,"",%progbits
 561 0000 789C8D92 		.ascii	"x\234\215\222MH\025Q\024\307\317\177\356\314\233\367"
 561      4D481551 
 561      14C7CF7F 
 561      EECC9BF7 
 562 0010 E547B529 		.ascii	"\345G\265)p\241\220\210\233\246U\320&\210\202v\265\210"
 562      70A19088 
 562      9BA655D0 
 562      26888276 
 562      B588
 563 0022 D6812229 		.ascii	"\326\201\")\245I\357\255\332\274\361\365\374\300\244"
 563      A549EFAD 
 563      DABCF1F5 
 563      FCC0A4
 564 0031 04CD8FF0 		.ascii	"\004\315\217\3609\202\211i~\226\225\232\325\363\003"
 564      39828969 
 564      7E96959A 
 564      D5F303
 565 0040 04B322A1 		.ascii	"\004\263\"\241\225\264)\015L\243B$\220\322\316\275c"
 565      95B4290D 
 565      4CA34224 
 565      90D2CEBD 
 565      63
 566 0051 F2308506 		.ascii	"\3620\205\006\346\316\275g\356\371\235\377\375\237k"
 566      E6CEBD67 
 566      EEF99DFF 
 566      FD9F6B
 567 0060 9046953A 		.ascii	"\220F\225:\321I\":\303/<\004\255\366\015Q\231W\203\356"
 567      D149223A 
 567      C32F3C04 
 567      ADF60D51 
 567      995783EE 
 568 0074 4E843B19 		.ascii	"N\204;\031\367\352\232\250\231&\262\375F\314$;h\000"
 568      F7EA9AA8 
 568      9926B2FD 
 568      46CC243B 
 568      6800
 569 0086 326E7B41 		.ascii	"2n{A\021M\350\006\"\032\223\324s[4\012LT~\036\321r;"
 569      114DE806 
 569      221A93D4 
 569      735B340A 
 569      4C547E1E 
 570 009d 6D7E128D 		.ascii	"m~\022\215\353\201\012\273\374\240#\210\232\205\273"
 570      EB810ABB 
 570      FCA02388 
 570      9A85BB
 571 00ac 079DC8E5 		.ascii	"\007\235\310\345]\357b\003-\342\226p\004\240\363\362"
 571      5DEF6203 
 571      2DE29670 
 571      04A0F3F2 
 572 00bc C7EBBB9F 		.ascii	"\307\353\273\237R\345RC&/\307\313\276\255\232\3428\210"
 572      52E55243 
ARM GAS  /tmp/ccUpC65v.s 			page 45


 572      262FC7CB 
 572      BEAD9AE2 
 572      3888
 573 00ce E7EBF593 		.ascii	"\347\353\365\223\203FN\207mG\355\304\257:a\037v\204"
 573      83464E87 
 573      6D47EDC4 
 573      AF3A611F 
 573      7684
 574 00e0 40370403 		.ascii	"@7\004\003\321\205\014\334G\006q\210\360\0009r\377\307"
 574      D1850CDC 
 574      47067188 
 574      F0003972 
 574      FFC7
 575 00f2 C18D3B29 		.ascii	"\301\215;)\036\335-\210\036x\300\037\216O\256\3155j"
 575      1EDD2D88 
 575      1E78C01F 
 575      8E4FAECD 
 575      356A
 576 0104 D9ED8A33 		.ascii	"\331\355\2123t\250-\232\276\013G\011\354Ev\377\034\022"
 576      74A82D9A 
 576      BE0B4709 
 576      EC4576FF 
 576      1C12
 577 0116 F6C666A5 		.ascii	"\366\306f\245\235X\271\207\272\263i\032$]p\035]\347"
 577      9D58B987 
 577      BAB3691A 
 577      245D701D 
 577      5DE7
 578 0128 C13078F0 		.ascii	"\3010x\360\230r\351\225K\037\017\246_e\006\324\030\344"
 578      9872E995 
 578      4B1F0FA6 
 578      5F6506D4 
 578      18E4
 579 013a 8097A89A 		.ascii	"\200\227\250\232%\260g7\205\306\037\261\010M\375\214"
 579      25B06737 
 579      85C61FB1 
 579      084DFD8C 
 580 014a F3923828 		.ascii	"\363\2228(\210m\025K\2106,-w`[yL9\267\321\357\221{\325"
 580      886D154B 
 580      88362C2D 
 580      77605B79 
 580      4C39B7D1 
 581 0162 019A0592 		.ascii	"\001\232\005\222\017\206>n\027\241\037\236\27009\336"
 581      0F863E6E 
 581      17A11F9E 
 581      B83039DE 
 582 0172 503EF1D6 		.ascii	"P>\361\326\224\336\371\324\266\221\221\225y3\362\333"
 582      94DEF9D4 
 582      B6919195 
 582      7933F2DB 
 583 0182 F672A05D 		.ascii	"\366r\240]z\300\261/\263\357\247\374\016\342`\305\030"
 583      7AC0B12F 
 583      B3EFA7FC 
 583      0EE260C5 
 583      18
 584 0193 440403F2 		.ascii	"D\004\003\362\260x\010\007\304\002F\245\000\027\350"
 584      B0780807 
ARM GAS  /tmp/ccUpC65v.s 			page 46


 584      C40246A5 
 584      0017E8
 585 01a2 4D06EA0A 		.ascii	"M\006\352\012\370sz\246*\350&\373\271\"\036\311\\\216"
 585      F8737AA6 
 585      2AE826FB 
 585      B9221EC9 
 585      5C8E
 586 01b4 772C44FB 		.ascii	"w,D\373L\253W\312\315d\0230\304\264&.\250\364\3411,"
 586      4CAB57CA 
 586      CD641330 
 586      C4B4262E 
 586      A8F4E131 
 587 01c9 85F6B95C 		.ascii	"\205\366\271\\_2\327\330\311\015pa<\331\342\2666\015"
 587      5F32D7D8 
 587      C90D7061 
 587      3CD9E2B6 
 587      360D
 588 01db AFA632B7 		.ascii	"\257\2462\267Vq\203x\252\270\330\342\016+\356\215\226"
 588      56718378 
 588      AAB8D8E2 
 588      0E2BEE8D 
 588      96
 589 01ec 8A2DC19C 		.ascii	"\212-\301\234\352\307\321\014ZD4SF\\\207\003\264\214"
 589      EAC7D10C 
 589      5A443453 
 589      465C8703 
 589      B48C
 590 01fe 72B526AE 		.ascii	"r\265&\256\315\257\031\027AG\244(\343u\342\013\234\324"
 590      CDAF1917 
 590      4147A428 
 590      E375E20B 
 590      9CD4
 591 0210 0EBF14BA 		.ascii	"\016\277\024\272^\335\373\241\320E\006\223\265\212\235"
 591      5EDDFBA1 
 591      D0450693 
 591      B58A9D
 592 021f 5A5365C1 		.ascii	"ZSe\301\021\345\337\250\364o\001\261\371\311Y\354\222"
 592      11E5DFA8 
 592      F46F01B1 
 592      F9C959EC 
 592      92
 593 0230 9ACA9A9F 		.ascii	"\232\312\232\237\271\267j\015l\235\246\261\220\200X"
 593      B9B76A0D 
 593      6C9DA6B1 
 593      908058
 594 023f 1FCD6511 		.ascii	"\037\315e\021\206{%\242m\233\234\322\343\352&)\244\241"
 594      867B25A2 
 594      6D9B9CD2 
 594      E3EA2629 
 594      A4A1
 595 0251 ABCA9481 		.ascii	"\253\312\224\201\270\020\377\323\315\261\355n>\377\333"
 595      B810FFD3 
 595      CDB1ED6E 
 595      3EFFDB
 596 0260 4D9F9BAE 		.ascii	"M\237\233\256'\351.s\233\304\"\304\236\375{\261\325"
 596      27E92E73 
 596      9BC422C4 
ARM GAS  /tmp/ccUpC65v.s 			page 47


 596      9EFD7BB1 
 596      D5
 597 0271 3F46BDDC 		.ascii	"?F\275\334n\236\"\031\377\222\330v}\217\216\245!\241"
 597      6E9E2219 
 597      FF92D876 
 597      7D8F8EA5 
 597      21A1
 598 0283 48F29663 		.ascii	"H\362\226c\234I\313\250\310\224 >\275A\356\261\352\277"
 598      9C49CBA8 
 598      C894203E 
 598      BD41EEB1 
 598      EABF
 599 0295 77477D59 		.ascii	"wG}Y'\034\273\211\023\322%\343\325Lk\231\217\017\332"
 599      271CBB89 
 599      13D225E3 
 599      D54C6B99 
 599      8F0FDA
 600 02a8 A418FB30 		.ascii	"\244\030\3730\201,\225\203ID\370\367\230S\323\345\227"
 600      812C9583 
 600      4944F8F7 
 600      9853D3E5 
 600      97
 601 02b9 A6EE8786 		.ascii	"\246\356\207\206)d8\342\000}e\367:[\240\266\311\247"
 601      296438E2 
 601      007D65F7 
 601      3A5BA0B6 
 601      C9A7
 602 02cb 9A7B1533 		.ascii	"\232{\0253\271\3541\253\270$l\345[\027B\005\327BVIq"
 602      B9EC31AB 
 602      B8246CE5 
 602      5B174205 
 602      D7425649 
 603 02e0 41F8BA75 		.ascii	"A\370\272u\272 t9|\265\324:UX\224Wt\356\274\025.\010"
 603      BA207439 
 603      7CB5D43A 
 603      55589457 
 603      74EEBC15 
 604 02f6 85AD2B45 		.ascii	"\205\255+EyV~\341E9?\222Ozq\350R\251H\361\323\037\220"
 604      79567EE1 
 604      45393F92 
 604      4F7A71E8 
 604      52A948F1 
 605 030d BB725B   		.ascii	"\273r["
 606              		.text
 607              		.section	.gnu.lto_test_emit_token.a541ece7b3318314,"",%progbits
 608 0000 789C9553 		.ascii	"x\234\225SmlSe\024>\347}o?\326\326e\277\214?\026\323"
 608      6D6C5365 
 608      143EE77D 
 608      6F3FD6D6 
 608      65BF8C3F 
 609 0016 FD58360C 		.ascii	"\375X6\014\341B\\4$&\306\314\304\360cj\230\3763YX\275"
 609      E1425C34 
 609      2426C6CC 
 609      C4F0636A 
 609      98FE3359 
 610 002c B10D6BBB 		.ascii	"\261\015k\273\364\026\002\204\244\2272\030n\370\221"
 610      F4160284 
ARM GAS  /tmp/ccUpC65v.s 			page 48


 610      A4973218 
 610      6EF891
 611 003b 206C4C9A 		.ascii	" lL\232\213Ld\250ll\014e0F\335\370\330\027\233,#1\301"
 611      8B4C64A8 
 611      6C6C0C65 
 611      3046DDF8 
 611      D8179B2C 
 612 0052 44644C33 		.ascii	"DdL32\222\351L\324\0307\317y\313\352\354\022\2357\351"
 612      3292E94C 
 612      D41837CF 
 612      79CBEAEC 
 612      129D37E9 
 613 0066 FD78CF79 		.ascii	"\375x\317y\236\3679\317\373\324\001\002|\016\000\023"
 613      9EF739CF 
 613      FBD40102 
 613      7C0E0013 
 614 0076 01CA0000 		.ascii	"\001\312\000\000\035\200\342\3751\200=n!\344\244\016"
 614      1D80E2FD 
 614      31803D6E 
 614      21E4A40E 
 615 0086 9647EB7D 		.ascii	"\226G\353}\022,\237D-\263\254!\362\213\345FH\010\251"
 615      122C9F44 
 615      2DB3AC21 
 615      F28BE546 
 615      4808A9
 616 0099 6102DF93 		.ascii	"a\002\337\223M\022\373\353\177\350\021kNYt\245\233\272"
 616      4D12FBEB 
 616      7FE8116B 
 616      4E5974A5 
 616      9BBA
 617 00ab F3F75BFB 		.ascii	"\363\367[\373\236\260%\300Q\372\361\205\247p\015u\335"
 617      9EB025C0 
 617      51FAF185 
 617      A7700D75 
 617      DD
 618 00bc 3DD8D4EF 		.ascii	"=\330\324\357\220\033\021\350}\374\235\206\217D\311"
 618      901B11E8 
 618      7DFC9D86 
 618      8F44C9
 619 00cb 49CB4A5A 		.ascii	"I\313JZ\351o\347\205\345\263%b\033J\202\340\323\205"
 619      E96FE785 
 619      E5B32562 
 619      1B4A82E0 
 619      D385
 620 00dd B8BE1068 		.ascii	"\270\276\020h\001\3604\226p\367\275\316\205\303\217"
 620      01F03496 
 620      70F7BDCE 
 620      85C38F
 621 00ec 39B50C21 		.ascii	"9\265\014!~\212N\022\014\035\023\230\266\026\026\353"
 621      7E8A4E12 
 621      0C1D1398 
 621      B61616EB 
 622 00fc ADF4E4C7 		.ascii	"\255\364\344\307x\353e\217$\210\320\370\346D\005\204"
 622      78EB658F 
 622      2488D0F8 
 622      E6440584 
 623 010c 066A67B9 		.ascii	"\006jg\271\215R\360SN\243`\266[ug\217\311w\245-i,\372"
ARM GAS  /tmp/ccUpC65v.s 			page 49


 623      8D52F053 
 623      4EA360B6 
 623      5B75678F 
 623      C977A52D 
 624 0123 FCE966CB 		.ascii	"\374\351f\313T>\177j\350\247\317\223\303\023W\274\362"
 624      543E7F6A 
 624      E8A7CF93 
 624      C31357BC 
 624      F2
 625 0134 79A5F297 		.ascii	"y\245\362\227\346\316\266\274\342V\245r\261\271\264"
 625      E6CEB6BC 
 625      E256A572 
 625      B1B9B4
 626 0143 65EFC841 		.ascii	"e\357\310A\353x\262\300\226\016<\223\321\3729\026\342"
 626      EB78B2C0 
 626      960E3C93 
 626      D1FA3916 
 626      E2
 627 0154 67589819 		.ascii	"gX\230\031\263\035\213\011T?c]\326\230\317\201~\354"
 627      B31D8B09 
 627      543F635D 
 627      D698CF81 
 627      7EEC
 628 0166 A0DA034C 		.ascii	"\240\332\003L\336[\374\240\373;\314NR\247\234:t!_\015"
 628      DE5BFCA0 
 628      FB3BCC4E 
 628      52A79C3A 
 628      74215F0D 
 629 017a 735422E4 		.ascii	"sT\"\344\224\246z\237K\000\236\345\232\310\255\315\217"
 629      94A67A9F 
 629      4B009EE5 
 629      9AC8ADCD 
 629      8F
 630 018b AC7D03B0 		.ascii	"\254}\003\260\223k2\267\366Gs\351\207\222u\000vq\203"
 630      936B32B7 
 630      F64773E9 
 630      87927500 
 630      767183
 631 019e B6DC3D3C 		.ascii	"\266\334=<\207NR\331\315\366!|#\250t\302\356\372\315"
 631      874E52D9 
 631      CDF6217C 
 631      23A874C2 
 631      EEFACD
 632 01b1 5334236C 		.ascii	"S4#l\253\331oK'w\237\231\272d\2715A\215\347\261\010"
 632      ABD96F4B 
 632      27779F99 
 632      BA64B935 
 632      418DE7B1 
 633 01c6 78656E76 		.ascii	"xenv\362\216\240\025\374\00255\020\340\227\312\271\266"
 633      F28EA015 
 633      FC023535 
 633      10E097CA 
 633      B9B6
 634 01d8 BE81695F 		.ascii	"\276\201i_\321\354#\264\213{\177n\357\272\355U\350\013"
 634      D1EC23B4 
 634      8B7B7F6E 
 634      EFBAED55 
ARM GAS  /tmp/ccUpC65v.s 			page 50


 634      E80B
 635 01ea 8CC61ED4 		.ascii	"\214\306\036\324`\032\223~e\016\300\014&\217\374~\342"
 635      601A937E 
 635      650EC00C 
 635      268FFC7E 
 635      E2
 636 01fb C721C173 		.ascii	"\307!\301s\247$g\347\310\276\376q\027\333\345V.\364"
 636      A72467E7 
 636      C8BEFE71 
 636      17DBE556 
 636      2EF4
 637 020d F4CCDE71 		.ascii	"\364\314\336q%\376\264\334\264\320\312\307Mk\017Fo_"
 637      25FEB4DC 
 637      B4D0CAC7 
 637      4D6B0F46 
 637      6F5F
 638 021f F5D89842 		.ascii	"\365\330\230B:[\274D\241\273\250D\364\242\215p\037\353"
 638      3A5BBC44 
 638      A1BBA844 
 638      F4A28D70 
 638      1FEB
 639 0231 C606CAFE 		.ascii	"\306\006\312\376\246\233\230\033My\231.\017\013\226"
 639      A69B981B 
 639      4D79992E 
 639      0F0B96
 640 0240 B37B72D9 		.ascii	"\263{r\331=\255d{\016\273\027\257\020{\037\263S\341"
 640      3DAD647B 
 640      0EBB17AF 
 640      107B1FB3 
 640      53E1
 641 0252 F4277387 		.ascii	"\364's\207}\033:\330\330\343\027\005\0074M;\342\345"
 641      7D1B3AD8 
 641      D8E31705 
 641      07344D3B 
 641      E2E5
 642 0264 CC7153C3 		.ascii	"\314qS\303\375s\203\207|\304v\200\032\332\225\270\257"
 642      FD738387 
 642      7CC47680 
 642      1ADA95B8 
 642      AF
 643 0275 700309EB 		.ascii	"p\003\011\353\307\204\012D#\035\320\244.gp\357\261\375"
 643      C7840A44 
 643      231DD0A4 
 643      2E6770EF 
 643      B1FD
 644 0287 0FE77767 		.ascii	"\017\347wgDj\244\223\363\315V\344\361\322j\206\036\310"
 644      446AA493 
 644      F3CD56E4 
 644      F1D26A86 
 644      1EC8
 645 0299 0E7D9524 		.ascii	"\016}\225$\020\011\303[\206\236z\204\317N)\324\224\277"
 645      1009C35B 
 645      869E7A84 
 645      CF4E29D4 
 645      94BF
 646 02ab DE183EE0 		.ascii	"\336\030>\340\243\266=\254\374q\022\316[^S\360\353\012"
 646      A3B63DAC 
ARM GAS  /tmp/ccUpC65v.s 			page 51


 646      FC7112CE 
 646      5B5E53F0 
 646      EB0A
 647 02bd EE54E2B4 		.ascii	"\356T\342\264\345\177\212\234\250\247\376#\3527T\324"
 647      E57F8A9C 
 647      A8A7FE23 
 647      EA3754D4 
 648 02cd B3FB3A28 		.ascii	"\263\373:(Q\203\377\026\365\276\245\250;VF\275\364m"
 648      5183FF16 
 648      F5BEA5A8 
 648      3B5646BD 
 648      F46D
 649 02df 621FE2A2 		.ascii	"b\037\342\242\363\037q\035\346\270\256\010\177i\025"
 649      F31F711D 
 649      E6B8AE08 
 649      7F6915
 650 02ee E00837BB 		.ascii	"\340\0107\273V\206\277,%Y\031\340\350\312\360\337T\341"
 650      5686BF2C 
 650      255919E0 
 650      E8CAF0DF 
 650      54E1
 651 0300 1F5B16FE 		.ascii	"\037[\026\376\005\373\373>\357R\256\007\225=\343*\327"
 651      05FBFB3E 
 651      EF52AE07 
 651      953DE32A 
 651      D7
 652 0311 B921FE3A 		.ascii	"\271!\376:\033b&\207\207\230\274\333\330V\302\363(3"
 652      1B622687 
 652      8798BCDB 
 652      D856C2F3 
 652      2833
 653 0323 1A2848E4 		.ascii	"\032(H\344$\365?\243\207#q=\240\277n\0321S\217\204\215"
 653      24F53FA3 
 653      8723713D 
 653      A0BF6E1A 
 653      31538F84 
 654 0338 F82EFD45 		.ascii	"\370.\375E\303\334\032\217\326\352\345\301Pu\350\225"
 654      C3DC1A8F 
 654      D6EAE5C1 
 654      5075E895 
 655 0348 4A3D6E98 		.ascii	"J=n\230q\275&T\255\007\202U\374\276.\000\216xt\253\021"
 655      71BD2654 
 655      AD078255 
 655      FCBE2E00 
 655      8E7874AB 
 656 035d 71556F31 		.ascii	"qUo1\215Wc\241\227VA\0225\365@4\034\216F\364\332h,n"
 656      8D5763A1 
 656      97564112 
 656      35F54034 
 656      1C8E46F4 
 657 0375 EA2F6CAE 		.ascii	"\352/l\256(\257\330A\224\201h\314\250\332\376lx]\020"
 657      28AFD841 
 657      948168CC 
 657      A8DAFE6C 
 657      785D10
 658 0388 5EFB5F3C 		.ascii	"^\373_<\306\2168\263\350\345\025\225\233*\365r\242\321"
 658      C68E38B3 
ARM GAS  /tmp/ccUpC65v.s 			page 52


 658      E8E51595 
 658      9B2AF572 
 658      A2D1
 659 039a 37450235 		.ascii	"7E\0025\333\3364\364@\330\014\231Uo\005\002D\272qu\244"
 659      DBDE34F4 
 659      40D80C99 
 659      556F0502 
 659      44BA7175 
 660 03af C12D35F4 		.ascii	"\301-5\364\240[,\256\236\253G\022 \264\264o\320\334"
 660      A05B2CAE 
 660      9EAB4712 
 660      20B4B46F 
 660      D0DC
 661 03c1 6912B2A0 		.ascii	"i\022\262\240\242r\263\237\315\251\215\205\326\372\213"
 661      A272B39F 
 661      CDA98D85 
 661      D6FA8B
 662 03d0 D7838881 		.ascii	"\327\203\210\201+l\204\243\261\235\360\027!\035$\005"
 662      2B6C84A3 
 662      B19DF017 
 662      211D2405 
 663              		.text
 664              		.section	.gnu.lto_test_emit_token_i.a541ece7b3318314,"",%progbits
 665 0000 789C8D92 		.ascii	"x\234\215\222KhSA\024\206\317?so\032c\024W\342\"\270"
 665      4B685341 
 665      1486CF3F 
 665      736F1A63 
 665      1457E222 
 666 0015 2D75E158 		.ascii	"-u\341X,\202\0337\272\326\205\210K\241!\320P\233\212"
 666      2C821B37 
 666      BAD68588 
 666      4BA121D0 
 666      509B8A
 667 0028 B92B1132 		.ascii	"\271+\0212\215\366A\352\013\244\015\212!\225\252\261"
 667      8DF641EA 
 667      0BA40D8A 
 667      2195AAB1 
 668 0038 3E1A6B7D 		.ascii	">\032k}\020u\021\242\340\203\332B\251+7\"\241P\251P"
 668      107511A2 
 668      E083DA42 
 668      A92B3722 
 668      A150A950 
 669 004c 74918558 		.ascii	"t\221\205X=g\"U\272\362\302\334\031\316\234\377?\337"
 669      3D672255 
 669      BAF2C2DC 
 669      19CE9CFF 
 669      3FDF
 670 005e 39F7FAA4 		.ascii	"9\367\372\244\350\250\"\332GD\035\274\340\023\324\245"
 670      E8A822DA 
 670      47441DBC 
 670      E013D4A5 
 671 006e 59A2BEB0 		.ascii	"Y\242\276\260Rz\301\220\215x/\266\223\215jx\315\260"
 671      527AC190 
 671      8D782FB6 
 671      938D6A78 
 671      CDB0
 672 0080 07C8C186 		.ascii	"\007\310\301\206A\031\245=dpQ\3475j\203\213\025\325"
ARM GAS  /tmp/ccUpC65v.s 			page 53


 672      4119A53D 
 672      647051E7 
 672      356A838B 
 672      15D5
 673 0092 56B2FC54 		.ascii	"V\262\374T\363\3376\017\330\376mEMt\205\227<(\241\215"
 673      F3DF360F 
 673      D8FE6D45 
 673      4D748597 
 673      3C28A18D 
 674 00a6 B33E9DCB 		.ascii	"\263>\235\313\327|\275\027\304\347\271\363\271\353\252"
 674      D77CBD17 
 674      C4E7B9F3 
 674      B9EBAA
 675 00b5 F5A6B559 		.ascii	"\365\246\265Y[]\376\256l\264\250\201\333\320,\301\356"
 675      5B5DFEAE 
 675      6CB4A881 
 675      DBD02CC1 
 675      EE
 676 00c6 1876C588 		.ascii	"\030v\305\210\003\204\011\264J\366\347\251\325\221M"
 676      038409B4 
 676      4AF6E7A9 
 676      D5914D
 677 00d5 21AF6988 		.ascii	"!\257i\210;\010\201\367\362<\252v\365\327\240\255\326"
 677      3B0881F7 
 677      F23CAA76 
 677      F5D7A0AD 
 677      D6
 678 00e6 6FE0C7C1 		.ascii	"o\340\307\301\260f\211\362\344\025\202\023R\216\323"
 678      B06689F2 
 678      E4158213 
 678      528ED3
 679 00f5 0577582B 		.ascii	"\005wX+\331\365\022\262\243K\317K\021q(h\001\037\355"
 679      D9F512B2 
 679      A34BCF4B 
 679      11712868 
 679      011FED
 680 0108 AFCDB55C 		.ascii	"\257\315\265\\\320E\255\035U\245\262\374\261%\363\323"
 680      D045AD1D 
 680      55A5B2FC 
 680      B125F3D3 
 681 0118 8639302E 		.ascii	"\20690.\2658\366e\346\303\253H\021\005\2601\356q\307"
 681      B538F665 
 681      E6C3AB48 
 681      1105B031 
 681      EE71C7
 682 012b 77116388 		.ascii	"w\021c\210\373(\202\3528;\373\262\343\257\335\374\312"
 682      FB2882EA 
 682      383BFBB2 
 682      E3AFDDFC 
 682      CA
 683 013c 4C61A3D8 		.ascii	"La\243\330y\330\362\257\273\277\336\335\037\347\202"
 683      79D8F2AF 
 683      BBBFDEDD 
 683      1FE782
 684 014b EBDC4378 		.ascii	"\353\334Cx\300\356eq\347\213\211[+#\321\366\262\214"
 684      C0EE6571 
 684      E78B895B 
ARM GAS  /tmp/ccUpC65v.s 			page 54


 684      2B23D1F6 
 684      B28C
 685 015d 74EC9992 		.ascii	"t\354\231\222\351LqEL\312\265K\250O\277\271\034e\267"
 685      E94C7145 
 685      4CCAB54B 
 685      A84FBFB9 
 685      1C65B7
 686 0170 214E9874 		.ascii	"!N\230tp\017\321\316`\323\310\270\241\017kM\013\206"
 686      700FD1CE 
 686      60D3C8B8 
 686      A10F6B4D 
 686      0B86
 687 0182 7B3E736D 		.ascii	"{>sm\340}\343t\023\322cN\031\256Lb\203\204\376\247\351"
 687      E07DE374 
 687      13D2634E 
 687      19AE4C62 
 687      8384FEA7 
 688 0197 476B4D3F 		.ascii	"GkM?f\0046\021\371\325\267;\376\350\327\272T\256\313"
 688      66043611 
 688      F9D5B73B 
 688      FEE8D7BA 
 688      54AECB
 689 01aa C6EB7743 		.ascii	"\306\353wCQN\353\023\362\255\014.%\2378\371S'\01798"
 689      514EEB13 
 689      F2AD0C2E 
 689      259F38F9 
 689      53270F39 
 690 01bf CF7D91AF 		.ascii	"\317}\221\257\310\2165\012\020'\007\235\343\261p\234"
 690      C88E350A 
 690      1027079D 
 690      E3B1709C 
 691 01cf FFC93DA6 		.ascii	"\377\311=\246'\025\230\2709\222N\234L\233TO\"8e\016"
 691      271598B8 
 691      39924E9C 
 691      4C9B544F 
 691      2238650E 
 692 01e3 24D2DD41 		.ascii	"$\322\335A\357\011\263\277+\331\231<t\330\004\211t`"
 692      EF09B3BF 
 692      2BD9993C 
 692      74D80489 
 692      7460
 693 01f5 8E273B4D 		.ascii	"\216';M\274\353\230\234w\306\311\017z\273\023\251\337"
 693      BCEB989C 
 693      77C6C90F 
 693      7ABB13A9 
 693      DF
 694 0206 37DDD870 		.ascii	"7\335\330p"
 695              		.text
 696              		.section	.gnu.lto_test_execute.a541ece7b3318314,"",%progbits
 697 0000 789C959B 		.ascii	"x\234\225\233\011\\\024G\366\307\253\2728\006T\360\212"
 697      095C1447 
 697      F6C7ABBA 
 697      380654F0 
 697      8A
 698 0011 27E28C8A 		.ascii	"'\342\214\212\002\212\210\242\210\212wL\334\317\377"
 698      028A88A2 
 698      888A774C 
ARM GAS  /tmp/ccUpC65v.s 			page 55


 698      DCCFFF
 699 0020 9FCDC69C 		.ascii	"\237\315\306\234\233d\263JHd\343\025\301d\223\335,("
 699      9B64B34A 
 699      4864E315 
 699      C16493DD 
 699      2C28
 700 0032 78DF1A14 		.ascii	"x\337\032\024\324\021\024\021\225(\336x\021@\215\032"
 700      D4111411 
 700      9528DE78 
 700      11408D1A 
 701 0042 634C628C 		.ascii	"cLb\214\256w\274E<\242F\023\215\307\326{U\325\335\320"
 701      AE77BC45 
 701      3CA24613 
 701      8DC7D67B 
 701      55D5DDD0 
 702 0056 33087C3E 		.ascii	"3\010|>\323\335S\365\352W\257\253\276\257\252\272\246"
 702      D3DD53F5 
 702      EA57AFAB 
 702      BEAFAABA 
 702      A6
 703 0067 F1241AB1 		.ascii	"\361$\032\261\367$\344\012%\344\024#\204>K\2506\353"
 703      F724E40A 
 703      25E41423 
 703      843E4BA8 
 703      36EB
 704 0079 2021636D 		.ascii	" !cm\232\306~\331GH\262\257w\226'I\256\311\250'\244"
 704      9AC67ED9 
 704      4748B2AF 
 704      77962749 
 704      AEC9A827 
 705 008e 530F712E 		.ascii	"S\017q.\261yj\036\323\366B\276W\2527\317\367\2426Q\316"
 705      B1796A1E 
 705      D3F642BE 
 705      57AA37CF 
 705      F7A23651 
 706 00a3 5B5DD8A8 		.ascii	"[]\330\250\257\270\360\021\027%6_\315G\024\251\201E"
 706      AFB8F011 
 706      1725365F 
 706      CD4714A9 
 706      8145
 707 00b5 6AD05AC2 		.ascii	"j\320Z\302\240\246\270(\261\325\322j\012\003?4\360\243"
 707      A0A6B828 
 707      B1D5D26A 
 707      0A033F34 
 707      F0A3
 708 00c7 B58581BF 		.ascii	"\265\205\201\277\270(\261\325\326\374\205A\0354\250"
 708      B828B1D5 
 708      D6FC8541 
 708      1D34A8
 709 00d6 437B0883 		.ascii	"C{\010\203\272\264\276\270\250'.Jl\365\265z\302\362"
 709      BAB4BEB8 
 709      A8272E4A 
 709      6CF5B57A 
 709      C2F2
 710 00e8 19B47C86 		.ascii	"\031\264|\2066\024\006\015\304E\211\255\241\326@\030"
 710      3614060D 
 710      C44589AD 
ARM GAS  /tmp/ccUpC65v.s 			page 56


 710      A1D64018 
 711 00f8 34428346 		.ascii	"4B\203F\264\2110h,.JlM\264\306\302\240)\0324\245\335"
 711      B4893068 
 711      2C2E4A6C 
 711      4DB4C6C2 
 711      A0291A34 
 712 010e 8541000D 		.ascii	"\205A\000\015\024\027\315\304E\211-Pk&,\233\243es\352"
 712      1417CDC4 
 712      45892D50 
 712      6B262C9B 
 712      A36573EA 
 713 0122 10067671 		.ascii	"\020\006vqQbshva\320\002\015Z\320V\302\240\245\270("
 713      51627368 
 713      7661D002 
 713      0D5AD056 
 713      C2A0A5B8 
 714 0137 B1B5D25A 		.ascii	"\261\265\322Z\012\203 4\010\242m\204AkqQbk\243\265\026"
 714      0A832034 
 714      08A26D84 
 714      416B7151 
 714      626BA3B5 
 715 014c 06C16810 		.ascii	"\006\301h\020\254\205\354\210\342\337\242\0177\340\337"
 715      AC85EC88 
 715      E2DFA20F 
 715      37E0DF
 716 015b 42685BEC 		.ascii	"Bh[\354\233Pq.\261\265\325B\205u;\264nG\333\013\271"
 716      9B50712E 
 716      B1B5D542 
 716      85753BB4 
 716      6E47DB0B 
 717 0170 30715162 		.ascii	"0qQbk\257\205\011\203p4\010\247\021(\320A\234Kl\021"
 717      6BAF8509 
 717      83703408 
 717      A71128D0 
 717      419C4B6C 
 718 0185 5A0791DF 		.ascii	"Z\007\221\337\021\363;\322H\314\357$\316%\266H\255\223"
 718      11F33BD2 
 718      48CCEF24 
 718      CE25B648 
 718      AD93
 719 0197 C8EF8CF9 		.ascii	"\310\357\214\371\235i\224\250\240\213\270(\261Ei]\204"
 719      9D6994A8 
 719      A08BB828 
 719      B145695D 
 719      84
 720 01a8 415734E8 		.ascii	"AW4\350J\273\011\203hu\321M4g\237\356Z\2000\354\217"
 720      4ABB0983 
 720      6875D14D 
 720      34679FEE 
 720      5A8030EC 
 721 01bd 86BB89E8 		.ascii	"\206\273\211\350\322>=\264\272\"=\006\323ch/Q\256\247"
 721      D23E3DB4 
 721      BA223D06 
 721      D363682F 
 721      51AEA7
 722 01d0 B828B1F5 		.ascii	"\270(\261\365\322z\012\203\336hPL\264>;\002\371\327"
 722      D27A0A83 
ARM GAS  /tmp/ccUpC65v.s 			page 57


 722      DE68504C 
 722      B43E3B02 
 722      F9D7
 723 01e2 BE87C3F9 		.ascii	"\276\207\303\371\327\022B\373\211\002;\365\253]\204"
 723      D71242FB 
 723      89023BF5 
 723      AB5D84
 724 01f1 52B84AB6 		.ascii	"R\270J\266Q\222\2441\017O/o\233\217o\215\232\265\374"
 724      5192A431 
 724      0F4F2F6F 
 724      9B8F6F8D 
 724      9AB5FC
 725 0204 FC6BD7A9 		.ascii	"\374k\327\251[\257\3763\015\0326j\334\244i@\263\300"
 725      5BAFFE33 
 725      0D1A366A 
 725      DCA46940 
 725      B3C0
 726 0216 E676478B 		.ascii	"\346vG\213\226\255\202Z\267\011\016\011m\333.\254}x"
 726      96AD825A 
 726      B7090E09 
 726      6DDB2EAC 
 726      7D78
 727 0228 87888E9D 		.ascii	"\207\210\216\235\";w\211\352\032\335\255\373n\322#\246"
 727      223B7789 
 727      EA1ADDAD 
 727      FB6ED223 
 727      A6
 728 0239 67AF6252 		.ascii	"g\257bRBv\022.\231T\277\007\241\305\036\364\011\377"
 728      4276122E 
 728      9954BF07 
 728      A1C51EF4 
 728      09FF
 729 024b F326F0D7 		.ascii	"\363&\360\327\275\302wO\"\376j\313s-y\366\225\347&\362"
 729      BDC2774F 
 729      22FE6ACB 
 729      732D79F6 
 729      95E726F2 
 730 025f DC509EEB 		.ascii	"\334P\236\353\313s\033yn%\317\016y\016\224\347(y\216"
 730      CB731B79 
 730      6E25CF0E 
 730      790E94E7 
 730      28798E
 731 0272 94E70879 		.ascii	"\224\347\010yn/\317m\345\271\227<\317d\363\031\375!"
 731      6E2FCF6D 
 731      E5B9973C 
 731      CF64F319 
 731      FD21
 732 0284 75ED2236 		.ascii	"u\355\"6\203e2\036\312\374\353\255o\027\234\367\203"
 732      8365321E 
 732      CAFCEBAD 
 732      6F179CF7 
 732      83
 733 0295 AF94DAF9 		.ascii	"\257\224\332\371\327\013['\\\367\010\311M\346\177\305"
 733      D70B5B27 
 733      5CF708C9 
 733      4DE67FC5 
 734 02a5 F337FBCF 		.ascii	"\3637\373\317O\031\377|&\323H\006\267^A\003h.\015\340"
ARM GAS  /tmp/ccUpC65v.s 			page 58


 734      4F19FF7C 
 734      26D34806 
 734      B75E4103 
 734      682E0DE0 
 735 02b9 3A74250D 		.ascii	":t%\015\341\266[\257^\374\210ES\302/s\017~y\301\247"
 735      E1B65BAF 
 735      5EFC8845 
 735      53C22F73 
 735      0F7E79C1 
 736 02ce 4D4E72F2 		.ascii	"MNr\362\270\344\342\303i,\271U&ct\025e\346r<\211\320"
 736      B8E4E2C3 
 736      692CB955 
 736      26637415 
 736      65E6723C 
 737 02e4 3CDA869B 		.ascii	"<\332\206\233\257:=u\2077\353\215E\227\027\316\274M"
 737      AF3A3D75 
 737      8737EB8D 
 737      459717CE 
 737      BC4D
 738 02f6 65D16B8D 		.ascii	"e\321k\2152\222\213=2\231\007\375\242bY\017BW\3236P"
 738      32928B3D 
 738      329907FD 
 738      A262590F 
 738      4257D336 
 739 030b 60E6897B 		.ascii	"`\346\211{\307\374X\177,\374\260\360\322\241ZA\331\350"
 739      C7FC587F 
 739      2CFCB0F0 
 739      D2A15A41 
 739      D9E8
 740 031d EEA5C226 		.ascii	"\356\245\302&\263S\222\367%\363\362\236tM\371\362\360"
 740      B35392F7 
 740      25F3F29E 
 740      744DF9F2 
 740      F0
 741 032e C7CDBF3A 		.ascii	"\307\315\277:3}\254?\373\023\026]\224si\003\223Ew4\316"
 741      337DAC3F 
 741      FB13165D 
 741      94736903 
 741      93457734 
 742 0343 1A571B8A 		.ascii	"\032W\033\212\255uY\354\334\272\307i\265\274<\350:\032"
 742      AD7559EC 
 742      DCBAC769 
 742      B5BC3CE8 
 742      3A1A
 743 0355 44F36910 		.ascii	"D\363i\020\264\006o\204\365\324\213\017\232\365T*\267"
 743      B4066F84 
 743      F5D48B0F 
 743      9AF5542A 
 743      B7
 744 0366 2B197BF3 		.ascii	"+\031{\363\2167\3733\312\357\272{h\276\006\362\374\266"
 744      8E37FB33 
 744      CAEFBA7B 
 744      68BE06F2 
 744      FCB6
 745 0378 8EC7F0DB 		.ascii	"\216\307\360\333J\265g2/\272\301Z\001\335\210\205\315"
 745      4AB56732 
 745      2FBAC15A 
ARM GAS  /tmp/ccUpC65v.s 			page 59


 745      01DD8885 
 745      CD
 746 0389 05F651BC 		.ascii	"\005\366Q\274\015\327\346\233\252g\276\271z\346\005"
 746      0DD7E69B 
 746      AA67BEB9 
 746      7AE605
 747 0398 D533DF52 		.ascii	"\3253\337R=\363\255\3253\337V=\363\355\3253\337Q=\363"
 747      3DF3ADD5 
 747      33DF563D 
 747      F3EDD533 
 747      DF513DF3 
 748 03ac C2EA997F 		.ascii	"\302\352\231\177Y=\363\242\352\231\027\243\371\217\227"
 748      593DF3A2 
 748      EA9917A3 
 748      F98F97
 749 03bb E715DAD8 		.ascii	"\347\025\332\330\313\010\\\332\315=iT\026\275\227^W"
 749      CB085CDA 
 749      CD3D6954 
 749      16BD975E 
 749      57
 750 03cc 8582372D 		.ascii	"\205\2027-qQ|\247\245\266\323\205~\225B\272\253z\376"
 750      71517CA7 
 750      A5B6D385 
 750      7E9542BA 
 750      AB7AFE
 751 03df EDAE9EF9 		.ascii	"\355\256\236\371W4(\377\020-N~\374d\"\037@\032o+\362"
 751      573428FF 
 751      102D4E7E 
 751      FC64221F 
 751      401A6F2B 
 752 03f4 3D452981 		.ascii	"=E)\201\320\322\010\004\227\007\036}(\214\0375)\214"
 752      D0D20804 
 752      97071E7D 
 752      288C1F35 
 752      298C
 753 0406 04B5F898 		.ascii	"\004\265\370\230\340\345\007\207\206\374`k\304\017>"
 753      E0E50787 
 753      86FC606B 
 753      C40F3E
 754 0415 8DE1D004 		.ascii	"\215\341\320\004\2766\345\007\337f\374\340\031\310\017"
 754      BE36E507 
 754      DF66FCE0 
 754      19C80F
 755 0424 35EC90D6 		.ascii	"5\354\220\326\002[\255%\\\266\202\354 (\334\006\276"
 755      025BAD25 
 755      5CB682EC 
 755      2028DC06 
 755      BE
 756 0435 06638384 		.ascii	"\006c\203\204\300e(\344\264\345\207\232\355@,\014\016"
 756      C06528E4 
 756      B4E5879A 
 756      ED402C0C 
 756      0E
 757 0446 EDE16B38 		.ascii	"\355\341k8?\324\212\300\033\353\004\272\221\240\333"
 757      3FD48AC0 
 757      1BEB04BA 
 757      91A0DB
ARM GAS  /tmp/ccUpC65v.s 			page 60


 758 0455 058A4461 		.ascii	"\005\212Da\004w\205\313h(\335\015\314\273\303\241\007"
 758      047785CB 
 758      6828DD0D 
 758      CCBBC3A1 
 758      07
 759 0466 9489816A 		.ascii	"\224\211\201jzAno8\364\001\223\276\220\333\017\016\375"
 759      7A416E6F 
 759      38F40193 
 759      BE90DB0F 
 759      0EFD
 760 0478 C164003F 		.ascii	"\301d\000?\370=\007U\015\004\343\027\340\353_\340\360"
 760      F83D0755 
 760      0D04E317 
 760      E0EB5FE0 
 760      F0
 761 0489 123F6883 		.ascii	"\022?h\203`\344|\231\037\374_\341\207\332\257bu\257"
 761      60E47C99 
 761      1FFC5FE1 
 761      87DAAF62 
 761      75AF
 762 049b E1F1759E 		.ascii	"\341\361u\236P\347\015\310\377+\344\277\011\371o\341"
 762      50E70DC8 
 762      FF2BE4BF 
 762      09F96FE1 
 763 04ab 08F1361E 		.ascii	"\010\3616\036\377\006\371\357@\376\337!\1770\344\017"
 763      FF06F9EF 
 763      40FEDF21 
 763      7F30E40F 
 764 04bb C1212116 		.ascii	"\301!!\026\217\357B~\034\344\277\007\371\357C\376P\034"
 764      8FEF427E 
 764      1CE4BF07 
 764      F9EF43FE 
 764      501C
 765 04cd 03E2F1F8 		.ascii	"\003\342\361\370\017\310\377\000\362\207A\376p\310\037"
 765      0FC8FF00 
 765      F28741FE 
 765      70C81F
 766 04dc 81413F12 		.ascii	"\201A?\022\217\243 \377C\310\037\015\371\011\220\237"
 766      8FA320FF 
 766      43C81F0D 
 766      F909909F 
 767 04ec 88513E06 		.ascii	"\210Q>\006\217\037A\376\307\220\377O\310\377\004\362"
 767      8F1F41FE 
 767      C790FF4F 
 767      C8FF04F2 
 768 04fc 3FC5B0FE 		.ascii	"?\305\260\376\027\036\377\015\371\237A\376\177 ?\011"
 768      171EFF0D 
 768      F99F41FE 
 768      7F203F09 
 769 050c F2932906 		.ascii	"\362\223)\006\362Xq\032G\301$\005\216,\025\216\376\343"
 769      F258711A 
 769      47C12405 
 769      8E2C158E 
 769      FEE3
 770 051e E1587B02 		.ascii	"\341X{\002\305\370\235(N\223\320j2ZMA\253\251h5\215"
 770      C5F89D28 
 770      4E93D06A 
ARM GAS  /tmp/ccUpC65v.s 			page 61


 770      325A4D41 
 770      ABA96835 
 771 0533 62D84E17 		.ascii	"b\330N\027\247\031h5\023\255f\241\325l\264\232C1Z\347"
 771      A7196835 
 771      13AD66A1 
 771      D56CB49A 
 771      43315AE7 
 772 0547 8AD3E768 		.ascii	"\212\323\347h\225\206V\363\320j>Z\245S\014\322\014q"
 772      958656F3 
 772      D06A3E5A 
 772      A5530CD2 
 772      0C71
 773 0559 5A80560B 		.ascii	"Z\200V\013\321j\021Z9\321j1E\3122\305)\013\255\226\240"
 773      D16A115A 
 773      39D16A31 
 773      45CA32C5 
 773      290BAD96 
 774 056e D552B4CA 		.ascii	"\325R\264\312F\253e\024\211\313\021\247\345h\225\013"
 774      46AB6514 
 774      89CB11A7 
 774      E568950B 
 775 057e 47EF1568 		.ascii	"G\357\025h\273\022mW\241m\036\305\340\373B\234V\243"
 775      BB126D57 
 775      A16D1EC5 
 775      E0FB429C 
 775      56A3
 776 0590 ED1AB4CA 		.ascii	"\355\032\264\312G\253\265h\265\216\"\232\353\305i\003"
 776      47ABB568 
 776      B58E229A 
 776      EBC56903 
 777 05a0 5A6D44AB 		.ascii	"ZmD\253Mh\265\031\255\012(\206\332\026q\332\212V\204"
 777      4D68B519 
 777      AD0A2886 
 777      DA1671DA 
 777      8A5684
 778 05b3 4CE1D399 		.ascii	"L\341\323\231\017\231\312\247y\037VJ\307-(==\321\033"
 778      0F99CAA7 
 778      791F564A 
 778      C72D283D 
 778      3DD11B
 779 05c6 66371EC0 		.ascii	"f7\036\300\363\306\357\374\316\033V\007uq\214\331\272"
 779      F3C6EFFC 
 779      CE1B5607 
 779      75718CD9 
 779      BA
 780 05d7 F5DA09EF 		.ascii	"\365\332\011\357\244G\3116\236\220\315\304\344x\365"
 780      A447C936 
 780      9E90CDC4 
 780      E478F5
 781 05e6 C04FBB7D 		.ascii	"\300O\273}3\251\223\302\224\277\227&\321=\020\324t\037"
 781      33A993C2 
 781      94BF9726 
 781      D13D10D4 
 781      741F
 782 05f8 E569CC87 		.ascii	"\345i\314\207\224\321\324\254'\213\031\350UP\250\227"
 782      94D1D4AC 
 782      278B19E8 
ARM GAS  /tmp/ccUpC65v.s 			page 62


 782      5550A897 
 783 0608 C1F8FC49 		.ascii	"\301\370\374I\277\246I\220\261i\334\212=^\216\3272\223"
 783      BFA64990 
 783      B169DC8A 
 783      3D5E8ED7 
 783      3293
 784 061a D3F91054 		.ascii	"\323\371\020T\037R\3626\035M\003\323\364\344\344\254"
 784      1F52F236 
 784      1D4D03D3 
 784      F4E4E4AC 
 785 062a A55CFD19 		.ascii	"\245\\\375\031\272\237:P\207~C\2232Y\003\302\235\335"
 785      BA9F3A50 
 785      877E4393 
 785      325903C2 
 785      9DDD
 786 063c 567A65AF 		.ascii	"Vze\257\027$:Y-\263\277\036\350\357o{\367O\252\311\375"
 786      17243A59 
 786      2DB3BF1E 
 786      E8EF6F7B 
 786      F74FAAC9 
 787 0651 18CB2779 		.ascii	"\030\313'y.\333\320\311j\322\003\340\036\317[\234\276"
 787      2EDBD0C9 
 787      6AD203E0 
 787      1ECF5B9C 
 787      BE
 788 0662 E58E5FF8 		.ascii	"\345\216_\370\352\344Y\230\325\210~\313\035Ng8\032\035"
 788      EAE45998 
 788      D5887ECB 
 788      1D4E6738 
 788      1A1D
 789 0674 A4E1E402 		.ascii	"\244\341\344\002M=\261+\322\205r#\336x\337\311qk*_\322"
 789      4D3DB12B 
 789      D2857223 
 789      DE78DFC9 
 789      716B2A5F 
 790 0689 D818B94B 		.ascii	"\330\030\271K\243`\000\316\273\177\2039\336\020w\320"
 790      A36000CE 
 790      BB7F8339 
 790      DE1077D0 
 791 0699 18AA78BC 		.ascii	"\030\252x\274wOZ\015y\007\271\231\301\231\254\011\375"
 791      774F5A0D 
 791      7907B999 
 791      C199AC09 
 791      FD
 792 06aa 5EDDC20F 		.ascii	"^\335\302\0174I\003\001\017\362#\201V\237WZ\226C\365"
 792      34490301 
 792      0FF22381 
 792      569F575A 
 792      9643F5
 793 06bd B5462A2E 		.ascii	"\265F*.K\366\367\204 \307\225F\006\357\035c%B\350!\256"
 793      4BF6F784 
 793      20C79546 
 793      06EF1D63 
 793      2542E821 
 794 06d2 41E88FE0 		.ascii	"A\350\217\340\335\240\252t\314a\275c~\342\367\211-\267"
 794      DDA0AA74 
 794      CC61BD63 
ARM GAS  /tmp/ccUpC65v.s 			page 63


 794      7EE2F789 
 794      2DB7
 795 06e4 B2CC5308 		.ascii	"\262\314S\010\274l\276=V\256\341x\331\246\274\006zD"
 795      BC6CBE3D 
 795      56AEE178 
 795      D9A6BC06 
 795      7A44
 796 06f6 365ACE85 		.ascii	"6Z\316\205qk\274y\243\211\366\364\247G\261\321\250\360"
 796      716BBC79 
 796      A389F6F4 
 796      A747B1D1 
 796      A8F0
 797 0708 87FE97B7 		.ascii	"\207\376\227\267\033(\373\010\335W\314\272\376\025u"
 797      1B28FB08 
 797      DD57CCBA 
 797      FE1575
 798 0717 0378C5F4 		.ascii	"\003x\305\364\230\313\316hF\217\243\256&uO\240n\312"
 798      98CBCE68 
 798      468FA3AE 
 798      26754FA0 
 798      6ECA
 799 0729 A2095408 		.ascii	"\242\011T\010\277\346d\257\322\016\001\344\"\035g\207"
 799      BFE664AF 
 799      D20E01E4 
 799      221D6787 
 800 0739 1468259E 		.ascii	"\024h%\236\312Y\033\217\337\011\257\233\177\0069\331"
 800      CA591B8F 
 800      DF09AF9B 
 800      7F0639D9 
 801 0749 EB992C10 		.ascii	"\353\231,\020\373\311\223\234 \364\"\325\210\260}\025"
 801      FBC9939C 
 801      20F422D5 
 801      88B07D15 
 802 0759 FC7C3065 		.ascii	"\374|0e\365\251\241B\361u\263\253^\025]m\016\365\235"
 802      F5A9A142 
 802      F175B3AB 
 802      5E155D6D 
 802      0EF59D
 803 076c C4D63B05 		.ascii	"\304\326;\005\255\207l\034\240.\2126\347MqZ\300q\227"
 803      AD876C1C 
 803      A02E8A36 
 803      E74D715A 
 803      C07197
 804 077f BEEA6451 		.ascii	"\276\352dQ\214\373\361\232\307\203m!\334\007/\316\012"
 804      8CFBF19A 
 804      C7836D21 
 804      DC072FCE 
 804      0A
 805 0790 77392BA7 		.ascii	"w9+\2479\256\035\241kEG\\\365\026\234\371U@6\013\243"
 805      39AE1DA1 
 805      6B45475C 
 805      F5169CF9 
 805      5540360B 
 806 07a5 D61DB559 		.ascii	"\326\035\265Y\015\000\3063\006\266?\363f\342\341fw\037"
 806      0D00C633 
 806      06B63FF3 
 806      66E2E166 
ARM GAS  /tmp/ccUpC65v.s 			page 64


 806      771F
 807 07b7 6B6779AC 		.ascii	"kgy\254\361j v\240Q\274\011e\020\237\233\232\273/rN"
 807      F16A2076 
 807      A051BC09 
 807      65109F9B 
 807      9ABB2F72 
 808 07cc 84E782F1 		.ascii	"\204\347\202\361"
 809 07d0 8BE7D81C 		.ascii	"\213\347\330\034\357\010\270\355\220rf\325\245\331\236"
 809      EF08B8ED 
 809      907266D5 
 809      A5D99E
 810 07df 12EE55BC 		.ascii	"\022\356U\274\221\034\364\274b\373\202\010O\250\302"
 810      911CF4BC 
 810      62FB8208 
 810      4FA8C2
 811 07ee C6C714A8 		.ascii	"\306\307\024\250\242(\263\222!\340\242\250\343\350\243"
 811      A228B392 
 811      21E0A2A8 
 811      E3E8A3
 812 07fd 9BC73C1C 		.ascii	"\233\307<\034#E\035-\020\341\235G~\255i\032\002Z\322"
 812      23451D2D 
 812      10E19D47 
 812      7EAD691A 
 812      025AD2
 813 0810 4BAA8ECB 		.ascii	"K\252\216\313\242\016hO?lN\261p]\2654?\301\221($Z\201"
 813      A20E684F 
 813      3F6C4EB1 
 813      705DB534 
 813      3FC19128 
 814 0827 44E1E7A9 		.ascii	"D\341\347\251{lR\342|f`&\013\242W\224F)\257\027\234"
 814      7B6C52E2 
 814      7C666026 
 814      0BA25794 
 814      4629AF17 
 815 083c F421C7DC 		.ascii	"\364!\307\334\306\340\236\"\224v\031\204W1\010\313\240"
 815      C6E09E22 
 815      94761984 
 815      573108CB 
 815      A0
 816 084d EBE2AA12 		.ascii	"\353\342\252\022\204\327\364 \274\256\202\020j\024\012"
 816      84D7F420 
 816      BCAE8210 
 816      6A140A
 817 085c EF59C22E 		.ascii	"\357Y\302.\316m\330\335Pa\007\036\320\233z\330\241\320"
 817      CE6DD8DD 
 817      5061071E 
 817      D09B7AD8 
 817      A1D0
 818 086e FB96387B 		.ascii	"\373\2268{\317m\234\375\242\342\014\205n\031q\206J\361"
 818      CF6D9CFD 
 818      A2E20C85 
 818      6E197186 
 818      4AF1
 819 0880 4E36548F 		.ascii	"N6T\217\2632\321\306<U\304Y\031\306\331\373\374\023"
 819      B332D1C6 
 819      3C55C459 
 819      19C6D9FB 
ARM GAS  /tmp/ccUpC65v.s 			page 65


 819      FC13
 820 0892 E764FF50 		.ascii	"\347d\377Pq\346K\316\021\206q\206\266C\2158C\305\177"
 820      71E64BCE 
 820      11867186 
 820      B6438D38 
 820      43C57F
 821 08a5 58026BA8 		.ascii	"X\002k\250\014\254\333\346\300\022\266F$\015}JG\336"
 821      0CACDBE6 
 821      C012B646 
 821      240D7D4A 
 821      47DE
 822 08b7 A14936EE 		.ascii	"\241I6\356H\274\217\010\264\032\034:\000\343\274\200"
 822      48BC8F08 
 822      B41A1C3A 
 822      00E3BC80 
 823 08c7 0EFB0F27 		.ascii	"\016\373\017'\242\213\225\200\376\253\2000\355\213\345"
 823      A28B9580 
 823      FEAB8030 
 823      ED8BE5
 824 08d6 47FC1C93 		.ascii	"G\374\034\223\250@\2505$\035_=\365\222\277\211\3026"
 824      A840A835 
 824      241D5F3D 
 824      F592BF89 
 824      C236
 825 08e8 F4AEAAF8 		.ascii	"\364\256\252\370^E\012\305\323\326\355\313\273K=\035"
 825      5E450AC5 
 825      D3D6EDCB 
 825      BB4B3D1D 
 826 08f8 59D4C461 		.ascii	"Y\324\304a\301\332\243\207T\270\334\024\356\377\246"
 826      C1DAA387 
 826      54B8DC14 
 826      EEFFA6
 827 0907 547E971C 		.ascii	"T~\227\034\326\254\204\303\323E(\356\222\303\373\310"
 827      D6AC84C3 
 827      D34528EE 
 827      92C3FBC8 
 828 0917 E10368B4 		.ascii	"\341\003h\264w\252\302\341\037:\207\017\313q\210\012"
 828      77AAC2E1 
 828      1F3A870F 
 828      CB71880A 
 829 0927 7FB770F8 		.ascii	"\177\267p\370\216[\016\037)\016\301\003\372X\347\020"
 829      8E5B0E1F 
 829      290EC103 
 829      FA58E710 
 830 0937 85065B38 		.ascii	"\205\006[8\374\273[\016\237(\016Q(Y\3239D\245X'\033"
 830      FCBB5B0E 
 830      9F280E51 
 830      2859D339 
 830      44A55827 
 831 094c A273F840 		.ascii	"\242s\370@\2642O\025\034>@\016\007\363\317;N\366\256"
 831      B4324F15 
 831      1C3E400E 
 831      07F3CF3B 
 831      4EF6AE
 832 095f E2B096CE 		.ascii	"\342\260\226\316!\332\01618D\305w-\034\016\221\034\216"
 832      21DA0E31 
 832      3844C577 
ARM GAS  /tmp/ccUpC65v.s 			page 66


 832      2D1C0E91 
 832      1C8E
 833 0971 D54C1C0A 		.ascii	"\325L\034\012[\203\303!O\351\310qZR\015\356HlM\301\241"
 833      5B83C321 
 833      4FE9C871 
 833      5A520DEE 
 833      486C4DC1 
 834 0986 9FE4F0A6 		.ascii	"\237\344\360\246\344p\263\342\360V%\034\246h\310\341"
 834      E470B3E2 
 834      F056251C 
 834      A668C8E1 
 835 0996 A4E9F3B7 		.ascii	"\244\351\363\267\37396J\204\202!\351\376\262\303\273"
 835      FB39364A 
 835      848221E9 
 835      FEB2C3BB 
 836 09a6 FD4C1C86 		.ascii	"\375L\034\206\320TMV<^\253\300\241\330$\310\310O+\264"
 836      D0544D56 
 836      3C5EABC0 
 836      A1D824C8 
 836      C84F2BB4 
 837 09ba 39CE9A39 		.ascii	"9\316\2329\314-\274p\250\226\024y\"\334\237\240T&j\202"
 837      CC2DBC70 
 837      A8961479 
 837      22DC9FA0 
 837      54266A82 
 838 09ce 43FF4A38 		.ascii	"C\377J8|\\\204\342.9\234\244\001\207\2235\336hoT\205"
 838      7C5C84E2 
 838      2E399CA4 
 838      01879335 
 838      DE686F54 
 839 09e3 C3299AE2 		.ascii	"\303)\232\342p\252f\346\020\025\376j\341\360\015\267"
 839      70AA66E6 
 839      1015FE6A 
 839      E1F00DB7 
 840 09f3 1C4ED324 		.ascii	"\034N\323$\207\340\001\235\256)\016Q\350M\013\207\177"
 840      87E0019D 
 840      AE290E51 
 840      E84D0B87 
 840      7F
 841 0a04 75CBE10C 		.ascii	"u\313\341\014Mr\210B3\015\016Q\351m'{K\347\220\247@"
 841      4D728842 
 841      330D0E51 
 841      E96D277B 
 841      4BE790A7 
 842 0a19 43F054C1 		.ascii	"C\360T\301!\377\316\273\376M\376y\303\311\376\2468\254"
 842      21FFCEBB 
 842      FE4DFE79 
 842      C3C9FEA6 
 842      38AC
 843 0a2b AD7388B6 		.ascii	"\255s\210\266o\031\034\242\342\337,\034\276%9\234e\346"
 843      6F191CA2 
 843      E2DF2C1C 
 843      BE25399C 
 843      65E6
 844 0a3d 50D81A1C 		.ascii	"P\330\032\034\276\365\224\216\234\255%\371qG\336\366"
 844      BEF5948E 
 844      9CAD25F9 
ARM GAS  /tmp/ccUpC65v.s 			page 67


 844      7147DEF6 
 845 0a4d 171CD691 		.ascii	"\027\034\326\221\034>\221\034nR\034.i\345\236\3039\202"
 845      1C3E911C 
 845      6E521C2E 
 845      69E59EC3 
 845      3982
 846 0a5f C39445BB 		.ascii	"\303\224E\273\3561\307]\211P(\016e\263\036/f&\016\333"
 846      EE31C75D 
 846      8950280E 
 846      65B31E2F 
 846      66260EDB 
 847 0a73 D2B9AAE2 		.ascii	"\322\271\252\342\317\005\207\240]\260\254\222\031?M"
 847      CF0587A0 
 847      5DB0AC92 
 847      193F4D
 848 0a82 ABF2A27F 		.ascii	"\253\362\242\177\236\322\236\257\251E\377\257WfN\256"
 848      9ED29EAF 
 848      A945FFAF 
 848      57664EAE 
 849 0a92 51F109A5 		.ascii	"Q\361\011\245]\305'\224v\331PUy\346\374h\006g.]\203"
 849      5DC52794 
 849      76D95055 
 849      79E6FC68 
 849      06672E5D 
 850 0aa7 165EC05B 		.ascii	"\026^\300[\330,\340\307\371Y\250a\357f\235_\326\010"
 850      D82CE0C7 
 850      F959A861 
 850      EF669D5F 
 850      D608
 851 0ab9 5B0AF6F6 		.ascii	"[\012\366\366B\003\260'\353BP\224\321\224\254\233\313"
 851      4203B027 
 851      EB425094 
 851      D194AC9B 
 851      CB
 852 0aca 3C5DDC58 		.ascii	"<]\334XX\006\203\237O\026i\360\020\333^ \002\012b\013"
 852      5806839F 
 852      4F1669F0 
 852      10DB5E20 
 852      020A620B 
 853 0ade 6BE3DE33 		.ascii	"k\343\3363g\375\035\231\232)\020\247l\311\275\241\356"
 853      67FD1D99 
 853      9A2910A7 
 853      6CC9BDA1 
 853      EE
 854 0aef F4CEB260 		.ascii	"\364\316\262`\350?\247\272\325\3052\020\353\221Tow\201"
 854      E83FA7BA 
 854      D5C53210 
 854      EB91546F 
 854      7781
 855 0b01 786E2068 		.ascii	"xn h\273\214\303L\214\303,\200\346\343\252\304\341\022"
 855      BB8CC34C 
 855      8CC32C80 
 855      E6E3AAC4 
 855      E112
 856 0b13 3D0E976A 		.ascii	"=\016\227j\246\207\003\024\370\247%\014?v\033\206\331"
 856      A6870314 
 856      F8A7250C 
ARM GAS  /tmp/ccUpC65v.s 			page 68


 856      3F761B86 
 856      D9
 857 0b24 2A0CC101 		.ascii	"*\014\301\001\272L\017C\024\372\304\022\206\377t\033"
 857      BA4C0F43 
 857      14FAC412 
 857      86FF741B 
 858 0b34 86392A0C 		.ascii	"\2069*\014Qh\271\021\206\250\364/'\373T\017C\236\002"
 858      5168B911 
 858      86A8F42F 
 858      27FB540F 
 858      439E02
 859 0b47 EDC05345 		.ascii	"\355\300SE\030fa\030~\302?\037;\331\277U\030\326'\247"
 859      18666118 
 859      7EC23F1F 
 859      3BD9BF55 
 859      18D627A7 
 860 0b5b BC4518A2 		.ascii	"\274E\030\242\355\247F\030\242\342\277-a\370\251\014"
 860      EDA74618 
 860      A2E2BF2D 
 860      61F8A90C 
 861 0b6b C35C7318 		.ascii	"\303\\s\030\012[#\014?}J7\256\320\222\352rG\376UO\204"
 861      0A5B230C 
 861      3F7D4A37 
 861      AED092EA 
 861      7247FE55 
 862 0b81 E1334010 		.ascii	"\3413@\020\320u\253\225B\003\036\000R\346M85w+\025\217"
 862      D075AB95 
 862      42031E00 
 862      52E64D38 
 862      35772B15 
 863 0b96 00CD9C8C 		.ascii	"\000\315\234\214\322\266\001\340\337\355\211o\210\264"
 863      D2B601E0 
 863      DFED896F 
 863      88B4
 864 0ba4 409EEC6E 		.ascii	"@\236\354na\037\236\301\237 \011]\251\301\302\236\017"
 864      611F9EC1 
 864      9F20095D 
 864      A9C1C29E 
 864      0F
 865 0bb5 021D0CF2 		.ascii	"\002\035\014\362\304^\353\344Y?^\360ql\220\344E@\361"
 865      C45EEBE4 
 865      593F5EF0 
 865      716C90E4 
 865      4540F1
 866 0bc8 7547EE1F 		.ascii	"uG\356\037T\363\310\037\340rG\272J\271\234'\311kP\011"
 866      54F3C81F 
 866      E07247BA 
 866      4AB99C27 
 866      C96B5009 
 867 0bdc 79B70782 		.ascii	"y\267\007\202\266K\362\276@\362VC;}X\025\362\326\350"
 867      B64BF2BE 
 867      40F25643 
 867      3B7D5815 
 867      F2D6E8
 868 0bef E4E59BC9 		.ascii	"\344\345\233\311C\201\321\026\362>tK\336ZE\0368@\327"
 868      4381D116 
 868      F23E744B 
ARM GAS  /tmp/ccUpC65v.s 			page 69


 868      DE5A451E 
 868      3840D7
 869 0c02 E9E4A150 		.ascii	"\351\344\241P\202\205\274\321n\311[\257\310C\241\015"
 869      8285BCD1 
 869      6EC95BAF 
 869      C843A10D 
 870 0c12 0679A834 		.ascii	"\006y\2504\306\311\022u\362x\012\264\003O\025\344\255"
 870      C6C91275 
 870      F2780AB4 
 870      034F15E4 
 870      AD
 871 0c23 46F212F8 		.ascii	"F\362\022\370\347C'\373H\221\327P'\017m\023\015\362"
 871      E74327FB 
 871      4891D750 
 871      270F6D13 
 871      0DF2
 872 0c35 50F1230B 		.ascii	"P\361#\013y\211\222\274\215f\362\204\255A^\342S\272"
 872      798992BC 
 872      8D66F284 
 872      AD415EE2 
 872      53BA
 873 0c47 719396F4 		.ascii	"q\223\226\364\014wdL\003A^#E\336\375V\012\015\361\350"
 873      0C77644C 
 873      03415E23 
 873      45DEFD56 
 873      0A0DF1E8 
 874 0c5b 599A59EA 		.ascii	"Y\232Y\352+ \263Wk\273\244\023\335\214\015\205?\204"
 874      2B20B357 
 874      6BBBA413 
 874      DD8C0D85 
 874      3F84
 875 0c6d 14A8562A 		.ascii	"\024\250V*\225\317\261-\271\234\2235\026\267*\301ne"
 875      95CFB12D 
 875      B99C9335 
 875      16B72AC1 
 875      6E65
 876 0c7f 1E6A3BB9 		.ascii	"\036j;\271\332\235\211\344\005\351\026\034\232\267*"
 876      DA9D89E4 
 876      05E9161C 
 876      9AB72A
 877 0c8e 18BEF614 		.ascii	"\030\276\366\024\245\203\314\245#-\245\263\326k|\324"
 877      A583CCA5 
 877      232DA5B3 
 877      D66B7CD4 
 878 0c9e EDCC6BA1 		.ascii	"\355\314k\241\33347\017\312\333\321a\017\334\370\347"
 878      DB34370F 
 878      CADBD161 
 878      0FDCF8E7 
 879 0cae 0EEB61B2 		.ascii	"\016\353a\262\005\272%\010\373\252\261\202\2363X\201"
 879      05BA2508 
 879      FBAAB182 
 879      9E335881 
 880 0cbe F90703C1 		.ascii	"\371\007\003\301\320%\363\205\310\374\227\320C\037T"
 880      D025F385 
 880      C8FC97D0 
 880      431F54
 881 0ccd 85F9229D 		.ascii	"\205\371\"\235\371b3\363(0\314\302\374\007n\231/Q\314"
ARM GAS  /tmp/ccUpC65v.s 			page 70


 881      F96233F3 
 881      2830CCC2 
 881      FC076E99 
 881      2F51CC
 882 0ce0 830374A7 		.ascii	"\203\003t\247\316<\012\015\2670?\314-\363\273\024\363"
 882      CE3C0A0D 
 882      B7303FCC 
 882      2DF3BB14 
 882      F3
 883 0cf1 28B4DB60 		.ascii	"(\264\333`\036\225F:\331\010\235y\236\"\032l\244`\376"
 883      1E95463A 
 883      D9089D79 
 883      9E221A6C 
 883      A460FE
 884 0d04 4B647E38 		.ascii	"Kd~8\377|\340d\243\024\363Mt\346\321v\204\301<*\216"
 884      FF7CE064 
 884      A314F34D 
 884      74E6D176 
 884      84C13C2A 
 885 0d19 B2303F42 		.ascii	"\2620?B2\377\225\231yak0?\202wS#^\323\310\306\002\352"
 885      32FF9599 
 885      79616B30 
 885      3F827753 
 885      235ED3C8 
 886 0d30 A60AEA47 		.ascii	"\246\012\352G\255TG\312UM\220\373\205\307\036\261\360"
 886      AD5447CA 
 886      554D90FB 
 886      85C71EB1 
 886      F0
 887 0d41 D8B664C7 		.ascii	"\330\266d\307\016?G\201\034\025\273\240\355\255\205"
 887      0E3F4781 
 887      1C15BBA0 
 887      EDAD85
 888 0d50 39DEA6FD 		.ascii	"9\336\246\375\214(\272WE\323>cu\235\227\323\024+\313"
 888      8C28BA57 
 888      45D33E63 
 888      759D97D3 
 888      142BCB
 889 0d63 37160601 		.ascii	"7\026\006\001@\015,\0146\344x\273^\030x\3026g\305\205"
 889      400D2C0C 
 889      36E478BB 
 889      5E1878C2 
 889      3667C585 
 890 0d77 81F87DE8 		.ascii	"\201\370}\350\233-\213O\326pl\323L\033+\353W\317\031"
 890      9B2D8B4F 
 890      D6706CD3 
 890      4C1B2BEB 
 890      57CF19
 891 0d8a AB167605 		.ascii	"\253\026v\0059\241\260\263\262_y\362\215\034\236\233"
 891      39A1B0B3 
 891      B25F79F2 
 891      8D1C9E9B 
 892 0d9a 91697BDD 		.ascii	"\221i{\335.\321o\354\367\003u\227\260\036@X\277\205"
 892      2ED16FEC 
 892      F7037597 
 892      B01E4058 
 892      BF85
ARM GAS  /tmp/ccUpC65v.s 			page 71


 893 0dac A69D49AB 		.ascii	"\246\235I\253B\353A\235\326\357\312\255\321Qb\026\265"
 893      42EB419D 
 893      D6EFCAAD 
 893      D1516216 
 893      B5
 894 0dbd F03A93BA 		.ascii	"\360:\223\272\005\366{\005,8A\177\320\201E\251\331\324"
 894      05F67B05 
 894      2C38417F 
 894      D08145A9 
 894      D9D4
 895 0dcf 42EC2CEA 		.ascii	"B\354,\352\026\331C\012Y\224\372\321@\026\265\346R'"
 895      16D9430A 
 895      5994FAD1 
 895      4016B5E6 
 895      5227
 896 0de1 9B437568 		.ascii	"\233Cuhy\032\264\007\244\013j\277EjgS\002\356:\331\347"
 896      791AB407 
 896      A40B6ABF 
 896      456A6753 
 896      02EE3AD9 
 897 0df6 54811B48 		.ascii	"T\201\033Hf\035\224\313u,0\207\032\350\242\362\347\324"
 897      661D94CB 
 897      752C3087 
 897      1AE8A2F2 
 897      E7D4
 898 0e08 C22EAF48 		.ascii	"\302.\257H\300{\330\014\257\2646\350\235C\237\322\265"
 898      C07BD80C 
 898      AFB436E8 
 898      9D439FD2 
 898      B5
 899 0e19 3F694901 		.ascii	"?iI\001\004|l&\360n\016X\001r\005\002+\354R\344{\253"
 899      047C6C26 
 899      F06E0E58 
 899      01720502 
 899      2BEC52E4 
 900 0e2f 2BBEE542 		.ascii	"+\276\345B\340\210\213\205\200\370\341\362\321\015\347"
 900      E0888B85 
 900      80F8E1F2 
 900      D10DE7
 901 0e3e 740FC77E 		.ascii	"t\017\307~3\362\263\276\377z\225\232A\212\300\235(z"
 901      33F2B3BE 
 901      FF7A959A 
 901      418AC09D 
 901      287A
 902 0e50 54B9F35F 		.ascii	"T\271\363_I\232\2752\322\036s\322\012\335\220v\014I"
 902      499ABD32 
 902      D21E73D2 
 902      0ADD9076 
 902      0C49
 903 0e62 3B0EED30 		.ascii	";\016\3550\271J\244\235\320I;Y\2164\224\230b%m\262{"
 903      B94AA49D 
 903      D0493B59 
 903      8E349498 
 903      62256DB2 
 904 0e77 D24E29D2 		.ascii	"\322N)\322\300\011zZ'\015\245\246ZI\233\342\236\264"
 904      C0097A5A 
 904      270DA5A6 
ARM GAS  /tmp/ccUpC65v.s 			page 72


 904      5A499BE2 
 904      9EB4
 905 0e89 338A3494 		.ascii	"3\2124\224\372\331 \015\265\246s|\246\031\244\3614h"
 905      FAD9200D 
 905      B5A6737C 
 905      A619A4F1 
 905      3468
 906 0e9b 0F4817A4 		.ascii	"\017H\027\244\035G\322\246\002i\223\271\351\014\235"
 906      1D47D2A6 
 906      026993B9 
 906      E90C9D
 907 0eaa 3487411A 		.ascii	"4\207A\032\026\230f\"\015\225gXI\233\246H;k&MZ\033\244"
 907      16986622 
 907      0D956758 
 907      499BA648 
 907      3B6B264D 
 908 0ec1 4DA34FE9 		.ascii	"M\243O\351\332sZRs\002>\332\005i-\024iE\222\264B}a:"
 908      DA735A52 
 908      73023EDA 
 908      05692D14 
 908      694592B4 
 909 0ed9 7DFE4539 		.ascii	"}\376E9\177wr2M_\230~\"\322\370\214\335\351)\013\323"
 909      7F777232 
 909      4D5F987E 
 909      22D2F88C 
 909      DDE9290B 
 910 0eee F3C86364 		.ascii	"\363\310cd9\036wTeaz\031\234\356H/(\247/J\036[V\306"
 910      391E7754 
 910      65617A19 
 910      9CEE482F 
 910      28A72F4A 
 911 0f06 E3C16FFC 		.ascii	"\343\301o\374@\335%\217\227\220\307\313\320Z)U\342\361"
 911      40DD258F 
 911      9790C7CB 
 911      D05A2955 
 911      E2F1
 912 0f18 8ACE6369 		.ascii	"\212\316ci9\036Q\"\325\312c\212{\036\257*\036\301\011"
 912      391E5122 
 912      D5CA638A 
 912      7B1EAF2A 
 912      1EC109
 913 0f2b 5AA6F388 		.ascii	"Z\246\363\210R\343\255<\246\272\347\361\232\342\021"
 913      52E3AD3C 
 913      A6BAE7F1 
 913      9AE211
 914 0f3a A5AE1B3C 		.ascii	"\245\256\033<\242\326D\016\331\004\203G\236\006\355"
 914      A2D6440E 
 914      D9048347 
 914      9E06ED
 915 0f49 01E982C7 		.ascii	"\001\351\202\307\313\310\343x\3401\205\233N\322yle\360"
 915      CBC8E378 
 915      E031859B 
 915      4ED2796C 
 915      65F0
 916 0f5b 88052698 		.ascii	"\210\005&\230xD\345IV\036'(\036o\230y\224\326\006\217"
 916      7844E549 
 916      561E2728 
ARM GAS  /tmp/ccUpC65v.s 			page 73


 916      1E6F9879 
 916      94D6068F 
 917 0f6f 13E853BA 		.ascii	"\023\350S\272\366\246\226\324\202\200\217-\005\217A"
 917      F6A696D4 
 917      82808F2D 
 917      058F41
 918 0f7e 8AC7CB92 		.ascii	"\212\307\313\222\307\035\372ru\333\312\032\002\275."
 918      C71DFA72 
 918      75DBCA1A 
 918      02BD2E
 919 0f8d D55CAEFE 		.ascii	"\325\\\256\376b,Wo\2516\233\354#\264\272r\271\212\313"
 919      622C576F 
 919      A9369BEC 
 919      23B4BA72 
 919      B98ACB
 920 0fa0 D56897EB 		.ascii	"\325h\227\353\323\256r}z[_\237\276 \314\273Y\315\371"
 920      D3AE727D 
 920      7A5B5F9F 
 920      BE20CCBB 
 920      59CDF9
 921 0fb3 6A34DAD5 		.ascii	"j4\332\325j\224gu\245w\320\035x/\214\376\252\3349&o"
 921      6A946775 
 921      A577D01D 
 921      782F8CFE 
 921      AADC3926 
 922 0fc8 AD3B9773 		.ascii	"\255;\227s\262\260r\356\3640\257\177\273\272Z=G\363"
 922      B2B072EE 
 922      F430AF7F 
 922      BBBA5A3D 
 922      47F3
 923 0fda 82F42E7A 		.ascii	"\202\364.zwO\367N\256\307c\314\245\243]\254\236\031"
 923      774FF74E 
 923      AEC763CC 
 923      A5A35DAC 
 923      9E19
 924 0fec 5F9AF03A 		.ascii	"_\232\360:{\320\337\\\254\236\003a\365\374;:\354\005"
 924      7BD0DF5C 
 924      AC9E0361 
 924      F5FC3B3A 
 924      EC05
 925 0ffe 0EDF     		.ascii	"\016\337"
 926 1000 37AF9EB7 		.ascii	"7\257\236\267\003,1\210P\353\312\"\363\010\217\314\355"
 926      032C3188 
 926      50EBCA22 
 926      F3088FCC 
 926      ED
 927 1011 6E22F301 		.ascii	"n\"\363\001F\346\037\300\315gU\011\314\207z`>*\027\230"
 927      46E61FC0 
 927      CD675509 
 927      CC877A60 
 927      3E2A1798 
 928 1025 A8F01F4B 		.ascii	"\250\360\037K\\~\3466,\037\253\260\004\017\350\023="
 928      5C7EE636 
 928      2C1FABB0 
 928      040FE813 
 928      3D
 929 1036 2C5128C9 		.ascii	",Q(\311\022\225\377q\033\224\311L\006%\012\215ezP\242"
ARM GAS  /tmp/ccUpC65v.s 			page 74


 929      1295FF71 
 929      1B94C94C 
 929      06250A8D 
 929      657A50A2 
 930 104a D2581E69 		.ascii	"\322X\036i\311FP\3624\321lceP\376\201A\011\343\344g"
 930      C94650F2 
 930      34D16C63 
 930      6550FE81 
 930      4109E3E4 
 931 105f 4E364E0F 		.ascii	"N6N\017\3116FH\242y\262)$Qw\2345$\223UH\216c\246\220"
 931      C9364648 
 931      A279B229 
 931      2451779C 
 931      35249355 
 932 1078 94D64648 		.ascii	"\224\326FH&s\217b\202\010\270\320Z\304\\\260\212\271"
 932      26738F62 
 932      8208B8D0 
 932      5AC45CB0 
 932      8AB9
 933 108a 321973DB 		.ascii	"2\031s\333\325j\343z%\253\351\024V\225\325\364z\\M\247"
 933      D56AE37A 
 933      25ABE914 
 933      5695D5F4 
 933      7A5C4DA7 
 934 109e 32B557CD 		.ascii	"2\265W\315\364\325t\240\334\304KY\177m\207/\373VC4\177"
 934      F4D574A0 
 934      DCC44B59 
 934      7F6D872F 
 934      FB564334 
 935 10b3 3F7B7E8F 		.ascii	"?{~\217\177\3057\347\272\323\011\314\372\332\320D|0"
 935      7FC537E7 
 935      BAD309CC 
 935      FADAD044 
 935      7C30
 936 10c5 FCA674E9 		.ascii	"\374\246t\351e/@\273\006\375\336\237N\342\013r\356\367"
 936      652F40BB 
 936      06FDDE9F 
 936      4EE20B72 
 936      EEF7
 937 10d7 CFF9ABBF 		.ascii	"\317\371\253\277\277\321\250\002\205\363\037\324\365"
 937      BFD1A802 
 937      85F31FD4 
 937      F5
 938 10e4 86421243 		.ascii	"\206B\022C\257r\030N\006\274\351\024V\361^{d0o\314\244"
 938      AF72184E 
 938      06BCE914 
 938      56F15E7B 
 938      64306FCC 
 939 10f9 53F9ED82 		.ascii	"S\371\355\202~&'^\217\000\220\023\014\026\225\312\010"
 939      7E26275E 
 939      8F009013 
 939      0C1695CA 
 939      08
 940 110a EE55CDC1 		.ascii	"\356U\315\301i\032\323\007\247\351\212\235\225rp\352"
 940      691AD307 
 940      A7E98A9D 
 940      957270EA 
ARM GAS  /tmp/ccUpC65v.s 			page 75


 941 111a CDE52A0E 		.ascii	"\315\345*\016N}\\\016N\275\345\3404\203\251\360\177"
 941      4E7D5C0E 
 941      4EBDE5E0 
 941      3483A9F0 
 941      7F
 942 112b 5D98F775 		.ascii	"]\230\367u98\365q;8\315d\372\3404K\271s_\336Z?.\247"
 942      3938F571 
 942      3B38CD64 
 942      FAE0344B 
 942      B9735FDE 
 943 1143 0F4E7219 		.ascii	"\017Nr\031\320\337\345h\324O\216F\263\301\0357\213\204"
 943      D0DFE568 
 943      D44F8E46 
 943      B3C11D37 
 943      8B84
 944 1155 9E19CC06 		.ascii	"\236\031\314\006[\315\010\177\377L\326\213\340\360\261"
 944      5BCD087F 
 944      FF4CD68B 
 944      E0F0B1
 945 1164 AF54BED2 		.ascii	"\257T\276\3221\300\262\243\253Ywt\3472\265\243\373\271"
 945      31C0B2A3 
 945      AB597774 
 945      E732B5A3 
 945      FBB9
 946 1176 0EFD61D9 		.ascii	"\016\375a\331R\003pGW\274\252\021B\236x\300\273\032"
 946      52037047 
 946      57BCAA11 
 946      429E78C0 
 946      BB1A
 947 1188 115CE0CC 		.ascii	"\021\\\340\314\235\342=6\307tf\372\225/\363\310\257"
 947      9DE23D36 
 947      C77466FA 
 947      952FF3C8 
 947      AF
 948 1199 4FD4DA3C 		.ascii	"O\324\332<wy;\370\231/M!;\217%\005\203D()\354\350v\355"
 948      77793BF8 
 948      992F4D21 
 948      3B8F2505 
 948      83442829 
 949 11b1 71A02E85 		.ascii	"q\240.\205wo\\\016q\363\221->\200:\331\232*->2\230\032"
 949      776F5C0E 
 949      71F3912D 
 949      3E803AD9 
 949      9A2A2D3E 
 950 11c8 E31630F3 		.ascii	"\343\0260\363\030\207\022\371\326\305\307\032\367\213"
 950      188712F9 
 950      D6C5C71A 
 950      F78B
 951 11d6 8F854C8E 		.ascii	"\217\205L\216r\340\004]\304\324(\207Rk\255\213\217|"
 951      72E0045D 
 951      C4D42887 
 951      526BAD8B 
 951      8F7C
 952 11e8 F78B0FA7 		.ascii	"\367\213\017\247\032\347Pj\2611\316\241\326z\236\277"
 952      1AE7506A 
 952      B131CEA1 
 952      D67A9EBF 
ARM GAS  /tmp/ccUpC65v.s 			page 76


 953 11f8 CE18E778 		.ascii	"\316\030\347x\032\264\007\244\213q\016\346\017\250\221"
 953      1AB407A4 
 953      8B710EE6 
 953      0FA891
 954 1207 80BB4EB6 		.ascii	"\200\273N\266A\037\351\332\222\035Q\342\345\014\264"
 954      411FE9DA 
 954      921D51E2 
 954      E50CB4
 955 1216 5F671AE8 		.ascii	"_g\032\350Px\203u\240[\247\006\272L\363@'\255\215\201"
 955      50788375 
 955      A05BA706 
 955      BA4CF340 
 955      27AD8D81 
 956 122a 6E1DAF27 		.ascii	"n\035\257'\"\204\200\017\241b\240k\007\024\300\330\223"
 956      2284800F 
 956      A162A06B 
 956      0714C0D8 
 956      93
 957 123b BBBC31C6 		.ascii	"\273\2741\306\357n\271\270\230\267r\277\014\271\347"
 957      EF6EB9B8 
 957      98B772BF 
 957      0CB9E7
 958 124a CCD365EF 		.ascii	"\314\323e\357\212?+\364\316\206H\345iS\1779\274A\366"
 958      8A3F2BF4 
 958      CE8648E5 
 958      69537F39 
 958      BC41F6
 959 125d 970F5DC2 		.ascii	"\227\017]\302\373+\213\341\026z%\274\313Eq6\362\376"
 959      FB2B8BE1 
 959      167A25BC 
 959      CB457136 
 959      F2FE
 960 126f 5CB945B1 		.ascii	"\\\271E\261x\277\362x\372\201I\232#\207\231\026\305"
 960      78BFF278 
 960      FA81499A 
 960      23879916 
 960      C5
 961 1280 33324A6F 		.ascii	"32Jo\253\227\210\362\201\313\216t\231\3422\207\211E"
 961      AB9788F2 
 961      81CB8E74 
 961      99E23287 
 961      8945
 962 1292 7158255C 		.ascii	"qX%\\\236\006.w\271\341r9r\231\013\315\266\242J\\\256"
 962      9E062E77 
 962      B9E17239 
 962      72990BCD 
 962      B6A24A5C 
 963 12a7 D0B95C59 		.ascii	"\320\271\\Y\216K\224Xi\345r\205{.W).\301\011\232\247"
 963      8E4B9458 
 963      69E57285 
 963      7B2E5729 
 963      2EC1099A 
 964 12bc 738952AB 		.ascii	"s\211R\253\254\\\256t\317\345\027\212K\224Zmp\211Z_"
 964      AC5CAE74 
 964      CFE5178A 
 964      4B945A6D 
 964      70895A5F 
ARM GAS  /tmp/ccUpC65v.s 			page 77


 965 12d0 7008F20C 		.ascii	"p\010\362\014.y\032\264\007\244\013.s\221\313U\300\345"
 965      2E791AB4 
 965      07A40B2E 
 965      7391CB55 
 965      C0E5
 966 12e2 0A6EBA5A 		.ascii	"\012n\272Z\347\262=\347RL\300h\237g\342\022\205W[\271"
 966      E7B23DE7 
 966      524CC068 
 966      9F67E212 
 966      85575BB9 
 967 12f6 CC535CAE 		.ascii	"\314S\\\2561s)\255\015.\363\350Sz6\237%\265#\340b\230"
 967      317329AD 
 967      0D2EF3E8 
 967      537A369F 
 967      25B523E0 
 968 130c C0365C0E 		.ascii	"\3006\\\016^\301\025z\367\022\357]\331\263>f\330&q\315"
 968      5EC1157A 
 968      F712EF5D 
 968      D9B33E66 
 968      D82671CD 
 969 1320 EDD3F8D2 		.ascii	"\355\323\370\322\255O6\363\240k\241Y\326\261\244\366"
 969      AD4F36F3 
 969      A06BA159 
 969      D6B1A4F6 
 970 1330 EBBDB856 		.ascii	"\353\275\270V\007\235\226\214l\203\026\017x\025\221"
 970      079D968C 
 970      6C83160F 
 970      781591
 971 133f A0291704 		.ascii	"\240)\027\004\207\227T\211\210\015:\021\033\025\021"
 971      87975489 
 971      880D3A11 
 971      1B1511
 972 134e 3EA2FC52 		.ascii	">\242\374R+\016K\334\343\260I\341\200\316n\326q@\251"
 972      2B0E4BDC 
 972      E3B049E1 
 972      80CE6ED6 
 972      7140A9
 973 1361 6C2B0E4B 		.ascii	"l+\016K\335\343P\240p@\251-\006\016\250\225\303\373"
 973      DDE350A0 
 973      7040A92D 
 973      060EA895 
 973      C3FB
 974 1373 78998103 		.ascii	"x\231\201\003O\203;\207t}\222\005\263\345\345~\034\364"
 974      4F833B87 
 974      747D9205 
 974      B3E5E57E 
 974      1CF4
 975 1385 AEF84E58 		.ascii	"\256\370NX\035\024\331\212!\277M\204\374x\024#\340-"
 975      1D14D98A 
 975      21BF4D84 
 975      FC781423 
 975      E02D
 976 1397 815B050D 		.ascii	"\201[\005\015\205R\204>\304a]\313\250\230\351\322\263"
 976      8552843E 
 976      C4615DCB 
 976      A898E9D2 
 976      B3
ARM GAS  /tmp/ccUpC65v.s 			page 78


 977 13a8 BD456DB9 		.ascii	"\275Em\271\345j\353[q\320\351\233\015\363q\371\246\367"
 977      E56AEB5B 
 977      71D0E99B 
 977      0DF371F9 
 977      A6F7
 978 13ba A63B78D3 		.ascii	"\246;x\323oG\017\012%m\007\2016\024\\FAT\320\006\327"
 978      6F470F0A 
 978      256D0781 
 978      36145C46 
 978      4154D006 
 979 13cf C1E1046E 		.ascii	"\301\341\004n\261\303\266K\301\334\235\216\022\247\026"
 979      B1C3B64B 
 979      C1DC9D8E 
 979      12A716
 980 13de 5C72FACE 		.ascii	"\\r\372\316\323N\037\307Jfz\357\352\312Oso\372\252}"
 980      D34E1FC7 
 980      4A667AEF 
 980      EACA4F73 
 980      6FFAAA7D 
 981 13f2 2A20B325 		.ascii	"* \263%\375R\221Y\304\222\"\340\216:U2\346\334\2001"
 981      FD529159 
 981      C49222E0 
 981      8E3A5532 
 981      E6DC8031 
 982 1406 A7D8CD98 		.ascii	"\247\330\315\230S\214\204\225\200\223\013\253D\330N"
 982      538C8495 
 982      80930BAB 
 982      44D84E
 983 1415 9DB05DE5 		.ascii	"\235\260]\345\306\034\224Xd\205l\241{\310v+\310\300"
 983      C61C9458 
 983      64856CA1 
 983      7BC8762B 
 983      C8C0
 984 1427 09FA950E 		.ascii	"\011\372\225\016\031J9\255\220-r\017\331\036\005\031"
 984      194A39AD 
 984      902D720F 
 984      D91E0519 
 985 1437 4AED3520 		.ascii	"J\3555 C-x\371u\261\001\031O\203\366p\352\240\224 ("
 985      432D78F9 
 985      75B10119 
 985      4F83F670 
 985      EAA09420 
 986 144c 4E006521 		.ascii	"N\000e!7\315\322A\211\324AA\373\305\2461\007\205\263"
 986      37CDD241 
 986      89D44141 
 986      FBC5A631 
 986      0785B3
 987 145f AC63CE62 		.ascii	"\254c\316b5\346\3543\2179\322\332\030s\026\363zZt$\340"
 987      35E6EC33 
 987      8F39D2DA 
 987      187316F3 
 987      7A5A7424 
 988 1474 432731A8 		.ascii	"C'1\250tVsa\201\234\013\213\365\271\360\240\234\013"
 988      74567361 
 988      819C0B8B 
 988      F5B9F0A0 
 988      9C0B
ARM GAS  /tmp/ccUpC65v.s 			page 79


 989 1486 079AB1EC 		.ascii	"\007\232\261\354W\021\313~\331\320\227\345\373\313\213"
 989      5711CB7E 
 989      D9D097E5 
 989      FBCB8B
 990 1495 EEE7FDF5 		.ascii	"\356\347\375\3655b\371\0158\244OqEpC\003\361.\273T\002"
 990      3562F90D 
 990      38A44F71 
 990      45704303 
 990      F12EBB54 
 991 14aa CF3D80A7 		.ascii	"\317=\200\247\310\335\3765\302\363-\334[Z\325\366\257"
 991      C8DDFE35 
 991      C2F32DDC 
 991      5B5AD5F6 
 991      AF
 992 14bb 7578BE2B 		.ascii	"ux\276+\007\017J\314\263\302\223V\311\376\265\202\007"
 992      070F4ACC 
 992      B3C29356 
 992      C9FEB582 
 992      07
 993 14cc 9CA03FE8 		.ascii	"\234\240?\350\360\240\324|+<\363*\331\277V\360\240\324"
 993      F0A0D47C 
 993      2B3CF32A 
 993      D9BF56F0 
 993      A0D4
 994 14de 8F063CA8 		.ascii	"\217\006<\250\225\301{*\335\264\177\315d\333e\250\375"
 994      95C17B2A 
 994      DDB47FCD 
 994      64DB65A8 
 994      FD
 995 14ef 6B84673E 		.ascii	"k\204g>\300\223\306M\027\350\360D\351\023\026\332\247"
 995      C093C64D 
 995      17E8F044 
 995      E91316DA 
 995      A7
 996 1500 9BB7AF41 		.ascii	"\233\267\257Ax\201\025\236t}\373\332\014\217\2646\340"
 996      7881159E 
 996      747DFBDA 
 996      0C8FB436 
 996      E0
 997 1511 49E7F50C 		.ascii	"I\347\365\014\354L\300\207.\002\236\256\012\236\355"
 997      EC4CC087 
 997      2E029EAE 
 997      0A9EED
 998 1520 129E22F5 		.ascii	"\022\236\"\365\304X\330\332\375\023\343O\342\211q\347"
 998      C458D8DA 
 998      FD13E34F 
 998      E28971E7 
 999 1530 E5AFDE74 		.ascii	"\345\257\336t\2541/s\016\234\032wV\275V\265\215\302"
 999      AC312F73 
 999      0E9C1A77 
 999      56BD56B5 
 999      8DC2
 1000 1542 5C78448D 		.ascii	"\\xD\2158G\231\376:i4\031\257\341\373\244e\242R\327"
 1000      384799FE 
 1000      3A693419 
 1000      AFE1FBA4 
 1000      65A252D7 
ARM GAS  /tmp/ccUpC65v.s 			page 80


 1001 1556 95FC5754 		.ascii	"\225\374WT\362\340\341\2152_\307zYK\177H*\2369\363\230"
 1001      F2E0E18D 
 1001      325FC77A 
 1001      594B7F48 
 1001      2A9E39F3 
 1002 156b 66AAE559 		.ascii	"f\252\345YzL\325r\334\250\245\033<\014\363\233\366p"
 1002      7A4CD572 
 1002      DCA8A51B 
 1002      3C0CF39B 
 1002      F670
 1003 157d B24E5D17 		.ascii	"\262N]\027\024\234\343\367\336)Z\343\031\335\311)o\021"
 1003      149CE3F7 
 1003      DE295AE3 
 1003      19DDC929 
 1003      6F11
 1004 158f 9CF9D0BE 		.ascii	"\234\371\320\276\232\300)O\375\356\331\246\232\317}"
 1004      9AC0294F 
 1004      FDEED9A6 
 1004      9ACF7D
 1005 159e 278CE7BE 		.ascii	"'\214\347\276\223\372s\237\324\012\341r\025\237\373"
 1005      93FA739F 
 1005      D40AE172 
 1005      159FFB
 1006 15ad 425D3EF7 		.ascii	"B]>\367\205\310\347\276S\372s\337\363\302\274\255\313"
 1006      85C8E7BE 
 1006      53FA73DF 
 1006      F3C2BCAD 
 1006      CB
 1007 15be E7BE50B7 		.ascii	"\347\276P\267\317}\247\215\347\2763\002\356\333\023"
 1007      CF7DA78D 
 1007      E7BE3302 
 1007      EEDB13
 1008 15cd EFCB71A0 		.ascii	"\357\313q\240\235\270\333\224\005\023\244/a<m\276\351"
 1008      9DB8DB94 
 1008      0513A42F 
 1008      613C6DBE 
 1008      E9
 1009 15de BF097DA8 		.ascii	"\277\011}\250\007\375\231\005\3503-\330\264\347>T\334"
 1009      07FD9905 
 1009      E8332DD8 
 1009      B4E73E54 
 1009      DC
 1010 15ef C90A77F9 		.ascii	"\311\012w\371\260\330^>,\236\325!<\251\354\305\236\024"
 1010      B0D85E3E 
 1010      2C9ED521 
 1010      3CA9ECC5 
 1010      9E14
 1011 1601 30A83999 		.ascii	"0\2509\231G7BC\003\232\356_\245\221)\274G\217\3013y"
 1011      47374243 
 1011      039AEE5F 
 1011      A59129BC 
 1011      478FC133 
 1012 1616 0FFD15AB 		.ascii	"\017\375\025\253u\320)2\3063TC6\254f\247\2343:\345\274"
 1012      75D02932 
 1012      C6335443 
 1012      36AC66A7 
 1012      9C333AE5 
ARM GAS  /tmp/ccUpC65v.s 			page 81


 1013 162b 6A85C952 		.ascii	"j\205\311R\253\221\2207Z\2411O\263\334v\023'\324P\276"
 1013      AB919037 
 1013      5AA1314F 
 1013      B3DC7613 
 1013      27D450BE 
 1014 163f EB9ABAEC 		.ascii	"\353\232\272\354\272&\262\353.\230cO\330\213^\202\333"
 1014      BA26B2EB 
 1014      2E98634F 
 1014      D88B5E82 
 1014      DB
 1015 1650 A6FC8EEB 		.ascii	"\246\374\216\353,X\276\223S\330\254\377\361\202\375"
 1015      2C58BE93 
 1015      53D8ACFF 
 1015      F182FD
 1016 165f 94831883 		.ascii	"\224\203\030\203\257U\247de\347\272z\311J\376\344x\221"
 1016      AF55A764 
 1016      65E7BA7A 
 1016      C94AFEE4 
 1016      7891
 1017 1671 899F1C21 		.ascii	"\211\237\034!^r\332\270\017\227K\254\312/c]V\321r\205"
 1017      5E72DAB8 
 1017      0F974BAC 
 1017      CA2F635D 
 1017      56D17285 
 1018 1685 5578E1F0 		.ascii	"Ux\341\360+|~Y9\376\344\025o\307^f\3729\363\341\334"
 1018      2B7C7E59 
 1018      39FEE415 
 1018      6FC75E66 
 1018      FA39F3E1 
 1019 169a EBFBD43B 		.ascii	"\353\373\324;\334y\271\201\360\233W\251R\271*\237_z"
 1019      DC79B981 
 1019      F09B57A9 
 1019      52B92A9F 
 1019      5F7A
 1020 16ac 56F2C2E1 		.ascii	"V\362\302\341\221\203(\356r6(\303\331\340\032\014V\033"
 1020      918328EE 
 1020      723628C3 
 1020      D9E01A0C 
 1020      561B
 1021 16be AB341B5C 		.ascii	"\2534\033\\\327g\203\033\345f\003\224\330d\235\0156"
 1021      D767831B 
 1021      E5660394 
 1021      D8649D0D 
 1021      36
 1022 16cf BA9F0D6E 		.ascii	"\272\237\015n\252\331\000\234\240\277\350\263\001Jm"
 1022      AAD9009C 
 1022      A0BFE8B3 
 1022      014A6D
 1023 16de B6CE069B 		.ascii	"\266\316\006\233\334\317\006\267\324l\200R\267\215\331"
 1023      DCCF06B7 
 1023      D46C8052 
 1023      B78DD9
 1024 16ed 00B5B6F0 		.ascii	"\000\265\266\360\216/0f\003\236\006\355\001\351b6\270"
 1024      8E2F3066 
 1024      039E06ED 
 1024      01E96236 
 1024      B8
ARM GAS  /tmp/ccUpC65v.s 			page 82


 1025 16fe 86B3C166 		.ascii	"\206\263\301f\230\0156r\323\255\372l\320K\017\014\264"
 1025      980D3672 
 1025      D3ADFA6C 
 1025      D04B0F0C 
 1025      B4
 1026 170f 2F30CD06 		.ascii	"/0\315\006(\274\325:\033\024\250\331\340\216\231Him"
 1026      28BCD53A 
 1026      1B14A8D9 
 1026      E08E9948 
 1026      696D
 1027 1721 CC0605F4 		.ascii	"\314\006\005\364)\035\373+K\212!\340bO1Y\364\226o \346"
 1027      291DFB2B 
 1027      4B8A21E0 
 1027      624F3159 
 1027      F4966F20 
 1028 1736 095EB143 		.ascii	"\011^\261C\305\012\270\254T\022\377\202e\257\307\305"
 1028      C50AB8AC 
 1028      5412FF82 
 1028      65AFC7C5 
 1029 1746 DB7B77F5 		.ascii	"\333{w\365\275\236{\272\203\362\237t^0m\365\364!\014"
 1029      BD9E7BBA 
 1029      83F29F74 
 1029      5E306DF5 
 1029      F4210C
 1030 1759 67890DB9 		.ascii	"g\211\015\271\256^\325\223\330\377&\260?yx\335\242\032"
 1030      AE5ED593 
 1030      D8FF26B0 
 1030      3F7978DD 
 1030      A21A
 1031 176b 8EA312D9 		.ascii	"\216\243\022\331\001\220\224v\373\352x/\323\253\000"
 1031      01909476 
 1031      FBEA782F 
 1031      D3AB00
 1032 177a CFD1DFD5 		.ascii	"\317\321\337\325\215\3357f\211\276\304\023+\331^Y%\017"
 1032      8DDD3766 
 1032      89BEC413 
 1032      2BD95E59 
 1032      250F
 1033 178c 44258F9C 		.ascii	"D%\217\234\023fS\307\317\346J\246_\337\373\235V\256"
 1033      136653C7 
 1033      CFE64AA6 
 1033      5FDFFB9D 
 1033      56AE
 1034 179e 923F5425 		.ascii	"\222?T%\017\215J\372\211\377\311\232W\372\360k\271'"
 1034      0F8D4AFA 
 1034      89FFC99A 
 1034      57FAF06B 
 1034      B927
 1035 17b0 F697AAB4 		.ascii	"\366\227\252\264\323#\275\235\036K\316oO\224\355\374"
 1035      D323BD9D 
 1035      1E4BCE6F 
 1035      4F94EDFC 
 1036 17c0 129720D7 		.ascii	"\022\227 \327\345\232\214\177\205\026\233\3025|4B"
 1036      E59A8C7F 
 1036      85169BC2 
 1036      357C3442 
 1037 17d0 BA840F1F 		.ascii	"\272\204\017\037\221\030\036\033\376JB\334\350\204\360"
ARM GAS  /tmp/ccUpC65v.s 			page 83


 1037      91181E1B 
 1037      FE4A42DC 
 1037      E884F0
 1038 17df 11C3E312 		.ascii	"\021\303\343\022?\015\357\037\227\360A\342\310Q\341"
 1038      3F0DEF1F 
 1038      97F041E2 
 1038      C851E1
 1039 17ee FD86C60F 		.ascii	"\375\206\306\017\211\377\363\240\360\304\270\204\304"
 1039      89FFF3A0 
 1039      F0C4B884 
 1039      C4
 1040 17fb F061F143 		.ascii	"\360a\361C\302c\207\276\003\327\355c\211WB\342\350\270"
 1040      C26387BE 
 1040      03D7ED63 
 1040      895742E2 
 1040      E8B8
 1041 180d C1C35962 		.ascii	"\301\303Yb\302(\317\304\330\301\011q\036\211\011q\037"
 1041      C228CFC4 
 1041      D8C10971 
 1041      1E890971 
 1041      1F
 1042 181e 7A0C4F78 		.ascii	"z\014Ox\177\224\026;\212\022\317\320\320P;\361\207\343"
 1042      7F94163B 
 1042      8A12CFD0 
 1042      D0503BF1 
 1042      87E3
 1043 1830 CBBC847D 		.ascii	"\313\274\204}\320\230\370\3048\342\301\277\223z\220"
 1043      D098F8C4 
 1043      38E2C1BF 
 1043      937A90
 1044 183f D86FE4F0 		.ascii	"\330o\344\360Q\361\303\342\336\355f\207?\322\360O\203"
 1044      51F1C3E2 
 1044      DEED6687 
 1044      3FD2F04F 
 1044      83
 1045 1850 47D8233A 		.ascii	"G\330#:\333;v\210\210\266\207\331#\"\273u\356\322\255"
 1045      DB3B7688 
 1045      88B687D9 
 1045      2322BB75 
 1045      EED2AD
 1046 1863 7394B07D 		.ascii	"s\224\260}q\330\340\304\367F\216\036.m\333\015z\371"
 1046      71D8E0C4 
 1046      F7468E1E 
 1046      2E6DDB0D 
 1046      7AF9
 1047 1875 FF3B751C 		.ascii	"\377;u\034\020\031\021a\177>\376\375\241\366\027\343"
 1047      10191161 
 1047      7F3EFEFD 
 1047      A1F617E3 
 1048 1885 4643EEE0 		.ascii	"FC\356\340\021\261q\366\217\343\023\207\332\373\017"
 1048      11B171F6 
 1048      8FE31387 
 1048      DAFB0F
 1049 1894 7AD13E78 		.ascii	"z\321>x\304\273\366\001/\276\"\004\320\203\276#\007"
 1049      C4BBF601 
 1049      2FBE2204 
 1049      D083BE23 
ARM GAS  /tmp/ccUpC65v.s 			page 84


 1049      07
 1050 18a5 8FC6EA48 		.ascii	"\217\306\352H\010\027\210\217\035=2nX\\l\342\350\221"
 1050      0817888F 
 1050      1D3D326E 
 1050      585C6CE2 
 1050      E891
 1051 18b7 23E26313 		.ascii	"#\342c\023\354\250i\177aL\354\260\270\221]\"\303@\375"
 1051      ECA8697F 
 1051      614CECB0 
 1051      B8915D22 
 1051      C340FD
 1052 18ca A56749BD 		.ascii	"\245gI\275\230\230\030\351\177\334\207c\342\240\006"
 1052      989818E9 
 1052      7FDC8763 
 1052      E2A006
 1053 18d9 C2ECC144 		.ascii	"\302\354\301D\013!\376aaa\"\253\037\277{;\321\332\023"
 1053      0B21FE61 
 1053      616122AB 
 1053      1FBF7B3B 
 1053      D1DA13
 1054 18ec CF77E386 		.ascii	"\317w\343\206\015\376$\272\012\015:2!|\350\340a\374"
 1054      0DFE24BA 
 1054      0A0D3A32 
 1054      217CE8E0 
 1054      61FC
 1055 18fe C40FA313 		.ascii	"\304\017\243\023\361\334~(i\010\222/\305%\214\031\226"
 1055      F1DC7E28 
 1055      6908922F 
 1055      C5258C19 
 1055      96
 1056 190f D8CD3EA0 		.ascii	"\330\315>\240\317\300\377{\345\245g\355\301-y\215o\022"
 1056      CFC0FF7B 
 1056      E5A567ED 
 1056      C12D798D 
 1056      6F12
 1057 1921 8FB7ED2D 		.ascii	"\217\267\355-\010k\021B\352\233\215\006\275\322\257"
 1057      086B1142 
 1057      EA9B8D06 
 1057      BDD2AF
 1058 1930 DFB38306 		.ascii	"\337\263\203\006\021\377\001\361#\006\017\263\217\226"
 1058      11FF01F1 
 1058      23060FB3 
 1058      8F96
 1059 193e C9C4264B 		.ascii	"\311\304&K\023\233\262\370\037@\354\263\011"
 1059      139BB2F8 
 1059      1F40ECB3 
 1059      09
 1060              		.text
 1061              		.section	.gnu.lto_.symbol_nodes.a541ece7b3318314,"",%progbits
 1062 0000 789C5D90 		.ascii	"x\234]\220_K\025A\030\207\177\373\316\354\036\323\334"
 1062      5F4B1541 
 1062      18877FFB 
 1062      CEEC1ED3 
 1062      DC
 1063 0011 84837786 		.ascii	"\204\203w\206\320m\237!\260O!~\232\331$\014\224\":\220"
 1063      D06D9F21 
 1063      B04F217E 
ARM GAS  /tmp/ccUpC65v.s 			page 85


 1063      9AD9240C 
 1063      94223A90 
 1064 0025 1741C25E 		.ascii	"\027A\302^H\310\321\013\017\005\347h\351n\246\245u\012"
 1064      48C8D10B 
 1064      0F05E768 
 1064      E96EA6A5 
 1064      750A
 1065 0037 B690EA46 		.ascii	"\266\220\352F7)\374\003\222\013zq<\007gfw\026\306\253"
 1065      3729FC03 
 1065      920B7A71 
 1065      3C076766 
 1065      7716C6AB 
 1066 004b DFB3CFFB 		.ascii	"\337\263\317\373\356;\357\214\013\302=\006\200b\022"
 1066      EE3BEF8C 
 1066      0BC23D06 
 1066      806212
 1067 005a C0D33620 		.ascii	"\300\3236 \243\031D\201\007\270\357\010\301\035\200"
 1067      A3194481 
 1067      07B8EF08 
 1067      C11D80
 1068 0069 B96FC9C9 		.ascii	"\271o\311\311a\205H\003\275'\341\\o_#\226\0277H\320"
 1068      61854803 
 1068      BD27E15C 
 1068      6F5F2396 
 1068      173748D0 
 1069 007d B522ED92 		.ascii	"\265\"\355\222`\205s\232\017\243`L\272\017$\270\351"
 1069      6085739A 
 1069      0FA3604C 
 1069      BA0F24B8 
 1069      E9
 1070 008e 6B05F7E5 		.ascii	"k\005\367\345\210\026\361\007r\004\334Ur\363Y\233$\\"
 1070      8816F107 
 1070      7204DC55 
 1070      72F3599B 
 1070      245C
 1071 00a0 AB87B648 		.ascii	"\253\207\266Hx\266\371H\242b\233O$\372l\263M\342\206"
 1071      78B6F948 
 1071      A2629B4F 
 1071      24FA6CB3 
 1071      4DE286
 1072 00b3 6D7648F4 		.ascii	"mvH\364\333\3463\211\001\333|!q\3236m\022\203\366\316"
 1072      DBE63389 
 1072      01DB7C21 
 1072      71D3366D 
 1072      1283F6CE 
 1073 00c7 4DF2F4CE 		.ascii	"M\362\364\316\3167\022\276.\001\201\272\037\007\032"
 1073      CE3712BE 
 1073      2E0181BA 
 1073      1F071A
 1074 00d6 87BB8ECA 		.ascii	"\207\273\216\312l\277\2473\331\374:\002\316\321X\374"
 1074      6CBFA733 
 1074      D9FC3A02 
 1074      CED158FC 
 1075 00e6 51771524 		.ascii	"Qw\025$\217NF\301=#\274BT\220\250?\230_A\330\035\341"
 1075      8F4E46C1 
 1075      3D23BC42 
 1075      5490A83F 
ARM GAS  /tmp/ccUpC65v.s 			page 86


 1075      985F41D8 
 1076 00fc 3E92F6F7 		.ascii	">\222\366\367.\003\277\205\244{z\027|\010Y\221\265i"
 1076      2E03BF85 
 1076      A47B7A17 
 1076      7C085991 
 1076      B569
 1077 010e D9CFAA43 		.ascii	"\331\317\252C\210\367z\216\316\351\313\333*\323\355"
 1077      88F77A8E 
 1077      CEE9CBDB 
 1077      2AD3ED
 1078 011d 53FD3D39 		.ascii	"S\375=9s2\2522|\226g<\233g\3722\317\3119\225\036\322"
 1078      7332AA32 
 1078      7C96673C 
 1078      9B67FA32 
 1078      CFC93995 
 1079 0133 B98396CB 		.ascii	"\271\203\226\313\252>\342\177\353\365q\335q\256\201"
 1079      AA3EE27F 
 1079      EBF571DD 
 1079      71AE81
 1080 0142 23BC58AF 		.ascii	"#\274X\257\317\372\272\3263\024\316G\232\344\34079\015"
 1080      CFFABAD6 
 1080      3314CE47 
 1080      9AE4E037 
 1080      390D
 1081 0154 E3A02020 		.ascii	"\343\240  mEE_\232F\277_\367\353\203:\206\302N\364\363"
 1081      6D45455F 
 1081      9A46BF5F 
 1081      F7EB833A 
 1081      86C24EF4 
 1082 0169 BFA326C7 		.ascii	"\277\243&\307\363q\227\351\263\014\304KG\023Z,\375z"
 1082      F37197E9 
 1082      B30CC44B 
 1082      47135A2C 
 1082      FD7A
 1083 017b CC7815D9 		.ascii	"\314x\025\331\324\326+\3710\022\236\310\375\024\324"
 1083      D4D62BF9 
 1083      30129EC8 
 1083      FD14D4
 1084 018a 9E17D078 		.ascii	"\236\027\320xQ@\362Gm\245\325qI\231\241Z\247tad\334"
 1084      5140F247 
 1084      6DA5D571 
 1084      4999A15A 
 1084      A7746164 
 1085 019f 82A16CB9 		.ascii	"\202\241l\271tk\206\222\277%\035\033j\234\225\356\242"
 1085      746B8692 
 1085      BF251D1B 
 1085      6A9C95EE 
 1085      A2
 1086 01b0 A485B83E 		.ascii	"\244\205\270>\016\\\001\363}\001\273"
 1086      0E5C01F3 
 1086      7D01BB
 1087              		.text
 1088              		.section	.gnu.lto_.refs.a541ece7b3318314,"",%progbits
 1089 0000 789C258D 		.ascii	"x\234%\215=NBa\020E\357\231y#~\337\003Ax\340\017\245"
 1089      3D4E4261 
 1089      1045EF99 
 1089      79237EDF 
ARM GAS  /tmp/ccUpC65v.s 			page 87


 1089      034178E0 
 1090 0016 1B7003AE 		.ascii	"\033p\003\256\220\320S\020VAb\255\2115\264$\024t\204"
 1090      90D05310 
 1090      564162AD 
 1090      8935B424 
 1090      147484
 1091 0029 463760E1 		.ascii	"F7`\341\250\305\311in\356\011\231>%\271\0003p\263Fa"
 1091      A8C5C969 
 1091      6EEE0999 
 1091      3E25B900 
 1091      3370B346 
 1092 003e 8AD6AEFE 		.ascii	"\212\326\256\376MO\341~\215C1\252{\213;\245\241F\355"
 1092      4D4FE17E 
 1092      8D4331AA 
 1092      7B8B3BA5 
 1092      A146ED
 1093 0051 E395D252 		.ascii	"\343\225\322R\373bl6\304\357(\367\324\007\230\233\315"
 1093      FB626C36 
 1093      C4EF28F7 
 1093      D407989B 
 1093      CD
 1094 0062 7D807794 		.ascii	"}\200w\224)u\306\215\242c\250\300F\177\277\003\277\025"
 1094      2975C68D 
 1094      A263A8C0 
 1094      467FBF03 
 1094      BF15
 1095 0074 8D5940CF 		.ascii	"\215Y@\317\307\372\255g\276y\234\020(\262=S<)\236)/"
 1095      C7FAAD67 
 1095      BE799C10 
 1095      28B23D53 
 1095      3C299E29 
 1096 0089 8A3729F6 		.ascii	"\2127)\366\311)\371J\276\223E\3166\310\267\351W\324"
 1096      C929F94A 
 1096      BE9345CE 
 1096      36C8B7E9 
 1096      57D4
 1097 009b BDA73FF2 		.ascii	"\275\247?\362e\227\336#\016\351#\252\347\364%Y\232\312"
 1097      6597DE23 
 1097      0EE923AA 
 1097      E7F42559 
 1097      9ACA
 1098 00ad 2A599B7E 		.ascii	"*Y\233~\000\267~\024\307"
 1098      00B77E14 
 1098      C7
 1099              		.text
 1100              		.section	.gnu.lto_.decls.a541ece7b3318314,"",%progbits
 1101 0000 789CBD5B 		.ascii	"x\234\275[yXTW\226\257\373n\261\025\233\203v\332\311"
 1101      79585457 
 1101      96AFFB6E 
 1101      B1159B83 
 1101      76DAC9
 1102 0013 D09D4CDA 		.ascii	"\320\235L\332\036\351IG\324L\3573\323IH\306v&\266=h"
 1102      1EE94947 
 1102      D44CEF33 
 1102      D34948C6 
 1102      7626B63D 
 1103 0028 32F9BEF9 		.ascii	"2\371\276\371f\030\202\225\310\027\026[\312$\335\177"
ARM GAS  /tmp/ccUpC65v.s 			page 88


 1103      66188295 
 1103      C817165B 
 1103      CA24DD7F 
 1104 0038 4C1720AB 		.ascii	"L\027 \253\033\250,\005\202\010\010\010\262\312\"\240"
 1104      1BA82C05 
 1104      82080808 
 1104      B2CA22A0 
 1105 0048 88A008A2 		.ascii	"\210\240\010\242\210\202  \202\212 .\210\250\010\202"
 1105      88822020 
 1105      828A202E 
 1105      88A80882 
 1106 0058 38E72EAF 		.ascii	"8\347.\257\336BU\332\351\376f\352\363\360\336}\357\334"
 1106      DE4255DA 
 1106      E9FE66EA 
 1106      F3F0DE7D 
 1106      EFDC
 1107 006a DFF99D73 		.ascii	"\337\371\235s\317\335\336{\332h\004M\371\2174\232q;"
 1107      CFDDDE7B 
 1107      DA68044D 
 1107      F98F349A 
 1107      713B
 1108 007c 8DC6DD5E 		.ascii	"\215\306\335^\243y\001?W\215FS\010\362*H\031\310\021"
 1108      A379013F 
 1108      578D4653 
 1108      08F22A48 
 1108      19C811
 1109 008f 906A9093 		.ascii	"\220j\220\223 M g@Z@\316\202\\\000i\007Y\012\322\001"
 1109      204D2067 
 1109      405A40CE 
 1109      825C0069 
 1109      07590AD2 
 1110 00a4 D209D203 		.ascii	"\322\011\322\003\322\0132\0002\010r\013d\030\3446\310"
 1110      D20B3200 
 1110      3208720B 
 1110      6418E436 
 1110      C8
 1111 00b5 28C818C8 		.ascii	"(\310\030\310\003\220\011\220I\2209\015\373\021\273"
 1111      03900990 
 1111      4990390D 
 1111      FB11BB
 1112 00c4 8B11D805 		.ascii	"\213\021\330\005q\007y\015\344{ \036 \313@~\002\362"
 1112      7107790D 
 1112      E47B201E 
 1112      20CB407E 
 1112      02F2
 1113 00d6 0B905F82 		.ascii	"\013\220_\202\274\013\362\001\310*\220\024\220\003 "
 1113      BC0BF201 
 1113      C82A9014 
 1113      900320
 1114 00e5 E082260B 		.ascii	"\340\202&\013\216\271 \207@\012@\012A\212AJ\221F\361"
 1114      8EB92087 
 1114      400A400A 
 1114      418A414A 
 1114      9146F1
 1115 00f8 5B216834 		.ascii	"[!h4.p\374\030\304\015d\021\310\267@\347!\361\031\216"
 1115      2E70FC18 
 1115      C40D6411 
ARM GAS  /tmp/ccUpC65v.s 			page 89


 1115      C8B740E7 
 1115      21F1198E 
 1116 010c 6F821C01 		.ascii	"o\202\034\001\311\001)G\214\347\"\3048\217\203`\020"
 1116      C9012947 
 1116      8CE722C4 
 1116      388F8360 
 1116      10
 1117 011d 27283B83 		.ascii	"'(;\2038\202\010\234{%b\367\344<\344\277\037\201\342"
 1117      3882089C 
 1117      7B2562F7 
 1117      E43CE4BF 
 1117      1F81E2
 1118 0130 4295DDB5 		.ascii	"B\225\335\265 I\240\027\007\262\031$\024\244\012$\021"
 1118      2049A017 
 1118      07B21924 
 1118      14A40A24 
 1118      11
 1119 0141 6417C851 		.ascii	"d\027\310Q\304b\377[8V#e\233\030\271\275x8\356\004\331"
 1119      C462FF5B 
 1119      38562365 
 1119      9B18B9BD 
 1119      7838EE04 
 1120 0156 01424CBE 		.ascii	"\001BL\276\312\217\005*\373?\373\177\262\357n\305\376"
 1120      CA8F052A 
 1120      FB3FFB7F 
 1120      B2EF6EC5 
 1120      FE
 1121 0167 2F05D6CE 		.ascii	"/\005\326\316r\373\244\375\337\344\261\226\363\260\306"
 1121      72FBA4FD 
 1121      DFE4B196 
 1121      F3B0C6
 1122 0176 4190D923 		.ascii	"A\220\331#\347\257\361\274\260do\025(\330\362<\023\355"
 1122      E7AFF1BC 
 1122      B0646F15 
 1122      28D8F23C 
 1122      13ED
 1123 0188 D9F136AD 		.ascii	"\331\3616\255\341\272\344\360=\356\307!Y\316\310\177"
 1123      E1BAE4F0 
 1123      3DEEC721 
 1123      59CEC87F 
 1124 0198 FFFA1238 		.ascii	"\377\372\0228\204\213\007\372\343X\377\001\212\216*"
 1124      848B07FA 
 1124      E358FF01 
 1124      8A8E2A
 1125 01a7 2CE23FC1 		.ascii	",\342?\301+\321(\363\216`\227\361\372\004s\031\307'"
 1125      2BD128F3 
 1125      8E6097F1 
 1125      FA047319 
 1125      C727
 1126 01b9 7966A391 		.ascii	"yf\243\221rL\264\223\245\262\025l\301\326Jn\213\364"
 1126      724CB493 
 1126      A5B2156C 
 1126      C1D64A6E 
 1126      8BF4
 1127 01cb D949383E 		.ascii	"\331I8>\001\251\223\331#\020w\340\217\203\206\365\271"
 1127      01A993D9 
 1127      231077E0 
ARM GAS  /tmp/ccUpC65v.s 			page 90


 1127      8F8386F5 
 1127      B9
 1128 01dc 69901990 		.ascii	"i\220\031\220\347 /\210]\300\264\023^\316\327\257,\344"
 1128      E7202F88 
 1128      5DC0B413 
 1128      5ECED7AF 
 1128      2CE4
 1129 01ee 9BBCBD09 		.ascii	"\233\274\275\011\007\342\263\274\335\211\377\366P\357"
 1129      07E2B3BC 
 1129      DD89FFF6 
 1129      50EF
 1130 01fc BB1672C0 		.ascii	"\273\026r\300R\373\223\266\177\315J\373\377\301B?\027"
 1130      52FB93B6 
 1130      7FCD4AFB 
 1130      FFC1423F 
 1130      17
 1131 020d E3FC4DB9 		.ascii	"\343\374M\271F\354\330\252l\021\350_Z\261\023.0l\265"
 1131      46ECD8AA 
 1131      6C11E85F 
 1131      5AB1132E 
 1131      306CB5
 1132 0220 1DD14628 		.ascii	"\035\321F(\267C\354Z\263\3652}\213\360!c\2375\036\333"
 1132      B743EC5A 
 1132      B3F5327D 
 1132      8BF02163 
 1132      9F351EDB 
 1133 0234 40C189F3 		.ascii	"@\301\211\363(\341q\226\307\235\214\321N\002\313\251"
 1133      28E17196 
 1133      C79D8CD1 
 1133      4E02CBA9 
 1134 0244 DFC8728D 		.ascii	"\337\310r\215\374`\370\247c\252\013\334_\000\342\006"
 1134      FC60F8A7 
 1134      63AA0BDC 
 1134      5F00E206 
 1135 0254 F20AC862 		.ascii	"\362\012\310b\220WA\334\005f_\034\333\344\277]\002\033"
 1135      905741DC 
 1135      05665F1C 
 1135      DBE4BF5D 
 1135      021B
 1136 0266 7FE5762D 		.ascii	"\177\345v-\331 \207U\310:\316\217\300\341_\311b\270"
 1136      D9208755 
 1136      C83ACE8F 
 1136      C0E15FC9 
 1136      62B8
 1137 0278 89C7F0BF 		.ascii	"\211\307\360\2778\026\211)\301\3767\304\306\255\217"
 1137      38168929 
 1137      C1FE37C4 
 1137      C6AD8F
 1138 0287 780E7D88 		.ascii	"x\016}\210\330\370M\362\\lS1\326\337\021\244\371\352"
 1138      D8F84DF2 
 1138      5C6C5331 
 1138      D6DF11A4 
 1138      F9EA
 1139 0299 1FA1EC03 		.ascii	"\037\241\354\003\362]\270\366\006\310\367\004\313m!"
 1139      F25DB8F6 
 1139      06C8F704 
 1139      CB6D21
ARM GAS  /tmp/ccUpC65v.s 			page 91


 1140 02a8 CE51E29C 		.ascii	"\316Q\342\234\265\224\344\273 \315e\342\334&\316u\244"
 1140      B594E4BB 
 1140      20CD65E2 
 1140      DC26CE75 
 1140      A4
 1141 02b9 EF90B983 		.ascii	"\357\220\271\203\314\015?\000\275\237\313\332\362o\241"
 1141      CC0D3F00 
 1141      BD9FCBDA 
 1141      F26FA1
 1142 02c8 FC3194D7 		.ascii	"\3741\224\327#i\216|\023\256\375\013bsJ:\310\017\241"
 1142      23698E7C 
 1142      13AEFD0B 
 1142      62734A3A 
 1142      C80FA1
 1143 02db 9C01C7B7 		.ascii	"\234\001\307\267\340\370m8.\023X\334\312x\237\024\347"
 1143      E0F86D38 
 1143      2E1358DC 
 1143      CA789F14 
 1143      E7
 1144 02ec 5971FE25 		.ascii	"Yq\376%\261\376w$\345\306'$> \277\006q\005\321i\330"
 1144      B1FE7724 
 1144      E5C62724 
 1144      3E20BF06 
 1144      7105D169 
 1145 0301 BC28E60A 		.ascii	"\274(\346\012\031\217I?!\363\302r\201\315\227d\276Z"
 1145      198F493F 
 1145      21F3C272 
 1145      81CD9764 
 1145      BE5A
 1146 0313 C9DB4D9C 		.ascii	"\311\333M\234+I?.\345\355\222e\241?'at\372\305\323z"
 1146      2B493F2E 
 1146      E5ED9265 
 1146      A13F2761 
 1146      74FAC5D3 
 1147 0328 D79D18B9 		.ascii	"\327\235\030\271\351\220\000\305\213[K\366aV\324B\361"
 1147      E99000C5 
 1147      8B5B4BF6 
 1147      6156D442 
 1147      F1
 1148 0339 E1F9949B 		.ascii	"\341\371\224\233.P\\\244C\257C\261\352aZ$\326E\033\341"
 1148      2E505CA4 
 1148      43AF43B1 
 1148      EA615A24 
 1148      D6451BE1 
 1149 034d 17176E74 		.ascii	"\027\027nt\370\025Q;\204\334Q\036r\207d\310G\300\023"
 1149      F815513B 
 1149      84DC511E 
 1149      728764C8 
 1149      47C013
 1150 0360 79BAA35C 		.ascii	"y\272\243\\(\202v\303DI\256\023\303\302P\034\333zk\320"
 1150      288276C3 
 1150      4449AE13 
 1150      C3C2501C 
 1150      DB7A6BD0 
 1151 0374 91612D86 		.ascii	"\221a-\206\342\345\251\343\317\234\260\200@S;\2305q"
 1151      E2E5A9E3 
 1151      CF9CB080 
ARM GAS  /tmp/ccUpC65v.s 			page 92


 1151      40533B98 
 1151      3571
 1152 0386 D71679B8 		.ascii	"\327\026y\270#\244\003\3111\262\237\275\006\225 \035"
 1152      23A403C9 
 1152      31B29FBD 
 1152      0695201D 
 1153 0396 2A4458E4 		.ascii	"*DX\344\233b\004\333\343\177 \2275p\026f\034\3174\342"
 1153      9B6204DB 
 1153      E37F2097 
 1153      35701666 
 1153      1CCF34E2 
 1154 03aa C51AF4B6 		.ascii	"\305\032\364\266;Z\356\256AE\310\203\336\322\240R U"
 1154      3B5AEEAE 
 1154      4145C883 
 1154      DED2A052 
 1154      2055
 1155 03bc 0C2C528C 		.ascii	"\014,R\214\366\364\012\330\213\233*\214\264u\213\243"
 1155      F6F40AD8 
 1155      8B9B2A8C 
 1155      B4758BA3 
 1156 03cc DC8DC6D7 		.ascii	"\334\215\306\327\021\305>\014z\005\224|\031r\023]\240"
 1156      11C53E0C 
 1156      7A05947C 
 1156      1972135D 
 1156      A0
 1157 03dd 05A8D155 		.ascii	"\005\250\321U\3234\243u\212%v\230\267pY\346\356\021"
 1157      D334A375 
 1157      8A257698 
 1157      B77059E6 
 1157      EE11
 1158 03ef E444FB00 		.ascii	"\344D\373\000\034A\271\277\371P\001\011\334Z\035\242"
 1158      1C41B9BF 
 1158      F9500109 
 1158      DC5A1DA2 
 1159 03ff AB2EB854 		.ascii	"\253.\270T|\257z\332\231]\"\004\006\246\363\376i\331"
 1159      7CAF7ADA 
 1159      995D2204 
 1159      06A6F3FE 
 1159      69D9
 1160 0411 61D1373B 		.ascii	"a\3217;\251\011\262\247\037T9\341\005DI\270x\374\376"
 1160      A909B2A7 
 1160      1F5439E1 
 1160      054449B8 
 1160      78FCFE
 1161 0424 757BE4A1 		.ascii	"u{\344\241\2431\250\177\261{\331\243\010\243Q@\325\300"
 1161      A331A87F 
 1161      B17BD9A3 
 1161      08A35140 
 1161      D5C0
 1162 0436 B50A6154 		.ascii	"\265\012aT\211\226\021\223k\011\313h31\215\231\025:"
 1162      89961193 
 1162      6B09CB68 
 1162      33318D99 
 1162      153A
 1163 0448 0A21007B 		.ascii	"\012!\000{D\017U\300\305rr\021j\023:\021C\207\354\201"
 1163      440F55C0 
 1163      C5727211 
ARM GAS  /tmp/ccUpC65v.s 			page 93


 1163      6A133A11 
 1163      4387EC81 
 1164 045c 8E3B3044 		.ascii	"\216;0D2z\356\214^y\375\243B-\376g\312\242\262|(Egf"
 1164      327AEE8C 
 1164      5E79FDA3 
 1164      422DFE67 
 1164      CAA2B27C 
 1165 0474 3192F2E3 		.ascii	"1\222\362\343\360(\302\242\016X\034\223X\270\233Y(\233"
 1165      F028C2A2 
 1165      0E581C93 
 1165      58B89B59 
 1165      289B
 1166 0486 E1387070 		.ascii	"\3418pp\347\034j\201C\015K\207C\373\363N9\3430D-\230"
 1166      E71C6A81 
 1166      430D4B87 
 1166      43FBF34E 
 1166      39E33044 
 1167 049c 124E96BB 		.ascii	"\022N\226\273\230-t\037z\343\010\365\363$X8!Y\250CV"
 1167      982D741F 
 1167      7AE308F5 
 1167      F3245838 
 1167      2159A843 
 1168 04b1 4CD45B30 		.ascii	"L\324[0A*\203\231\307\261\021Oy\006\333A\261\373\300"
 1168      412A8399 
 1168      C7B1114F 
 1168      7906DB41 
 1168      B1FBC0
 1169 04c4 AD299DD5 		.ascii	"\255)\235\325\224m\024S\266\201qL\251}|\326\206U\266"
 1169      946D1453 
 1169      B681714C 
 1169      A97D7CD6 
 1169      8655B6
 1170 04d7 27F93E56 		.ascii	"'\371>VP\345\314R\266\236\334\036\315ko\022\3249t\032"
 1170      50E5CC52 
 1170      B69EDC1E 
 1170      CD6B6F12 
 1170      D439741A 
 1171 04eb D04E51B4 		.ascii	"\320NQ\264&\232C\215,\207\232h\016\0354]\330\353*\317"
 1171      269A438D 
 1171      2C879A68 
 1171      0E1D345D 
 1171      D8EB2ACF 
 1172 04ff A126450E 		.ascii	"\241&E\016\235\3419t\206\346Ple\3075\255U\256\315\""
 1172      9DE13974 
 1172      86E6506C 
 1172      65C735AD 
 1172      55AECD22 
 1173 0513 574FD6BB 		.ascii	"WO\326\273\242\322\377\232Q\031\017\023\251\260\350"
 1173      A2D2FF9A 
 1173      51190F13 
 1173      A9B0E8
 1174 0522 68500B25 		.ascii	"hP\013%\322\314\210\264P\"-7\272\336\225\363hQ\3608"
 1174      D2CC88B4 
 1174      50222D37 
 1174      BADE95F3 
 1174      6851F038 
 1175 0536 CB799CA5 		.ascii	"\313y\234\245<\036WG>saQX\010\305\202\350i\243\213U"
ARM GAS  /tmp/ccUpC65v.s 			page 94


 1175      3C1E5747 
 1175      3E736151 
 1175      5808C582 
 1175      E869A38B 
 1176 054b 5AE7445A 		.ascii	"Z\347DZ\255,\204\017g\323\252\034X\345EP|>\020\027g"
 1176      AD2C840F 
 1176      67D3AA1C 
 1176      58E54550 
 1176      7C3E1017 
 1177 0560 C7429841 		.ascii	"\307B\230A\262\256\257~\333a{u\010\333\000\355<E\273"
 1177      B2AEAF7E 
 1177      DB617B75 
 1177      08DB00ED 
 1177      3C45BB
 1178 0573 40999F63 		.ascii	"@\231\237c\314/P\346\323\265#\025HN\375\202\202z;\247"
 1178      CC2F50E6 
 1178      D3B52315 
 1178      484EFD82 
 1178      827A3BA7 
 1179 0587 DEFE1221 		.ascii	"\336\376\022!\274(r]N\251^\032?\227\306G\244\005P\334"
 1179      BC28725D 
 1179      4EA95E1A 
 1179      3F97C647 
 1179      A40550DC 
 1180 059b 7EFF62B2 		.ascii	"~\377b\262\223\232\332%\304\3063\015\352\240\324.2j"
 1180      939ADA25 
 1180      C4C6330D 
 1180      EAA0D42E 
 1180      326A
 1181 05ad 1D94DAF6 		.ascii	"\035\224\332\366\335#'urj\035\012j\235\234Z'\245\226"
 1181      DD232775 
 1181      726A1D0A 
 1181      6A9D9C5A 
 1181      27A596
 1182 05c0 FAA87F94 		.ascii	"\372\250\177\224\007\306\003\212\351\373\266?EV\231"
 1182      07C6038A 
 1182      E9FBB63F 
 1182      455699
 1183 05cf 76894C2F 		.ascii	"v\211L/\263\250>\253\356\317\324\262\312?\200\342\376"
 1183      B3A83EAB 
 1183      EECFD4B2 
 1183      CA3F80E2 
 1183      FE
 1184 05e0 B89AAD3C 		.ascii	"\270\232\255<1\233\311\260]y\377\372\301y\211y\005\320"
 1184      319BC9B0 
 1184      5D79FFFA 
 1184      C1798979 
 1184      05D0
 1185 05f2 BA295A0F 		.ascii	"\272)Z\017\245\336\305\250\367P\352Q'\037\206\333\312"
 1185      A5DEC5A8 
 1185      F750EA51 
 1185      271F86DB 
 1185      CA
 1186 0603 A9F728A8 		.ascii	"\251\367(\250\367r\352\275\224\372\231G\267;8\3657\241"
 1186      F772EABD 
 1186      94FA9947 
 1186      B73B38F5 
ARM GAS  /tmp/ccUpC65v.s 			page 95


 1186      37A1
 1187 0615 7872C7D6 		.ascii	"xr\307\326Q{\253\324\257\212\324\373\030\365\255iq\027"
 1187      517BABD4 
 1187      AF8AD4FB 
 1187      18F5AD69 
 1187      7117
 1188 0627 0456F987 		.ascii	"\004V\371\207PL\214\3317\250e\324\007\011\365\374\235"
 1188      504C8CD9 
 1188      37A865D4 
 1188      0709F5FC 
 1188      9D
 1189 0638 3B4D5A35 		.ascii	";MZ5\365k\200\326O\321\006(\365\253\214\372\000\245"
 1189      F56B80D6 
 1189      4FD10628 
 1189      F5AB8CFA 
 1189      00A5
 1190 064a FE7CA46E 		.ascii	"\376|\244n\217b\\\036PP\037\344\324\007)\365'\323\261"
 1190      8F625C1E 
 1190      50501FE4 
 1190      D40729F5 
 1190      27D3B1
 1191 065d 639CFA2B 		.ascii	"c\234\372+P<\265;\347\221\365\\\276!R\277\316\250?J"
 1191      503CB53B 
 1191      E791F55C 
 1191      BE2152BF 
 1191      CEA83F4A 
 1192 0671 8A88B167 		.ascii	"\212\210\261g\225\277\015ESL\014g~\224\244rlKy\216\263"
 1192      95BF0D45 
 1192      534C0C67 
 1192      7E94A472 
 1192      6C4B798E 
 1193 0686 9AF91080 		.ascii	"\232\371\020\200\335\244`\267(\363\033\214\371-\312"
 1193      DDA460B7 
 1193      28F31B8C 
 1193      F92DCA
 1194 0695 7CE0A6A9 		.ascii	"|\340\246\251\336A\316\374\226\202\3710g>L\231G\233"
 1194      DE41CEFC 
 1194      9682F930 
 1194      673E4C99 
 1194      479B
 1195 06a7 26DA5DAD 		.ascii	"&\332]\255R\035\021\251\0260\252\235\367.W\315\313\000"
 1195      521D11A9 
 1195      1630AA9D 
 1195      F72E57CD 
 1195      CB00
 1196 06b9 49FD3625 		.ascii	"I\3756%3\302\310\334\246d\316E\305\037P\364\253\333"
 1196      33C2C8DC 
 1196      A664CE45 
 1196      C51F50F4 
 1196      ABDB
 1197 06cb 0A32A39C 		.ascii	"\0122\243\234\314(%\363\374j\350\034oD\027(\316\204"
 1197      CC2825F3 
 1197      FC6AE81C 
 1197      6F441728 
 1197      CE84
 1198 06dd 5DDBE96C 		.ascii	"]\333\351l\225\333]\221\333\035\306\255h\342q\221-\253"
 1198      95DB5D91 
ARM GAS  /tmp/ccUpC65v.s 			page 96


 1198      DB1DC6AD 
 1198      68E27191 
 1198      2DAB
 1199 06ef 4CE6C5E8 		.ascii	"L\346\305\350\353Q\035:\026\307)r\373\324\364-;5\363"
 1199      EB511D3A 
 1199      16C72972 
 1199      FBD4F42D 
 1199      3B35F3
 1200 0702 FB00768F 		.ascii	"\373\000v\217\202\215Q\346w\031\3631\312\374\366\363"
 1200      828D51E6 
 1200      7719F331 
 1200      CAFCF6F3 
 1201 0712 193B39F1 		.ascii	"\031;9\3611\005\361\007\234\370\003J|*\364\362I\335"
 1201      3105F107 
 1201      9CF8034A 
 1201      7C2AF4F2 
 1201      49DD
 1202 0724 E2443AE9 		.ascii	"\342D:\351\206\033\027\010\350\343Wd}z\034-\206\277"
 1202      861B1708 
 1202      E8E35764 
 1202      7D7A1C2D 
 1202      86BF
 1203 0736 9F6AD944 		.ascii	"\237j\331D<0\325}\315I\016\014\267e\300\017\0310(f\214"
 1203      3C30D57D 
 1203      CD490E0C 
 1203      B765C00F 
 1203      19302866 
 1204 074b 1EA8B517 		.ascii	"\036\250\265\027\025\243\255)\242\011\312\340\374\351"
 1204      15A3AD29 
 1204      A209CAE0 
 1204      FCE9
 1205 0759 8E643B5C 		.ascii	"\216d;\\H\347=\355\355\023\023\002\350\221\177\016\036"
 1205      48E73DED 
 1205      ED131302 
 1205      E8917F0E 
 1205      1E
 1206 076a 64753289 		.ascii	"du2\211\034\330\262f\001=\215\242s]X\034\254\006\304"
 1206      1CD8B266 
 1206      013D8DA2 
 1206      735D581C 
 1206      AC06C4
 1207 077d B9EE29CC 		.ascii	"\271\356)\314u\344\226\006=\206jO\300\202l\201\0047"
 1207      75E49606 
 1207      3D866A4F 
 1207      C0826C81 
 1207      0437
 1208 078f D0236981 		.ascii	"\320#i\201D\312\262\305\310\322\371\213\221\245l\266"
 1208      44CAB2C5 
 1208      C8D2F98B 
 1208      91A56CB6 
 1209 079f BFB46B22 		.ascii	"\277\264k\"\333\016\037\341\223\361\331\356\006\255"
 1209      DB0E1FE1 
 1209      93F1D9EE 
 1209      06AD
 1210 07ad 6CBAFF9B 		.ascii	"l\272\377\233\344\011\322\020\263\320\016\317\244\311"
 1210      E409D210 
 1210      B3D00ECF 
ARM GAS  /tmp/ccUpC65v.s 			page 97


 1210      A4C9
 1211 07bb 78A9D545 		.ascii	"x\251\325E\307\0140\\\312g\343i\2708\305'\374\354\370"
 1211      C70C305C 
 1211      CA67E369 
 1211      B838C527 
 1211      FCECF8
 1212 07ce 4C5B     		.ascii	"L["
 1213 07d0 5CC76C34 		.ascii	"\\\307l4\325\365]\321\"\235\207E\200\027\026\000\314"
 1213      D5F55DD1 
 1213      229D8745 
 1213      80171600 
 1213      CC
 1214 07e1 2B8326BA 		.ascii	"+\203&\2722\230\0032\317%2\263,\037\346\350\224_\271"
 1214      32980332 
 1214      CF2532B3 
 1214      2C1FE6E8 
 1214      945FB9
 1215 07f4 E3D471E1 		.ascii	"\343\324q\341\032\014\022\260\374E\013X \020\373\213"
 1215      1A0C12B0 
 1215      FC450B58 
 1215      2010FB8B 
 1216 0804 A8D0E20B 		.ascii	"\250\320\342\013\361\207\020\275\016W\005\015\337x\211"
 1216      F18710BD 
 1216      0E57050D 
 1216      DF7889
 1217 0813 97905883 		.ascii	"\227\220X\203\227\005^\0248$\375\307+#\031\"\273\315"
 1217      97055E14 
 1217      3824FDC7 
 1217      2B231922 
 1217      BBCD
 1218 0825 2C893F0D 		.ascii	",\211?\015SgL4\024\235\325F\202d\000!y\005\031 \243"
 1218      53674C34 
 1218      149DD546 
 1218      82640021 
 1218      79051920 
 1219 083a CDEF9BF9 		.ascii	"\315\357\233\371i$\347\220\270||h:7\254\033\200\341"
 1219      6924E790 
 1219      B87C7C68 
 1219      3A37AC1B 
 1219      80E1
 1220 084c 12AE64BC 		.ascii	"\022\256d\274\203\350\265g''#u\370\014\015=\272{\371"
 1220      83E8B567 
 1220      27272375 
 1220      F80C0D3D 
 1220      BA7BF9
 1221 085f E26D7BDC 		.ascii	"\342m{\334\311\012I\347c\216\012\270\237\025\302nTv"
 1221      C90A49E7 
 1221      638E0AB8 
 1221      9F15C26E 
 1221      5476
 1222 0871 217C9315 		.ascii	"!|\223\025\342\316\037Hu\320\361\305V\3647.\253A{\374"
 1222      E2CE1F48 
 1222      75D0F1C5 
 1222      56F4372E 
 1222      AB417BFC 
 1223 0885 D1D54E41 		.ascii	"\321\325NA\336W\"\005\371\020\020%\210}E\234d\335\330"
 1223      DE572205 
ARM GAS  /tmp/ccUpC65v.s 			page 98


 1223      F9101025 
 1223      887D459C 
 1223      64DDD8
 1224 0898 245B39DC 		.ascii	"$[9\334\322\304;\277\221\014\242\227\347\016\266\272"
 1224      D2C43BBF 
 1224      910CA297 
 1224      E70EB6BA 
 1225 08a8 E0DB9482 		.ascii	"\340\333\224\202\355\351\235W\372\264h\311\222%\036"
 1225      EDE99D57 
 1225      FAB468C9 
 1225      92251E
 1226 08b7 4B166612 		.ascii	"K\026f\022\350\3723u\177\237\\>d4\356v\"\275\012\205"
 1226      E8FA3375 
 1226      7F9F5C3E 
 1226      6434EE76 
 1226      22BD0A85 
 1227 08cb 0BC05358 		.ascii	"\013\300SX(e\016[x\255\200?\032Vab\261\311X\277\025"
 1227      28650E5B 
 1227      78AD803F 
 1227      1A566162 
 1227      B1C958BF 
 1228 08e0 53EDAD6A 		.ascii	"S\355\255jmO\242|\010I\332\015\177)i\307Z\306f\352,"
 1228      6D4FA27C 
 1228      0849DA0D 
 1228      7F2969C7 
 1228      5AC666EA 
 1229 08f5 1B8793DD 		.ascii	"\033\207\223\335B\215FD\3244<\0235f\254\261\344\357"
 1229      428D4644 
 1229      D4343C13 
 1229      3566ACB1 
 1229      E4EF
 1230 0907 C6871B9B 		.ascii	"\306\207\033\233\227\023\337Q\204E\323\224g<\037\351"
 1230      9713DF51 
 1230      8445D394 
 1230      673C1FE9 
 1231 0917 DED16A50 		.ascii	"\336\321jP\214\340\216\242\005r\213(\003\"\332)x\240"
 1231      8CE08EA2 
 1231      05728B28 
 1231      0322DA29 
 1231      78A0
 1232 0929 5DC212B4 		.ascii	"]\302\022\264\035d\033\310\016a\211\330\320=yW\2060"
 1232      1D641BC8 
 1232      0E6189D8 
 1232      D03D7957 
 1232      8630
 1233 093b CEA55B26 		.ascii	"\316\245[&\241(\247\177\273\026-\364\260\204\206\366"
 1233      A128A77F 
 1233      BB162DF4 
 1233      B08486F6 
 1234 094b 00C81F03 		.ascii	"\000\310\037\003d\036\265\231la\034A\273A9^0\367.\342"
 1234      641EB599 
 1234      6C611C41 
 1234      BB41395E 
 1234      30F72EE2 
 1235 095f 1F3599FB 		.ascii	"\0375\231\373\370\351\013\227\205\334F\2645\033\032"
 1235      F8E90B97 
 1235      85DC46B4 
ARM GAS  /tmp/ccUpC65v.s 			page 99


 1235      351B1A
 1236 096e 6B8C47C3 		.ascii	"k\214G\303\022M\316\362$\331+\013\211\006%\230\223d"
 1236      124DCEF2 
 1236      24D92B0B 
 1236      89062598 
 1236      9364
 1237 0980 A86E201B 		.ascii	"\250n \033k\005v\215\214\307d+\372\240\263\317\311\352"
 1237      6B05768D 
 1237      8CC7642B 
 1237      FAA0B3CF 
 1237      C9EA
 1238 0992 C89D2490 		.ascii	"\310\235$\220\221;Q\340Cw\357\276\2311\24772\214\365"
 1238      913B51E0 
 1238      4377EFBE 
 1238      9931A737 
 1238      328CF5
 1239 09a5 833066B4 		.ascii	"\2030f\264-7\325@\316\350\264D\013\205I~\301)\374\015"
 1239      2D37D540 
 1239      CEE8B444 
 1239      0B85497E 
 1239      C129FC0D 
 1240 09b9 15061032 		.ascii	"\025\006\0202\302\200\241A\311\302\033d\231\177oh\324"
 1240      C280A141 
 1240      C9C21B64 
 1240      997F6F68 
 1240      D4
 1241 09ca 1E8FD2C0 		.ascii	"\036\217\322\300\242\256\212\333S\256\034\351\354_A"
 1241      A2AE8ADB 
 1241      53AE1CE9 
 1241      EC5F41
 1242 09d9 7A8419C9 		.ascii	"z\204\031\311\370CFx\223\204dR#\245P\244\374\326\301"
 1242      F8434678 
 1242      93846452 
 1242      23A550A4 
 1242      FCD6C1
 1243 09ec 541D7ECC 		.ascii	"T\035~\314\220\012\367'\314:\213H\356\012\244T\011)"
 1243      900AF727 
 1243      CC3A8B48 
 1243      EE0AA454 
 1243      0929
 1244 09fe 558DB48F 		.ascii	"U\215\264\217\"\265l\313\355s\305\341\230\"}\363$\226"
 1244      22B56CCB 
 1244      ED73C5E1 
 1244      98227DF3 
 1244      2496
 1245 0a10 2EC827B1 		.ascii	".\310'\261\324\355\307\357\270p\253\327\012\234L\031"
 1245      D4EDC7EF 
 1245      B870ABD7 
 1245      0A9C4C19 
 1246 0a20 D42C265A 		.ascii	"\324,&Z(M2\233\2466\273\237\232\275v7:K\300\211\314"
 1246      284D329B 
 1246      A636BB9F 
 1246      9ABD7637 
 1246      3A4BC089 
 1247 0a35 ECD8BEF6 		.ascii	"\354\330\276\366H\035m\225(s\253\334\230\251\355\262"
 1247      481D6D95 
 1247      2873ABDC 
ARM GAS  /tmp/ccUpC65v.s 			page 100


 1247      98A9EDB2 
 1248 0a45 97532133 		.ascii	"\227S!3\220\304%\223r9 6KF\342\216\357\003\227A\340"
 1248      90C42593 
 1248      72392036 
 1248      4B46E28E 
 1248      EF039741 
 1249 0a5a 72E73B2C 		.ascii	"r\347;,\002\241\002QB\031\022\225\0145\225,J\245n(\177"
 1249      02A10251 
 1249      42191295 
 1249      0C35952C 
 1249      4AA56E28 
 1250 0a6f 97133E60 		.ascii	"\227\023>`\235\312\263Kiyv\364\032\341pP`Y\023\335\363"
 1250      9DCAB34B 
 1250      697976F4 
 1250      1AE17050 
 1250      605913DD 
 1251 0a84 D8D93ABF 		.ascii	"\330\331:\277\\\312/G\344Wq\360\330\224\215H\360\273"
 1251      5CCA2F47 
 1251      E45771F0 
 1251      D8948D48 
 1251      F0BB
 1252 0a96 6682A085 		.ascii	"f\202\240\205\262%\202\331j\202y\224\340h\367\334Op"
 1252      B22582D9 
 1252      6A827994 
 1252      E068F7DC 
 1252      4F70
 1253 0aa8 91757EA9 		.ascii	"\221u~\251Oj:\024\013,\345\222\254\300\234\375-\323"
 1253      4F6A3A14 
 1253      0B2CE592 
 1253      ACC09CFD 
 1253      2DD3
 1254 0aba 67D25C69 		.ascii	"g\322\\ie\270\206\362\231#\306\264\310z\033\353\216"
 1254      65B886F2 
 1254      9923C6B4 
 1254      C87A1BEB 
 1254      8E
 1255 0acb 1452470E 		.ascii	"\024RG\016\213\216\214T\227vk\301\221\014p\344\306k"
 1255      8B8E8C54 
 1255      97766BC1 
 1255      910C70E4 
 1255      C66B
 1256 0add E65C032D 		.ascii	"\346\\\003-tHr\344\220\332\221\"\352\310\321\252\261"
 1256      744872E4 
 1256      90DA9122 
 1256      EAC8D1AA 
 1256      B1
 1257 0aee 767B7CCA 		.ascii	"v{|\312\272'\273*\372f]q?U\020R\212\017<\302\326f\362"
 1257      BA27BB2A 
 1257      FA665D71 
 1257      3F551052 
 1257      8A0F3CC2 
 1258 0b05 2382B599 		.ascii	"#\202\265\231\374\305\354\362C\235dYQ\006\023E\251\304"
 1258      FCC5ECF2 
 1258      439D6459 
 1258      51061345 
 1258      A9C4
 1259 0b17 698ECEE4 		.ascii	"i\216\316\344d\237w\344\264\021Q\303D\243\204E!\355"
ARM GAS  /tmp/ccUpC65v.s 			page 101


 1259      649F77E4 
 1259      B41151C3 
 1259      44A38445 
 1259      21ED
 1260 0b29 F4F61C27 		.ascii	"\364\366\034'\363\305rv1\177zr\326\301zh*ih*\304\320"
 1260      F3C57276 
 1260      317F7A72 
 1260      D6C17A68 
 1260      2A69682A 
 1261 0b3f B495251C 		.ascii	"\264\225%\034\260\343\241\271\334\266\330\034\033PC"
 1261      B0E3A1B9 
 1261      DCB6D81C 
 1261      1B5043
 1262 0b4e C5128F62 		.ascii	"\305\022\217bul\252hl\242\272^Da\234\251\245\261i\230"
 1262      756CAA68 
 1262      6CA2BA5E 
 1262      44619CA9 
 1262      A5B16998 
 1263 0b62 1E5840C9 		.ascii	"\036X@\311\220\325\010\013\315\251\222\202\347.V\273"
 1263      90D5080B 
 1263      CDA99282 
 1263      E72E56BB 
 1264 0b72 660DA552 		.ascii	"f\015\245R-R\2716;\236)\246[\357\233\346t\003-tTbrT"
 1264      2D52B936 
 1264      3B9E29A6 
 1264      5BEF9BE6 
 1264      74032D74 
 1265 0b8a CDA49632 		.ascii	"\315\244\2262\251\330\323wT\213\213\264V[)\362\324\340"
 1265      A9D8D377 
 1265      548B8BB4 
 1265      565B29F2 
 1265      D4E0
 1266 0b9c 7E07AB54 		.ascii	"~\007\253T\352(\225\343\"\225\276\336\236\037p&\015"
 1266      EA2895E3 
 1266      2295BEDE 
 1266      9E1F7026 
 1266      0D
 1267 0bad CBCC4C40 		.ascii	"\313\314L@\011\035\223\230\034S39A\2314\235z\221k\217"
 1267      091D9398 
 1267      1C533339 
 1267      4199349D 
 1267      7A916B8F 
 1268 0bc1 AB19930B 		.ascii	"\253\031\223\013\311{f\035\304.\344i\216.A\252\227\220"
 1268      C97B661D 
 1268      C42EE469 
 1268      8E2E41AA 
 1268      9790
 1269 0bd3 EAD54827 		.ascii	"\352\325H')\322TR\357\2643nbHs\263\203WY\002\224\230"
 1269      29D25452 
 1269      EFB4336E 
 1269      624873B3 
 1269      83575902 
 1270 0be9 C37B23B3 		.ascii	"\303{#\263\355\206\243U\237NQ\237\032E\237\352O\025"
 1270      ED86A355 
 1270      9F4E519F 
 1270      1A459FEA 
 1270      4F15
ARM GAS  /tmp/ccUpC65v.s 			page 102


 1271 0bfb 4D39F396 		.ascii	"M9\363\226\276\36433\025\320B\015\022\225\0065\225\323"
 1271      BEF43333 
 1271      15D0420D 
 1271      12950635 
 1271      95D3
 1272 0c0d 944AE9B3 		.ascii	"\224J\351\263\266vW\334\305\250\334k?Q\351\304\221\316"
 1272      B67657DC 
 1272      C5A8DC6B 
 1272      3F51E9C4 
 1272      91CE
 1273 0c1f FE4281D4 		.ascii	"\376B\201\324$!5\251\221\316P\244\373m7bm\361m\206\324"
 1273      242135A9 
 1273      91CE50A4 
 1273      FB6D3762 
 1273      6DF16D86 
 1274 0c34 7EE43AA8 		.ascii	"~\344:\250=a\205\334\202\361\2756\370\005+\244\035\253"
 1274      3D6185DC 
 1274      82F1BD36 
 1274      F8052BA4 
 1274      1DAB
 1275 0c46 DFE52CDF 		.ascii	"\337\345,\337DX\233\034s\217$\014*f\321Vhr\331\003\030"
 1275      44589B1C 
 1275      738F240C 
 1275      2A66D156 
 1275      6872D903 
 1276 0c5b 51517BB2 		.ascii	"QQ{\262u\262\321\021-\204\325\223|U =\237:\317\227\004"
 1276      75B2D111 
 1276      2D84D593 
 1276      7C55203D 
 1276      9F3ACF97 
 1277 0c70 17A093B6 		.ascii	"\027\240\223\266\303L\335\306gjq\251\365z\312,[j\001"
 1277      C34CDDC6 
 1277      676A71A9 
 1277      F57ACA2C 
 1277      5B6A01
 1278 0c83 243A0B7E 		.ascii	"$:\013~\236\267\262xb=z\322\304VC\347-\255\206\346L"
 1278      9EB7B278 
 1278      623D7AD2 
 1278      C45643E7 
 1278      2DAD86E6 
 1279 0c98 EEBB15AB 		.ascii	"\356\273\025\253\241\371Xt5D\026\260\305\261\027\\q"
 1279      A1F95874 
 1279      354416B0 
 1279      C5B1175C 
 1279      71
 1280 0ca9 840D1B5D 		.ascii	"\204\015\033]B\023n:\253\3265\242\007\250\003\210[s"
 1280      42136E3A 
 1280      ABD635A2 
 1280      07A80388 
 1280      5B73
 1281 0cbb 82AF6752 		.ascii	"\202\257gR\350z\346\022(]\224\032\352\274\270\2369w"
 1281      E87AE612 
 1281      285D941A 
 1281      EABCB89E 
 1281      3977
 1282 0ccd E6620F52 		.ascii	"\346b\017R\254g,ak\024\300P\355\372\300\211|\305\023"
 1282      AC672C61 
ARM GAS  /tmp/ccUpC65v.s 			page 103


 1282      6B14C050 
 1282      EDFAC089 
 1282      7CC513
 1283 0ce0 874E4553 		.ascii	"\207NES]67\325\326\211\223\017\260\274M\255)&\356m)"
 1283      5D3637D5 
 1283      D689930F 
 1283      B0BC4DAD 
 1283      2926EE6D 
 1284 0cf5 52CC0D5D 		.ascii	"R\314\015]\2126\3556\267i\326\303\303\241\260$^\350"
 1284      8A36ED36 
 1284      B769D6C3 
 1284      C3A1B024 
 1284      5EE8
 1285 0d07 B184C5B5 		.ascii	"\261\204\305\265)u\321^\032WPA-\340b\217\2256\262\234"
 1285      2975D15E 
 1285      1A575041 
 1285      2DE0628F 
 1285      9536B29C 
 1286 0d1b 023D3C7A 		.ascii	"\002=<z\275\340m\0378yE\021\275\311\024\326\242=\026"
 1286      BDE06D1F 
 1286      38794511 
 1286      BDC914D6 
 1286      A23D16
 1287 0d2e 5B3445D5 		.ascii	"[4E\325\242\363-\213-\232\030y\263Y\213\367\262\026"
 1287      A2F32D8B 
 1287      2D9A1879 
 1287      B3598BF7 
 1287      B216
 1288 0d40 AD1FDA91 		.ascii	"\255\037\332\221\351h\255E\257\001\217o\346\324\226"
 1288      E968AD45 
 1288      AF018F6F 
 1288      E6D496
 1289 0d4f 4A5BB41F 		.ascii	"J[\264\037\224\256J-\332#\266h\364\354p\255`\271Ee\330"
 1289      94AE4A2D 
 1289      DA23B668 
 1289      F4EC70AD 
 1289      60B94565 
 1290 0d64 1A053099 		.ascii	"\032\0050\231B\032\013\332\025\361\037P4\324\240\271"
 1290      421A0BDA 
 1290      15F11F50 
 1290      34D4A0B9 
 1291 0d74 A11EA7B7 		.ascii	"\241\036\247\267\265\332\320Ai\320<\320\306\277\310"
 1291      B5DAD041 
 1291      69D03CD0 
 1291      C6BFC8
 1292 0d83 EE74C019 		.ascii	"\356t\300\031\324=\364\342\301\243kN8\233\025\036\236"
 1292      D43DF4E2 
 1292      C1A36B4E 
 1292      389B151E 
 1292      9E
 1293 0d94 194A6043 		.ascii	"\031J`C\330I\363\020\366(u_9C\370\310\011\015\261\031"
 1293      D849F310 
 1293      F628755F 
 1293      3943F8C8 
 1293      090DB119 
 1294 0da8 2C624761 		.ascii	",bGa\022\331\005\331\262\015:yP=4\376\254R\313.\021"
 1294      12D905D9 
ARM GAS  /tmp/ccUpC65v.s 			page 104


 1294      B20D3A79 
 1294      503D34FE 
 1294      AC52CB2E 
 1295 0dbd 67BE2623 		.ascii	"g\276&#\204\351j\251\013\316ca\274w=&\326^\266I\377"
 1295      84E96AA9 
 1295      0BCE6361 
 1295      BC773D26 
 1295      D65EB649 
 1296 0dd2 C728FA4C 		.ascii	"\307(\372L\376\016L\213\267\245\270\330\362M\272q\336"
 1296      FE0E4C8B 
 1296      B7A5B8D8 
 1296      F24DBA71 
 1296      DE
 1297 0de3 CC3C0AD1 		.ascii	"\314<\012\321\260\3453\363\010,\342\207\005\272\217"
 1297      B0E533F3 
 1297      082CE287 
 1297      05BA8F
 1298 0df2 9B981E2F 		.ascii	"\233\230\036/\327\3422f#\366\372\304sW6\265\317\007"
 1298      D7E23266 
 1298      23F6FAC4 
 1298      735736B5 
 1298      CF07
 1299 0e04 B86F0140 		.ascii	"\270o\001@\334\244\257\254\240\233\364{@\346\256D\006"
 1299      DCA4AFAC 
 1299      A09BF47B 
 1299      40E6AE44 
 1299      06
 1300 0e15 B8B12076 		.ascii	"\270\261 vo\357\350\263\3055\314\310\364\235\346BG\263"
 1300      6FEFE8B3 
 1300      C535CCC8 
 1300      F49DE642 
 1300      47B3
 1301 0e27 23678EE2 		.ascii	"#g\216\342\230\254]F\243\026\215C\3451\251\362=\301"
 1301      98AC5D46 
 1301      A3168D43 
 1301      E531A9F2 
 1301      3DC1
 1302 0e39 AA2B0F2C 		.ascii	"\252+\017,\273Rr'\356\240b\303@\020\245\311\342!\235"
 1302      BB527227 
 1302      EEA062C3 
 1302      4010A5C9 
 1302      E2219D
 1303 0e4c 2C6E8993 		.ascii	",n\211\223\305\370L\370)Gy\006<\024\344\317p&\314\031"
 1303      C5F84CF8 
 1303      29477906 
 1303      3C14E4CF 
 1303      7026CC19 
