ARM GAS  /tmp/ccJaiJIG.s 			page 1


   1              		.cpu cortex-m4
   2              		.eabi_attribute 20, 1
   3              		.eabi_attribute 21, 1
   4              		.eabi_attribute 23, 3
   5              		.eabi_attribute 24, 1
   6              		.eabi_attribute 25, 1
   7              		.eabi_attribute 26, 1
   8              		.eabi_attribute 30, 2
   9              		.eabi_attribute 34, 1
  10              		.eabi_attribute 18, 4
  11              		.file	"chvt.c"
  12              		.text
  13              	.Ltext0:
  14              		.section	.gnu.lto_.profile.bae3572a7f3e3899,"",%progbits
  15 0000 789C6365 		.ascii	"x\234ce`b`e```d\350g\214\003\000\002\243\000\374"
  15      60626065 
  15      60606064 
  15      E8678C03 
  15      0002A300 
  16              		.text
  17              		.section	.gnu.lto_.icf.bae3572a7f3e3899,"",%progbits
  18 0000 789C6365 		.ascii	"x\234ce`b\220d@\000\026\206\263\273\216\337\342a\332"
  18      60629064 
  18      40001686 
  18      B3BB8EDF 
  18      E261DA
  19 0013 7CB27F15 		.ascii	"|\262\177\025\013\363\377\353\213Z8Y\346\236\376\030"
  19      0BF3FFEB 
  19      8B5A3859 
  19      E69EFE18 
  20 0023 C000009B 		.ascii	"\300\000\000\233\273\013\311"
  20      BB0BC9
  21              		.text
  22              		.section	.gnu.lto_.jmpfuncs.bae3572a7f3e3899,"",%progbits
  23 0000 789C6365 		.ascii	"x\234ce`b\320c@\000\026\006FF\306z\240 \003\0103\263"
  23      6062D063 
  23      40001606 
  23      4646C67A 
  23      A0200308 
  24 0016 00798CFC 		.ascii	"\000y\214\374\365@\000\025a\000\211\32431U20\0029\000"
  24      F5400015 
  24      610089D4 
  24      33315532 
  24      30023900 
  25 002a 5C0203DE 		.ascii	"\\\002\003\336"
  26              		.text
  27              		.section	.gnu.lto_.inline.bae3572a7f3e3899,"",%progbits
  28 0000 789C8D4F 		.ascii	"x\234\215O\275N\002a\020\234\331\275\343\276\200\321"
  28      BD4E0261 
  28      109CD9BD 
  28      E3BE80D1 
  29 0010 2B6CBC98 		.ascii	"+l\274\230\334\327Q\031Ba\253V\206\212\327\320\350C"
  29      DCD75119 
  29      4261AB56 
  29      868AD7D0 
  29      E843
  30 0022 808D5011 		.ascii	"\200\215P\021B\243\025w\361\037\254,l\240\341\001l\254"
ARM GAS  /tmp/ccJaiJIG.s 			page 2


  30      42A31577 
  30      F11FAC2C 
  30      6CA0E101 
  30      6CAC
  31 0034 AEA7C287 		.ascii	"\256\247\302\2070\361\273;b(\331b'\273;3\231\365!8&"
  31      30F1BB3B 
  31      6228D962 
  31      27BB3B33 
  31      99F52138 
  32 0049 FECB03A2 		.ascii	"\376\313\003\242\210\036\354\325\2352\273\311\226l\034"
  32      881EECD5 
  32      9D32BBC9 
  32      966C1C
  33 0058 258A47C5 		.ascii	"%\212G\305\275\346w\267\035\217\236\272{\235\337\256"
  33      BDE677B7 
  33      1D8F9EBA 
  33      7B9DDFAE 
  34 0068 49947C65 		.ascii	"I\224|e\003\340\033;\356j\257\267\323L\012\315\264\324"
  34      03E01B3B 
  34      EE6AAFB7 
  34      D34C0ACD 
  34      B4D4
  35 007a 10EB7E66 		.ascii	"\020\353~f\374~\035\376*\020p\025\204\0027\206\210\036"
  35      FC7E1DFE 
  35      2A107015 
  35      84023786 
  35      881E
  36 008c C634E03C 		.ascii	"\3064\340<\260FJ\200\244\361\216\344\276\254\346q\245"
  36      B0464A80 
  36      A4F18EE4 
  36      BEACE671 
  36      A5
  37 009d 064718B6 		.ascii	"\006G\030\266\005A\205\020\2638A%\215\013\202\242\371"
  37      05418510 
  37      B3384125 
  37      8D0B82A2 
  37      F9
  38 00ae 0D2AED85 		.ascii	"\015*\355\205\213\360\331\373\372\250\0164Q!\371\316"
  38      8BF0D9FB 
  38      FAA80E34 
  38      5121F9CE 
  39 00be 43D05EAE 		.ascii	"C\320^\256\321\375\257\255\354\307`\367\371\\\340\245"
  39      D1FDAFAD 
  39      ECC760F7 
  39      F95CE0A5 
  40 00ce 7198AB9D 		.ascii	"q\230\253\235q\341[\202\207\375\320\331\037\334\276"
  40      71E15B82 
  40      87FDD0D9 
  40      1FDCBE
  41 00dd 10B5D9A9 		.ascii	"\020\265\331\251l0\360\007'\3779)"
  41      6C30F007 
  41      27FF3929 
  42              		.text
  43              		.section	.gnu.lto_.pureconst.bae3572a7f3e3899,"",%progbits
  44 0000 789C6365 		.ascii	"x\234ce`b\340d```a\220b\222`\226b\221\002\000\002\323"
  44      6062E064 
  44      60606061 
ARM GAS  /tmp/ccJaiJIG.s 			page 3


  44      90629260 
  44      96629102 
  45 0017 0084     		.ascii	"\000\204"
  46              		.text
  47              		.section	.gnu.lto_chVTDoResetI.part.0.bae3572a7f3e3899,"",%progbits
  48 0000 789C9D56 		.ascii	"x\234\235VkLTG\024\236s\347\356\336\273\313\012\255"
  48      6B4C5447 
  48      149E73E7 
  48      EEDEBBCB 
  48      0AAD
  49 0012 56D3184B 		.ascii	"V\323\030K\370Qbl\2527mM\237?\032\243\177L$M\252\375"
  49      F851626C 
  49      AA376D4D 
  49      9F3F1AA3 
  49      7F4C244D 
  50 0028 6D286C02 		.ascii	"m(l\002-\260fw\245\255\177\270\"\202\002>\252E\335V"
  50      2DB06677 
  50      A5AD7FB8 
  50      2282023E 
  50      AA45DD56 
  51 003c 5C2A0A42 		.ascii	"\\*\012B\005\264V+\224\"\362\220\207\200\017\024Z\255"
  51      05B4562B 
  51      9422F290 
  51      87800F14 
  51      5AAD
  52 004e 8A0A08A2 		.ascii	"\212\012\010\242\255Z\253U\003\366\234\271W`a\211\244"
  52      AD5AAB55 
  52      03F69CB9 
  52      57606189 
  52      A4
  53 005f 37D9B977 		.ascii	"7\331\271wf\316|\347\373\31693\263\026&\2616;c+\201"
  53      66CE7CE7 
  53      FBCE3933 
  53      B31626B1 
  53      363B632B 
  54 0074 3117630C 		.ascii	"1\027c\014\354\014l\233\333\360\303\006\222xK\022/\347"
  54      EC0C6C9B 
  54      DBF0C306 
  54      92784B12 
  54      2FE7
  55 0086 4CB7CB9D 		.ascii	"L\267\313\235\315\214\351\016\016*\015\257VeI\255\014"
  55      CD8CE90E 
  55      0E2A0DAF 
  55      566549AD 
  55      0C
  56 0097 C771CB39 		.ascii	"\307q\3139\015\207-\2225{:\366\224\264\367\260g\005"
  56      0D872D92 
  56      357B3AF6 
  56      94B4F7B0 
  56      6705
  57 00a9 C530529E 		.ascii	"\3050R\236Y\253\000\364\241\253\300Rl\022\227-VE\205"
  57      59AB00F4 
  57      A1ABC052 
  57      6C12972D 
  57      564585
  58 00bc 14D8C4B7 		.ascii	"\024\330\304\267s\250\311\350-\227\346\024\352\370T"
  58      73A8C9E8 
ARM GAS  /tmp/ccJaiJIG.s 			page 4


  58      2D97E614 
  58      EAF854
  59 00cb 6FEF084D 		.ascii	"o\357\010M\327\327\276\354\347\214\371\360G\017\024"
  59      D7D7BEEC 
  59      E78CF9F0 
  59      470F14
  60 00da C21CB43A 		.ascii	"\302\034\264:\223v`'\337\310\375\034@\306\356\335\326"
  60      93766027 
  60      DFC8FD1C 
  60      40C6EEDD 
  60      D6
  61 00eb 6FAF8752 		.ascii	"o\257\207RW\202\010\354\026v\367v*\374\035`\370]TU^"
  61      578208EC 
  61      1676F776 
  61      2AFC1D60 
  61      F85D5455 
  62 0100 6F9BBD57 		.ascii	"o\233\275W\327S\365\352\356o\270\376\252\237s(\006\216"
  62      D753F5EA 
  62      EE6FB8FE 
  62      AA9F7328 
  62      068E
  63 0112 805004B3 		.ascii	"\200P\004\263`\037\314b8\304\340\007\230M\366}\215\017"
  63      601FCC62 
  63      38C4E007 
  63      984DF67D 
  63      8D0F
  64 0124 7A54FE81 		.ascii	"zT\376\201X[\220\375u\225#2_\254\035\252\234\261u\215"
  64      585B90FD 
  64      75952332 
  64      5FAC1DAA 
  64      9CB1758D 
  65 0138 DEA8CB7E 		.ascii	"\336\250\313~.\303\376\300\365\364\240yq\321\316\336"
  65      2EC3FEC0 
  65      F5F4A079 
  65      71D1CEDE 
  66 0148 50BE402C 		.ascii	"P\276@,\275{\270\275\336f.m\331\302\365=\272D\013K\203"
  66      BD7BB8BD 
  66      DE662E6D 
  66      D9C2F53D 
  66      BA440B4B 
  67 015d 2EBC7670 		.ascii	".\274vp(g\212U\2062\210\204\022\2104\304\302\001\260"
  67      28678A55 
  67      86328884 
  67      128834C4 
  67      C201B0
  68 0170 621EACF9 		.ascii	"b\036\254\371\234L\2627\014\336\017#\274-z\365\345\012"
  68      9C4CB237 
  68      0CDE0F23 
  68      BC2D7AF5 
  68      E50A
  69 0182 876F5F75 		.ascii	"\207o_uZ\204\237[\330X48\010\221c\314\033\217K\202v"
  69      5A849F5B 
  69      D8583438 
  69      089163CC 
  69      1B8F4B82 
  70 0197 10E31F27 		.ascii	"\020\343\037'4\226\307\033\0372\330\021\313\262\263"
  70      3496C71B 
ARM GAS  /tmp/ccJaiJIG.s 			page 5


  70      1F32D811 
  70      CBB2B3
  71 01a6 A0EB434F 		.ascii	"\240\353CO3t\275\342\355\227\246\003P\360$\012#\307"
  71      3374BDE2 
  71      ED97A603 
  71      50F0240A 
  71      23C7
  72 01b8 C62A5363 		.ascii	"\306*Sc\241\306J\215B\215J\215\215\021\200]\264!\242"
  72      A1C64A8D 
  72      428D4A8D 
  72      8D11805D 
  72      B421A2
  73 01cb 75D03063 		.ascii	"u\3200c\231(\230*\"\223\333\350\315\263\270$\336\375"
  73      9928982A 
  73      2293DBE8 
  73      CDB3B824 
  73      DEFD
  74 01dd 905AD1FF 		.ascii	"\220Z\321\377\350F\010\305\"\227K\310u\333\332\232S"
  74      E84608C5 
  74      22974BC8 
  74      75DBDA9A 
  74      53
  75 01ee 0A659A8B 		.ascii	"\012e\232\2130?lh^\347\360C.\370\271\222\213\305\360"
  75      303F6C68 
  75      5EE7F043 
  75      2EF8B992 
  75      8BC5F0
  76 0201 1391C5F1 		.ascii	"\023\221\305\361\275\335\251\245\212VBU\024A\266\207"
  76      BDDDA9A5 
  76      8A564255 
  76      1441B687 
  77 0211 C10F3B44 		.ascii	"\301\017;D\011\301\021\320\030\342nkz\215PGC\252\002"
  77      09C111D0 
  77      18E26E6B 
  77      7A8D5047 
  77      43AA02
  78 0224 B2BCFCD6 		.ascii	"\262\274\374\326E%ePWq \037\275\320\330\315\226\363"
  78      45256550 
  78      5771201F 
  78      BDD0D8CD 
  78      96F3
  79 0236 7576C38D 		.ascii	"uv\303\215\015\216b\251\376l\372\331x\364\300z\325\360"
  79      0D8E62A9 
  79      FE6CFAD9 
  79      78F4C07A 
  79      D5F0
  80 0248 9337C3CF 		.ascii	"\2237\303\317\355P.\034\201\221\327\372\3543{\236\315"
  80      ED502E1C 
  80      8191D7FA 
  80      EC337B9E 
  80      CD
  81 0259 BA894605 		.ascii	"\272\211F\005h;P\032\262\370\0054\024DD\036g\224<\355"
  81      683B501A 
  81      B2F80534 
  81      1444441E 
  81      67943CED 
  82 026d 02934BA0 		.ascii	"\002\223K\240\036)\230\236\274\002 \250J\341H\024\312"
ARM GAS  /tmp/ccJaiJIG.s 			page 6


  82      1E29989E 
  82      BC0220A8 
  82      4AE14814 
  82      CA
  83 027e AFA04D86 		.ascii	"\257\240M\206w\325\004\274ws\"~l4\361\254\323U\233B"
  83      77D504BC 
  83      7773227E 
  83      6C34F1AC 
  83      D3559B42 
  84 0292 116B1D4E 		.ascii	"\021k\035N?\300\302\015\201j\214\032\203\343\220B\224"
  84      3FC0C20D 
  84      816A8C1A 
  84      83E39042 
  84      94
  85 02a3 EFF73D29 		.ascii	"\357\367=)T\2022\016\232\201\274\231~\356\200\032\341"
  85      5482320E 
  85      9A81BC99 
  85      7EEE801A 
  85      E1
  86 02b4 4026C2B5 		.ascii	"@&\302\265\202\360p\334\035\300\240\016\227uC\332\205"
  86      82F070DC 
  86      1DC0A00E 
  86      977543DA 
  86      85
  87 02c5 DA7B1F8E 		.ascii	"\332{\037\216$\373\271\222\352'\220\364\031):1\221\242"
  87      24FBB992 
  87      EA2790F4 
  87      19293A31 
  87      91A2
  88 02d7 7012D420 		.ascii	"p\022\324 \0045\242 z\2620\222\345\234\017\300\232\256"
  88      0435A220 
  88      7AB23092 
  88      E59C0FC0 
  88      9AAE
  89 02e9 81EC8E13 		.ascii	"\201\354\216\0230\274)\323\214\203h(\314\"6\244\317"
  89      30BC29D3 
  89      8C836828 
  89      CC2236A4 
  89      CF
  90 02fa 283B73C3 		.ascii	"(;s\3032h\002\254^h\3066\220\356\024\037&\217&\341$"
  90      326802AC 
  90      5E68C636 
  90      90EE141F 
  90      268F26E1 
  91 030f 7AF0F350 		.ascii	"z\360\363P\341Cfxl\032E\275\241(\324\320\311\237\233"
  91      E1436678 
  91      6C1A45BD 
  91      A128D4D0 
  91      C99F9B
  92 0322 F5B97470 		.ascii	"\365\271tp\264\0101\026\212^\253Q\300\025Mf\244\344"
  92      B4083116 
  92      8A5EAB51 
  92      C0154D66 
  92      A4E4
  93 0334 49EF0319 		.ascii	"I\357\003\031\332F`N\011\2305\333\322}\212\201cA2\210"
  93      DA46604E 
  93      099835DB 
ARM GAS  /tmp/ccJaiJIG.s 			page 7


  93      D27D8A81 
  93      63413288 
  94 0348 2636876D 		.ascii	"&6\207mR\365(\230\235\036\201<CEm\021\344\372w5\231"
  94      52F52898 
  94      9D1E813C 
  94      43456D11 
  94      E4FA7735 
  95 035d B0D6C924 		.ascii	"\260\326\311$\362\354\004\211\274\007\224\311\366\211"
  95      F2EC0489 
  95      BC0794C9 
  95      F689
  96 036b 36D52A3C 		.ascii	"6\325*<\325\340\034m*+\371?/$\325T<\332_\337\266\233"
  96      D5E01C6D 
  96      2A2BF93F 
  96      2F24D554 
  96      3CDA5FDF 
  97 0381 8FCD61E5 		.ascii	"\217\315a\345\324p3\207\234\215\231\353\254\214\360"
  97      D4703387 
  97      9C8D99EB 
  97      AC8CF0
  98 0390 CF67D041 		.ascii	"\317g\320A\223\362\330\311v\337\353\2570\350\2449K@"
  98      93F2D8C9 
  98      76DFEBAF 
  98      30E8A439 
  98      4B40
  99 03a2 F27F13C9 		.ascii	"\362\177\023\311\377\235D*\243\3539L\324H[\311\303;"
  99      FF9D442A 
  99      A3EB394C 
  99      D4485BC9 
  99      C33B
 100 03b4 76A34B30 		.ascii	"v\243K0\224\245\374\322\007\015\252!\371\005\270\210"
 100      94A5FCD2 
 100      070DAA21 
 100      F905B888 
 101 03c4 67EB0553 		.ascii	"g\353\005Srq\353\375\277)Mi\253\365\256C93\213\266\240"
 101      7271EBFD 
 101      BF294D69 
 101      ABF5AE43 
 101      39338BB6 
 102 03d9 C58BF087 		.ascii	"\305\213\360\207\220\255\030\216\340\022\212\353\201"
 102      90AD188E 
 102      E0128AEB 
 102      81
 103 03e6 D4AE2C33 		.ascii	"\324\256,3\262\270\2546\265$+\224\177'\011\1775-G\013"
 103      B2B8AC36 
 103      B5242B94 
 103      7F27097F 
 103      352D470B 
 104 03fa 42CD1B87 		.ascii	"B\315\033\207n\010\335\270!\340\362\370+\007\256@$&"
 104      6E08DDB8 
 104      21E0F2F8 
 104      2B07AE40 
 104      2426
 105 040c 86E0F29E 		.ascii	"\206\340\362\236\354\0117\321no\336Tk\343\337\033h\273"
 105      EC0937D1 
 105      6E6FDE54 
 105      6BE3DF1B 
ARM GAS  /tmp/ccJaiJIG.s 			page 8


 105      68BB
 106 041e 73AA0A1C 		.ascii	"s\252\012\034A\320\272\202\240]\305+\213JiG\372\025"
 106      41D0BA82 
 106      A05DC52B 
 106      8B4A6947 
 106      FA15
 107 0430 DFA3C1F9 		.ascii	"\337\243\301\371\343\343>\213L\310\251\031\177k@\030"
 107      E3E33E8B 
 107      4CC8A919 
 107      7F6B4018 
 108 0440 AF89305E 		.ascii	"\257\2110^\2470\252\271Tf\202X\204\270\377h\315H\357"
 108      A730AAB9 
 108      54668258 
 108      84B8FF68 
 108      CD48EF
 109 0453 6A40AF8C 		.ascii	"j@\257\214zxf\234\252\355hv\014\227\260j\356g\013k\230"
 109      7A78669C 
 109      AAED6876 
 109      0C97B06A 
 109      EE670B6B 
 110 0468 CB05A9C1 		.ascii	"\313\005\251\301\034\2471k3\015\206\021J(\0146\003\343"
 110      1CA7316B 
 110      330D8611 
 110      4A280C36 
 110      03E3
 111 047a F24913C3 		.ascii	"\362I\023\303\206\334\016g\264\034\024\271\223\361n"
 111      86DC0E67 
 111      B41C14B9 
 111      93F16E
 112 0489 EB367566 		.ascii	"\3536uf!\261\002\007\027{\246u{\242amG@*\312\247\017"
 112      21B10207 
 112      177BA675 
 112      7BA2616D 
 112      47402ACA 
 113 049f ABC36881 		.ascii	"\253\303h\201\025$\350\301\005\201>\354b\271B\224z@"
 113      1524E8C1 
 113      05813EEC 
 113      62B94294 
 113      7A40
 114 04b1 62C66088 		.ascii	"b\306`\210\210\377\261\002n\306\177\357\225\177\257"
 114      88FFB102 
 114      6EC67FEF 
 114      957FAF
 115 04c0 86F02E23 		.ascii	"\206\360.#\376\015\355\351\253\247\004\211\177o\220"
 115      FE0DEDE9 
 115      ABA70489 
 115      7F6F90
 116 04cf F8DF18C9 		.ascii	"\370\337\030\311\346\010\332\245\265\025u*\3573\320"
 116      E608DAA5 
 116      B515752A 
 116      EF33D0
 117 04de 2E76E796 		.ascii	".v\347\226*\343\320d\350\013\202\326op\02321\237O\226"
 117      2AE3D064 
 117      E80B82D6 
 117      6F701332 
 117      319F4F96 
 118 04f2 8DCDE7AE 		.ascii	"\215\315\347\256i\234\214\310\255\231O% \2377E>\007"
ARM GAS  /tmp/ccJaiJIG.s 			page 9


 118      699C8CC8 
 118      AD994F25 
 118      209F3745 
 118      3E07
 119 0504 283A0EE4 		.ascii	"(:\016\344e\0125\242q# \203\375\243{\010\261\276:\263"
 119      650A35A2 
 119      71232083 
 119      FDA37B08 
 119      B1BE3AB3 
 120 0518 CECEEF1A 		.ascii	"\316\316\357\032\234\375\305GnA\220\010\334\012\302"
 120      9CFDC547 
 120      6E419008 
 120      DC0AC2
 121 0527 F936010D 		.ascii	"\3716\001\015@\032\036\336C\343\016\357\255\273\246"
 121      401A1EDE 
 121      43E30EEF 
 121      ADBBA6
 122 0536 090383AB 		.ascii	"\011\003\203\253\032\300\365O\301\365\257q\347\367T"
 122      1AC0F54F 
 122      C1F5AF71 
 122      E7F754
 123 0545 1F1E4A34 		.ascii	"\037\036J4\011w\360\374F!~>\215\261\177 \004K\310\362"
 123      0977F0FC 
 123      46217E3E 
 123      8DB17F20 
 123      044BC8F2 
 124 0559 B8EC0260 		.ascii	"\270\354\002`N\255\231e\022fU\025\377Tn\203d\374A\315"
 124      4EAD9965 
 124      12665515 
 124      FF546E83 
 124      64FC41CD 
 125 056d C4730A07 		.ascii	"\304s\012\007\2607_KL\362j1\332'\036\247\333\243%%:"
 125      B0375F4B 
 125      4CF26A31 
 125      DA271EA7 
 125      DBA32525 
 126 0582 BDABB445 		.ascii	"\275\253\264EN\317\347^\327\012ma\\\374\247\361\037"
 126      4ECFE75E 
 126      D70A6D61 
 126      5CFCA7F1 
 126      1F
 127 0593 2DD55C1E 		.ascii	"-\325\\\036\315\355\325<\356\030-&.\331;/\206\361d\357"
 127      CDEDD53C 
 127      EE182D26 
 127      2ED93B2F 
 127      86F164EF 
 128 05a7 0A4BAC33 		.ascii	"\012K\2543\301\033\255&\271\276\020\037\213'\207\023"
 128      C11BAD26 
 128      B9BE101F 
 128      8B278713 
 129 05b7 E34A4C74 		.ascii	"\343JLt%i+\\n\257G[\360q\324\302\250/\0214\306\345v"
 129      25692B5C 
 129      6EAF475B 
 129      F071D4C2 
 129      A82F1134 
 130 05ce 2EF7C627 		.ascii	".\367\306':\335\363\342X\324\344\220\342\242\023L\230"
 130      3ADDF3E2 
ARM GAS  /tmp/ccJaiJIG.s 			page 10


 130      58D4E490 
 130      E2A2134C 
 130      98
 131 05df A5CBA2DE 		.ascii	"\245\313\242\336zS[\262d\221\266lqT\362\0334\263\334"
 131      7A535BB2 
 131      6491B66C 
 131      7154F21B 
 131      34B3DC
 132 05f2 E35D9E90 		.ascii	"\343]\236\220\020\213h\357NZ_|RL\302\312X\247\2411\216"
 132      108B68EF 
 132      4E5A5F7C 
 132      524CC2CA 
 132      58A7A131 
 133 0607 593CDE68 		.ascii	"Y<\336h\267\227;\223b\337\377\037\020$\006A\024\317"
 133      B7973B93 
 133      62DFFF1F 
 133      10240641 
 133      14CF
 134 0619 571EFA54 		.ascii	"W\036\372T\343\223\274Nwrt\202L\275\377\000D\223\370"
 134      E393BC4E 
 134      77727482 
 134      4CBDFF00 
 134      4493F8
 135 062c 5D       		.ascii	"]"
 136              		.text
 137              		.section	.gnu.lto__vt_init.bae3572a7f3e3899,"",%progbits
 138 0000 789C8D93 		.ascii	"x\234\215\223KK[A\024\307\317\177&&\227\210u'\224\372"
 138      4B4B5B41 
 138      14C7CF7F 
 138      26269788 
 138      752794FA 
 139 0014 05DC7436 		.ascii	"\005\334t6\342\027\250t\333E\361\0134\004\"\305(\271"
 139      E217A874 
 139      DB45F10B 
 139      340422C5 
 139      28B9
 140 0026 972EBAC9 		.ascii	"\227.\272\311U\220\324w7\255\272\220+U0jm\214}y}\304"
 140      5590D477 
 140      37ADBA90 
 140      2B55306A 
 140      6D8C7D79 
 141 003c 6BACE0A2 		.ascii	"k\254\340\242\370(\270\222nZ(\255\244\273n*\37083\261"
 141      F828B892 
 141      6E5A28AD 
 141      A4BB6E2A 
 141      F83833B1 
 142 0050 D04D6F73 		.ascii	"\320Mos`\230\3139w\316\377\377c\316\324\221\240\264"
 142      6098CB39 
 142      77CEFFFF 
 142      63CED491 
 142      A0B4
 143 0062 246A23A2 		.ascii	"$j#\242[\274 \011\342\351>Q\257%\000\375\341Z\240\254"
 143      5BBC2009 
 143      E2E93E51 
 143      AF2500FD 
 143      E15AA0AC 
 144 0076 40166372 		.ascii	"@\026cr\\\242\234\373\346\213\2269\227#\030?\273\351"
ARM GAS  /tmp/ccJaiJIG.s 			page 11


 144      5CA29CFB 
 144      E68B9639 
 144      9723183F 
 144      BBE9
 145 0088 E603787C 		.ascii	"\346\003x||\222\227\016\314\241\205\370\267/\305\213"
 145      7C92970E 
 145      CCA185F8 
 145      B72FC58B 
 146 0098 670DD148 		.ascii	"g\015\321H5\217<\242\340\275\360\011\201{q\231s\203"
 146      358F3CA2 
 146      E0BDF009 
 146      817B7199 
 146      7383
 147 00aa CA0B7877 		.ascii	"\312\013xw\243D\203\\\326\032CR\350]\376@\337Y\356\374"
 147      A344835C 
 147      D61A4352 
 147      E85DFE40 
 147      DF59EEFC 
 148 00be 20AE4F70 		.ascii	" \256Op\227\347\375\345\203\330\250\364$\240\233\372"
 148      97E7FDE5 
 148      83D8A8F4 
 148      24A09BFA 
 149 00ce 7EE52496 		.ascii	"~\345$\226=w-N\314\350\306\234;\375x\374!\356a\212]"
 149      3D772D4E 
 149      CCE8C69C 
 149      3BFD78FC 
 149      21EE618A 
 150 00e3 082CB0CB 		.ascii	"\010,\260\313y4\233\302\350\352\362\200\245\226\264"
 150      79349BC2 
 150      E8EAF280 
 150      A596B4
 151 00f2 D1E9264F 		.ascii	"\321\351&OJ,\302\303\204\261\311\325\335\341\243\331"
 151      4A2CC2C3 
 151      84B1C9D5 
 151      DDE1A3D9 
 152 0102 3FD58C27 		.ascii	"?\325\214'#x\0115!\265I,A\325\242\365\352\037Z\247B"
 152      23780935 
 152      21B5492C 
 152      41D5A2F5 
 152      EA1F5AA7 
 153 0117 8B15FE16 		.ascii	"\213\025\376\026\033:,\215\335\340^O\270\\\342r\035"
 153      1B3A2C8D 
 153      DDE05E4F 
 153      B85CE272 
 153      1D
 154 0128 96A158A9 		.ascii	"\226\241X\251\210,\031\342\221b\036\327\310\377\325"
 154      882C19E2 
 154      91621ED7 
 154      C8FFD5
 155 0137 5D09637C 		.ascii	"]\011c|\035\312\370F3\012\315\370\2666\306w\241\214"
 155      1DCAF846 
 155      330ACDF8 
 155      B636C677 
 155      A18C
 156 0149 EFC31957 		.ascii	"\357\303\031W\015\243_e\374\365}\340k\274V\304\2650"
 156      0DA35F65 
 156      FCF57DE0 
ARM GAS  /tmp/ccJaiJIG.s 			page 12


 156      6BBC56C4 
 156      B530
 157 015b C4F510C4 		.ascii	"\304\365\020\304(64\242\231\271M\203\370yo~Q\352\011"
 157      283634A2 
 157      99B94D83 
 157      F8796F7E 
 157      51EA09
 158 016e 8AE192A3 		.ascii	"\212\341\222\243\021%\356k\374\214\354\324\327\352g"
 158      1125EE6B 
 158      FC8CECD4 
 158      D7EA67
 159 017d 2BCC4F10 		.ascii	"+\314O\020\342\307\302\266\366\023\321~\312\306O\241"
 159      E2C7C2B6 
 159      F613D17E 
 159      CAC64FA1 
 160 018d E2FF6EA8 		.ascii	"\342\377n\250\372!\354p\317\237\350\233\336\0326\267"
 160      FA21EC70 
 160      CF9FE89B 
 160      DE1A36B7 
 161 019d 6F1ED020 		.ascii	"o\036\320 \017!\277\004\276\245V\325\225vTBu\330\311"
 161      0F21BF04 
 161      BEA556D5 
 161      95765442 
 161      75D8C9
 162 01b0 8CADD25D 		.ascii	"\214\255\322]I\347\261jO\332\017\235\356\036u'\325\371"
 162      49E7B16A 
 162      4FDA0F9D 
 162      EE1E7527 
 162      D5F9
 163 01c2 A0F3DE7D 		.ascii	"\240\363\336}\325m\253\214\243\354LB%R\217\234\333\011"
 163      D56DAB8C 
 163      A3EC4C42 
 163      25528F9C 
 163      DB09
 164 01d4 BA020928 		.ascii	"\272\002\011(:\233"
 164      3A9B
 165              		.text
 166              		.section	.gnu.lto_chVTDoSetI.bae3572a7f3e3899,"",%progbits
 167 0000 789C9D58 		.ascii	"x\234\235XmP\223W\026\276\347\336$o\362\346\203]W\224"
 167      6D509357 
 167      16BEE7DE 
 167      246FF2E6 
 167      835D5794 
 168 0014 41417474 		.ascii	"AAtt\034\235\325tw\335\351v\367O;\355\217vFggZ\367\267"
 168      1C9DD574 
 168      77DDE976 
 168      F74F3BED 
 168      8F764667 
 169 002c C3421CD9 		.ascii	"\303B\034\331EpB\312n\367\217\021\202\210\240P+\250"
 169      457042CA 
 169      6EF78F11 
 169      8288A050 
 169      2BA8
 170 003e 680C0B22 		.ascii	"h\014\013\"\005\025\277V+h\221\022\024u\021\253\265"
 170      0515BF56 
 170      2B689112 
 170      147511AB 
ARM GAS  /tmp/ccJaiJIG.s 			page 13


 170      B5
 171 004f F5ABACB6 		.ascii	"\365\253\254\266\012J\213\255\255_\305\217\260\367\334"
 171      0A4A8BAD 
 171      AD5FC58F 
 171      B0F7DC
 172 005e FB26019A 		.ascii	"\373&\001\232D ?\222\367~\234\347<\347\271\347\236{"
 172      44203F92 
 172      F77E9CE7 
 172      3CE7B9E7 
 172      9E7B
 173 0070 DFE80925 		.ascii	"\337\350\011%\023\342\011\331\000\204\034\"\204@\034"
 173      13E209D9 
 173      00841C22 
 173      84401C
 174 007f 015AD645 		.ascii	"\001Z\326E\310*#\245\254$\236\270U\235\347\025\342\266"
 174      C82A23A5 
 174      AC249EB8 
 174      559DE715 
 174      E2B6
 175 0091 30D0C96E 		.ascii	"0\320\311n\035\32571\336m\270t\206\360~=Xe\277\201*"
 175      1DD53731 
 175      DE6DB874 
 175      86F07E3D 
 175      5865BF81 
 176 00a6 6B66F37E 		.ascii	"kf\363~#~[\0240\313n#5]\234\304\273\315\307^\346\335"
 176      237E5B14 
 176      30CB6E23 
 176      355D9CC4 
 176      BBCDC75E 
 177 00bc A660B719 		.ascii	"\246`\267\031l\370\000\252\374\375\304h\243jI\007\007"
 177      6CF800AA 
 177      FCFDC468 
 177      A36A4907 
 177      07
 178 00cd 542D1E85 		.ascii	"T-\036\205O\264\004a\255\000\370\3406\002YI\231NoP\214"
 178      4FB40461 
 178      AD00F8E0 
 178      36025949 
 178      994E6F50 
 179 00e2 26B36AB3 		.ascii	"&\263j\263Xa%\265\021\371)e\233\030\264\025\3666\321"
 179      586125B5 
 179      11F92965 
 179      9B18B415 
 179      F636D1
 180 00f5 39756EFE 		.ascii	"9un\376i\335\0240\254v\027$\370\030![\230\234\003u0"
 180      69DD1430 
 180      AC761724 
 180      F818215B 
 180      989C0375 
 181 010a 87CF3AEF 		.ascii	"\207\317:\357\331\267\215\255g>\006\240\343\315\037"
 181      D9B78DAD 
 181      673E06A0 
 181      E3CD1F
 182 0119 CE56DEB4 		.ascii	"\316V\336\264a\223B\012o\326\335\352\275\244\260\227"
 182      6193420A 
 182      6FD6DDEA 
 182      BDA4B097 
ARM GAS  /tmp/ccJaiJIG.s 			page 14


 183 0129 81F0E7FA 		.ascii	"\201\360\347\372\226\246\023\246\331\265nw\236\273\365"
 183      96A613A6 
 183      D9B56E77 
 183      9EBBF5
 184 0138 E246E69E 		.ascii	"\342F\346\236\351c\014\032\200q@\250\207\251\360!L%"
 184      E9630C1A 
 184      807140A8 
 184      87A9F021 
 184      4C25
 185 014a BC8BC02E 		.ascii	"\274\213\300.\230\315\247\347\037\350?\246\262?\011"
 185      98CDA7E7 
 185      1FE83FA6 
 185      B23F09
 186 0159 D3D2AAD6 		.ascii	"\323\322\252\326\0036\315\264\277B\230\352`\367HS\035"
 186      0336CDB4 
 186      BF4298EA 
 186      60F74853 
 186      1D
 187 016a 813DC274 		.ascii	"\201=\302t\353\217;\256\306\261\327\204i\365\351\213"
 187      EB8F3BAE 
 187      C6B1D784 
 187      69F5E98B 
 188 017a 05719AE9 		.ascii	"\005q\232\351\311m\023?\310w\277\351czh\034i\254'\260"
 188      C96D133F 
 188      C877BFE9 
 188      637A681C 
 188      69AC27B0 
 189 018e 5718EFA9 		.ascii	"W\030\357\251\272\357e\354Ma|\350\243\302\262\240q{"
 189      BAEF65EC 
 189      4D617CE8 
 189      A3C2B2A0 
 189      717B
 190 01a0 B9F06B80 		.ascii	"\271\360k\200}#M\015\004\366\303l\234\177\347\324\243"
 190      7D234D0D 
 190      04F6C36C 
 190      9C7FE7D4 
 190      A3
 191 01b1 1E235B28 		.ascii	"\036#[(lw\226\274\337b\231U#l\277\3306aC\276\373\224"
 191      6C7796BC 
 191      DF629955 
 191      236CBFD8 
 191      366143BE 
 192 01c7 5B87BC0F 		.ascii	"[\207\274\017\014\267\307\017\237\336\331Z\264Weo\013"
 192      0CB7C70F 
 192      9FDED95A 
 192      B457656F 
 192      0B
 193 01d8 D3C085BE 		.ascii	"\323\300\205\276{z\315\264k[B\320\224\301\177\"\232"
 193      7B7ACDB4 
 193      6B5B42D0 
 193      94C17F22 
 193      9A
 194 01e9 7EBD3F50 		.ascii	"~\275?Pn5\350\340\020\314\202\2030\253&\270Hp\030\014"
 194      6E35E8E0 
 194      10CC8283 
 194      30AB26B8 
 194      4870180C 
ARM GAS  /tmp/ccJaiJIG.s 			page 15


 195 01fd 3C0B6970 		.ascii	"<\013ip`\357\005hu\007\006\013\271\020S\273\037t\376"
 195      60EF0568 
 195      7507060B 
 195      B91053BB 
 195      1F74FE
 196 0210 EA251082 		.ascii	"\352%\020\202Q\202\0238,\237\242\000\252o\004\014H\005"
 196      51821338 
 196      2C9FA200 
 196      AA6F040C 
 196      4805
 197 0222 54C40238 		.ascii	"T\304\0028\307\212+3QL\214\347\217\312$1{2>&\210\307"
 197      C78A2B33 
 197      514C8CE7 
 197      8FCA2431 
 197      7B323E26 
 198 0238 447C9C82 		.ascii	"D|\234\202_\250\210\222\204_\311bd\232\260J\301\216"
 198      5FA88892 
 198      845FC962 
 198      649AB04A 
 198      C18E
 199 024a E9A26386 		.ascii	"\351\242c\206\350\230\211\210s\260w.~\315\303/B\326"
 199      E8988988 
 199      73B0772E 
 199      7ECDC32F 
 199      42D6
 200 025c 72DE8D0A 		.ascii	"r\336\215\012)f\224\377\260>\310\253\354;\227\257` "
 200      296694FF 
 200      B03EC8AB 
 200      EC3B97AF 
 200      6020
 201 026e 3CCE8A82 		.ascii	"<\316\212\202\266s\012\346\026\023*=\3568\263\306\342"
 201      B6730AE6 
 201      16132A3D 
 201      EE38B3C6 
 201      E2
 202 027f 03EF2A9E 		.ascii	"\003\357*\236\240U\211>f\3642\005>BY\370`\367\3077\017"
 202      A055893E 
 202      66F43205 
 202      3E4259F8 
 202      60F7C737 
 203 0294 33FB1E4C 		.ascii	"3\373\036L\336\024\\\264#\340\203\315\"s\241\011\354"
 203      DE145CB4 
 203      23E083CD 
 203      2273A109 
 203      EC
 204 02a5 5E662402 		.ascii	"^f$\002\374rM\020<&Z\355\255\274F%\204\246\207f\201"
 204      FC724D10 
 204      3C265AED 
 204      ADBC4625 
 204      84A68766 
 205 02ba 06887614 		.ascii	"\006\210v\024\321T\216\326\326<\260\333\337U\215;\247"
 205      D1548ED6 
 205      D63CB0DB 
 205      DF558D3B 
 205      A7
 206 02cb B3BAE0F7 		.ascii	"\263\272\340\367\254\032\004K\217\307{\025\264\265\334"
 206      AC1A044B 
ARM GAS  /tmp/ccJaiJIG.s 			page 16


 206      8FC77B15 
 206      B4B5DC
 207 02da 7444F11D 		.ascii	"tD\361\035p\273\213^\3651\023\034\213\271\226\037\303"
 207      70BB8B5E 
 207      F531131C 
 207      8BB9961F 
 207      C3
 208 02eb 2CB17E43 		.ascii	",\261~C:=\350\376U\002-`\330\"\025\030\322\337\372x"
 208      3A3DE8FE 
 208      55022D60 
 208      D8221518 
 208      D2DFFA78 
 209 02ff 778A6F01 		.ascii	"w\212o\001\201\3438HG\016>=\372\353$\002\2558\306\206"
 209      81E33848 
 209      470E3E3D 
 209      FAEB2402 
 209      AD38C686 
 210 0313 7821F009 		.ascii	"x!\360\011z\20060x\331\324\241\012\253\002\277k\317"
 210      7A803630 
 210      78D9D4A1 
 210      0AAB02BF 
 210      6BCF
 211 0325 E37BAA6C 		.ascii	"\343{\252l\"\014\356\357\232\306G\035F.\023\370\230"
 211      220CEEEF 
 211      9AC6471D 
 211      462E13F8 
 211      98
 212 0336 19DA3977 		.ascii	"\031\3329w\277&Q\303\331\007\367Q\"\317*\367\215\203"
 212      BF2651C3 
 212      D907F751 
 212      22CF2AF7 
 212      8D83
 213 0348 EB12EB37 		.ascii	"\353\022\3537\360\031\0268!\204\242\322\021\234\004"
 213      F0191638 
 213      2184A2D2 
 213      119C04
 214 0357 3BE981BC 		.ascii	";\351\201\274\033\305_\336T0\014\021%\271\005\236s\376"
 214      1BC55FDE 
 214      54300C11 
 214      25B9059E 
 214      73FE
 215 0369 93DB5FC2 		.ascii	"\223\333_\302\036/\263\340\266+\354\334/\374\352\000"
 215      1E2FB3E0 
 215      B62BECDC 
 215      2FFCEA00 
 216 0379 A04313A7 		.ascii	"\240C\023\247\230S\017\000\343\366Uu\245I\302\\\356"
 216      98530F00 
 216      E3F65575 
 216      A549C25C 
 216      EE
 217 038a F613838F 		.ascii	"\366\023\203\217[\343p\266\002\024N\211\331\305\274"
 217      5BE370B6 
 217      02144E89 
 217      D9C5BC
 218 0399 16F0FCE9 		.ascii	"\026\360\374\351\001*2\334\313\345\342\313\335\334w"
 218      012A32DC 
 218      CBE5E2CB 
ARM GAS  /tmp/ccJaiJIG.s 			page 17


 218      DDDC77
 219 03a8 B726597A 		.ascii	"\267&Yz\261\016\015\326*\202mj\352\277\246\254|\356"
 219      B10E0DD6 
 219      2A826D6A 
 219      EABFA6AC 
 219      7CEE
 220 03ba 36F28E1A 		.ascii	"6\362\216\032\\[\336\367M\347\347\355\252\214\326\006"
 220      5C5BDEF7 
 220      4DE7E7ED 
 220      AA8CD606 
 221 03ca 6760259C 		.ascii	"g`%\234\326\242]\177d_\221Q&DU\003\207\210\203\377\212"
 221      D6A25D7F 
 221      645F9151 
 221      26445503 
 221      878883FF 
 222 03df 48995CC5 		.ascii	"H\231\\\305\023%\347w\004\207{E\302v\202}3'\305\305"
 222      1325E777 
 222      04877B45 
 222      C276827D 
 222      3327C5C5 
 223 03f3 3ECB45E0 		.ascii	">\313E\340!_\365\267C\230\313\013\235wEq\356D\337\347"
 223      215FF5B7 
 223      4398CB0B 
 223      9D774571 
 223      EE44DFE7 
 224 0407 86FA2EFE 		.ascii	"\206\372.\376\264\245\324\306\241\326\360\321\245>\366"
 224      B4A5D4C6 
 224      A1D6F0D1 
 224      A53EF6
 225 0416 0BF8943B 		.ascii	"\013\370\224;$p\036V\242\212\017\001\270\306\\\026."
 225      24701E56 
 225      A28A0F01 
 225      B8C65C16 
 225      2E
 226 0427 146B7E72 		.ascii	"\024k~r\007\270Vz2\027\267ZE\337\200\337\206\224F\303"
 226      07B8567A 
 226      3217B75A 
 226      45DF80DF 
 226      869446C3 
 227 043b E742143E 		.ascii	"\347B\024>K\221\317g\321\264\250\006\314\374\213\250"
 227      4B91CF67 
 227      D1B4A806 
 227      CCFC8BA8 
 228 044b 851EB5F8 		.ascii	"\205\036\265\370\0347\317T\271\025\237\370\315\243u"
 228      1C37CF54 
 228      B9159FF8 
 228      CDA375
 229 045a FE452CE7 		.ascii	"\376E,\347\227b9gp9\264\020W\320\271\"\235?\035\275"
 229      97623967 
 229      7039B410 
 229      57D0B922 
 229      9D3F1DBD 
 230 046e F3ABB19C 		.ascii	"\363\253\261\234_\213\355\374Ktn@\347\335!\347O\012"
 230      5F8BEDFC 
 230      4B746E40 
 230      E7DD21E7 
 230      4F0A
ARM GAS  /tmp/ccJaiJIG.s 			page 18


 231 0480 CF1EDF01 		.ascii	"\317\036\337\001\232\367aU\350o$f\031b\360?\341MA\274"
 231      9AF76155 
 231      E86F2466 
 231      1962F03F 
 231      E14D41BC 
 232 0494 EB601F0D 		.ascii	"\353`\037\015\371\033Q\310\367Rd\377U\264<j\246\230"
 232      F91B51C8 
 232      F75264FF 
 232      55B43C6A 
 232      A698
 233 04a6 485F8B44 		.ascii	"H_\213D\272\311\023I\320\356\036/\355[\302\215\021i"
 233      BAC91349 
 233      D0EE1E2F 
 233      ED5BC28D 
 233      1169
 234 04b8 F78C8E76 		.ascii	"\367\214\216voL\332\267c\323\276#h\367I\332\225}\001"
 234      6F4CDAB7 
 234      63D3BE23 
 234      68F749DA 
 234      957D01
 235 04cb BF3A0ED6 		.ascii	"\277:\016\326:\370Fx1!\353oq\361\000KY\325\315\215\212"
 235      3AF84678 
 235      3121EB6F 
 235      71F1004B 
 235      59D5CD8D 
 236 04e0 86567BFD 		.ascii	"\206V{\375\247\257\314\254\236\212b\322\361\331\352"
 236      A7AFCCAC 
 236      9E8A62D2 
 236      F1D9EA
 237 04ef 5556ADEA 		.ascii	"UV\255\352\007\266Z\266\270[=)\230\372\375?/\372p\027"
 237      07B65AB6 
 237      B85B3D29 
 237      98FAFD3F 
 237      2FFA7017 
 238 0503 66E12618 		.ascii	"f\341&\030\216\326]\320\334nd\373%\332\265[\336F\345"
 238      8ED65DD0 
 238      DC6E64FB 
 238      25DAB55B 
 238      DE46E5
 239 0516 67683AF8 		.ascii	"gh:\370.\002\332\367\210\206\345.\277b\365^\337\300"
 239      2E02DAF7 
 239      8886E52E 
 239      BF62F55E 
 239      DFC0
 240 0528 D3C5238E 		.ascii	"\323\305#\216\202M\373T\005'\241[\355,\321\015;\022"
 240      824DFB54 
 240      0527A15B 
 240      ED2CD10D 
 240      3B12
 241 053a EE8923E1 		.ascii	"\356\211#\341\007\254L\211\034I\243\226\"\012.\332\204"
 241      07AC4C89 
 241      1C49A396 
 241      220A2EDA 
 241      84
 242 054b 5BDF0F6D 		.ascii	"[\337\017mq\210\242\326\265\355*{(9\373\032\016\367"
 242      7188A2D6 
 242      B5ED2A7B 
ARM GAS  /tmp/ccJaiJIG.s 			page 19


 242      2839FB1A 
 242      0EF7
 243 055d 4304057E 		.ascii	"C\004\005~\214\300\371>\002}\013\236\033\203\336\003"
 243      8CC0F93E 
 243      027D0B9E 
 243      1B83DE03 
 244 056d 272112E1 		.ascii	"'!\022\341\373!\262\372ad\037\010\262\017\371\367\360"
 244      FB21B2FA 
 244      61641F08 
 244      B20FF9F7 
 244      F0
 245 057e 34FAE516 		.ascii	"4\372\345\026~\346\343 <\342\353\316#\361\261\011\342"
 245      7EE6E320 
 245      3CE2EBCE 
 245      23F1B109 
 245      E2
 246 058f 5C30108F 		.ascii	"\\0\020\217\"\316\220\201\211\"\206C(\227U\236\016\015"
 246      22CE9081 
 246      89228643 
 246      2897559E 
 246      0E0D
 247 05a1 B58AACC8 		.ascii	"\265\212\254\310\223G\223\223\217\243\344\344w\2009"
 247      93479393 
 247      8FA3E4E4 
 247      778039
 248 05b0 F953B442 		.ascii	"\371S\264B\220\213\"\014\204*\340\023y$\006%\364\347"
 248      908B220C 
 248      842AE013 
 248      79240625 
 248      F4E7
 249 05c2 ED29B6B1 		.ascii	"\355)\266\261'R\302\266\316#;m\021$|\032A\302g\030\307"
 249      2752C2B6 
 249      CE233B6D 
 249      11247C1A 
 249      41C26718 
 250 05d7 649144BB 		.ascii	"d\221D\273\312\2234\264\273e\245~\023s\313\313Buy\313"
 250      CA9334B4 
 250      BB65A57E 
 250      1373CBCB 
 250      427579CB 
 251 05eb 4E4B04B4 		.ascii	"NK\004\264\347\021\320\0022%y\022m\306$z\276`\344\232"
 251      E711D002 
 251      32257912 
 251      6DC6247A 
 251      BE60E49A 
 252 05ff 5C549370 		.ascii	"\\T\223p\022\272\325\326E\031\266.\203b]\334\224\213"
 252      12BAD5D6 
 252      4519B62E 
 252      83625DDC 
 252      948B
 253 0611 19CF9134 		.ascii	"\031\317\2214j2m\236\015K\242\000\266D\26661\251~\202"
 253      6A326D9E 
 253      0D4BA200 
 253      B644B636 
 253      31A97E82 
 254 0625 C8BAF8F0 		.ascii	"\310\272\370\360\224\203\310&A\304v\260|\216\026\333"
 254      9483C826 
ARM GAS  /tmp/ccJaiJIG.s 			page 20


 254      41C476B0 
 254      7C8E16DB 
 255 0635 58C45945 		.ascii	"X\304YEC\342\204\001\306\242G\036\015mQ\015\0001\207"
 255      43E28401 
 255      C6A2471E 
 255      0D6D510D 
 255      003187
 256 0648 449147E5 		.ascii	"D\221G\345E\346r\350T\217G\312\362\336\242\2206\306"
 256      45E672E8 
 256      548F47CA 
 256      F2DEA290 
 256      36C6
 257 065a 44861DA9 		.ascii	"D\206\035\251U\345h\322\210\362\223\"\212\2175j\361"
 257      55E568D2 
 257      88F29322 
 257      8A8F356A 
 257      F1
 258 066b C9A7A1E2 		.ascii	"\311\247\241\342\343\241v\2710W4\275\222\205dI#\364"
 258      E3A176B9 
 258      305734BD 
 258      92856449 
 258      23F4
 259 067d 4A9639DD 		.ascii	"J\2269\335Tk\220\263\246\215,xN\022\323'\203\002\032"
 259      546B90B3 
 259      A68D2C78 
 259      4E12D327 
 259      83021A
 260 0690 3A5D5653 		.ascii	":]VS\221\245UK\303{f\232\010\315\030\012\355h\217Y:"
 260      91A5554B 
 260      C37B669A 
 260      08CD180A 
 260      ED688F59 
 261 06a5 9A32C6D0 		.ascii	"\2322\306\320\012\303\241\255\241\342j\324\345\357\207"
 261      0AC3A1AD 
 261      A1E26AD4 
 261      E5EF87
 262 06b4 502A4CD1 		.ascii	"P*L\321D4\221<y\371\253\251\230\317Q\356\357}Xc`\036"
 262      4434913C 
 262      79F9ABA9 
 262      98CF51EE 
 262      EF7D5863 
 263 06ca 99DA779E 		.ascii	"\231\332w\236\0355j+\331\273+1\374\246UDc]\261\327R"
 263      1D356A2B 
 263      D9BB2B31 
 263      FCA65544 
 263      635DB1D7 
 264 06df 99BBDC71 		.ascii	"\231\273\334q15`3\230e\307+\024\354\032c\035/\011gY"
 264      31356033 
 264      9865C72B 
 264      14EC1A63 
 264      1D2F0967 
 265 06f4 18602CA5 		.ascii	"\030`,\245{\235d\020\275to7+8\011=\011\316#K\367z\212"
 265      7B9D6410 
 265      BD746F37 
 265      2B38093D 
 265      09CE234B 
 266 070b C194E2AE 		.ascii	"\301\224\342\256\233\307\251h\341\244\210\360JB\371"
ARM GAS  /tmp/ccJaiJIG.s 			page 21


 266      9BC7A968 
 266      E1A488F0 
 266      4A42F9
 267 071a 8AAD7543 		.ascii	"\212\255uC[c\254\326eT\253\326\001\257!\022\303\262"
 267      5B63ACD6 
 267      6554ABD6 
 267      01AF2112 
 267      C3B2
 268 072c 103BE330 		.ascii	"\020;\3430v\357\013v\033h\204Zm\022\203\360\001\305"
 268      76EF0B76 
 268      1B68845A 
 268      6D1283F0 
 268      01C5
 269 073e 5A3D2F58 		.ascii	"Z=/X\253\315X\253\371\215u\"O\037\343\231:^\024\254"
 269      ABCD58AB 
 269      F98D7522 
 269      4F1FE399 
 269      3A5E14AC 
 270 0752 26CA334F 		.ascii	"&\3123Oin<\315k\376$\036\237\361j\303\025\336\237\200"
 270      696E3CCD 
 270      6BFE241E 
 270      9FF16AC3 
 270      15DE9F80 
 271 0766 FDC94A65 		.ascii	"\375\311Jec\037\336gUR\322A\230\330#\353\256g\342[\224"
 271      631FDE67 
 271      5552D241 
 271      98D823EB 
 271      AE67E25B 
 272 077b 974DE7EF 		.ascii	"\227M\347\357\364^\226\"c>\034\334$\323\345&\031\350"
 272      F45E9622 
 272      633E1CDC 
 272      24D3E526 
 272      19E8
 273 078d 01396B46 		.ascii	"\0019kF\224[\001\215\272I6\2067I\271\266I\222\005\276"
 273      945B018D 
 273      BA493686 
 273      3749B9B6 
 273      499205BE 
 274 07a1 D8243344 		.ascii	"\330$3D\0346R\326\205W\035J\244WF\304\263\230A%\203"
 274      1C3652D6 
 274      85571D4A 
 274      A45746C4 
 274      B3984125 
 275 07b6 FE1E8364 		.ascii	"\376\036\203d\220\022q\367D\363\257\203\212\360\356"
 275      901271F7 
 275      44F3AF83 
 275      8AF0EE
 276 07c5 D92477CF 		.ascii	"\331$w\317e\177\247\026\215\010X"
 276      657FA716 
 276      8D0858
 277 07d0 DCF9B93A 		.ascii	"\334\371\271:\023\315\\\332\031js\313+\017\201\017L"
 277      13CD5CDA 
 277      196A73CB 
 277      2B0F810F 
 277      4C
 278 07e1 C2E674B5 		.ascii	"\302\346t\265\262\345\012*fA\245\305+\300\363\332q\274"
 278      B2E50A2A 
ARM GAS  /tmp/ccJaiJIG.s 			page 22


 278      6641A5C5 
 278      2BC0F3DA 
 278      71BC
 279 07f3 1033D81C 		.ascii	"\0203\330\034\226a\013\265\207\302\012\024\330$\225"
 279      96610BB5 
 279      87C20A14 
 279      D82495
 280 0802 99630A8B 		.ascii	"\231c\012\213A%\015]\021\267\212z\227Wq:i<\304\266\205"
 280      41250D5D 
 280      11B78A7A 
 280      9757713A 
 280      693CC4B6 
 281 0817 81BC486C 		.ascii	"\201\274Hl\246\274\004\016\366\250\221\320\264\2328"
 281      A6BC040E 
 281      F6A891D0 
 281      B49A38
 282 0826 332ADCF6 		.ascii	"3*\334\366p\234>\032~}Xs\333\020\011n\302\013\242\254"
 282      709C3E1A 
 282      7E7D5873 
 282      DB10096E 
 282      C20BA2AC 
 283 083a 0A93FB77 		.ascii	"\012\223\373w\010\255\242\257\250c\034k\240\203\352"
 283      08ADA2AF 
 283      A8631C6B 
 283      A083EA
 284 0849 702AD420 		.ascii	"p*\324 \032\223kPR\250\3105\2303\2525\230\207P;\302"
 284      1A936B50 
 284      52A8C835 
 284      9833AA35 
 284      9887503B 
 285 085e 50B5C1E3 		.ascii	"P\265\301\343FK\252\271\034H\303\2560E\240\031\003u"
 285      464BAAB9 
 285      1C48C3AE 
 285      3045A019 
 285      0375
 286 0870 6718B50E 		.ascii	"g\030\265\016\011\316E\220\007w6\337\016\256\305\013"
 286      09CE4590 
 286      077736DF 
 286      0EAEC50B 
 287 0880 EF5C1FD2 		.ascii	"\357\\\037\322\310w\256Ix\345\252\247Q\256\\Nt\336@"
 287      C877AE49 
 287      78E5AAA7 
 287      51AE5C4E 
 287      74DE40
 288 0893 F9954B45 		.ascii	"\371\225KE\337\273(\276st\237\252\337\305\344\277\006"
 288      DFBB28BE 
 288      73749FAA 
 288      DFC5E4BF 
 288      06
 289 08a4 83FC1307 		.ascii	"\203\374\023\007\273\251\374\347\300\212\377\034\334"
 289      BBA9FCE7 
 289      C08AFF1C 
 289      DC
 290 08b1 E51B547C 		.ascii	"\345\033T|\326r\032\215\012o,\260/\317r\331\323\354"
 290      D6721A8D 
 290      0A6F2CB0 
 290      2FCF72D9 
ARM GAS  /tmp/ccJaiJIG.s 			page 23


 290      D3EC
 291 08c3 7FC97138 		.ascii	"\177\311q8s\354Y\313\035\256\177\331\337p\344\374\335"
 291      73EC59CB 
 291      1DAE7FD9 
 291      DF70E4FC 
 291      DD
 292 08d4 95BDC2FE 		.ascii	"\225\275\302\376\372\262\214\277f\374\371\035{v\216"
 292      FAB28CBF 
 292      66FCF91D 
 292      7B768E
 293 08e3 DDE9B2E7 		.ascii	"\335\351\262\3478\323\354i\313r]\363\323\010\313u\255"
 293      38D3EC69 
 293      CB725DF3 
 293      D308CB75 
 293      AD
 294 08f4 D0A73B32 		.ascii	"\320\247;2S\3373\344\272\226\276\233\225\306V\244:\261"
 294      53DF33E4 
 294      BA96BE9B 
 294      95C656A4 
 294      3AB1
 295 0906 C3950A2B 		.ascii	"\303\225\012+\026\215\016qYj\246}E\266\323\225c\177"
 295      168D0E71 
 295      596AA67D 
 295      45B6D395 
 295      637F
 296 0918 67F1A2DF 		.ascii	"g\361\242\337\375\326\276p\341\033\366\305o-\312\375"
 296      FDD6BE70 
 296      E11BF6C5 
 296      6F2DCAFD 
 297 0928 0D8E2CC9 		.ascii	"\015\216,\311q-\311\314L\237\277\214\260\254\354\177"
 297      712DC9CC 
 297      4C9FBF8C 
 297      B0ACEC7F 
 298 0938 FC61D41C 		.ascii	"\374a\324\0343\262\3222\337MwH\236\313\310[\2433L\313"
 298      33B2D232 
 298      DF4D7748 
 298      9ECBC85B 
 298      A3334CCB 
 299 094c 5EBE3C3B 		.ascii	"^\276<;Kc\363\332\333\213^_\364O\216\220\226\355t,q"
 299      4B63F3DA 
 299      DB8B5E5F 
 299      F44F8E90 
 299      96ED742C 
 300 0961 652C7738 		.ascii	"e,w89\222\222\363^\016>\0333\262\\\016gnj\346\037\307"
 300      399292F3 
 300      5E0E3E1B 
 300      33B25C0E 
 300      676E6AE6 
 301 0977 C1090138 		.ascii	"\301\011\0018\226\016\177\3659\256T\247\2139\262\322"
 301      960E7FF5 
 301      39AE54A7 
 301      8B39B2D2 
 302 0987 6DE98ED4 		.ascii	"m\351\216\324\364\314\214,\307\022!\340\377\001\011"
 302      F4CC8C2C 
 302      C71221E0 
 302      FF0109
 303 0996 A84697   		.ascii	"\250F\227"
ARM GAS  /tmp/ccJaiJIG.s 			page 24


 304              		.text
 305              		.section	.gnu.lto_chVTDoResetI.bae3572a7f3e3899,"",%progbits
 306 0000 789C9594 		.ascii	"x\234\225\224\311O\024A\024\207\353uuO\017\3030\361"
 306      C94F1441 
 306      1487EB75 
 306      754F0FC3 
 306      30F1
 307 0012 608C070E 		.ascii	"`\214\007\016\034$\204\003\366\205D\203\211\211\321"
 307      1C248403 
 307      F6854483 
 307      8989D1
 308 0021 8B173D18 		.ascii	"\213\027=\030\377\000A\014DY\302L0\341B\263\016[\300"
 308      FF00410C 
 308      4459C24C 
 308      30E142B3 
 308      0E5BC0
 309 0034 95C5409A 		.ascii	"\225\305@\232\010\210\240l\012\302 \342\310\"\213\200"
 309      0888A06C 
 309      0AC220E2 
 309      C8228B80 
 310 0044 82516340 		.ascii	"\202Qc@L\024\021\004\017$DO\242\357U\017\031$\200RI"
 310      4C141104 
 310      0F24444F 
 310      A2EF550F 
 310      19248052 
 311 0059 D7D255EF 		.ascii	"\327\322U\357\253\337[\272\025&\261N\205\261\223\214"
 311      ABDF5BBA 
 311      1526B14E 
 311      85B1938C 
 312 0069 B153F880 		.ascii	"\261S\370\200\312@\2722\301X\206U\222x{\037c\272M\231"
 312      CA40BA32 
 312      C1588655 
 312      92787B1F 
 312      63BA4D99 
 313 007d 0964BA9D 		.ascii	"\011d\272\235K\262\271\264\210\245\014\026\363\230b"
 313      4BB2B9B4 
 313      88A50C16 
 313      F39862
 314 008c 4EC00240 		.ascii	"N\300\002@\243n\005\226.qY\261@:\224\3602\016}\356y"
 314      A36E0596 
 314      2E7159B1 
 314      403A94F0 
 314      320E7DEE 
 315 00a1 8F145EAF 		.ascii	"\217\024^\257c\363\226\275u\344\3529\373\015\316X\005"
 315      63F396BD 
 315      75E4EA39 
 315      FB0DCE58 
 315      05
 316 00b2 3ED4A01E 		.ascii	">\324\240\036\302\361\324dvk%/\346\006\007\220q\271"
 316      C2F1D464 
 316      766B252F 
 316      E6060790 
 316      71B9
 317 00c4 327EEBB3 		.ascii	"2~\353\263\203\226\022\204\340\262~n\376\235\312\017"
 317      83961284 
 317      E0B27E6E 
 317      FE9DCA0F 
ARM GAS  /tmp/ccJaiJIG.s 			page 25


 318 00d4 01C37943 		.ascii	"\001\303yC\257g0 \254N\3273u\357\334\015\256\03708\207"
 318      AF673020 
 318      AC4ED733 
 318      75EFDC0D 
 318      AE1F3038 
 319 00e9 46E00884 		.ascii	"F\340\010\204\006\010\206\273\020\314\360\025\203{\020"
 319      060886BB 
 319      10CCF015 
 319      837B10
 320 00f8 46E71786 		.ascii	"F\347\027\206\177|\261\362#\302\366N\321\325^{h\215"
 320      7F7CB1F2 
 320      23C2F64E 
 320      D1D55E7B 
 320      688D
 321 010a B05DEBD9 		.ascii	"\260]\353\331w=K\037\326e\203\313p\377o{jx\274\261\241"
 321      773D4B1F 
 321      D66583CB 
 321      70FF6F7B 
 321      6A78BCB1 
 322 011f 72DEC18F 		.ascii	"r\336\301\217\011\323\225\216\327\203\001>\323\261k"
 322      09D3958E 
 322      D783013E 
 322      D3B16B
 323 012e 5CAFD525 		.ascii	"\\\257\325%2l\336\322\360S\333\332\315 \213\\\203;-"
 323      326CDED2 
 323      F053DBDA 
 323      CD208B5C 
 323      833B2D
 324 0141 100A4D10 		.ascii	"\020\012M\020j\372\013\255\030'\034[\246\300\253\257"
 324      6AFA0BAD 
 324      18271C5B 
 324      A6C0ABAF 
 325 0151 FD76EBDE 		.ascii	"\375v\353\336\331\250\367\253\313{\367H$\031}G\3152"
 325      D9A8F7AB 
 325      CB7BF748 
 325      24197D47 
 325      CD32
 326 0163 4D15EA54 		.ascii	"M\025\352T\352\354\330)A\3249\250c\254\000A\024\351"
 326      EAECD829 
 326      41D439A8 
 326      63AC0041 
 326      14E9
 327 0175 422ED1C8 		.ascii	"B.\321\310\027!\263{q\332m#v\025\227\360\366\322\234"
 327      1721B37B 
 327      71DA6D23 
 327      761597F0 
 327      F6D29C
 328 0188 BE972A05 		.ascii	"\276\227*\005\317\"\224{<\313\323j\372/\335\212/j8\010"
 328      CF22947B 
 328      3CCBD36A 
 328      FA2FDD8A 
 328      2F6A3808 
 329 019c 81DFC6DE 		.ascii	"\201\337\306\336\014\330\014\250\002\203\253\360\000"
 329      0CD80CA8 
 329      0283ABF0 
 329      00
 330 01a9 53D546E2 		.ascii	"S\325F\342q\243\270\2535\337\2525Q\266\252/\030\334"
ARM GAS  /tmp/ccJaiJIG.s 			page 26


 330      71A3B8AB 
 330      35DFAA35 
 330      51B6AA2F 
 330      18DC
 331 01bb 0A0FC180 		.ascii	"\012\017\301\200r\356\363k\260h\262v}\3676P\340\333"
 331      72EEF36B 
 331      B068B276 
 331      7DF73650 
 331      E0DB
 332 01cd 412B2726 		.ascii	"A+'&\203\016\320\330\034dO\367G\372\224Tq3\305\2058"
 332      830ED0D8 
 332      1C644FF7 
 332      47FA9454 
 332      7133C585 
 333 01e2 62E99842 		.ascii	"b\351\230B?\270-\346\266\274Q(\027B\177\016\215\346"
 333      3FB82DE6 
 333      B6BC5128 
 333      17427F0E 
 333      8DE6
 334 01f4 D9515406 		.ascii	"\331QT\006\342C\014\036\200\000x\344\323U7\227\331\254"
 334      E2430C1E 
 334      800078E4 
 334      D3553797 
 334      D9AC
 335 0206 9A3787D0 		.ascii	"\2327\207\320\371N!K\242\213\273\360bb\217D\231de\227"
 335      F94E214B 
 335      A28BBBF0 
 335      62628F44 
 335      99646597 
 336 021a 288F4089 		.ascii	"(\217@\211\364t\233\250\322\221\010Bm\342T\2471A\222"
 336      F4749BA8 
 336      D2910842 
 336      6DE254A7 
 336      314192
 337 022d B7253DF6 		.ascii	"\267%=\366\223z@C%B\327\342\354\272\317\352.\225=\361"
 337      937A4043 
 337      2542D7E2 
 337      ECBACFEA 
 337      2E953DF1 
 338 0241 F37AFF47 		.ascii	"\363z\377G\231\272-\351\251?\\^R&\023lu\341\343Wu+\\"
 338      99BA2DE9 
 338      A93F5C5E 
 338      5226136C 
 338      75E1E357 
 339 0258 34DB5198 		.ascii	"4\333Q\230\015\236\011\234L\270>\3206f\322\006\014\372"
 339      0D9E099C 
 339      4CB83ED0 
 339      3666D206 
 339      0CFA
 340 026a D14A54C2 		.ascii	"\321JT\302\324Q\277\337\377\254\302\201m\2520\205\252"
 340      D451BFDF 
 340      FFACC281 
 340      6DAA3085 
 340      AA
 341 027b 70706315 		.ascii	"ppc\025\026\276\352-q *\317\254\321@x\216\301a0\004"
 341      16BEEA2D 
 341      71202ACF 
ARM GAS  /tmp/ccJaiJIG.s 			page 27


 341      ACD14078 
 341      8EC16130 
 342 0290 E9BE7A93 		.ascii	"\351\276z\223\231\347\260YnKn\207)\301\276e\3507\007"
 342      99E7B059 
 342      6E4B6E87 
 342      29C1BE65 
 342      E83707
 343 02a3 2C823EE9 		.ascii	",\202>\351aq\227B\316\215\254\227\226\317\221\240]%"
 343      61719742 
 343      CE8DAC97 
 343      96CF91A0 
 343      5D25
 344 02b5 5086513F 		.ascii	"P\206Q?\352\205@e\225\346\346\253&\313\201\242\220("
 344      EA854065 
 344      95E6E6AB 
 344      26CB81A2 
 344      9028
 345 02c7 B21AB045 		.ascii	"\262\032\260E\026vP8\346\307\216S6\035\302k\205\315"
 345      16765038 
 345      E6C78E53 
 345      361DC26B 
 345      85CD
 346 02d9 04F22590 		.ascii	"\004\362%\220\211\265\351\273\267WP\304a\002#\204r\015"
 346      89B5E9BB 
 346      B75750C4 
 346      61022384 
 346      720D
 347 02eb BC950C2C 		.ascii	"\274\225\014,\342\377\361\035$\363O\\\200g\360\005\256"
 347      E2FFF11D 
 347      24F34F5C 
 347      8067F005 
 347      AE
 348 02fc 22B58444 		.ascii	"\"\265\204D\227\026\243\235u\306\2468\265\304\204XW"
 348      9716A39D 
 348      75C6A638 
 348      B5C48458 
 348      57
 349 030d 9A7622D6 		.ascii	"\232v\"\326y\321\225\224\254\035\217\213\217\216?}F"
 349      79D19594 
 349      AC1D8F8B 
 349      8F8E3F7D 
 349      46
 350 031e 4B726A29 		.ascii	"Krj).\315\231\022\243\305\304\245\272\016\3060\236\352"
 350      2ECD9912 
 350      A3C5C4A5 
 350      BA0EC630 
 350      9EEA
 351 0330 4A56CEC7 		.ascii	"JV\316\307^r\235\263&&]\026\223?x\033\353;"
 351      5E729DB3 
 351      26265D16 
 351      933F781B 
 351      EB3B
 352              		.text
 353              		.section	.gnu.lto_.symbol_nodes.bae3572a7f3e3899,"",%progbits
 354 0000 789C55CC 		.ascii	"x\234U\3141\016AA\024\205\341\177\316}3\326\240\263"
 354      310E4141 
 354      1485E17F 
ARM GAS  /tmp/ccJaiJIG.s 			page 28


 354      CE7D33D6 
 354      A0B3
 355 0012 026B6065 		.ascii	"\002k`ew\212\227(4J\274\020\205De\001tD\242\242\320"
 355      778A9728 
 355      344ABC10 
 355      85446501 
 355      7444A2A2 
 356 0027 D8800DD8 		.ascii	"\330\200\015\330\201\367DaN\371\375\311\211\210=\355"
 356      81F74461 
 356      4EF9FDC9 
 356      89883DED 
 357 0037 B493C3EC 		.ascii	"\264\223\303\354\016N8\324\247<\202\330\210A\327\346"
 357      0E4E38D4 
 357      A73C82D8 
 357      8841D7E6 
 358 0047 F2F06B1C 		.ascii	"\362\360k\034\363\270\225\205\\\245,\345VH\330\310\253"
 358      F3B89585 
 358      5CA52CE5 
 358      5648D8C8 
 358      AB
 359 0058 AF40EEEE 		.ascii	"\257@\356\356\302Z\036\013X\311\323?\030\211\355\343"
 359      C25A1E0B 
 359      58C9D33F 
 359      1889EDE3 
 360 0068 DA372297 		.ascii	"\3327\"\227\267\314z\274\246C\263D\335\334d\025\234"
 360      B7CC7ABC 
 360      A643B344 
 360      DDDC6415 
 360      9C
 361 0079 274FF101 		.ascii	"'O\361\001g\270)\324"
 361      67B829D4 
 362              		.text
 363              		.section	.gnu.lto_.refs.bae3572a7f3e3899,"",%progbits
 364 0000 789C1D8C 		.ascii	"x\234\035\214\313\015\200 \000\305\332\007\230 ~\316"
 364      CB0D8020 
 364      00C5DA07 
 364      98207ECE 
 365 0010 8EE4EA4E 		.ascii	"\216\344\352N%\341\324\264\2076\302\013T4\261\304\206"
 365      25E1D4B4 
 365      8736C20B 
 365      5434B1C4 
 365      86
 366 0021 638B5375 		.ascii	"c\213Su\265\311\242\265\027\354q\327\241\207\236\361"
 366      B5C9A2B5 
 366      17EC71D7 
 366      A1879EF1 
 367 0031 8A373EFA 		.ascii	"\2127>\372\2215\260\363\003>\037\002\000"
 367      9135B0F3 
 367      033E1F02 
 367      00
 368              		.text
 369              		.section	.gnu.lto_.decls.bae3572a7f3e3899,"",%progbits
 370 0000 789CB53A 		.ascii	"x\234\265:iTTW\232u\337\255\242\240\330ltrrf\234iO\016"
 370      69545457 
 370      9A75DFAD 
 370      A2A0D86C 
 370      74727266 
ARM GAS  /tmp/ccJaiJIG.s 			page 29


 371 0018 7D42CF49 		.ascii	"}B\317I\213\232tb\272{z\222\306\236tfb\367\034L\372"
 371      8B9A7462 
 371      BA7B7A92 
 371      C69E7466 
 371      62F71C4C 
 372 002d 647E7473 		.ascii	"d~ts\020K\245\303\326Ei\314\374\230.\026\025p\301\015"
 372      104BA5C3 
 372      D64569CC 
 372      FC982E16 
 372      1570C10D 
 373 0041 59444171 		.ascii	"YDAqAAA@\020\001E@VY\024\005\331\027\021\025\\\020\014"
 373      41414140 
 373      10014540 
 373      56591405 
 373      D9171115 
 374 0058 02B2CC77 		.ascii	"\002\262\314w\227\252\367\352\361\312x\222\323u\370"
 374      97AAF7EA 
 374      F1CA7892 
 374      D375F8
 375 0067 78EFBBEF 		.ascii	"x\357\273\357\273\337~\227\357\276\247Q\011\252{+U\252"
 375      BBDF7E97 
 375      EFBEA751 
 375      09AA7B2B 
 375      55AA
 376 0079 3E7B95AA 		.ascii	">{\225\252XP\251\346\340\247Q\251Tg\0010@\017@\037@"
 376      5850A9E6 
 376      E0A751A9 
 376      54670130 
 376      400F401F 
 377 008e 3E0002B8 		.ascii	">\000\002\270\005\377\264p\355\202k/\300}\200a\200\307"
 377      05FFB470 
 377      ED826B2F 
 377      C07D8061 
 377      80C7
 378 00a0 00CF00C6 		.ascii	"\000\317\000\306\020\243\233 \377$\277\"`\266\010\256"
 378      10A39B20 
 378      FF24BF22 
 378      60B608AE 
 379 00b0 7F047053 		.ascii	"\177\004pS\261\373\032\316\267\005\340m\200j\200I\350"
 379      B1FB1ACE 
 379      B705E06D 
 379      806A8049 
 379      E8
 380 00c1 378E44B9 		.ascii	"7\216D\271\245\000S\004\007\3709\350\367\036\300,\334"
 380      A5005304 
 380      07F839E8 
 380      F71EC02C 
 380      DC
 381 00d2 BF0FD711 		.ascii	"\277\017\327\021\270\202\332\252:\256W\033\\\033\000"
 381      B882DAAA 
 381      3AAE571B 
 381      5C1B00
 382 00e1 AE03DC00 		.ascii	"\256\003\334\000\350\004\370)\320\351\270\276+\005\246"
 382      E804F829 
 382      D0E9B8BE 
 382      2B05A6
 383 00f0 E72FE1FA 		.ascii	"\347/\341\372o\000\377\016\260\012\340S\200\377\022"
ARM GAS  /tmp/ccJaiJIG.s 			page 30


 383      6F00FF0E 
 383      B00AE053 
 383      80FF12
 384 00ff 98FE7051 		.ascii	"\230\376pQ\255\021\346\353\177\025\364w\340\372Ku\254"
 384      AD11E6EB 
 384      7F15F477 
 384      E0FA4B75 
 384      AC
 385 0110 91F8E76D 		.ascii	"\221\370\347mn\213F\242O\007\221\315u!,{m\370\247\021"
 385      6E8B46A2 
 385      4F0791CD 
 385      75212C7B 
 385      6DF8A711 
 386 0124 F82FB4E1 		.ascii	"\370/\264\341\037\342\203/$>\"2\244\276\220\373\314"
 386      1FE2832F 
 386      243E2232 
 386      A4BE90FB 
 386      CC
 387 0135 EC1B47B8 		.ascii	"\354\033G\270\257\347\376 ~0\353\324\311\365\252\343"
 387      AFE7FE20 
 387      7E30EBD4 
 387      C9F5AAE3 
 388 0145 FEBAC175 		.ascii	"\376\272\301u$~\272/\363\017\361\315\027\002\213\353"
 388      247EBA2F 
 388      F30FF1CD 
 388      17028BEB 
 389 0155 2A999FFE 		.ascii	"*\231\237\376\244\340\247V\260\303\305\206\035o\313"
 389      A4E0A756 
 389      B0C3C586 
 389      1D6FCB
 390 0164 7C57CD6D 		.ascii	"|W\315m#:\377\031xuB\273\235,\226u\222x\022\231$\327"
 390      233AFF19 
 390      787542BB 
 390      9D2C9675 
 390      92781299 
 391 017a BA5E11A7 		.ascii	"\272^\021\247x\214\236\325'\335u\331\215\321\"\035Z"
 391      788C9ED5 
 391      27DD75D9 
 391      8DD1221D 
 391      5A
 392 018b 026852D1 		.ascii	"\002hR\321\363Z\015\240n:d\017\350\215\310\354d\314"
 392      F35A0DA0 
 392      6E3A640F 
 392      E88DC8EC 
 392      64CC
 393 019d 5035A00F 		.ascii	"P5\240\017\252\307\357\331c\001\221\216]\325\2473\310"
 393      AAC7EFD9 
 393      6301918E 
 393      5DD5A733 
 393      C8
 394 01ae A3B77588 		.ascii	"\243\267u\210\014\003Wh\312zT8\351\314\232\010E\317"
 394      0C035768 
 394      CA7A5438 
 394      E9CC9A08 
 394      45CF
 395 01c0 64FA7F2C 		.ascii	"d\372\177,\3154\261\237\375\233\242\314\233\261\243"
 395      CD34B19F 
ARM GAS  /tmp/ccJaiJIG.s 			page 31


 395      FD9BA2CC 
 395      9BB1A3
 396 01cf C7B5F847 		.ascii	"\307\265\370G\204HH\254m-S#\017\335IBTz?\367\255\275"
 396      844848AC 
 396      6D2D5323 
 396      0FDD4942 
 396      547A3FF7 
 397 01e5 DB4D2601 		.ascii	"\333M&\001e#\035:\2070:\213\226\222\\x\233x;\312d\012"
 397      65231D3A 
 397      87303A8B 
 397      96925C78 
 397      9B783BCA 
 398 01fb 37ED8930 		.ascii	"7\355\21109\374N\205N\241\305\3504Z\254BY\310\203\310"
 398      39FC4E85 
 398      4EA1C5E8 
 398      345AAC42 
 398      59C883C8 
 399 020f 23742813 		.ascii	"#t(\023\0323\240\021D\234>\276\367\230\035\376O*\242"
 399      1A33A011 
 399      449C3EBE 
 399      F7981DFE 
 399      4F2AA2
 400 0222 F272C71D 		.ascii	"\362r\307\0355\322y(\366\317U\350\317t\351Iz\253r+\321"
 400      35D27928 
 400      F6CF55E8 
 400      CF74E949 
 400      7AAB722B 
 401 0237 25077439 		.ascii	"%\007t9/\352\002\25213\306k\3423\234\361f*\243~\366"
 401      2FEA02AA 
 401      3133C66B 
 401      E2339CF1 
 401      662AA37E 
 402 024c D2A88368 		.ascii	"\322\250\203hF\372\222\214[&\323\022\224\017]\363\304"
 402      46FA928C 
 402      5B26D312 
 402      940F5DF3 
 402      C4
 403 025d AE39C8A6 		.ascii	"\2569\310\246\035\027\224\355H-\353\373\031\276\202"
 403      1D1794ED 
 403      482DEBFB 
 403      19BE82
 404 026c A83F6F8E 		.ascii	"\250?o\216\\?\354\310\202\261\000\320\276\314\262h;"
 404      5C3FECC8 
 404      82B100D0 
 404      BECCB268 
 404      3B
 405 027d 5CC19E9D 		.ascii	"\\\301\236\235\313|\231\255SC\210\321\027Nh\255\232"
 405      CB7C99AD 
 405      534388D1 
 405      174E68AD 
 405      9A
 406 028e 345D9B7B 		.ascii	"4]\233{Q\352\312\310\005I\357E\254\367\243\334\353'"
 406      51EACAC8 
 406      0549EF45 
 406      ACF7A3DC 
 406      EB27
 407 02a0 F09B0769 		.ascii	"\360\233\007il\"L\013\004\364\3077P1\310-\002\271*T"
ARM GAS  /tmp/ccJaiJIG.s 			page 32


 407      6C224C0B 
 407      04F4C737 
 407      5031C82D 
 407      02B92A54 
 408 02b4 82205CE8 		.ascii	"\202 \\\350\022R3K\363\262\256\037\3269\305X\364&\317"
 408      1252334B 
 408      F3B2AE1F 
 408      D639C558 
 408      F426CF
 409 02c7 2DAAABD0 		.ascii	"-\252\253\320e\344\304-\004\332\364\202\003\031\216"
 409      65E4C42D 
 409      04DAF482 
 409      03198E
 410 02d6 B886AA25 		.ascii	"\270\206\252%\364T\025\365;\"'\017\033]\321U\260Z\354"
 410      F45415F5 
 410      3B22270F 
 410      1B5DD155 
 410      B05AEC
 411 02e9 CD9CD77A 		.ascii	"\315\234\327z\311=\251\2118\257\024\036\\\021\235\007"
 411      C93DA989 
 411      38AF141E 
 411      5C119D07 
 412 02f9 744CC29E 		.ascii	"tL\302\236\316\311bG\274\227\245ai\336\245\\'|\220!"
 412      CEC96247 
 412      BC97A561 
 412      69DEA55C 
 412      277C9021 
 413 030d CFA60F17 		.ascii	"\317\246\017\02780\223\027\001:\323\263g\217\226\231"
 413      38309317 
 413      013AD3B3 
 413      678F9699 
 414 031d 9C8A003F 		.ascii	"\234\212\000?\233:v\030\343S\274\343\313\213\035N8\203"
 414      9B3A7618 
 414      E353BCE3 
 414      CB8B1D4E 
 414      3883
 415 032f 22BAC375 		.ascii	"\"\272\303uI\221\010-t\362p\207\237\307B\367\275D\223"
 415      4991082D 
 415      74F27087 
 415      9FC742F7 
 415      BD4493
 416 0342 3D26D347 		.ascii	"=&\323Gj\025\272\006\312V\020ekA\331&\264\220\350\203"
 416      6A15BA06 
 416      CA561065 
 416      6B41D926 
 416      B490E883 
 417 0356 1AE1BE0E 		.ascii	"\032\341\276\016\271\243\006\200\033\000\327\001\352"
 417      B9A30680 
 417      1B00D701 
 417      EA
 418 0363 913BCD70 		.ascii	"\221;\315p\211\261\325@.\372\251\206Z\300\315\034Or"
 418      89B1D540 
 418      2EFAA986 
 418      5AC0CD1C 
 418      4F72
 419 0375 8B349910 		.ascii	"\2134\231\020%\251\022\255\004\001p9FX\224\3664z4>\037"
 419      25A912AD 
ARM GAS  /tmp/ccJaiJIG.s 			page 33


 419      04017039 
 419      465894F6 
 419      347A343E 
 420 038a 3099F639 		.ascii	"0\231\3669\221\256\250\014\250\232$\014\221'a\272|\261"
 420      91AEA80C 
 420      A89A240C 
 420      912761BA 
 420      7CB1
 421 039c 85FE49A3 		.ascii	"\205\376I\243\333\376\010S\3652\352\271B9u:\325\341"
 421      DBFE0853 
 421      F532EAB9 
 421      4239753A 
 421      D5E1
 422 03ae 1412E967 		.ascii	"\024\022\351g\033\0271z\310\231J9\371E$\343\336\376"
 422      1B17317A 
 422      C8994A39 
 422      F94524E3 
 422      DEFE
 423 03c0 87445369 		.ascii	"\207DSi$\246\252\024(\252\302x3\363\032\032\027\204"
 423      24A6AA14 
 423      28AAC278 
 423      33F31A1A 
 423      1784
 424 03d2 11F3883D 		.ascii	"\021\363\210=\3346\362Stl9\347\366]\216ez\014\232\255"
 424      DC36F253 
 424      746C39E7 
 424      F65D8E65 
 424      7A0C9AAD 
 425 03e6 2483EB8C 		.ascii	"$\203\353\214\262\225Tm\010\362\211\253\343\245:<\316"
 425      B295546D 
 425      08F289AB 
 425      E3A53A3C 
 425      CE
 426 03f7 229E3F58 		.ascii	"\"\236?XS\251c\351`\"\3510\235sv\332\016\357\302\364"
 426      53A963E9 
 426      6022E930 
 426      9D7376DA 
 426      0EEFC2F4 
 427 040b 61EC858E 		.ascii	"a\354\205\216iW|\220\"BR\326\3211lk\306h\2659c\334O"
 427      69577C90 
 427      224252D6 
 427      D1316C6B 
 427      C668B539 
 428 0422 5F769A0E 		.ascii	"_v\232\016\373\026\320\354\266|\330\307c\273\322\370"
 428      FB16D0EC 
 428      B67CD8C7 
 428      63BBD2F8 
 429 0432 82744833 		.ascii	"\202tH3w\222fRO4\003\033\342ot\023:\335\341\236h\007"
 429      77926652 
 429      4F34031B 
 429      E26F7413 
 429      3ADDE19E 
 430 0448 396D607D 		.ascii	"9m`}\007@\027@\247\225\027 7\332d\271qG97x<\332X<\356"
 430      07401740 
 430      A7951720 
 430      37DA64B9 
 430      71473937 
ARM GAS  /tmp/ccJaiJIG.s 			page 34


 431 0462 58C783BB 		.ascii	"X\307\203\273\264\215'\2029\266\363YI\363f\274\235G"
 431      B48D2782 
 431      39B6F359 
 431      49F366BC 
 431      9D47
 432 0474 80D8794B 		.ascii	"\200\330yKN>?\317F\377\207e\2169`\012\344\346\200\355"
 432      4E3E3FCF 
 432      46FF8765 
 432      8E39600A 
 432      E4E680ED 
 433 0488 AFCD19D2 		.ascii	"\257\315\031\322\342T\026\206\033\207s\242\\\320B\017"
 433      E2541686 
 433      1B8773A2 
 433      5CD0420F 
 434 0498 4557F582 		.ascii	"EW\365\202{\276\313U\346\011\345\235C\331a\020\226\036"
 434      7BBECB55 
 434      E609E59D 
 434      43D96110 
 434      961E
 435 04aa 20EF16C3 		.ascii	" \357\026\303r\207\0165\322\012\202+S\366\266a\351\024"
 435      72870E35 
 435      D20A822B 
 435      53F6B661 
 435      E914
 436 04bc D7633574 		.ascii	"\327c5t\373\330\320%W ~\022y\257\227\317\304o\002:\367"
 436      FBD8D025 
 436      57207E12 
 436      79AF97CF 
 436      C46F023A 
 437 04d1 B02D8D4F 		.ascii	"\260-\215O;#\304\210\262\324K\377\214\363Y^=\337\337"
 437      3B23C488 
 437      B2D44BFF 
 437      8CF3595E 
 437      3DDFDF
 438 04e4 DEE3820B 		.ascii	"\336\343\202\013\031\362\360ls3\306\245\314\272\214"
 438      19F2F06C 
 438      7333C6A5 
 438      CCBA8C
 439 04f3 AD4D8582 		.ascii	"\255M\205\202e\311\250\232to\245+\337\003p\322\340k"
 439      65C9A89A 
 439      746FA52B 
 439      DF0370D2 
 439      E06B
 440 0505 2D19F715 		.ascii	"-\031\367\025\227\014\234\231\320\374)\362p_\310W\261"
 440      970C9C99 
 440      D0FC29F2 
 440      705FC857 
 440      B1
 441 0516 1D782287 		.ascii	"\035x\"\207\344\344\260b\340\343\265,4D\352=\220:\254"
 441      E4E4B062 
 441      E0E3B52C 
 441      3444EA3D 
 441      903AAC
 442 0529 9C432C02 		.ascii	"\234C,\002\0214\002\242S\206\271\373\037\202\"C\334"
 442      113402A2 
 442      5386B9FB 
 442      1F822243 
ARM GAS  /tmp/ccJaiJIG.s 			page 35


 442      DC
 443 053a E564164E 		.ascii	"\345d\026N{p\333\016\337RS+\037\344V\355p\266\304\320"
 443      7B70DB0E 
 443      DF52532B 
 443      1FE456ED 
 443      70B6C4D0 
 444 054e 9A037A02 		.ascii	"\232\003z\002\035\225\2300\325\237|\000\333\006\364"
 444      1D959830 
 444      D59F7C00 
 444      DB06F4
 445 055d 189E3F12 		.ascii	"\030\236?\022\3751L\203\006R\212\012\212+\371Ne\031"
 445      FD314C83 
 445      06528A0A 
 445      8A2BF94E 
 445      6519
 446 056f A0C93D65 		.ascii	"\240\311=e\335<\006\025t\260\367\034\210v\342s?\331"
 446      DD3C0615 
 446      74B0F71C 
 446      8876E273 
 446      3FD9
 447 0581 BA1C1CAC 		.ascii	"\272\034\034\254\037u\300\367\250R\250\340IF\2013#."
 447      1F75C0F7 
 447      A852A8E0 
 447      49468133 
 447      232E
 448 0593 A56BD660 		.ascii	"\245k\326`\362n'\206\257\004\364VS\367\011\214G\030"
 448      F26E2786 
 448      AF04F456 
 448      53F7098C 
 448      4718
 449 05a5 ADE9C0CB 		.ascii	"\255\351\300\313\024g<\311\2541\335\273vO\26051L\330"
 449      14673CC9 
 449      AC31DDBB 
 449      764FB035 
 449      314CD8
 450 05b8 9C18AA26 		.ascii	"\234\030\252&\227$L\221 \274\0007\217\317\237\030Pg"
 450      97244C91 
 450      20BC0037 
 450      8FCF9F18 
 450      5067
 451 05ca EEAE727B 		.ascii	"\356\256r{\034\246\241\0223^D^p\305\321\032+U\027qU"
 451      1CA6A112 
 451      335E445E 
 451      70C5D11A 
 451      2B551771 
 452 05df A7F6175E 		.ascii	"\247\366\027^p\304\261\354a\305\335\346j\015\216c\310"
 452      70C4B1EC 
 452      61C5DDE6 
 452      6A0D8E63 
 452      C8
 453 05f0 A5B8E2C7 		.ascii	"\245\270\342\307\366\370$C\256\316\264%\353p>C\246O"
 453      F6F82443 
 453      AECEB425 
 453      EB703E43 
 453      A64F
 454 0602 34DEB1C7 		.ascii	"4\336\261\307\227\031\0221p\270\317\005W1\24426r\247"
 454      97191231 
ARM GAS  /tmp/ccJaiJIG.s 			page 36


 454      70B8CF05 
 454      5731A432 
 454      3672A7
 455 0615 0E376958 		.ascii	"\0167iXB\356\212zds\237\024)\3302\256\375M\022\246\010"
 455      42EE8A7A 
 455      64739F14 
 455      29D832AE 
 455      FD4D12A6 
 456 062a 4187C285 		.ascii	"A\207\302\205\371\226\035\032\353z\310\343\342A\366"
 456      F9961D1A 
 456      EB7AC8E3 
 456      E241F6
 457 0639 6597C64E 		.ascii	"e\227\306N\330\341N&\275\177n\366/\370\036\273\217\316"
 457      D8E14E26 
 457      BD7F6EF6 
 457      2FF81EBB 
 457      8FCE
 458 064b 8CAE74C1 		.ascii	"\214\256t\301\217\031r\354J\321#-\236a\210y\207\352"
 458      8F1972EC 
 458      4AD1232D 
 458      9E618879 
 458      87EA
 459 065d C676A8E9 		.ascii	"\306v\250\351C=\323\030\357\264\243\317\372:\253\262"
 459      433DD318 
 459      EFB4A3CF 
 459      FA3AABB2 
 460 066d 5DF06E86 		.ascii	"]\360n\206\024\2758T\344\212\343\030R\177wnT\207\223"
 460      14BD3854 
 460      E48AE318 
 460      527F776E 
 460      548793
 461 0680 19529034 		.ascii	"\031R\2204[\252\306i\014\331\272\353l<Y\006\354\330"
 461      5BAAC669 
 461      0CD9BAEB 
 461      6C3C5906 
 461      ECD8
 462 0692 C6550B4D 		.ascii	"\306U\013M\003#S\371j\326DL\332\002M\207\023;\317\273"
 462      032353F9 
 462      6AD6444C 
 462      DA024D87 
 462      133BCFBB 
 463 06a6 E053B48B 		.ascii	"\340S\264\213\360\250/:\306^\334\335\215\375\370\242"
 463      F0A82F3A 
 463      C65EDCDD 
 463      8DFDF8A2 
 464 06b6 C9B4001D 		.ascii	"\311\264\000\035\000\223\367\211&\333\361\201j\232\347"
 464      0093F789 
 464      26DBF181 
 464      6A9AE7
 465 06c5 BBFDE03B 		.ascii	"\273\375\340;;\356\273\275\302b\264G\240{\273\321\311"
 465      3BEEBBBD 
 465      C262B447 
 465      A07BBBD1 
 465      C9
 466 06d6 913C353E 		.ascii	"\221<5>\317D\304\364\215\316\2702\347\317g\020\257\300"
 466      CF44C4F4 
 466      8DCEB832 
ARM GAS  /tmp/ccJaiJIG.s 			page 37


 466      E7CF6710 
 466      AFC0
 467 06e8 C0BC495D 		.ascii	"\300\274I]q\201nR\017\2022q\2422\240\033\363\177\237"
 467      71816E52 
 467      0F823271 
 467      A232A01B 
 467      F37F9F
 468 06fb E965A213 		.ascii	"\351e\242\023.dB\212\316\246E\351$S\316{,+\223\240o"
 468      2E64428A 
 468      CEA645E9 
 468      2453CE7B 
 468      2C2B93A0 
 469 0710 82D8F7A0 		.ascii	"\202\330\367\240`\323\222DeKv\304=>\351\202\2570\377"
 469      60D39244 
 469      654B76C4 
 469      3D3EE982 
 469      AF30FF
 470 0723 BE7C70A0 		.ascii	"\276|p\240\015\261x\221\2712\274\250m\257+K\340^\272"
 470      0DB17891 
 470      B932BCA8 
 470      6DAF2B4B 
 470      E05EBA
 471 0736 8B9D8A9A 		.ascii	"\213\235\212\232U\343\353\214\266ugs\007L\025L\273\311"
 471      55E3EB8C 
 471      B6756773 
 471      074C154C 
 471      BBC9
 472 0748 A1EAB38E 		.ascii	"\241\352\263\216\026\355jiZ\035\005\325R^K\265Te\325"
 472      16ED6A69 
 472      5A1D05D5 
 472      525E4BB5 
 472      5465D5
 473 075b 2A1B53C7 		.ascii	"*\033S\307\354q;\023W\270w\037\014\221^\206t'\354(r"
 473      EC713B13 
 473      57B8771F 
 473      0C915E86 
 473      7427EC28 
 474 0770 C4630CB9 		.ascii	"\304c\014\271\034;z\321\001O1d\373D\177\266+\216\320"
 474      1C3B7AD1 
 474      014F3164 
 474      FB447FB6 
 474      2B8ED0
 475 0783 526428A2 		.ascii	"Rd(\242\264O\215c\030\222\265u\340\264=\030\263\030"
 475      B44F8D63 
 475      1892B575 
 475      E0B43D18 
 475      B318
 476 0795 7207492A 		.ascii	"r\007I*\236\305\254\342\311+\035;\253\306\261\224V\310"
 476      9EC5ACE2 
 476      C92B1D3B 
 476      ABC6B194 
 476      56C8
 477 07a7 CF1B48D2 		.ascii	"\317\033H\322I*\033W\2324\231`\320\031\321\240\305\226"
 477      492A1B57 
 477      9A349960 
 477      D019D1A0 
 477      C596
ARM GAS  /tmp/ccJaiJIG.s 			page 38


 478 07b9 D97DE498 		.ascii	"\331}\344\230\011\277\251B\357.F\313\300\232\014\260"
 478      09BFA942 
 478      EF2E46CB 
 478      C09A0CB0 
 479 07c9 6631B7E6 		.ascii	"f1\267\3464X\223"
 479      345893
 480 07d0 CEAC399D 		.ascii	"\316\2549\235\222^\341\214\023\231\200\304\270\253y"
 480      925EE18C 
 480      139980C4 
 480      B8AB79
 481 07df 2E160150 		.ascii	".\026\001P\256\344\322L\310\002\011gE\011\231\202\015"
 481      AEE4D24C 
 481      C8020967 
 481      45099982 
 481      0D
 482 07f0 11E79445 		.ascii	"\021\347\224E\204\357o\316t\300G\231\210\276\322\362"
 482      84EF6FCE 
 482      74C04799 
 482      88BED2F2 
 483 0800 7D589230 		.ascii	"}X\2220+\331\032\225\003\"\262E\021Y\266D\234W\026\021"
 483      2BD91A95 
 483      0322B245 
 483      1159B644 
 483      9C571611 
 484 0814 9734F826 		.ascii	"\2274\370&>\315<\272c\347l\026\306YL\334\341\313S\261"
 484      3ECD3CBA 
 484      63E76C16 
 484      C6594CDC 
 484      E1CB53B1 
 485 0828 A245FDDA 		.ascii	"\242E\375\332\217P>H\312{\015I\027\224%u\035~:\246\306"
 485      8F503E48 
 485      CA7B0D49 
 485      17942575 
 485      1D7E3AA6 
 486 083d 054CD4F1 		.ascii	"\005L\324\361\362\254\033Z\\\302D\335}\2303\341l\021"
 486      F2AC1B5A 
 486      5CC244DD 
 486      7D9833E1 
 486      6C11
 487 084f 3504A22E 		.ascii	"5\004\242.\201\250\213\257!\252PY\324\324\201\204wq"
 487      81A88BAF 
 487      21AA5059 
 487      D4D48184 
 487      7771
 488 0861 2593F4F8 		.ascii	"%\223\364\370DC\016\231\364<t\350o\222,\361`Y\222\274"
 488      44430E99 
 488      F43C74E8 
 488      6F922CF1 
 488      605992BC 
 489 0875 B73FDE01 		.ascii	"\267?\336\001\3273=\216<\272\023\341,\231Z\226\262\372"
 489      D7333D8E 
 489      3CBA13E1 
 489      2C995A96 
 489      B2FA
 490 0887 B71494B9 		.ascii	"\267\024\224\271,*\343a\321%5\302\364\243\260\345*\364"
 490      2C2AE361 
 490      D12535C2 
ARM GAS  /tmp/ccJaiJIG.s 			page 39


 490      F4A3B0E5 
 490      2AF4
 491 0899 12F29E6C 		.ascii	"\022\362\236l\235\320\025P\307\203\253S\002\352\024"
 491      9DD01550 
 491      C783AB53 
 491      02EA14
 492 08a8 3375B647 		.ascii	"3u\266G\246\307:\342;L\310\265\216m\233%\211\262\242"
 492      A6C73AE2 
 492      3B4CC8B5 
 492      8E6D9B25 
 492      89B2A2
 493 08bb 8A264A39 		.ascii	"\212&J9\310\270*\312(\025l\013)S\026\322\235\325Q\241"
 493      C8B82ACA 
 493      28156C0B 
 493      295316D2 
 493      9DD551A1 
 494 08cf C67D4CC8 		.ascii	"\306}L\310\315\370mO5\242%3\270\253\034\266SjT\011b"
 494      CDF86D4F 
 494      35A22533 
 494      B8AB1CB6 
 494      536A5409 
 495 08e4 2A4431E5 		.ascii	"*D1\345\257\020sMYL\372\323\2075.\322\275\031a)nC\252"
 495      AF10734D 
 495      594CFAD3 
 495      87352ED2 
 495      BD196129 
 496 08fb 0427BEF3 		.ascii	"\004'\276\363\010\357\317oA8\333\236\272\371\366D\311"
 496      08EFCF6F 
 496      4138DB9E 
 496      BAF9F644 
 496      C9
 497 090c 9413BE40 		.ascii	"\224\023\276@\021uo\332\350\260\035\362X\214\220\016"
 497      11756FDA 
 497      E8B01DF2 
 497      588C900E 
 498 091c E0A4F950 		.ascii	"\340\244\371PB\205\256\003\253\032\001\233OD\222L\240"
 498      4285AE03 
 498      AB1A019B 
 498      4F44924C 
 498      A0
 499 092d D9C8DF48 		.ascii	"\331\310\337H\263R\354kAA\362H\205\352A\275:P/\011&"
 499      B352EC6B 
 499      4141F248 
 499      85EA41BD 
 499      3A502F09 
 500 0942 29D242EA 		.ascii	")\322B\352\322\372\243\207\034t\274W\324+{\001\365\310"
 500      D2FAA387 
 500      1C74BC57 
 500      D42B7B01 
 500      F5C8
 501 0954 58E72D41 		.ascii	"X\347-AjT\203\225Q\215\026\243\256\326G\234v\304\227"
 501      6A548395 
 501      518D16A3 
 501      AED6479C 
 501      76C497
 502 0967 9851FD33 		.ascii	"\230Q\3753G\007\264\270\224!\023\0115\307\235q%C\366"
 502      4707B4B8 
ARM GAS  /tmp/ccJaiJIG.s 			page 40


 502      94211309 
 502      35C79D71 
 502      2543F6
 503 097a 6536B5DA 		.ascii	"e6\265\332\341Z\206t\237\233-\266\303\365\014I\351|"
 503      E15A8674 
 503      9F9B2DB6 
 503      C3F50C49 
 503      E97C
 504 098c 76568B9B 		.ascii	"vV\213\233(\"\\\275}\364\264\263uE\016\225\277X\334"
 504      28225CBD 
 504      7DF4B4B3 
 504      75450E95 
 504      BF58DC
 505 099f 80AA5F58 		.ascii	"\200\252_X\327\343O\222\377\205V\016-\202\023\272-\306"
 505      D7E34F92 
 505      FF85560E 
 505      2D8213BA 
 505      2DC6
 506 09b1 F10B5E8D 		.ascii	"\361\013^\215\367\206W6\333\3436&\352\331\223[\323\316"
 506      F7865736 
 506      DBE33626 
 506      EAD9935B 
 506      D3CE
 507 09c3 B88B21A6 		.ascii	"\270\213!\246\311\313\355v\270\217!\035q\023\275\016"
 507      C9CBED76 
 507      B88F211D 
 507      7113BD0E 
 508 09d3 788021D5 		.ascii	"x\200!\325\267w\\Q\343\373\0149U\327k\322\340!\206\024"
 508      B7775C51 
 508      E3FB0C39 
 508      55D76BD2 
 508      E0218614 
 509 09e7 C7D44DDB 		.ascii	"\307\324M\333\343\307\014I\272\264=\\\207G\030\2221"
 509      E3C70C49 
 509      BAB43D5C 
 509      87471892 
 509      31
 510 09f8 3716EB84 		.ascii	"7\026\353\204\307\270\345\3057\216\011l\215q\007\364"
 510      C7B8E5C5 
 510      378E096C 
 510      8D7107F4 
 511 0a08 4CE98E6A 		.ascii	"L\351\216j\3147{B<v\214;v\241\302\005\271\263\037)\267"
 511      CC377B42 
 511      3C768C3B 
 511      76A1C205 
 511      B9B31F29 
 512 0a1d D86E772E 		.ascii	"\330nw.E\3630\243v\247)\265\214Y\323\016\326\014\011"
 512      45F330A3 
 512      76A729B5 
 512      8C59D30E 
 512      D60C09
 513 0a30 F36A5E69 		.ascii	"\363j^i\351r\363\317l\177L\310\333\344\344\375\362\022"
 513      E972F3CF 
 513      6C7F4CC8 
 513      DBE4E4FD 
 513      F212
 514 0a42 B94C42DD 		.ascii	"\271LB\335\241\314\\B\335/\241\276%\247\216\021\344"
ARM GAS  /tmp/ccJaiJIG.s 			page 41


 514      A1CC5C42 
 514      DD2FA1BE 
 514      25A78E11 
 514      E4
 515 0a53 D47F12A9 		.ascii	"\324\177\022\251{\344\324\362\223\200!\011q\267\"\261"
 515      7BE4D4F2 
 515      93802109 
 515      71B722B1 
 516 0a63 D4C82909 		.ascii	"\324\310)\011u\247\234ZZ\316I\013\261~H\345>\201\024"
 516      75A79C5A 
 516      5ACE490B 
 516      B17E48E5 
 516      3E8114
 517 0a76 62BC07D9 		.ascii	"b\274\007\331\304?\202\364\271/\270\243\007\000\303"
 517      C43F82F4 
 517      B92FB8A3 
 517      0700C3
 518 0a85 000F01EE 		.ascii	"\000\017\001\356\001\334\005\030\000x\0140(H\353\330"
 518      01DC0518 
 518      00780C30 
 518      2848EBD8 
 519 0a95 5189EC2E 		.ascii	"Q\211\354.e\331\322*\266\203U\261@5\277\230\351\356"
 519      65D9D22A 
 519      B68355B1 
 519      4035BF98 
 519      E9EE
 520 0aa7 76DBC7CA 		.ascii	"v\333\307\312R\340uG9X\314\016Zh\356\337\255\226\016"
 520      52E07547 
 520      3958CC0E 
 520      5A68EEDF 
 520      AD960E
 521 0aba 3F293154 		.ascii	"?)1T&\226\341\327]|\354\2053\256r y\207\033\237&\027"
 521      2696E1D7 
 521      5D7CEC85 
 521      33AE7220 
 521      79871B9F 
 522 0ad0 3B21F785 		.ascii	";!\367\205\036L\"LrI\367\352XBA\017\324\014B\237)\307"
 522      1E4C224C 
 522      7249F7EA 
 522      5842410F 
 522      D40C429F 
 523 0ae6 45B1FE79 		.ascii	"E\261\376y\312\351\211\353F\301u#\202\264\376i8\315"
 523      CAE989EB 
 523      46C17523 
 523      82B4FE69 
 523      38CD
 524 0af8 8C7D666D 		.ascii	"\214}fm,\031\013\341\367\037c|\213\352\204\206\0073"
 524      2C190BE1 
 524      F71F637C 
 524      8BEA8486 
 524      0733
 525 0b0a 5A04DCC6 		.ascii	"Z\004\334\306\220\373\343\343-v\370.Cr\347No\303\370"
 525      90FBE3E3 
 525      2D76F82E 
 525      4372E74E 
 525      6FC3F8
 526 0b1d 21457ED5 		.ascii	"!E~\325\027s*\311\016T\207\021\341\264\220\377\001\006"
ARM GAS  /tmp/ccJaiJIG.s 			page 42


 526      17732AC9 
 526      0E548711 
 526      E1B490FF 
 526      0106
 527 0b2f A3C3835C 		.ascii	"\243\303\203\\\340\377\"\366\210\234N8\321\2230\017"
 527      E0FF22F6 
 527      889C4E38 
 527      D193300F 
 528 0b3f 77F30F9E 		.ascii	"w\363\017\236zx\230\017\036\226e\362\203\007\230xQ\021"
 528      7A78980F 
 528      1E9665F2 
 528      83079878 
 528      5111
 529 0b51 983061CB 		.ascii	"\2300a\313\317\322|y\006\004#\204\3409\357A\214>\207"
 529      CFD27C79 
 529      06042384 
 529      E039EF41 
 529      8C3E87
 530 0b64 3DD059EC 		.ascii	"=\320Y\354\2162\0012\000\316\000\234\006H\007x\001\271"
 530      8E320132 
 530      00CE009C 
 530      06480778 
 530      01B9
 531 0b76 720AAE27 		.ascii	"r\012\256'\001N\000\354\003\330\011\260\025 \022\340"
 531      014E00EC 
 531      03D809B0 
 531      152012E0 
 532 0b86 253C9F02 		.ascii	"%<\237\002\230\264\316\247\317X>\301$\366\255\\\265"
 532      98B4CEA7 
 532      CF583EC1 
 532      24F6AD5C 
 532      B5
 533 0b97 31F9089C 		.ascii	"1\371\010\234\255\343\007\031\244.\373\026\311\310\237"
 533      ADE30719 
 533      A42EFB16 
 533      C9C89F
 534 0ba6 CF9B0DBA 		.ascii	"\317\233\015\272\353\3709\3114X>\251LO\331K\362j\306"
 534      EBF839C9 
 534      34583EA9 
 534      4C4FD94B 
 534      F26AC6
 535 0bb9 2AAFA659 		.ascii	"*\257\246Y^)\236h\230@\337\031\356\230\363\340\230l"
 535      5E299E68 
 535      9840DF19 
 535      EE98F3E0 
 535      986C
 536 0bcb 30320C60 		.ascii	"02\014`\326\312\300\346\313\232Y(\350\243\355\320\234"
 536      D6CAC0E6 
 536      CB9A5928 
 536      E8A3EDD0 
 536      9C
 537 0bdc C0CE7D66 		.ascii	"\300\316}fl\015W\211\026&,\325b\356\025Z\344\200\344"
 537      6C0D5789 
 537      16262CD5 
 537      62EE155A 
 537      E480E4
 538 0bef EFD6A23F 		.ascii	"\357\326\242?\036\233\216\277\211\302\261\023\232RV"
ARM GAS  /tmp/ccJaiJIG.s 			page 43


 538      1E9B8EBF 
 538      89C2B113 
 538      9A5256
 539 0bfe 41EE8708 		.ascii	"A\356\207\010+\015HG\226\322\2129\222\005\202\377~9"
 539      2B0D4847 
 539      96D28A39 
 539      920582FF 
 539      7E39
 540 0c10 02295C3B 		.ascii	"\002)\\;\312R\230\224\255a\362<yj\035x\030\212\243\237"
 540      CA529894 
 540      AD61F23C 
 540      796A1D78 
 540      188AA39F 
 541 0c24 86D1ACDA 		.ascii	"\206\321\254\332\006Fl\343\344\226]\313VA9\343-\004"
 541      06466CE3 
 541      E4965DCB 
 541      564139E3 
 541      2D04
 542 0c36 3BC08228 		.ascii	";\300\202(\314\254\211\201\373h\320l;\226j\364$\235"
 542      CCAC8981 
 542      FB68D06C 
 542      3B966AF4 
 542      249D
 543 0c48 2716F10B 		.ascii	"'\026\361\0139\200\213\302\312\023\266\"\377\031\336"
 543      39808BC2 
 543      CA13B622 
 543      FF19DE
 544 0c57 C136FF7E 		.ascii	"\3016\377~\0176*\010\3732E\366\222I\266;\235\315;@$"
 544      0F362A08 
 544      FB3245F6 
 544      9249B63B 
 544      9DCD3B40 
 545 0c6c 9D77CC87 		.ascii	"\235w\314\207i\357%\354#\207i\304\025\263\342Q\006!"
 545      69EF25EC 
 545      238769C4 
 545      15B3E251 
 545      0621
 546 0c7e 367BABA7 		.ascii	"6{\253\247qI\015\367\357.\240\332.\367\357V\341\325"
 546      71490DF7 
 546      EF2EA0DA 
 546      2EF7EF56 
 546      E1D5
 547 0c90 D3E25EB0 		.ascii	"\323\342^\260!\226\333\263\007\356w[\373*E\342+bL\254"
 547      2196DBB3 
 547      07EE775B 
 547      FB2A45E2 
 547      2B624CAC 
 548 0ca4 B2318AAC 		.ascii	"\2621\212\254\243\004\254\310\232\0317\230\302,\217"
 548      A304ACC8 
 548      9A193798 
 548      C22C8F
 549 0cb3 55B67CE5 		.ascii	"U\266|\345\366h\262o&6E\213\033\241X+\313\337\251\346"
 549      F668B26F 
 549      2636458B 
 549      1BA1582B 
 549      CBDFA9E6 
 550 0cc7 96EFC78B 		.ascii	"\226\357\307\213\320\016\271\3451\222T\331\247x\246"
ARM GAS  /tmp/ccJaiJIG.s 			page 44


 550      D00EB9E5 
 550      319254D9 
 550      A778A6
 551 0cd6 46BA11E5 		.ascii	"F\272\021\345\216\203ri\020\307c\000G\001\016\003$\003"
 551      8E837269 
 551      10C76300 
 551      47010E03 
 551      2403
 552 0ce8 1C048803 		.ascii	"\034\004\210\0038`\345\223\332\337\261\370\222t\336"
 552      3860E593 
 552      DADFB1F8 
 552      9274DE
 553 0cf7 09420917 		.ascii	"\011B\011\027\233\233\203\206+\222Yl\327wQ\227\375\232"
 553      9B9B8386 
 553      2B92596C 
 553      D7775197 
 553      FD9A
 554 0d09 B18E076F 		.ascii	"\261\216\007o\357\266M,\031\351\011V#\035\372\311\347"
 554      EFB64D2C 
 554      19E90956 
 554      231DFAC9 
 554      E7
 555 0d1a 9AC3B075 		.ascii	"\232\303\260uH&[\207C\300/\201G\343\020\030\234\004"
 555      48265B87 
 555      43C02F81 
 555      47E31018 
 555      9C04
 556 0d2c 86258A86 		.ascii	"\206%\212\206\2212\242^\363\224;\224\234R\304\362\016"
 556      9132A25E 
 556      F3943B94 
 556      9C52C4F2 
 556      0E
 557 0d3d 4A730DEB 		.ascii	"Js\015\3530\364\006\231\227HrN#Fk\031&\362<\037\334"
 557      30F40699 
 557      9748724E 
 557      23466B19 
 557      26F23C1F 
 558 0d52 A621470C 		.ascii	"\246!G\014\011X\276\227\240\201\374U1\227K\216 \216"
 558      0958BE97 
 558      A081FC55 
 558      31974B8E 
 558      208E
 559 0d64 7C97975A 		.ascii	"|\227\227Z\212\271O\217\200\233\216\275\226\233R\200"
 559      8AB94F8F 
 559      809B8EBD 
 559      969B5280 
 560 0d74 5274D311 		.ascii	"Rt\323\021\346&\033\023&J\005\357\210s\246\345E\031"
 560      E6261B13 
 560      264A05EF 
 560      8873A6E5 
 560      4519
 561 0d86 2BE408A7 		.ascii	"+\344\010\24741!\303)+\363T\367N\021_\255aE<\376J3\210"
 561      343121C3 
 561      292BF354 
 561      F74E115F 
 561      AD61453C 
 562 0d9e 4B2EF105 		.ascii	"K.\361\005\221\030}\342\273\250\207>d\251A\210O\332"
ARM GAS  /tmp/ccJaiJIG.s 			page 45


 562      91187DE2 
 562      BBA8873E 
 562      64A94188 
 562      4FDA
 563 0db0 26E6EFBB 		.ascii	"&\346\357\273.\332\021o\003\315\374\235[\3139\267\261"
 563      2EDA116F 
 563      03CDFC9D 
 563      5BCB39B7 
 563      B1
 564 0dc1 7053C232 		.ascii	"pS\3022z\260p\212\017\032^<\261!S,Y\205\207~\026o*\015"
 564      7AB0708A 
 564      0F1A5E3C 
 564      B121532C 
 564      5985877E 
 565 0dd9 C3F46C20 		.ascii	"\303\364l W\211\370]\221\266\226\323\222\342\276@\211"
 565      5789F85D 
 565      91B696D3 
 565      92E2BE40 
 565      89
 566 0dea 5612C3EE 		.ascii	"V\022\303\356\014\036C\250\275P\265\362\276F\272!\377"
 566      0C1E43A8 
 566      BD50B5F2 
 566      BE46BA21 
 566      FF
 567 0dfb 57714E6D 		.ascii	"WqNm\222S\317\257$\332%\3447\224\311%\256m8\303\003"
 567      9253CFAF 
 567      24DA25E4 
 567      3794C925 
 567      AE6D38C3 
 568 0e10 41B68737 		.ascii	"A\266\2077\345\344\363_\261\224q\356d#3\246L.\341>\365"
 568      E5E4F35F 
 568      B19471EE 
 568      642333A6 
 568      4C2EE13E 
 569 0e25 5371399B 		.ascii	"Sq9\233F\262\345l^\340\3706tBP\234\024\227\235\244\007"
 569      46B2E56C 
 569      5EE0F836 
 569      7442509C 
 569      14979DA4 
 570 0e3a 16245BC7 		.ascii	"\026$[\307\305\034$\304fi\255\2275S\243\2214\007\315"
 570      C51C24C4 
 570      6669AD97 
 570      3553A391 
 570      3407CD
 571 0e4d 02675E25 		.ascii	"\002g^%\260a;&\2312\243$o\360\240\226<#\333\2319q\361"
 571      B0613B26 
 571      9932A324 
 571      6FF0A096 
 571      3C23DB99 
 572 0e64 9911F84B 		.ascii	"\231\021\370K\201\247}\021\307]\361 ;gI\255\213jp\300"
 572      81A77D11 
 572      C75DF120 
 572      3B6749AD 
 572      8B6A70C0 
 573 0e78 430CC9DE 		.ascii	"C\014\311\336\023\026\206\361\024Cj\236G?\241\265w\304"
 573      131686F1 
 573      14436A9E 
ARM GAS  /tmp/ccJaiJIG.s 			page 46


 573      473FA1B5 
 573      77C4
 574 0e8a AB6B6F1C 		.ascii	"\253ko\034W\220\011\322`\217\254\270\230\344a\214\012"
 574      579009D2 
 574      608FACB8 
 574      98E4618C 
 574      0A
 575 0e9b F8F45508 		.ascii	"\370\364U\010\003\364\242e\352\212\214\240\253`O\302"
 575      03F4A265 
 575      EA8A8CA0 
 575      AB604FC2 
 576 0eab 3D6A763E 		.ascii	"=jv>\304\374\002'\2669@*\273\231\237\013\260|\273\337"
 576      C4FC0227 
 576      B639402A 
 576      BB999F0B 
 576      B07CBBDF 
 577 0ebf 17FD6D96 		.ascii	"\027\375m\226\032G:\322\002~x\250\277\321\005y,4\373"
 577      1A473AD2 
 577      027E78A8 
 577      BFD10579 
 577      2C34FB
 578 0ed2 7F49F21E 		.ascii	"\177I\362\036\262\034\027\003\353K\330\342\221\002\272"
 578      B21C1703 
 578      EB4BD8E2 
 578      9102BA
 579 0ee1 28296A5D 		.ascii	"()j]\004\232*i\015\202.\226<^\301\252\352\305\344\205"
 579      049A2A69 
 579      0D822E96 
 579      3C5EC1AA 
 579      EAC5E485 
 580 0ef5 42D7B352 		.ascii	"B\327\263R\376\305@/9\354\314n\330\235\354\214\367S"
 580      FEC5402F 
 580      39ECCC6E 
 580      D89DEC8C 
 580      F753
 581 0f07 35D0D9BD 		.ascii	"5\320\331\275a\373\005\234\310\220\266\355\317k5\370"
 581      61FB059C 
 581      C890B6ED 
 581      CF6B35F8 
 582 0f17 1445ECAF 		.ascii	"\024E\354\257\346\206Ea^|{,4OCK:\371tj\316\320\032\333"
 582      E6864561 
 582      5E7C7B2C 
 582      344F434B 
 582      3AF9746A 
 583 0f2f D33859A3 		.ascii	"\3238Y\243\272$\213\374U,#\357\227'tK\247l\270(p\227"
 583      BA248BFC 
 583      552C23EF 
 583      9727744B 
 583      A76CB828 
 584 0f45 0E97279D 		.ascii	"\016\227'\235\022\3667\344\364\363F\343l\207\333~\023"
 584      12F637E4 
 584      F4F346E3 
 584      6C87DB7E 
 584      13
 585 0f56 2137E76F 		.ascii	"!7\347o\215\362\272\302_\217J\2317)3\227\276*\037\347"
 585      8DF2BAC2 
 585      5F8F4A99 
ARM GAS  /tmp/ccJaiJIG.s 			page 47


 585      37293397 
 585      BE2A1FE7 
 586 0f6a 456D0DB6 		.ascii	"Em\015\266\371\252\3742^\214J0\364.\345\256 \301\253"
 586      F9AAFC32 
 586      5E8C4A30 
 586      F42EE5AE 
 586      20C1AB
 587 0f7d 86E055C2 		.ascii	"\206\340U\302\212Y\006P\001p\015\240\012\240\\\014\350"
 587      8A590650 
 587      01700DA0 
 587      0AA05C0C 
 587      E8
 588 0f8e C0D3830F 		.ascii	"\300\323\203\017\3258\213eN\317\355\346\012g\331\353"
 588      D5388B65 
 588      4ECFEDE6 
 588      0A67D9EB 
 589 0f9e 540B     		.ascii	"T\013"
 590 0fa0 E3EBC0EC 		.ascii	"\343\353\300\354u\031[\206~\3424y}P\007\335j\305\324"
 590      75195B86 
 590      7EE23479 
 590      7D5007DD 
 590      6AC5D4
 591 0fb3 ABC17C30 		.ascii	"\253\301|06=O\213\266\303\305,E\242\372\2667\353XnM"
 591      363D4F8B 
 591      B6C3C52C 
 591      45A2FAB6 
 591      37EB586E 
 592 0fc8 D01236ED 		.ascii	"\320\0226\355\345\013\015\177\257E^\301L&<\214v\306"
 592      E50B0D7F 
 592      AF455EC1 
 592      4C263C8C 
 592      76C6
 593 0fda 9594585B 		.ascii	"\225\224X[Q\022S.\320Z\025JP\363\202\374\336#\236A\344"
 593      5112532E 
 593      D05A154A 
 593      50F382FC 
 593      DE239E41 
 594 0fef 8DE00004 		.ascii	"\215\340\000\004\341\246\324\255wm\224\235\215``\003"
 594      E1A6D4AD 
 594      776D949D 
 594      8D606003 
 595 0fff 31       		.ascii	"1"
 596 1000 B01EB31E 		.ascii	"\260\036\263\036\304\300\333``\013\030t\013\240\025"
 596      C4C0DB60 
 596      600B1874 
 596      0BA015
 597 100f A019E086 		.ascii	"\240\031\340\206\325\276\243,\200\315\220dZ\033\345"
 597      D5BEA32C 
 597      80CD9064 
 597      5A1BE5
 598 101e B22CD5C9 		.ascii	"\262,\325\311Sy~\224}\305\250\311;\343&.\307RP\365\317"
 598      53797E94 
 598      7DC5A8C9 
 598      3BE3262E 
 598      C75250F5 
 599 1033 0B78E510 		.ascii	"\013x\345\020\013\370M\245\235\307\340\020\3175\342"
 599      0BF84DA5 
ARM GAS  /tmp/ccJaiJIG.s 			page 48


 599      9DC7E010 
 599      CF35E2
 600 1042 D62B9C99 		.ascii	"\326+\234\231%L\362%\270\377+6\357\223\341\237\213e"
 600      254CF225 
 600      B8FF2B36 
 600      EF93E19F 
 600      8B65
 601 1054 3E911626 		.ascii	">\221\026&\304V\362ZtWE\211\320\215:\021\371Th\001\025"
 601      C456F25A 
 601      74574589 
 601      D08D3A11 
 601      F9546801 
 602 1069 8B10FB8F 		.ascii	"\213\020\373\217(Pt\316\374C\210\266C\253\240\342\337"
 602      285074CE 
 602      FC4388B6 
 602      43ABA0E2 
 602      DF
 603 107a E2999B90 		.ascii	"\342\231\233\220\271\007\307\005\216\012\234%\375\343"
 603      B907C705 
 603      8E0A9C25 
 603      FDE3
 604 1088 9D918423 		.ascii	"\235\221\204#{\314$\231\177*F\3164QQ\356\2547\022D\001"
 604      7BCC2499 
 604      7F2A46CE 
 604      345151EE 
 604      AC371244 
 605 109d 08493B48 		.ascii	"\010I;H\0302\265\371s\213~*\3218d\036\016\317\022\257"
 605      1832B5F9 
 605      738B7E2A 
 605      D138641E 
 605      0ECF12AF 
 606 10b1 0FEA7A50 		.ascii	"\017\352zP\027iM\375\010\261\203\240\212\243;\264\270"
 606      17694DFD 
 606      08B183A0 
 606      8AA33BB4 
 606      B8
 607 10c2 9E65697B 		.ascii	"\236ei{CW\234\003\375\214\212|\011\301\276\243j\311"
 607      43579C03 
 607      FD8C8A7C 
 607      09C1BEA3 
 607      6AC9
 608 10d4 D8BAC0E6 		.ascii	"\330\272\300\346\207R\235\230|(\325\201\371\207R\027"
 608      87529D98 
 608      7C28D581 
 608      F9875217 
 609 10e4 A3ABFEFA 		.ascii	"\243\253\376\372V\252\251\264\327T\3328\255\311\250"
 609      56AAA9B4 
 609      D754DA38 
 609      ADC9A8
 610 10f3 BA670AD3 		.ascii	"\272g\012\323\331\021\"\324.\016\020\270\205\377m\270"
 610      D91122D4 
 610      2E0E10B8 
 610      85FF6DB8 
 611 1103 07A13BB8 		.ascii	"\007\241;\270\033t\355\302oA\337mi\375S.\370\240\023"
 611      1B74EDC2 
 611      6F41DF6D 
 611      69FD532E 
ARM GAS  /tmp/ccJaiJIG.s 			page 49


 611      F8A013
 612 1116 3BE00CBB 		.ascii	";\340\014\273}UgSj\017\225\272\226\013\315\251-\310"
 612      7D556753 
 612      6A0F95BA 
 612      960BCDA9 
 612      2DC8
 613 1128 B007A9A9 		.ascii	"\260\007\251\251 u\010\352\362\003&\362\242\011hP\267"
 613      207508EA 
 613      F20326F2 
 613      A2096850 
 613      B7
 614 1139 28B45B2E 		.ascii	"(\264[.\264\227\012\315.\211l\324\342\024'[\037\221"
 614      B4970ACD 
 614      2E896CD4 
 614      E214275B 
 614      1F91
 615 114b 3DECA859 		.ascii	"=\354\250YG[\310'E\375\230\266\325\344\335\317\325\320"
 615      475BC827 
 615      45FD98B6 
 615      D5E4DDCF 
 615      D5D0
 616 115d 46F241C7 		.ascii	"F\362A\307]\3268\367(;\332\316\342\271\001\326X\337"
 616      5DD638F7 
 616      283BDACE 
 616      E2B901D6 
 616      58DF
 617 116f 1877D6C1 		.ascii	"\030w\326\301\246\025\203\324\212{f\337\325\206\037"
 617      A61583D4 
 617      8A7B66DF 
 617      D5861F
 618 117e ECB30333 		.ascii	"\354\263\0033z\301\214\251\177\202\264\0167\221\215"
 618      7AC18CA9 
 618      7F82B40E 
 618      37918D
 619 118d 0550A13E 		.ascii	"\005P\241>\321\216>\271\035\367\251\035\375\017J\206"
 619      D18E3EB9 
 619      1DF7A91D 
 619      FD0F4A86 
 620 119d ECF119A7 		.ascii	"\354\361\031\247\357\027\305!\252\311C\213&ii\3730\327"
 620      EF17C521 
 620      AAC9438B 
 620      266969FB 
 620      30D7
 621 11af A4FD174C 		.ascii	"\244\375\027L\2230\201P\241\007\242&\017\344\232\014"
 621      93308150 
 621      A107A226 
 621      0FE49A0C 
 622 11bf 534D6A5E 		.ascii	"SMj^\346\270\340\002\246H\321@\3570eD&\260\004\355\305"
 622      E6B8E002 
 622      A648D140 
 622      EF306544 
 622      26B004ED 
 623 11d4 88CA9DA6 		.ascii	"\210\312\235\246\243\210\306\017=\0229=\302\354\375"
 623      A388C60F 
 623      3D12393D 
 623      C2ECFD
 624 11e3 037A4C39 		.ascii	"\003zL9\354\313}\221\242\301s\214\305\345\224\211<\201"
ARM GAS  /tmp/ccJaiJIG.s 			page 50


 624      ECCB7D91 
 624      A2C1738C 
 624      C5E59489 
 624      3C81
 625 11f5 DA423EB6 		.ascii	"\332B>\266a\266T\027N\015\330\376vo\204\032\363\324"
 625      61B65417 
 625      4E0DD8FE 
 625      766F841A 
 625      F3D4
 626 1207 6CCCE3BD 		.ascii	"l\314\343\275\347Z\265\\\207Zpk\231@(\320\023Q\374\023"
 626      E75AB55C 
 626      875A706B 
 626      994028D0 
 626      1351FC13 
 627 121b B3F86754 		.ascii	"\263\370gT|Df{\214\006\3078S\361\351\275\227\177\314"
 627      7C44667B 
 627      8C06C738 
 627      53F1E9BD 
 627      977FCC
 628 122e 3B4FFDA3 		.ascii	";O\375\243\245\363\250\330y\324\334y\214vn}\376\242"
 628      A5F3A8D8 
 628      79D4DC79 
 628      8C766E7D 
 628      FEA2
 629 1240 4C87E359 		.ascii	"L\207\343Y\347\222\255\221\343\3168\211\"B\305\225\035"
 629      E792AD91 
 629      E3CE3889 
 629      2242C595 
 629      1D
 630 1251 F13AD9EA 		.ascii	"\361:\331\352c\231\234_\300\204\374:\223\263\345\014"
 630      63999C5F 
 630      C084FC3A 
 630      93B3E50C 
 631 1261 22F93959 		.ascii	"\"\3719Yy\306\241\313\267\242.7\315+OvUu\217\363O\322"
 631      79C6A1CB 
 631      B7A22E37 
 631      CD2B4F76 
 631      55758FF3 
 632 1277 98DF1B7F 		.ascii	"\230\337\033\1775q'\322\024\345F\251\2373j\213d\025"
 632      357127D2 
 632      14E546A9 
 632      9F336A8B 
 632      6415
 633 1289 6921FB55 		.ascii	"i!\373U\374\023\362=\305\315\322B\253\357\034\307\255"
 633      FC13F23D 
 633      C5CDD242 
 633      ABEF1CC7 
 633      AD
 634 129a 4AD94956 		.ascii	"J\331IV\243\221+\020\367L\264v;Y}1\204\245\037ENq\342"
 634      A3912B10 
 634      F74CB476 
 634      3B597D31 
 634      84A51F45 
 635 12b1 294A5CD0 		.ascii	")J\\\320\027w\205\177\006q\207h\330<x4\222\177q\322"
 635      1777857F 
 635      06718768 
 635      D83C7834 
ARM GAS  /tmp/ccJaiJIG.s 			page 51


 635      927F71D2 
 636 12c5 44F0F296 		.ascii	"D\360\362\226\252\0215>\311\374\026\225\271\273\034"
 636      AA11353E 
 636      C9FC1695 
 636      B9BB1C
 637 12d4 93174911 		.ascii	"\223\027I\021\257\365\271*\364\270~\375e\275\006g\262"
 637      AFF5B92A 
 637      F4B87EFD 
 637      65BD0667 
 637      B2
 638 12e5 EE3BAE5D 		.ascii	"\356;\256]\250\344\037\355V\023\374\300\245\362\"G\234"
 638      A8E41FED 
 638      5613FCC0 
 638      A5F22247 
 638      9C
 639 12f6 C51EDE8D 		.ascii	"\305\036\336\215\351/\267\303y\014I\351\370\266\026"
 639      E92FB7C3 
 639      790C49E9 
 639      F8B616
 640 1305 E18B3C5A 		.ascii	"\341\213<Z7;?\302%\354\276l4\373\024W\017\023\205\022"
 640      373B3FC2 
 640      25ECBE6C 
 640      34FB1457 
 640      0F138512 
 641 1319 479B5C75 		.ascii	"G\233\\u\342kw\322.Z\272MM^my.F[\325T\231\266\211k\355"
 641      E26B77D2 
 641      2E5ABA4D 
 641      4D5E6D79 
 641      2E465BD5 
 642 1333 1AB73D3C 		.ascii	"\032\267=<\316K\324\364\003Z\363r\250B\333\325n\346"
 642      CE4BD4F4 
 642      035AF372 
 642      A842DBD5 
 642      6EE6
 643 1345 4E84FA5A 		.ascii	"N\204\372Z\334\023\027)\361,~\005\361\271\264\023\361"
 643      DC131729 
 643      F12C7E05 
 643      F1B9B413 
 643      F1
 644 1356 3A7C9529 		.ascii	":|\225)yr\274(\302\036_c\310\376\313\207\353\265\270"
 644      7972BC28 
 644      C21E5F63 
 644      C8FECB87 
 644      EBB5B8
 645 1369 8621E1AD 		.ascii	"\206!\341\255\277\301\365\354\366\312\336}]\010\337"
 645      BFC1F5EC 
 645      F6CADE7D 
 645      5D08DF
 646 1378 60485CDD 		.ascii	"`H\\\335\360\333\270\205\335\317V\227\277\215;\331}"
 646      F0DBB885 
 646      DDCF5697 
 646      BF8D3BD9 
 646      7D
 647 1389 657EFA29 		.ascii	"e~\372)\204\373\0312\232T9\254\303\203\014I\275\231"
 647      84FB1932 
 647      9A5439AC 
 647      C3830C49 
ARM GAS  /tmp/ccJaiJIG.s 			page 52


 647      BD99
 648 139b 7CD11E3F 		.ascii	"|\321\036?\344\002'\016\236t\302O\030r\253\360v\224"
 648      E402270E 
 648      9E74C24F 
 648      1872ABF0 
 648      7694
 649 13ad 231EE311 		.ascii	"#\036\343\021;\177>\301\021\277\340\322\371\027\017"
 649      3B7F3EC1 
 649      11BFE0D2 
 649      F9170F
 650 13bc 6EFC8B87 		.ascii	"n\374\213\207\201\023\003\251\016\374\273C;\300cn^\177"
 650      811303A9 
 650      0EFCBB43 
 650      3BC0636E 
 650      5E7F
 651 13ce 81F04B46 		.ascii	"\201\360KF\034\223\337\334\255\266\351\332D\263k\227"
 651      1C93DFDC 
 651      ADB6E9DA 
 651      44B36B97 
 652 13de B117E725 		.ascii	"\261\027\347%q\027\\\344\2365\357CU(\211:+\321\354\254"
 652      71175CE4 
 652      9E35EF43 
 652      5528893A 
 652      2BD1ECAC 
 653 13f2 A67B6927 		.ascii	"\246{i'\324r\327\332\242~\343i\314\325o\235\021}_&\371"
 653      D472D7DA 
 653      A27EE369 
 653      CCD56F9D 
 653      117D5F26 
 654 1407 B15700AC 		.ascii	"\261W\000\254\240\251\252\326\356<?P\023F\016X\010\253"
 654      A0A9AAD6 
 654      EE3C3F50 
 654      13460E58 
 654      08AB
 655 1419 08356490 		.ascii	"\0105d\220z\336\371\272y\237M\272\224Ec\266?!\3643X"
 655      7ADEF9BA 
 655      799F4DBA 
 655      944563B6 
 655      3F21F433 
 656 142e 463F8DE5 		.ascii	"F?\215\345\364CQ\022\372p9\177\223Zv\270\307f\221x\365"
 656      F4435112 
 656      FA70397F 
 656      935A76B8 
 656      C7669178 
 657 1443 6274903E 		.ascii	"bt\220>\"\324dtg\252=\320Q\265;J\005H\0078\001p\014"
 657      22D46474 
 657      67AA3DD0 
 657      51B53B4A 
 657      05480738 
 658 145a 201BE038 		.ascii	" \033\3408@\006\300I\200\323\000g\001\316\001\234\002"
 658      4006C049 
 658      80D30067 
 658      01CE019C 
 658      02
 659 146b 380F900C 		.ascii	"8\017\220\014p\004\340\014@\032\300a\200,\265\264\260"
 659      7004E00C 
 659      401AC061 
ARM GAS  /tmp/ccJaiJIG.s 			page 53


 659      802CB5B4 
 659      B0
 660 147c 9BFA3F51 		.ascii	"\233\372?Q\307\003r\035=\345&\215J\250\343\024\251\227"
 660      C703721D 
 660      3DE5268D 
 660      4AA8E314 
 660      A997
 661 148e 8BC437FF 		.ascii	"\213\3047\377&\022\357\225\023[\225%T\021\251\267\346"
 661      2612EF95 
 661      135B9525 
 661      5411A9B7 
 661      E6
 662 149f 94BD2B21 		.ascii	"\224\275+!\357\2270\217\2253\357\2273\257\225P\357\223"
 662      EF97308F 
 662      9533EF97 
 662      33AF9550 
 662      EF93
 663 14b1 53A7CF8B 		.ascii	"S\247\317\213\364\250\204|\227\234\334\352\250\205\332"
 663      F4A8847C 
 663      979CDCEA 
 663      A885DA
 664 14c0 29D53C5A 		.ascii	")\325<ZN\376T\256K\231\204\371~e]\244n\221P\357TV\305"
 664      4EFE54AE 
 664      4B9984F9 
 664      7E655DA4 
 664      6E9150EF 
 665 14d7 4A73A92E 		.ascii	"Js\251.a\3129g\225\243\022\366\273\225\335(\335\354"
 665      61CA3967 
 665      95A312F6 
 665      BB95DD28 
 665      DDEC
 666 14e9 3F9975A3 		.ascii	"?\231u\243\233} \263\336\354\023^\225Q\270\220\275\314"
 666      9B7D20B3 
 666      DEEC135E 
 666      9551B890 
 666      BDCC
 667 14fb 21DC76C8 		.ascii	"!\334v\310\271m\225\373\255V\252k\2142\271EW\250Ij\243"
 667      B96D95FB 
 667      AD56AA6B 
 667      8C32B945 
 667      57A8496A 
 668 1510 31AB4C0E 		.ascii	"1\253L\016\251\335P\002\247\267\024\256/\345\031\322"
 668      A9DD5002 
 668      A7B714AE 
 668      2FE519D2 
 669 1520 2E316D8F 		.ascii	".1m\217r\372I\271\267Gq\356Q\300=\222\323[\352\036\351"
 669      72FA49B9 
 669      B74771EE 
 669      51C03D92 
 669      D35BEA1E 
 670 1535 5B14F229 		.ascii	"[\024\362)\316\365\226t\027\\\357B7\003eG\212\023\325"
 670      CEF59674 
 670      175CEF42 
 670      37036547 
 670      8A13D5
 671 1548 96438C96 		.ascii	"\226C\214\226h\034A\\\224\007\335s\324\226\345\234x"
 671      681C415C 
ARM GAS  /tmp/ccJaiJIG.s 			page 54


 671      9407DD73 
 671      D496E59C 
 671      78
 672 1559 4C79A4A3 		.ascii	"Ly\244\243\\\030\340\177\357\301N\326\210\207\261}V"
 672      5C18E07F 
 672      EFC14ED6 
 672      8887B17D 
 672      56
 673 156a DF68E4A9 		.ascii	"\337h\344\251\245\373\201\013j\266\304\303\225|\376"
 673      A5FB810B 
 673      6AB6C4C3 
 673      957CFE
 674 1579 D13B71CD 		.ascii	"\321;q\315^J<b\265\037\310\347\304\371\224\370\326\313"
 674      5E4A3C62 
 674      B51FC8E7 
 674      C4F994F8 
 674      D6CB
 675 158b CC2601B7 		.ascii	"\314&\001\267\271\260u\345\310t\002\346e\303\\\227\366"
 675      B9B075E5 
 675      C87402E6 
 675      65C35C97 
 675      F6
 676 159c 740479A5 		.ascii	"t\004y\245\034f\372\210m)\012D\217\300\255\365\226\363"
 676      1C66FA88 
 676      6D290A44 
 676      8FC0ADF5 
 676      96F3
 677 15ae A29A6CBA 		.ascii	"\242\232l\272\036\244\2065\272\340BW\266\300g7\334\027"
 677      1EA48635 
 677      BAE04257 
 677      B6C06737 
 677      DC17
 678 15c0 A49B43B2 		.ascii	"\244\233C\262o\024w\207\227\324\322\322!s\270\256Z\340"
 678      6F147787 
 678      97D4D2D2 
 678      2173B8AE 
 678      5AE0
 679 15d2 92EF4F6A 		.ascii	"\222\357Oj\207\323\032\314\222\201\016\025\212\222\013"
 679      87D31ACC 
 679      92810E15 
 679      8A920B
 680 15e1 E5928BA8 		.ascii	"\345\222\213\250\344\321\304\374\373\316x\353\002*y"
 680      E4D1C4FC 
 680      FBCE78EB 
 680      022A79
 681 15f0 B03F698F 		.ascii	"\260?i\217\2063{\331\245mK\333fj2\231R\177G\205\242"
 681      86337BD9 
 681      A56D4BDB 
 681      666A3299 
 681      527F4785 
 682 1605 629159B1 		.ascii	"b\221Y\261\234Y\011e6\231rf\332\031'2f\265\207\3733"
 682      9C590965 
 682      36997266 
 682      DA192732 
 682      66B587FB 
 683 161a 10677677 		.ascii	"\020gvw\227\303\241\023V\314.\213\314.\313\231]\241"
 683      97C3A113 
ARM GAS  /tmp/ccJaiJIG.s 			page 55


 683      56CC2E8B 
 683      CC2ECB99 
 683      5DA1
 684 162c CC9A7A6E 		.ascii	"\314\232zn\344\252\361\324\002\233\233\350\224\316}"
 684      E4AAF1D4 
 684      029B9BE8 
 684      94CE7D
 685 163b AD5A4BDB 		.ascii	"\255ZK\333U5m\374v\252\242\316jg\235o\345\274r\352\274"
 685      55356DFC 
 685      76AAA2CE 
 685      6A679D6F 
 685      E5BC72EA 
 686 1650 3235F7DE 		.ascii	"25\367\336\356=\333\343\\A\307&\342\275\364wf\246\006"
 686      EE3DDBE3 
 686      5C41C726 
 686      E2BDF477 
 686      66A606
 687 1663 4C26887F 		.ascii	"L&\210\177$R\023JT**Y*W\262\202*\231\322\336\023\343"
 687      2452134A 
 687      542A2A59 
 687      2A57B282 
 687      2A99D2DE 
 688 1679 84B7FD88 		.ascii	"\204\267\375\210m5\266\227\3478X\312*\246d\325\361\202"
 688      6D35B697 
 688      E73858CA 
 688      2AA664D5 
 688      F182
 689 168b C7AE1625 		.ascii	"\307\256\026%+\231\2229\371\031\215v\266#\\M\225\254"
 689      2B999239 
 689      F9198D76 
 689      B6235C4D 
 689      95AC
 690 169d 322B3998 		.ascii	"2+9\230w\357\347\\\307\312\227\344\224,\035\206\223"
 690      77EFE75C 
 690      C7CA97E4 
 690      942C1D86 
 690      93
 691 16ae 3BA142D7 		.ascii	";\241B\327D\005\257\311\025\254\241\012\356\274=\034"
 691      4405AFC9 
 691      15ACA10A 
 691      EEBC3D1C 
 692 16be 8BF05EA6 		.ascii	"\213\360^\246\340\311\350\273\007\034\3044-\021\323"
 692      E0C9E8BB 
 692      071CC434 
 692      2D11D3
 693 16cd 94647AAD 		.ascii	"\224dz\255\310\254V\316\254\2162+\274\222\230\344\212"
 693      C8AC56CE 
 693      AC8E322B 
 693      BC9298E4 
 693      8A
 694 16de 4F326669 		.ascii	"O2fiC\205\345\374\363mg@;\217\0358\241f{\244\007\344"
 694      4385E5FC 
 694      F36D6740 
 694      3B8F1D38 
 694      A1667BA4 
 695 16f4 F1D1FAB1 		.ascii	"\361\321\372\261\203:\234\307h\313\037\345\275\260\275"
 695      833A9CC7 
ARM GAS  /tmp/ccJaiJIG.s 			page 56


 695      68CB1FE5 
 695      BDB0BD
 696 1703 FD6C32EF 		.ascii	"\375l2\357\221\222\331\207U\027\233\012\0179\212\333"
 696      9192D987 
 696      55179B0A 
 696      0F398ADB 
 697 1713 1E443FF1 		.ascii	"\036D?\361j\200\231\243\236N\3457\350\266\247\311\274"
 697      6A8099A3 
 697      9E4EE537 
 697      E8B6A7C9 
 697      BC
 698 1724 49CA6DDB 		.ascii	"I\312m\333\226\340 \245nx\025\365\326\316\310\010\035"
 698      96E020A5 
 698      6E7815F5 
 698      D6CEC808 
 698      1D
 699 1735 14164DA5 		.ascii	"\024\026M\245\264\300?w?\322\024\266\215\234\344\300"
 699      B4C03F77 
 699      3FD214B6 
 699      8D9CE4C0 
 700 1745 04D8080E 		.ascii	"\004\330\010\016\200jO\322\371:\264|.\250P\263\232\024"
 700      806A4FD2 
 700      F93AB47C 
 700      2EA850B3 
 700      9A14
 701 1757 1711551D 		.ascii	"\027\021U\035G\004\\\302LJ\2741\220\345(\3722\326\332"
 701      47045CC2 
 701      4C4ABC31 
 701      90E528FA 
 701      32D6DA
 702 176a 97B7445F 		.ascii	"\227\267D_\336\222\373\3626\365\345\215\234\344\013"
 702      DE92FBF2 
 702      36F5E58D 
 702      9CE40B
 703 1779 1A7C8B31 		.ascii	"\032|\2131km\213,\344_\334:Jj\215E\274\326\230\031i"
 703      6B6D8B2C 
 703      E45FDC3A 
 703      4A6A8D45 
 703      BCD69819 
 704 178e 9AE19B79 		.ascii	"\232\341\233y\0359\326\015\317\356\321\330\364f\273"
 704      1D39D60D 
 704      CFEED1D8 
 704      F466BB
 705 179d D99B6D7C 		.ascii	"\331\233m|3\277{\274S-\367\346\0350\261\225\232\330"
 705      33BF7BBC 
 705      532DF7E6 
 705      1D30B195 
 705      9AD8
 706 17af 41FDD36E 		.ascii	"A\375\323n\366Oy\333\363bg\2717mR\027\034\315\337\347"
 706      F64F79DB 
 706      F36267B9 
 706      376D5217 
 706      1CCDDFE7 
 707 17c3 2A7AB3FE 		.ascii	"*z\263\376.\367f'\367&\224\366\222"
 707      2EF76627 
 707      F72694F6 
 707      92
ARM GAS  /tmp/ccJaiJIG.s 			page 57


 708 17d0 CE2DDC9B 		.ascii	"\316-\334\233]\324\233\341W\356\214#\351l\333i5\333"
 708      5DD49BE1 
 708      57EE8C23 
 708      E96CDB69 
 708      35DB
 709 17e2 76F3D996 		.ascii	"v\363\331\226\\5\353\364\001F_\373O~\377\305\022\257"
 709      5C35EBF4 
 709      01465FFB 
 709      4F7EFFC5 
 709      12AF
 710 17f4 E5CB553A 		.ascii	"\345\313U:\037\237M\376A\306wW\370\030\177\346\271)"
 710      1F9F4DFE 
 710      41C67757 
 710      F8187FE6 
 710      B929
 711 1806 D4E0E91F 		.ascii	"\324\340\351\037\344\027\260i\235\3363H\377u\200\377"
 711      E417B069 
 711      9DDE3348 
 711      FF7580FF 
 712 1816 5ACF405F 		.ascii	"Z\317@_\277\215\376AzO\237u\372\365\276\233\002\214"
 712      BF8DFE41 
 712      7A4F9F75 
 712      FAF5BE9B 
 712      028C
 713 1828 3EC66F42 		.ascii	">\306oB\364\241K7\252\354\315\335\336R\352\026\372M"
 713      F4A14B37 
 713      AAECCDDD 
 713      DE52EA16 
 713      FA4D
 714 183a A8A74FA8 		.ascii	"\250\247O\250q\035\320\000\2553\240p\2477l\366\015\360"
 714      711DD000 
 714      AD33A070 
 714      A7376CF6 
 714      0DF0
 715 184c 31FEC233 		.ascii	"1\376\30230\310\350\351\347\371E\250\336\020\352\031"
 715      30C8E8E9 
 715      E7F945A8 
 715      DE10EA19 
 716 185c 14A837FE 		.ascii	"\024\2507\376\257\347*}\350W\306\340\020O\257\215\376"
 716      AFE72A7D 
 716      E857C6E0 
 716      104FAF8D 
 716      FE
 717 186d 6BFDFFB0 		.ascii	"k\375\377\260\30638\324\323`\2640\365\333h\364\017\324"
 717      C63338D4 
 717      D360B430 
 717      F5DB68F4 
 717      0FD4
 718 187f 03237588 		.ascii	"\003#u\210A\277Y\275~S\220\237\375f#\271\370\030\177"
 718      41BF59BD 
 718      7E53909F 
 718      FD6623B9 
 718      F8187F
 719 1892 FD3DB881 		.ascii	"\375=\270\201:f3\324A\372-\306\005~\033}6\373\033\214"
 719      3A6633D4 
 719      41FA2DC6 
 719      057E1B7D 
ARM GAS  /tmp/ccJaiJIG.s 			page 58


 719      36FB1B8C 
 720 18a6 9B887A20 		.ascii	"\233\210z \311\200C|\015\256V-\337O\355P\277\215\353"
 720      C980437C 
 720      0DAE562D 
 720      DF4FED50 
 720      BF8DEB
 721 18b9 40C81B72 		.ascii	"@\310\033r\376\241>\001\376\241F\373\000\337P#\301\035"
 721      FEA13E01 
 721      FEA146FB 
 721      00DF5023 
 721      C11D
 722 18cb 884270F5 		.ascii	"\210Bp\3651\376\203\002\231\217Q0\006\332\005\257_\037"
 722      31FE8302 
 722      998F5130 
 722      06DA05AF 
 722      5F1F
 723 18dd AA376A0D 		.ascii	"\2527j\015F\277 h\361~=e\374\202\003\003\203\203<C\202"
 723      46BF2068 
 723      F17E3D65 
 723      FC820303 
 723      83833C43 
 724 18f2 0DC650CF 		.ascii	"\015\306P\317\217\275W{\255\336B\332B\374\003H\267O"
 724      8FBD577B 
 724      ADDE42DA 
 724      42FC0348 
 724      B74F
 725 1904 BCBC886B 		.ascii	"\274\274\210k\271'V~\237\260\004B\307\005\306@\037?"
 725      B927567E 
 725      9FB00442 
 725      C705C640 
 725      1F3F
 726 1916 5F88BAC1 		.ascii	"_\210\272\301\327\350\037\034\344c\324\005\372B\264"
 726      D7E81F1C 
 726      E463D405 
 726      FA42B4
 727 1925 371AF4BE 		.ascii	"7\032\364\276\353\354\341_@\210\301?Xk$\377}\214\332"
 727      EBECE15F 
 727      4088C13F 
 727      586B24FF 
 727      7D8CDA
 728 1938 40E31662 		.ascii	"@\343\026b\224&\370\353 \275A\363\327M\372Mz\342~F\036"
 728      9426F8EB 
 728      20BD41F3 
 728      D74DFA4D 
 728      7AE27E46 
 729 194d EA431B5C 		.ascii	"\352C\033\\\2550\322i\223Q\277\305\307h\017\204\364"
 729      AD30D269 
 729      9351BFC5 
 729      C7680F84 
 729      F4
 730 195e D65E1FA2 		.ascii	"\326^\037\242\017\202\344\332\340\250\337\254\0172\006"
 730      0F82E4DA 
 730      E0A8DFAC 
 730      0F3206
 731 196d FA867E05 		.ascii	"\372\206~\005O\003C7\320\016\332\257}\375\215\360\320"
 731      4F034337 
 731      D00EDAAF 
ARM GAS  /tmp/ccJaiJIG.s 			page 59


 731      7DFD8DF0 
 731      D0
 732 197e 55C297C8 		.ascii	"U\302\227\310t\221\">F\264\311N\3775\351j\367\265\021"
 732      7491223E 
 732      46B4C94E 
 732      FF35E96A 
 732      F7B511
 733 1991 B40A814B 		.ascii	"\264\012\201K\250>0\004\203\203\035||xvk\371UC\335\356"
 733      A83E3004 
 733      83831D7C 
 733      7C78766B 
 733      F95543DD 
 734 19a6 041C81C6 		.ascii	"\004\034\201\3067dc\260A\257\015%\242C7h\000\200\340"
 734      376463B0 
 734      41AF0D25 
 734      A2433768 
 734      0080E0
 735 19b9 6BA3D110 		.ascii	"k\243\321\020\342\306D\370\030\364\353\365\006}\220"
 735      E2C644F8 
 735      18F4EBF5 
 735      067D90
 736 19c8 1F280F6C 		.ascii	"\037(\017l\203\327\376%\304^\277\305\337\350\027\274"
 736      83D7FE25 
 736      C45EBFC5 
 736      DFE817BC 
 737 19d8 4E6F6758 		.ascii	"NogX\367\015\364P\003I\250\003\033}+A\216\371j$\355"
 737      F70DF450 
 737      0349A803 
 737      1B7D2B41 
 737      8EF96A24 
 738 19ed C06E7D80 		.ascii	"\300n}\200\357\206P\2551\020z\000\026j\3645\352\355"
 738      EF8650AD 
 738      31107A00 
 738      166AF435 
 738      EAED
 739 19ff 8DF44258 		.ascii	"\215\364BX\372\256\365\015\325\363\261\373\376{`\273"
 739      FAAEF50D 
 739      D5F3B1FB 
 739      FE7B60BB 
 740 1a0f F946176A 		.ascii	"\371F\027j\374\012b\261\001\302\340\365\003rd\243\037"
 740      FC0A62B1 
 740      01C2E0F5 
 740      037264A3 
 740      1F
 741 1a20 18488787 		.ascii	"\030H\207\207o\240^\355\267\321\327\240\011\016X\007"
 741      6FA05EED 
 741      B7D1D7A0 
 741      090E5807 
 742 1a30 0183F10D 		.ascii	"\001\203\361\015\303\303\317\270E\010\015\021\002\014"
 742      C3C3CFB8 
 742      45080D11 
 742      020C
 743 1a3e 10DF0DBE 		.ascii	"\020\337\015\276\206@\037#6,_\016\260L0|(\030V\012\206"
 743      86401F23 
 743      362C5F0E 
 743      B04C307C 
 743      2818560A 
ARM GAS  /tmp/ccJaiJIG.s 			page 60


 744 1a53 0F04C3FB 		.ascii	"\017\004\303\373\202\341\347\202\341=G\302\231\270\023"
 744      82E1E782 
 744      E13D47C2 
 744      99B813
 745 1a62 3A7DF243 		.ascii	":}\362CU\362\331\374\001I9'\312\323/\030\346\224-F5"
 745      55F2D9FC 
 745      01493927 
 745      CAD32F18 
 745      E6942D46 
 746 1a77 C92C074B 		.ascii	"\311,\007K\2545\201!\301\301\001\366<\020\306\017\277"
 746      AC358121 
 746      C1C101F6 
 746      3C10C60F 
 746      BF
 747 1a88 475A4336 		.ascii	"GZC6\200\220\357\323\023\222\003z\342uki\362\221a\255"
 747      8090EFD3 
 747      1392037A 
 747      E2756B69 
 747      F29161AD 
 748 1a9c 0F84A973 		.ascii	"\017\204\251s\355\246\015\016!\276A\376~>\020y\027i"
 748      EDA60D0E 
 748      21BE41FE 
 748      7E3E1079 
 748      1769
 749 1aae 33C4D640 		.ascii	"3\304\326@\322\321\031\310\211\302\337\320\344\324\372"
 749      D2D119C8 
 749      89C2DFD0 
 749      E4D4FA
 750 1abd 6D3240FA 		.ascii	"m2@\372\030\235\304&\037\243\203\205\243\335f#iZ\350"
 750      189DC426 
 750      1FA38385 
 750      A3DD6623 
 750      695AE8
 751 1ad0 B7F18F9F 		.ascii	"\267\361\217\237\257\012\366\326\303\304\360\351R\230"
 751      AF0AF6D6 
 751      C3C4F0E9 
 751      5298
 752 1ade B28C4B97 		.ascii	"\262\214K\227\275\367\332J\207\032\374@\341\315\306"
 752      BDF7DA4A 
 752      871AFC40 
 752      E1CDC6
 753 1aed A57E2A7B 		.ascii	"\245~*{\237\315$B\376F\035\343\270\006\3709I\231;\206"
 753      9FCD2442 
 753      FE461DE3 
 753      B806F839 
 753      49993B86 
 754 1b01 1AD70087 		.ascii	"\032\327\000\207\217\003 \326\277|=\011\033}\003,~\201"
 754      8F0320D6 
 754      BF7C3D09 
 754      1B7D032C 
 754      7E81
 755 1b13 7B580CC0 		.ascii	"{X\014\3001\220\235\300\233\262q\",Ae\212\010~\033\035"
 755      31909DC0 
 755      9BB27122 
 755      2C41658A 
 755      087E1B1D 
 756 1b27 457F1935 		.ascii	"E\177\0315^^\253\275\337\025\376\340\255^\265\372co"
ARM GAS  /tmp/ccJaiJIG.s 			page 61


 756      5E5EABBD 
 756      DF15FEE0 
 756      AD5EB5FA 
 756      636F
 757 1b39 BCCACB5B 		.ascii	"\274\312\313[\375\233U\237{c//o\354\015\360\261\267"
 757      FD9B559F 
 757      7B632F2F 
 757      6FEC0DF0 
 757      B1B7
 758 1b4b 37FEEF35 		.ascii	"7\376\3575^\330\353\367\237\253\275\274~\353M\351W\320"
 758      5ED8EBF7 
 758      9FABBDBC 
 758      7EEB4DE9 
 758      57D0
 759 1b5d FFCBF16F 		.ascii	"\377\313\361o?\361\026\326@\317O\177\353\255^\263\032"
 759      3FF116D6 
 759      40CF4F7F 
 759      EBAD5EB3 
 759      1A
 760 1b6e A8BDBC57 		.ascii	"\250\275\274W\000,\007\312/\275?{}\345Y\366\255\371"
 760      002C07CA 
 760      2FBD3F7B 
 760      7DE559F6 
 760      ADF9
 761 1b80 7CF5BB2B 		.ascii	"|\365\273+<?\373l\225\347\347\237\256\336\274\3343\324"
 761      3C3FFB6C 
 761      95E7E79F 
 761      AEDEBCDC 
 761      33D4
 762 1b92 1848A603 		.ascii	"\030H\246\003\177\022fG\013\002\0237\315H\266T\204\002"
 762      7F126647 
 762      0B021337 
 762      CD48B654 
 762      8402
 763 1ba4 371F5F62 		.ascii	"7\037_b\327\247?8\337)G\220\345F\302\361\211\336\270"
 763      D7A73F38 
 763      DF294790 
 763      E546C2F1 
 763      89DEB8
 764 1bb7 86BAE873 		.ascii	"\206\272\350sh\375\362\373L\330\233I\024\026Jt\335\240"
 764      68FDF2FB 
 764      4CD89B49 
 764      14164A74 
 764      DDA0
 765 1bc9 67776E90 		.ascii	"gwn\220a\001\001\353(\356\027\274\211,\326\253\177\250"
 765      610101EB 
 765      28EE17BC 
 765      892CD6AB 
 765      7FA8
 766 1bdb AF58D809 		.ascii	"\257X\330\011[\342,\277\215D\353U\376\353\327\177\251"
 766      5BE22CBF 
 766      8D44EB55 
 766      FEEBD77F 
 766      A9
 767 1bec 63F71FAF 		.ascii	"c\367\037\257[\367\345\"\251\337@6u\233\263\217\017"
 767      5BF7E522 
 767      A9DF4036 
ARM GAS  /tmp/ccJaiJIG.s 			page 62


 767      759BB38F 
 767      0F
 768 1bfd 5DDC7D96 		.ascii	"]\334}\226\276\377\301\212\017\355\315\330\033V>\206"
 768      BEFFC18A 
 768      0FEDCDD8 
 768      1B563E86 
 769 1c0d DC51A05E 		.ascii	"\334Q\240^\366\377\357\014s!"
 769      F6FFEF0C 
 769      7321
 770              		.text
 771              		.section	.gnu.lto_.symtab.bae3572a7f3e3899,"",%progbits
 772 0000 5F76745F 		.ascii	"_vt_init\000"
 772      696E6974 
 772      00
 773 0009 00       		.ascii	"\000"
 774 000a 00       		.ascii	"\000"
 775 000b 00       		.ascii	"\000"
 776 000c 00000000 		.ascii	"\000\000\000\000\000\000\000\000"
 776      00000000 
 777 0014 E0010000 		.ascii	"\340\001\000\000"
 778 0018 63685654 		.ascii	"chVTDoSetI\000"
 778      446F5365 
 778      744900
 779 0023 00       		.ascii	"\000"
 780 0024 00       		.ascii	"\000"
 781 0025 00       		.ascii	"\000"
 782 0026 00000000 		.ascii	"\000\000\000\000\000\000\000\000"
 782      00000000 
 783 002e E7010000 		.ascii	"\347\001\000\000"
 784 0032 63685654 		.ascii	"chVTDoResetI\000"
 784      446F5265 
 784      73657449 
 784      00
 785 003f 00       		.ascii	"\000"
 786 0040 00       		.ascii	"\000"
 787 0041 00       		.ascii	"\000"
 788 0042 00000000 		.ascii	"\000\000\000\000\000\000\000\000"
 788      00000000 
 789 004a EB010000 		.ascii	"\353\001\000\000"
 790 004e 636800   		.ascii	"ch\000"
 791 0051 00       		.ascii	"\000"
 792 0052 02       		.ascii	"\002"
 793 0053 00       		.ascii	"\000"
 794 0054 00000000 		.ascii	"\000\000\000\000\000\000\000\000"
 794      00000000 
 795 005c F8010000 		.ascii	"\370\001\000\000"
 796 0060 73745374 		.ascii	"stStopAlarm\000"
 796      6F70416C 
 796      61726D00 
 797 006c 00       		.ascii	"\000"
 798 006d 02       		.ascii	"\002"
 799 006e 00       		.ascii	"\000"
 800 006f 00000000 		.ascii	"\000\000\000\000\000\000\000\000"
 800      00000000 
 801 0077 ED010000 		.ascii	"\355\001\000\000"
 802 007b 73745365 		.ascii	"stSetAlarm\000"
 802      74416C61 
ARM GAS  /tmp/ccJaiJIG.s 			page 63


 802      726D00
 803 0086 00       		.ascii	"\000"
 804 0087 02       		.ascii	"\002"
 805 0088 00       		.ascii	"\000"
 806 0089 00000000 		.ascii	"\000\000\000\000\000\000\000\000"
 806      00000000 
 807 0091 F1010000 		.ascii	"\361\001\000\000"
 808 0095 73745374 		.ascii	"stStartAlarm\000"
 808      61727441 
 808      6C61726D 
 808      00
 809 00a2 00       		.ascii	"\000"
 810 00a3 02       		.ascii	"\002"
 811 00a4 00       		.ascii	"\000"
 812 00a5 00000000 		.ascii	"\000\000\000\000\000\000\000\000"
 812      00000000 
 813 00ad F3010000 		.ascii	"\363\001\000\000"
 814              		.text
 815              		.section	.gnu.lto_.opts,"",%progbits
 816 0000 272D666D 		.ascii	"'-fmath-errno' '-fsigned-zeros' '-ftrapping-math' '"
 816      6174682D 
 816      6572726E 
 816      6F272027 
 816      2D667369 
 817 0033 2D666E6F 		.ascii	"-fno-trapv' '-fno-openmp' '-fno-openacc' '-mcpu=cor"
 817      2D747261 
 817      70762720 
 817      272D666E 
 817      6F2D6F70 
 818 0066 7465782D 		.ascii	"tex-m4' '-mno-thumb-interwork' '-mthumb' '-ggdb' '-"
 818      6D342720 
 818      272D6D6E 
 818      6F2D7468 
 818      756D622D 
 819 0099 4F322720 		.ascii	"O2' '-fomit-frame-pointer' '-falign-functions=16' '"
 819      272D666F 
 819      6D69742D 
 819      6672616D 
 819      652D706F 
 820 00cc 2D666675 		.ascii	"-ffunction-sections' '-fdata-sections' '-fno-common"
 820      6E637469 
 820      6F6E2D73 
 820      65637469 
 820      6F6E7327 
 821 00ff 2720272D 		.ascii	"' '-flto'\000"
 821      666C746F 
 821      2700
 822              		.text
 823              		.comm	__gnu_lto_v1,1,1
 824              		.comm	__gnu_lto_slim,1,1
 825              		.ident	"GCC: (15:6.3.1+svn253039-1build1) 6.3.1 20170620"
ARM GAS  /tmp/ccJaiJIG.s 			page 64


DEFINED SYMBOLS
                            *ABS*:0000000000000000 chvt.c
                            *COM*:0000000000000001 __gnu_lto_v1
                            *COM*:0000000000000001 __gnu_lto_slim

NO UNDEFINED SYMBOLS
