ARM GAS  /tmp/cccBwPxo.s 			page 1


   1              		.cpu cortex-m4
   2              		.eabi_attribute 20, 1
   3              		.eabi_attribute 21, 1
   4              		.eabi_attribute 23, 3
   5              		.eabi_attribute 24, 1
   6              		.eabi_attribute 25, 1
   7              		.eabi_attribute 26, 1
   8              		.eabi_attribute 30, 2
   9              		.eabi_attribute 34, 1
  10              		.eabi_attribute 18, 4
  11              		.file	"hal_usbh_debug.c"
  12              		.text
  13              	.Ltext0:
  14              		.section	.gnu.lto_.profile.1750ee06c3e56d92,"",%progbits
  15 0000 789C6365 		.ascii	"x\234ce`b`c```d\370\314\261\211\025\000\005\373\001"
  15      60626063 
  15      60606064 
  15      F8CCB189 
  15      150005FB 
  16 0015 C1       		.ascii	"\301"
  17              		.text
  18              		.section	.gnu.lto_.icf.1750ee06c3e56d92,"",%progbits
  19 0000 789C6365 		.ascii	"x\234ce`b\210f@\000~\206\311+&L\346`:\337\333z\233\223"
  19      60628866 
  19      40007E86 
  19      C92B264C 
  19      E6603ADF 
  20 0018 79EFC377 		.ascii	"y\357\303w\355\254,\223\266/\276\313\314\012f\263\365"
  20      EDAC2C93 
  20      B62FBECB 
  20      CC0A66B3 
  20      F5
  21 0029 FF7DFF9C 		.ascii	"\377}\377\234\227\275\241\353\331|\026\216\325\2737"
  21      97BDA1EB 
  21      D97C168E 
  21      D5BB37
  22 0038 7570724F 		.ascii	"uprO\330\360\242\204\347\371\213\243\277\270x\227\236"
  22      D8F0A284 
  22      E7F98BA3 
  22      BFB87897 
  22      9E
  23 0049 BDB5979B 		.ascii	"\275\265\227\233oA\313\274\217\334\374\217\247\316\337"
  23      6F41CBBC 
  23      8FDCFC8F 
  23      A7CEDF
  24 0058 C1287068 		.ascii	"\301(ph\326\376\267\234\202w\016>\357ag\000\000\371"
  24      D6FEB79C 
  24      82770E3E 
  24      EF616700 
  24      00F9
  25 006a 172CC7   		.ascii	"\027,\307"
  26              		.text
  27              		.section	.gnu.lto_.jmpfuncs.1750ee06c3e56d92,"",%progbits
  28 0000 789CB554 		.ascii	"x\234\265TKk\023Q\024>\337\234\311s\362h\265\202\013"
  28      4B6B1351 
  28      143EDF9C 
  28      C973F268 
ARM GAS  /tmp/cccBwPxo.s 			page 2


  28      B5820B
  29 0013 17CD221B 		.ascii	"\027\315\"\033\305& \005\177\202?\244K\377\200\253\031"
  29      C5262005 
  29      7F823FA4 
  29      4BFF80AB 
  29      19
  30 0024 15113782 		.ascii	"\025\0217\202\012\232\"8H\252\246\266\265\265ju|\265"
  30      0A9A2238 
  30      48AAA6B6 
  30      B5B56A75 
  30      7CB5
  31 0036 365A13B5 		.ascii	"6Z\023\265\026\212\330\205\010\"\"\242]\010n\354B\352"
  31      168AD885 
  31      082222A2 
  31      5D086EEC 
  31      42EA
  32 0048 3DF7A619 		.ascii	"=\367\246\031\223\264\222\"^\010\231{\356\375\036\347"
  32      93B49222 
  32      5E08997B 
  32      EEFD1EE7 
  33 0058 7E732742 		.ascii	"~s'B\026\035\212\020\365\221\031\016\001p-\242\030\251"
  33      161D8A10 
  33      F591190E 
  33      01702DA2 
  33      18A9
  34 006a 95BFFFE2 		.ascii	"\225\277\377\342\262\325\346\271/)A\342\002\343}mt\214"
  34      B2D5E6B9 
  34      2F2941E2 
  34      02E37D6D 
  34      748C
  35 007c 4FB3CF84 		.ascii	"O\263\317\204u5\262\270\206=DQYZ9\272\362\021\205\375"
  35      7535B2B8 
  35      863D4451 
  35      595A39BA 
  35      F21185FD 
  36 0090 3EA3CC54 		.ascii	">\243\314TbA\250\352\245\263#^\326\375\345\305}\266"
  36      6241A8EA 
  36      A5B3235E 
  36      D6FDE5C5 
  36      7DB6
  37 00a2 504141D1 		.ascii	"PAA\321\214\302%\330\232q{\360\353\032>f\340\202Y\274"
  37      8CC225D8 
  37      9A717BF0 
  37      EB1A3E66 
  37      E08259BC 
  38 00b6 3CFE3A2A 		.ascii	"<\376:*n\030I\214\013\3256\031'4\343\215\220\361{p\245"
  38      6E18498C 
  38      0BD53619 
  38      2734E38D 
  38      90F17B70 
  39 00cb 6219C634 		.ascii	"b\031\3064&\333\031\203`\365]\314`\355\262\020b*\204"
  39      26DB1983 
  39      60F55DCC 
  39      60EDB210 
  39      622A84
  40 00de 9EF466BF 		.ascii	"\236\364f\277\"\007\337+\365\373\034\021\251o#o\247"
  40      2207DF2B 
ARM GAS  /tmp/cccBwPxo.s 			page 3


  40      F5FB1C11 
  40      A96F236F 
  40      A7
  41 00ef 126AFB6E 		.ascii	"\022j\373n\237\243\270\211\234\332?\335\354=<V#\360"
  41      9FA3B889 
  41      9CDA3FDD 
  41      EC3D3C56 
  41      23F0
  42 0101 AFF3F8E6 		.ascii	"\257\363\370\346\006o\205\006\177\234\373\364&\223K"
  42      066F8506 
  42      7F9CFBF4 
  42      26934B
  43 0110 18833131 		.ascii	"\030\20311xl\371T\275a0\216\333\332\340\235\246\301"
  43      786CF954 
  43      BD61308E 
  43      DBDAE09D 
  43      A6C1
  44 0122 FFE0B17D 		.ascii	"\377\340\261}\356\020%[\222J\224\031%FGRI\314\350\244"
  44      EE10255B 
  44      924A9419 
  44      25464752 
  44      49CCE8A4 
  45 0136 EE8ABB38 		.ascii	"\356\212\2738\265`\034\215\261:0)\334\323\230 \304T"
  45      B5601C8D 
  45      B13A3029 
  45      DCD39820 
  45      C454
  46 0148 D73FF88E 		.ascii	"\327?\370\216\244\233F\245\012\334\327\371\252\372\371"
  46      A49B46A5 
  46      0ADCD7F9 
  46      AAFAF9
  47 0157 13F34B31 		.ascii	"\023\363K1\251g@x\240\252\262\037\003\372\277\325`V"
  47      A9674078 
  47      A0AAB21F 
  47      03FABFD5 
  47      6056
  48 0169 8B718758 		.ascii	"\213q\207X\017\036j\261G\241\330\231\265\237\307\331"
  48      0F1E6AB1 
  48      47A1D899 
  48      B59FC7D9 
  49 0179 88D52278 		.ascii	"\210\325\"x\274\2415\363\271\276\22047\310\003f7\312"
  49      BCA135F3 
  49      B9BE9034 
  49      37C80366 
  49      37CA
  50 018b 7F24D73B 		.ascii	"\177$\327;\254\223\233ST\355K;\312r8xbTR\026\300\256"
  50      AC939B53 
  50      54ED4B3B 
  50      CA723878 
  50      62545216 
  51 01a1 BBD9CD4D 		.ascii	"\273\331\315M\253\233\013\365\240\242\224\251\275\365"
  51      AB9B0BF5 
  51      A0A294A9 
  51      BDF5
  52 01af 294F2F0E 		.ascii	")O/\016_\314Hu'\346Q(\261m\312\313KW\017\033\315>Tu"
  52      5FCC4875 
  52      27E65128 
ARM GAS  /tmp/cccBwPxo.s 			page 4


  52      B16DCACB 
  52      4B570F1B 
  53 01c7 6B4FC3D6 		.ascii	"kO\303\326&W\203\265\264\364\260K\235\3273\235\254u"
  53      265783B5 
  53      B4F4B04B 
  53      9DD7339D 
  53      AC75
  54 01d9 849AC3D6 		.ascii	"\204\232\303\326\272\300^\265\220i|m\272\264\260\260"
  54      BAC05EB5 
  54      90697C6D 
  54      BAB4B0B0 
  55 01e9 8585E7DA 		.ascii	"\205\205\347\332B\255a\301h\022e\033\015wy\333\353\232"
  55      42AD61C1 
  55      6812651B 
  55      0D7779DB 
  55      EB9A
  56 01fb E48579C3 		.ascii	"\344\205y\303\255._\274\227\032\364\312(S\017Q\257t"
  56      AD2E5FBC 
  56      971AF4CA 
  56      28530F51 
  56      AF74
  57 020d A43E9FFB 		.ascii	"\244>\237\373\362\305\203C\375\344\344\213\203C\003"
  57      F2C58343 
  57      FDE4E48B 
  57      834303
  58 021c F9E201F5 		.ascii	"\371\342\001\365\374\033\014h3\370"
  58      FC1B0C68 
  58      33F8
  59              		.text
  60              		.section	.gnu.lto_.inline.1750ee06c3e56d92,"",%progbits
  61 0000 789C9551 		.ascii	"x\234\225Q=K\303`\020~\356\336$\015m\322D\011\035Di"
  61      3D4BC360 
  61      107EEEDE 
  61      240D6DD2 
  61      44091D44 
  62 0015 AC7FC155 		.ascii	"\254\177\301U\177B~\205\223\376\003\227\026T\\\003\012"
  62      7F427E85 
  62      93FE0397 
  62      16545C03 
  62      0A
  63 0026 E2A20107 		.ascii	"\342\242\001\007\335\334\304\256\356\016.RZ\225 \016"
  63      DDDCC4AE 
  63      EE0E2E52 
  63      5A95200E 
  64 0036 0EE2A6B8 		.ascii	"\016\342\246\270H\275\3675\375\260\024\321w\310s\271"
  64      48BDF735 
  64      FDB014D1 
  64      77C873B9 
  65 0046 7BEE78EE 		.ascii	"{\356x\3569\033\214C\306\360U\200($p\343\251Cp\262\272"
  65      391B8C43 
  65      C6F05580 
  65      282470E3 
  65      A94370B2 
  66 005b 29311622 		.ascii	")1\026\"\311-\037\355\3610W\302\3423$9\237w\307\210"
  66      C92D1FED 
  66      F13057C2 
  66      E2332439 
ARM GAS  /tmp/cccBwPxo.s 			page 5


  66      9F77C788 
  67 006f D24E69F2 		.ascii	"\322Ni\362op\261M[\327 BL2e\263\365\332'X03-\237\301"
  67      6F70B14D 
  67      5BD72042 
  67      4C3265B3 
  67      F5DA2758 
  68 0088 696250C1 		.ascii	"ibP\301\004$\001&1Mt\300\005\3417\264\253z\2704\374"
  68      04240126 
  68      314D74C0 
  68      05E137B4 
  68      AB7AB834 
  69 009d BD6520A2 		.ascii	"\275e \242\202@\024j]\203\225\235\000\260\3613\362\274"
  69      8240146A 
  69      5D83959D 
  69      00B0F133 
  69      F2BC
  70 00af 4B7AD3BC 		.ascii	"Kz\323\274[~x\314y\314\036\006\335\227\014\350\335\005"
  70      5B7E78CC 
  70      79CC1E06 
  70      DD970CE8 
  70      DD05
  71 00c1 76E6B842 		.ascii	"v\346\270B\337\177\006|kiU\210\215\213\335\221\253\372"
  71      DF7F067C 
  71      6B695588 
  71      8D8BDD91 
  71      ABFA
  72 00d3 D1C05BE5 		.ascii	"\321\300[\345\351{\300\200\336\200\312\272Z.\314GQ\256"
  72      E97BC080 
  72      DE80CABA 
  72      5A2ECC47 
  72      51AE
  73 00e5 62E546DC 		.ascii	"b\345F\334\344\265\374*\232\274NA1t\323\030\240\226"
  73      E4B5FC2A 
  73      9ABC4E41 
  73      3174D318 
  73      A096
  74 00f7 6972ADFB 		.ascii	"ir\255\373\341O=%F_\2048\247}1\220;\374\336\277\033"
  74      E14F3D25 
  74      465F8438 
  74      A77D3190 
  74      3BFCDEBF 
  75 010c 899C8163 		.ascii	"\211\234\201c\223B\274q\240\250\335~\351\225\232\237"
  75      9342BC71 
  75      A0A8DD7E 
  75      E9959A9F 
  76 011c 2DF758CD 		.ascii	"-\367X\315\236(\271(\235R\023\210\327\247\326\316LM"
  76      9E28B928 
  76      9D521388 
  76      D7A7D6CE 
  76      4C4D
  77 012e 224B1F53 		.ascii	"\"K\037S\244YY=\004gu\317\014\026\211\256\300\027\035"
  77      A459593D 
  77      046775CF 
  77      0C1689AE 
  77      C0171D
  78 0141 1259E8   		.ascii	"\022Y\350"
  79              		.text
ARM GAS  /tmp/cccBwPxo.s 			page 6


  80              		.section	.gnu.lto_.pureconst.1750ee06c3e56d92,"",%progbits
  81 0000 789C6365 		.ascii	"x\234ce`b\020g``\340f\220b\222b\227\3400\345\226\340"
  81      60621067 
  81      6060E066 
  81      90629262 
  81      97E030E5 
  82 0016 91E295E2 		.ascii	"\221\342\225\342\223\342\227\022\220\022\224\000\000"
  82      93E29712 
  82      90129400 
  82      00
  83 0023 15FD01D0 		.ascii	"\025\375\001\320"
  84              		.text
  85              		.section	.gnu.lto__put.1750ee06c3e56d92,"",%progbits
  86 0000 789C8D95 		.ascii	"x\234\215\225]L\024W\024\307\357\231;3\273;\273\220"
  86      5D4C1457 
  86      14C7EF99 
  86      3B33BB3B 
  86      BB90
  87 0012 D8076D9A 		.ascii	"\330\007m\232\215\341\205*M\323i\342S\237|\320\267&"
  87      8DE1852A 
  87      4DD369E2 
  87      539F7CD0 
  87      B726
  88 0024 6D1A53D3 		.ascii	"m\032S\3237S\266\244\220\012X\027\036\332\027\206\025"
  88      3753B6A4 
  88      900A5817 
  88      1EDA1786 
  88      15
  89 0035 F99084A5 		.ascii	"\371\220\204\245M\273\256F\030\332\255\001[- Zekae\021"
  89      4DBBAE46 
  89      18DAAD01 
  89      5B2D205A 
  89      656B6165 
  90 004a 585D3EFC 		.ascii	"X]>\374\300\357\240\321\326\212)\305\266&\265\251\212"
  90      C0EFA0D1 
  90      D68A29C5 
  90      B626B5A9 
  90      8A
  91 005b E7DC3BE1 		.ascii	"\347\334;\341\243)\313n\262w\346\316\234\375\377\177"
  91      A329CB6E 
  91      B277E6CE 
  91      9CFDFF7F 
  92 006b E79E73EF 		.ascii	"\347\236s\357jLao\272\030\333\312\030\333\204_\320\031"
  92      6A4C616F 
  92      BA18DBCA 
  92      18DB845F 
  92      D019
  93 007d 28CD638C 		.ascii	"(\315c\214U\273\025E{\234\313,\203G72\313\307\025\365"
  93      55BB1545 
  93      7B9CCB2C 
  93      83473732 
  93      CBC715F5 
  94 0091 928933ED 		.ascii	"\222\2113\355\324Z\234\251\240\311 \015\200n,7\260*"
  94      D45A9CA9 
  94      A0C9200D 
  94      806E2C37 
  94      B02A
ARM GAS  /tmp/cccBwPxo.s 			page 7


  95 00a3 85AB1A54 		.ascii	"\205\253\032TA\230\357\3450Pw\257W)h\267\360\223\330"
  95      4198EFE5 
  95      305077AF 
  95      572968B7 
  95      F093D8
  96 00b6 7BD975D8 		.ascii	"{\331u\330\232\260\270\315\031\333\207_\372@;\024`\330"
  96      9AB0B8CD 
  96      19DB875F 
  96      FA403B14 
  96      60D8
  97 00c8 58FBC12F 		.ascii	"X\373\301/\014\376\0160\274\377\352\361g\375\276u\007"
  97      0CFE0E30 
  97      BCFFEAF1 
  97      67FDBE75 
  97      07
  98 00d9 2D2B6425 		.ascii	"-+d%\036\375\245X>\233\003t\000\307\237\300\006?\274"
  98      1EFDA558 
  98      3E9B0374 
  98      00C79FC0 
  98      063FBC
  99 00ec EE67F880 		.ascii	"\356g\370\200\301!XG\321\347k\272\016\360&\324T@\305"
  99      C1215847 
  99      D1E76BBA 
  99      0EF026D4 
  99      5440C5
 100 00ff E91FA3FB 		.ascii	"\351\037\243\373\357\346\322\224C\036i5\267\204\025"
 100      EFE6D294 
 100      431E6935 
 100      B78415
 101 010e BE45E8FE 		.ascii	"\276E\350\376\3321;\247\346\307\204\356\275\326\027"
 101      DA313BA7 
 101      E6C784EE 
 101      BDD617
 102 011d 3EDF658D 		.ascii	">\337e\215X\252\315U8,\265\277\003?|\013~\201\205\341"
 102      58AACD55 
 102      382CB5BF 
 102      033F7C0B 
 102      7E8185E1 
 103 0131 77BA9F7D 		.ascii	"w\272\237}\231\243\253p\004\362%-|\017:\340\265\363"
 103      99A3AB70 
 103      04F2252D 
 103      7C0F3AE0 
 103      B5F3
 104 0143 0224AC67 		.ascii	"\002$\254gsuVbjm\352\321\223U\2538\002i*\015\032\015"
 104      73755662 
 104      6A6DEAD1 
 104      9355AB38 
 104      02692A0D 
 105 0159 3A0D6E20 		.ascii	":\015n @\017\336\352\006\015^\032|4\344\320\300\330"
 105      400FDEEA 
 105      060D5E1A 
 105      7C34E4D0 
 105      C0D8
 106 016b 1E94A415 		.ascii	"\036\224\244\025k\344\012]\371/\020j\353\011\027\010"
 106      6BE40A5D 
 106      F92F106A 
 106      EB091708 
ARM GAS  /tmp/cccBwPxo.s 			page 8


 107 017b 13B44480 		.ascii	"\023\264D\200\310\356\201q\027\245\342\022\370\275\275"
 107      C8EE8171 
 107      17A5E212 
 107      F8BDBD
 108 018a BFDD7055 		.ascii	"\277\335pU=\265\334\370 \306%\343\203\364\344\240aC"
 108      3DB5DCF8 
 108      20C625E3 
 108      83F4E4A0 
 108      6143
 109 019c 0BD8DC0D 		.ascii	"\013\330\334\015]\270\346\235\304\217/\232Nv5\270\315"
 109      5DB8E69D 
 109      C48F2F9A 
 109      4E7635B8 
 109      CD
 110 01ad 23B4EC6D 		.ascii	"#\264\354mw\024\233{\240\033l\210r'\267\306\211\276"
 110      77149B7B 
 110      A01B6C88 
 110      7227B7C6 
 110      89BE
 111 01bf 702E6AD5 		.ascii	"p.j\325\343\353>\24058\012&f\330\003Ul\032\006\342\323"
 111      E3EB3EA0 
 111      35380A26 
 111      66D80355 
 111      6C1A06E2 
 112 01d4 33B13544 		.ascii	"3\2615D\322\302\251\206\235\2777\247u\002Q\241~\024"
 112      D2C2A986 
 112      9DBF37A7 
 112      750251A1 
 112      7E14
 113 01e6 9641697F 		.ascii	"\226Ai\177\330:\251#J5Z\346\221\341q\3049\346\340\234"
 113      D83AA923 
 113      4A355AE6 
 113      91E171C4 
 113      39E6E09C 
 114 01fa 99FD264D 		.ascii	"\231\375&M85\325\364\316\200\037\004\014-&\234@\343"
 114      3835D5F4 
 114      CE801F04 
 114      0C2D269C 
 114      40E3
 115 020c 69D815AD 		.ascii	"i\330\025\255m\360JG\252br\356\266\355%G\015:\222\000"
 115      6DF04A47 
 115      AA6272EE 
 115      B6ED2547 
 115      0D3A9200 
 116 0220 27C18F24 		.ascii	"'\301\217$\354g\250\031O\276\272\020ulp\270\326-\243"
 116      EC67A819 
 116      4FBEBA10 
 116      756C70B8 
 116      D62DA3
 117 0233 007A9DCA 		.ascii	"\000z\235\3125b`t#\247,\016\315r\031\254e\313\034\317"
 117      35626074 
 117      23A72C0E 
 117      CD7219AC 
 117      65CB1CCF 
 118 0247 C0FCE302 		.ascii	"\300\374\343\002\363)\311\034\251m\320\244\201\343q"
 118      F329C91C 
 118      A96DD0A4 
ARM GAS  /tmp/cccBwPxo.s 			page 9


 118      81E371
 119 0256 BC2EDD6D 		.ascii	"\274.\335m\020\220\201@?\241\016RD<\024\222\005@\333"
 119      10908140 
 119      3FA10E52 
 119      443C1492 
 119      0540DB
 120 0269 6A22E8CB 		.ascii	"j\"\350\313@\320\277@\220\000\023]\0315\315\327\340"
 120      40D0BF40 
 120      9000135D 
 120      1935CDD7 
 120      E0
 121 027a 182CEEEF 		.ascii	"\030,\356\357\251\326\0273\3667\234\026-\266bO\015,"
 121      A9D61733 
 121      F6379C16 
 121      2DB6624F 
 121      0D2C
 122 028c D3533DE1 		.ascii	"\323S=\341\367\2106\231\271\251\006ES\235\301\246\""
 122      F7883699 
 122      B9A90645 
 122      539DC1A6 
 122      22
 123 029d D0FEF07A 		.ascii	"\320\376\360z\207\324\216\304\257z\026H\377\014YQ\""
 123      87D48EC4 
 123      AF7A1648 
 123      FF0C5951 
 123      22
 124 02ae FDCF2E17 		.ascii	"\375\317.\027\234C\220\337\302\335\270\220\241\370\364"
 124      9C4390DF 
 124      C2DDB890 
 124      A1F8F4
 125 02bd 5412E6F7 		.ascii	"T\022\346\367e\2158Q\206l\225\"(\033\261=\367qX\264"
 125      658D3851 
 125      866C9522 
 125      281BB13D 
 125      F77158B4 
 126 02d1 75190CE3 		.ascii	"u\031\014\3431\306`\204J\344Y\241\004@\371\244\026\255"
 126      31C66084 
 126      4AE459A1 
 126      0440F9A4 
 126      16AD
 127 02e3 FECCC313 		.ascii	"\376\314\303\023\027U'\335\177\233t\334\264pV\244\253"
 127      175527DD 
 127      7F9B74DC 
 127      B47056A4 
 127      AB
 128 02f4 485D3827 		.ascii	"H]8'\273\340@\355?\\Z\030\350B\340\010\213U\037Y\261"
 128      BBE040ED 
 128      3F5C5A18 
 128      E842E008 
 128      8B551F59 
 129 0309 EAC232BD 		.ascii	"\352\3022\275\214\345Kd8\272\304p\214\212n\220\374\376"
 129      8CE54B64 
 129      38BAC470 
 129      8C8A6E90 
 129      FCFE
 130 031b D42B8EFE 		.ascii	"\324+\216\376\374!\241\213\314\377\036>[\357\223\322"
 130      FC21A18B 
ARM GAS  /tmp/cccBwPxo.s 			page 10


 130      CCFF1E3E 
 130      5BEF93D2 
 131 032b 5EA21927 		.ascii	"^\242\031'e\230@\231\371U\274\025\323%\2567\033\274"
 131      65984099 
 131      F955BC15 
 131      D325AE37 
 131      1BBC
 132 033d F3FF8F97 		.ascii	"\363\377\217\227G\206\027\226\320]\024\313\021\212\247"
 132      47861796 
 132      D05D14CB 
 132      118AA7
 133 034c DE90F2BE 		.ascii	"\336\220\362\276l\344/e\220\237\024\362\334\221\277"
 133      6CE42F65 
 133      909F14F2 
 133      DC91BF
 134 035b 8CF27800 		.ascii	"\214\362x\000\\\303\003@\322\243\203\263\341U6\3642"
 134      5CC30340 
 134      D2A383B3 
 134      E15536F4 
 134      32
 135 036c 17B9DD8F 		.ascii	"\027\271\335\217y\345\333\234l\314\257d0\277*\314\235"
 135      79E5DB9C 
 135      6CCCAF64 
 135      30BF2ACC 
 135      9D
 136 037d 16826B32 		.ascii	"\026\202k2\267Hj}\266e\275\236\251\2547\226,\334M*k"
 136      B7486A7D 
 136      B665BD9E 
 136      A9AC3796 
 136      2CDC4D2A 
 137 0392 8EC84413 		.ascii	"\216\310D\023\177\0053\240\310?\307=\330\316\370\000"
 137      7F0533A0 
 137      C83FC73D 
 137      D8CEF800 
 138 03a2 676F99A5 		.ascii	"go\231\245e\025f\300|7X\2643h\226\225\026U|jn.\012~"
 138      651566C0 
 138      7C3758B4 
 138      33689695 
 138      16557C6A 
 139 03ba 5451BEC3 		.ascii	"TQ\276\303\334T\\RX\362\366\0263P^ZZYVR\361\211Y\036"
 139      DC545C52 
 139      58F2F616 
 139      33505E5A 
 139      5A595652 
 140 03d2 348BDFDF 		.ascii	"4\213\337\337n\006w\006\314\312`a1M\266\321\315\266"
 140      6E067706 
 140      CCCA6061 
 140      314DB6D1 
 140      CDB6
 141 03e4 0F8A0A2B 		.ascii	"\017\212\012+?|-\300 \300K>\336\361\034\262\313|\342"
 141      3F7C2DC0 
 141      20C04B3E 
 141      DEF11CB2 
 141      CB7CE2
 142              		.text
 143              		.section	.gnu.lto__build_hdr.1750ee06c3e56d92,"",%progbits
 144 0000 789C9594 		.ascii	"x\234\225\224]lTE\024\307\347\334\271{\357\366\033\332"
ARM GAS  /tmp/cccBwPxo.s 			page 11


 144      5D6C5445 
 144      14C7E7DC 
 144      B97BEFF6 
 144      1BDA
 145 0012 4069C5D8 		.ascii	"@i\305\330\227\206\240\204k\365\005}01\360BB5\012\372"
 145      9786A084 
 145      6BF5057D 
 145      3031F042 
 145      42350AFA 
 146 0026 C24323CB 		.ascii	"\302C#\313\3426\266\273dwKD\036\270-K[iDb\224\017c\263"
 146      E236B6BB 
 146      64774B44 
 146      1EB82D4B 
 146      5B694462 
 147 003e 8D1BC347 		.ascii	"\215\033\303G\335\002\012J)\226\265\005k\351\007\005"
 147      DD020A4A 
 147      2996B505 
 147      6BE90705 
 148 004e C4020544 		.ascii	"\304\002\005D\012J-\352\272\020+ \324sfn\327\355\322"
 148      0A4A2DEA 
 148      BA102B20 
 148      D473666E 
 148      D7EDD2
 149 0061 D4BAC9CE 		.ascii	"\324\272\311\316\2753g\346w\316\371\237s\307\306\024"
 149      BD3367E6 
 149      77CEF99F 
 149      73C7C614 
 150 0071 B6D1CED8 		.ascii	"\266\321\316\330*\300?c\014R\030([z\031\253\264+\012"
 150      2AC03F63 
 150      0C521828 
 150      5B7A19AB 
 150      B42B0A
 151 0084 AF9DC3CC 		.ascii	"\257\235\303\314T\225\306t\016\252\\V\025[t\006.\353"
 151      5495C674 
 151      0EAA5C56 
 151      155B7406 
 151      2EEB
 152 0096 0D0B70D9 		.ascii	"\015\013p\331\246h\035Y4\353|\016g\032\330\345&}\354"
 152      A6681D59 
 152      34EB7C0E 
 152      671AD8E5 
 152      267DEC
 153 00a9 C50E402F 		.ascii	"\305\016@/\246\035\330z\205\2536M\267\303zx\227o\343"
 153      A61DD87A 
 153      85AB364D 
 153      B7C37A78 
 153      976FE3
 154 00bc D056F353 		.ascii	"\320V\363S\2632w\247\211\277\310\266\2733\353\315>\223"
 154      B33277A7 
 154      89BFC8B6 
 154      BB33EBCD 
 154      3E93
 155 00ce 0739633B 		.ascii	"\0079c;\360O?\330\011s\031\356;>:\022\311\332\214&\000"
 155      F04F3FD8 
 155      097319EE 
 155      3B3E3A12 
 155      C9DA8C26 
ARM GAS  /tmp/cccBwPxo.s 			page 12


 156 00e3 05A7A7A3 		.ascii	"\005\247\247\243\335\365i4U`\032N\3037N\335\325\371"
 156      DDF56934 
 156      55601A4E 
 156      C3374EDD 
 156      D5F9
 157 00f5 4B403B77 		.ascii	"K@;w\207\356\007\264\302\220iV\231\221\007\0033+7\230"
 157      87EE07B4 
 157      C2906956 
 157      99910703 
 157      332B3798 
 158 0109 BB4C35C8 		.ascii	"\273L5\3109\354\001\216T\330\015\263a\027\314\026t\334"
 158      39EC018E 
 158      54D80DB3 
 158      6117CC16 
 158      74DC
 159 011b 7E2AB0EF 		.ascii	"~*\260\357#.\301*N\377\350\371p0S\202\013p\332\320\022"
 159      232EC12A 
 159      4EFFE8F9 
 159      70305382 
 159      0B70DAD0 
 160 0130 6A49E3AF 		.ascii	"jI\343\257\012p\354R] \323\002\307\226\3570#\201\202"
 160      0A70EC52 
 160      5D20D302 
 160      C796EF30 
 160      238182
 161 0143 2057A149 		.ascii	" W\241Ib\303\210\375\364_\354\325\375\017>\310\320T"
 161      62C388FD 
 161      F45FECD5 
 161      FD0F3EC8 
 161      D054
 162 0155 D80B85D0 		.ascii	"\330\013\205\320\010\2052\037\330\007\032J\014\264\272"
 162      0885321F 
 162      D8071A4A 
 162      0CB4BA
 163 0164 F73444CC 		.ascii	"\3674D\314\007\2435f\344\267\345\255\007~\237\221\257"
 163      07A33566 
 163      E4B7E5AD 
 163      077E9F91 
 163      AF
 164 0175 B220B7D9 		.ascii	"\262 \267\331\030\3314|\325t\034\364\024\034\354i4M"
 164      18D9347C 
 164      D5741CF4 
 164      141CEC69 
 164      344D
 165 0187 A7219386 		.ascii	"\247!\223\206,\032\262\311\232Co\2714\314\242!\217\326"
 165      2C1AB2C9 
 165      9A436FB9 
 165      34CCA221 
 165      8FD6
 166 0199 18DB84AE 		.ascii	"\030\333\204\256H\356:\256\320\223\017A\325\341\241"
 166      48EE3AAE 
 166      D0930F41 
 166      D5E1A1
 167 01a8 D6E16CF2 		.ascii	"\326\341l\362^\317)\311\255\033\333N\352\224d\212H\254"
 167      5ECF29C9 
 167      AD1BDB4E 
 167      EA94648A 
ARM GAS  /tmp/cccBwPxo.s 			page 13


 167      48AC
 168 01ba B9F9E680 		.ascii	"\271\371\346\200\276\376\276i\307\205\020\227\361\377"
 168      BEFEBE69 
 168      C7851097 
 168      F1FF
 169 01c8 D27DF658 		.ascii	"\322}\366Xj\020\352!\310S\3413\254\326~\312\015\015"
 169      6A10EA21 
 169      C853E133 
 169      ACD67ECA 
 169      0D0D
 170 01da 9B0FED7B 		.ascii	"\233\017\355{\333n\204\251`\230\276\015>\207 l\027\305"
 170      DB6E84A9 
 170      6098BE0D 
 170      3E87206C 
 170      17C5
 171 01ec 820360B0 		.ascii	"\202\003`\260!h;\334\371\210teKte\023\256F:N\324\246"
 171      21683BDC 
 171      F9887465 
 171      4B746513 
 171      AE463A4E 
 172 0202 23B6128F 		.ascii	"#\266\022\2177\264*\030p\032\206\004\007-x\177,\326"
 172      37B42A18 
 172      701A8604 
 172      072D787F 
 172      2CD6
 173 0214 9E8EF040 		.ascii	"\236\216\360@%\301\323\341\013\001\007\202\177\211\360"
 173      25C1D3E1 
 173      0B010782 
 173      7F89F0
 174 0223 EB50D5E0 		.ascii	"\353P\325\340\026\"\242H\310\027\336\206\216v\345H\177"
 174      1622A248 
 174      C817DE86 
 174      8E76E548 
 174      7F
 175 0234 5A928382 		.ascii	"Z\222\203\202\377\240\037\022t\205\350\315\343\350X"
 175      FFA01F12 
 175      7485E8CD 
 175      E3E858
 176 0243 30DCFEF3 		.ascii	"0\334\376\363pK\331\272;V\242\034\361dcp\030\326\011"
 176      704BD9BA 
 176      3B56A21C 
 176      F1646370 
 176      18D609
 177 0256 BF778EB4 		.ascii	"\277w\216\264\367~\314\343\245\016\310\026\336\222\233"
 177      F77ECCE3 
 177      A50EC816 
 177      DE929B
 178 0265 27CABC83 		.ascii	"'\312\274\203\003K\262\365\207\237\014\266#\240\205"
 178      034BB2F5 
 178      879F0CB6 
 178      23A085
 179 0274 AC4AB275 		.ascii	"\254J\262u\360H\301c\014\216\220\215'\333\206\273\346"
 179      F048C163 
 179      0C8E908D 
 179      27DB86BB 
 179      E6
 180 0285 3DCAE02B 		.ascii	"=\312\340+\262\251\011\315\305\240\025\003bp\224\222"
ARM GAS  /tmp/cccBwPxo.s 			page 14


 180      B2A909CD 
 180      C5A01503 
 180      62709492 
 181 0295 CF4D143B 		.ascii	"\317M\024;C8\357\015\217DS\345\2240T\371P\323\237\035"
 181      4338EF0D 
 181      8F4453E5 
 181      943054F9 
 181      50D39F1D 
 182 02a9 7659D64C 		.ascii	"vY\326L\370\032[6bi\263\247\347\366-]js\345\326;\371"
 182      F81A5B36 
 182      6269B3A7 
 182      E7F62D5D 
 182      6A73E5D6 
 183 02bf BBDF0352 		.ascii	"\273\337\003R\250M(\304\245#h\027\365\255\332z\247*"
 183      A84D28C4 
 183      A5236817 
 183      F5ADDA7A 
 183      A72A
 184 02d1 F62CE598 		.ascii	"\366,\345\230\3501+\271\223\262BT\267\361\2354\015\216"
 184      E8312BB9 
 184      93B24254 
 184      B7F19D34 
 184      0D8E
 185 02e3 63271D23 		.ascii	"c'\035#\227\360\015\2421j\001\034\352\354\002Y\302\224"
 185      97F00DA2 
 185      316A011C 
 185      EAEC0259 
 185      C294
 186 02f5 44E6F464 		.ascii	"D\346\364d\346\364\020Uk<\323\016\337\"\263C0;\221\311"
 186      E6F41055 
 186      6B3CD30E 
 186      DF22B343 
 186      303B91C9 
 187 0309 AE4160A0 		.ascii	"\256A`\240}\336\0048\274}\340\204\365\205\326aR\265"
 187      7DDE0438 
 187      BC7DE084 
 187      F585D661 
 187      52B5
 188 031b 73B8707E 		.ascii	"s\270p~\242Q\263\262\031\037>\1778\374\256x\370\335"
 188      A251B3B2 
 188      191F3E7F 
 188      38FCAE78 
 188      F8DD
 189 032d 56F88452 		.ascii	"V\370\204R\255\317l\303\337\325\227\232\327J\317i\262"
 189      ADCF6CC3 
 189      DFD5979A 
 189      D74ACF69 
 189      B2
 190 033e FDB7DCEC 		.ascii	"\375\267\334\354\213\246\220s\015FG\031\364\340Y\214"
 190      8BA69073 
 190      0D464719 
 190      F4E0598C 
 191 034e EFC2587C 		.ascii	"\357\302X|ibE\006dc\321\031\002\242\261z>Kv\363'w\357"
 191      69624506 
 191      6463D119 
 191      02A2B17A 
 191      3E4B76F3 
ARM GAS  /tmp/cccBwPxo.s 			page 15


 192 0365 45F9D871 		.ascii	"E\371\330q,(n\306\035\261\352\241\014y>]z\211\337\206"
 192      2C286EC6 
 192      1DB1EAA1 
 192      0C793E5D 
 192      7A89DF86 
 193 0379 3A4C8393 		.ascii	":L\203\223c>.\252\361M\263,\037\032\013\253\224\364"
 193      633E2EAA 
 193      F14DB32C 
 193      1F1A0BAB 
 193      94F4
 194 038b ED1BBD5D 		.ascii	"\355\033\275]Zr\011\263\223\345\316\016ajI\032\344\300"
 194      5A7209B3 
 194      93E5CE0E 
 194      616A491A 
 194      E4C0
 195 039d 29D4A0CF 		.ascii	")\324\240\317\352\232\2263\227w\252E{\251\273\032\362"
 195      EA9A9633 
 195      9777AA45 
 195      7BA9BB1A 
 195      F2
 196 03ae E9323C8D 		.ascii	"\3512<\215\262\300\343\"%8\003E\270\345\374\373\241"
 196      B2C0E322 
 196      25380345 
 196      B8E5FCFB 
 196      A1
 197 03bf 9BA20955 		.ascii	"\233\242\011U\030\275\317\341;\221\002\252~\2621U\206"
 197      18BDCFE1 
 197      3B9102AA 
 197      7EB23155 
 197      86
 198 03d0 973915E1 		.ascii	"\2279\025\341\317\306\205\377\236j\214\"l\257\266Z&"
 198      CFC685FF 
 198      9E6A8C22 
 198      6CAFB65A 
 198      26
 199 03e1 0BCB8014 		.ascii	"\013\313\200\024A\355\314\177\270\222\023g\321?Y\026"
 199      41EDCC7F 
 199      B8921367 
 199      D13F5916 
 200 03f1 E7288B27 		.ascii	"\347(\213'd\026\347\241\010}0!\332\271ax\230?qS^\210"
 200      6416E7A1 
 200      087D3021 
 200      DAB96178 
 200      983F7153 
 201 0407 37E500C1 		.ascii	"7\345\000\301d\337\325\341\365<\330)n\344\230\216U\326"
 201      64DFD5E1 
 201      F53CD829 
 201      6EE4988E 
 201      55D6
 202 0419 B1CA944B 		.ascii	"\261\312\224K\224J\236\207sQ<\\\370\253:\334\022\266"
 202      944A9E87 
 202      73513C5C 
 202      F8AB3ADC 
 202      12B6
 203 042b F2CB4653 		.ascii	"\362\313FSb+\350\242\025.J\035c5\326\256\034\334\370"
 203      622BE8A2 
 203      152E4A1D 
ARM GAS  /tmp/cccBwPxo.s 			page 16


 203      6335D6AE 
 203      1CDCF8
 204 043e 3F25B834 		.ascii	"?%\2704\231\004\227\023\012\371\003I\220#\3136\3205"
 204      99049713 
 204      0AF90349 
 204      9023CB36 
 204      D035
 205 0450 C1C73231 		.ascii	"\301\30721\377\312d\374\037\023$\276J|\233\224\370\342"
 205      FFCA64FC 
 205      1F1324BE 
 205      4A7C9B94 
 205      F8E2
 206 0462 D4251E8C 		.ascii	"\324%\036\214K|\015ah=X\323\275?U~\351\000\327-\305"
 206      4B7C0D61 
 206      683D58D3 
 206      BD3F557E 
 206      E900D72D 
 207 0477 EDE2E3FC 		.ascii	"\355\342\343\374\025\357\366{M\002->\205Mx9\341:R_0"
 207      15EFF67B 
 207      4D022D3E 
 207      854D7839 
 207      E13A525F 
 208 048c CADD7EC3 		.ascii	"\312\335~\303a\274\342sz}\206\273\334\351\177\313X\344"
 208      61BCE273 
 208      7A7D86BB 
 208      DCE97FCB 
 208      58E4
 209 049e F4BDE1F7 		.ascii	"\364\275\341\367\2546\026\272JW\224\276\270\324px\312"
 209      AC3616BA 
 209      4A5794BE 
 209      B8D47078 
 209      CA
 210 04af CB2BDCA5 		.ascii	"\313+\334\245\376\265\206\307g\270^+3|^\207Q\341[\341"
 210      FEB586C7 
 210      67B85E2B 
 210      337C5E87 
 210      51E15BE1 
 211 04c3 A24909BD 		.ascii	"\242I\011\275\224\254t\256\250x}\276\203\251\256U\245"
 211      94AC74AE 
 211      A8787DBE 
 211      83A9AE55 
 211      A5
 212 04d4 5E9B6B95 		.ascii	"^\233k\225\273\242\274x\012d\213\267\332\343\365\373"
 212      BBA2BC78 
 212      0A648BB7 
 212      DAE3F5FB 
 213 04e4 8CA5CB8A 		.ascii	"\214\245\313\212\237~\312X\262d\221\261lq\361\232\""
 213      9F7ECA58 
 213      B26491B1 
 213      6C71F19A 
 213      22
 214 04f5 01F7F94B 		.ascii	"\001\367\371K\312\312V\316w\261g\246N\363\370p\360\372"
 214      CACA56CE 
 214      77B167A6 
 214      4EF3F870 
 214      F0FA
 215 0507 C5134F2E 		.ascii	"\305\023O.\230\332I<P\352v\224U\254t\032\016\327\032"
ARM GAS  /tmp/cccBwPxo.s 			page 17


 215      98DA493C 
 215      50EA7694 
 215      55AC741A 
 215      0ED71A
 216 051a 3F1E5C3C 		.ascii	"?\036\\<\265\203\244\216\307m\345\360\374\313\305\013"
 216      B583A48E 
 216      C76DE5F0 
 216      FCCBC50B 
 217 052a 8BDF4482 		.ascii	"\213\337D\202\303\343u\226\370K\313\235^$\375\003.\306"
 217      C3E37596 
 217      F84BCB9D 
 217      5E24FD03 
 217      2EC6
 218 053c 53A5     		.ascii	"S\245"
 219              		.text
 220              		.section	.gnu.lto__print_hdr.1750ee06c3e56d92,"",%progbits
 221 0000 789C8DD4 		.ascii	"x\234\215\324\335k\323P\024\000\360{r\373\265\226\255"
 221      DD6BD350 
 221      1400F07B 
 221      72FBB596 
 221      AD
 222 0011 6E6CB3AB 		.ascii	"nl\263\253]\331k\025\014\373\033\364Y\005\361\325ak"
 222      5DD96B15 
 222      0CFB1BF4 
 222      5905F1D5 
 222      616B
 223 0023 B143BBCA 		.ascii	"\261C\273\312\322=\350K\343\234\016&\250/:&\224(>\314"
 223      D23DE84B 
 223      E39C0E26 
 223      A82F3A26 
 223      94283ECC 
 224 0037 EF3ABFEB 		.ascii	"\357:\277\353t\326:\277\2662\307\304'ADP\350\272M\031"
 224      74D63ABF 
 224      B632C7C4 
 224      27414450 
 224      E8BA4D19 
 225 004b 3EB807A7 		.ascii	">\270\007\247\347$m\011\031$\011\344\346\234\233C\316"
 225      E7246D09 
 225      192409E4 
 225      E69C9B43 
 225      CE
 226 005c EF5E2E71 		.ascii	"\357^.q2\201I.\306\3660\306\266\340\015\234\201p~\216"
 226      3281492E 
 226      C6F630C6 
 226      B6E00D9C 
 226      81707E8E 
 227 0070 B1131E01 		.ascii	"\261\023\036\001\200\002\331\003,#@\006\316\361Q\016"
 227      8002D903 
 227      2C234006 
 227      CEF1510E 
 228 0080 C5E11F79 		.ascii	"\305\341\037y!2.\343U\030\235\337\234\225\347e\256p"
 228      21322EE3 
 228      55189DDF 
 228      9C95E765 
 228      AE70
 229 0092 C6C6F0A6 		.ascii	"\306\306\360\246\013\306!\302\260\356\333\304\372\205"
 229      0BC621C2 
ARM GAS  /tmp/cccBwPxo.s 			page 18


 229      B0EEDBC4 
 229      FA85
 230 00a0 4697439B 		.ascii	"F\227C\233\207k\340\002|\346\026\240 \257\377\033\226"
 230      876BE002 
 230      7CE616A0 
 230      20AFFF1B 
 230      96
 231 00b1 0B73FBAF 		.ascii	"\013s\373\257\224\305.\201)\034\033*\\pR\344\242\301"
 231      94C52E81 
 231      291C1B2A 
 231      5C7052E4 
 231      A2C1
 232 00c3 4D690345 		.ascii	"Mi\003E^\032|\2246R\324D\203\237\322f\212Z(j\245\250"
 232      5E1A7C94 
 232      3652D444 
 232      839FD266 
 232      8A5A286A 
 233 00d9 8D86764A 		.ascii	"\215\206vJ\003\024u\320\020\2444DQ'\015aJ\031\033A\014"
 233      031475D0 
 233      10A43444 
 233      51270D61 
 233      4A191B41 
 234 00ee 2DE90C26 		.ascii	"-\351\014&\370\344e\030\234*/\316\272\310\227\345\002"
 234      F8E46518 
 234      9C2A2FCE 
 234      BAC897E5 
 234      02
 235 00ff B22F9E2A 		.ascii	"\262/\236*~p\237\305\025q\240U\344\363K\237\335\231"
 235      7E709FC5 
 235      1571A055 
 235      E4F34B9F 
 235      DD99
 236 0111 BFB20727 		.ascii	"\277\262\007'\256\322Jpn\261\364i\332\253@\026\024\356"
 236      AED24A70 
 236      6EB1F469 
 236      DAAB4016 
 236      14EE
 237 0123 801BB82F 		.ascii	"\200\033\270/\327!\244\276\230\374\370e\334\321\235"
 237      D721A4BE 
 237      98FCF865 
 237      DCD19D
 238 0132 A3ADE952 		.ascii	"\243\255\351R\270\023n\202\002\2605\244\356\312-\350"
 238      B8136E82 
 238      02B035A4 
 238      EECA2DE8 
 239 0142 66D86D75 		.ascii	"f\330mu8\242\365\342\330\216U`\250\213RC'\327\0306g"
 239      38A2F5E2 
 239      D88E5560 
 239      A88B5243 
 239      27D71836 
 240 0157 701B320C 		.ascii	"p\0332\014\013\025\356f\252\263R\251:\235v`wL`9\035"
 240      0B15EE66 
 240      AAB352A9 
 240      3A9D7660 
 240      774C6039 
 241 016c ECAE0A3B 		.ascii	"\354\256\012;\271zz\215k_\2576\2704\371{\306I\033\341"
 241      B97A7A8D 
ARM GAS  /tmp/cccBwPxo.s 			page 19


 241      6B5FAF36 
 241      B834F97B 
 241      C6491BE1 
 242 0180 010F4CE0 		.ascii	"\001\017L\340\207\364z7\226Y\350\357\251zw]\277T\323"
 242      87F47A37 
 242      9659E8EF 
 242      A97A775D 
 242      BF54D3
 243 0193 37D8D1DF 		.ascii	"7\330\321\3377\321?\320\351\037\032\365^\255\301\302"
 243      37D13FD0 
 243      E91F1AF5 
 243      5EADC1C2 
 244 01a3 AF52D6A7 		.ascii	"\257R\326\247\3517\301#\203\336\207e\026\372\307\252"
 244      E937C123 
 244      83DE8765 
 244      16FAC7AA 
 245 01b3 DE57D72F 		.ascii	"\336W\327/\327\364\215v\364OL\364y\235\376\251Q\337"
 245      D7F48D76 
 245      F44F4CF4 
 245      799DFEA9 
 245      51DF
 246 01c5 A4355819 		.ascii	"\2445X\031\372\376\265\252\017\300\244A\357\3072\013"
 246      FAFEB5AA 
 246      0FC0A441 
 246      EFC7320B 
 247 01d5 FD3355EF 		.ascii	"\3753U\357\257\353Wj'\274\331\216\376\271\211~\212\364"
 247      AFEB576A 
 247      27BCD98E 
 247      FEB9897E 
 247      8AF4
 248 01e7 DB34FD0B 		.ascii	"\3334\375\013\303\221n\301\357[\300\012*\254\245\016"
 248      C3916EC1 
 248      EF5BC00A 
 248      2AACA50E 
 249 01f7 FB59DBD6 		.ascii	"\373Y\333\326V;\260\227&\260\242\016\366\312\270\255"
 249      563BB097 
 249      26B0A20E 
 249      F6CAB8AD 
 250 0207 6DD860C3 		.ascii	"m\330`\303\031n\307y\013\356\264\312m\257s\377\324\270"
 250      196EC779 
 250      0BEEB4CA 
 250      6DAF73FF 
 250      D4B8
 251 0219 013BDCD7 		.ascii	"\001;\334\327&\3347:\356[#\267\003\033l8\264A\234\267"
 251      26DC373A 
 251      EE5B23B7 
 251      031B6C38 
 251      B4419CB7 
 252 022d E0BE53B9 		.ascii	"\340\276S\271\301:w\255\306\015\331\341\2767\341\316"
 252      C13A77AD 
 252      C60DD9E1 
 252      BE37E1CE 
 253 023d E8B8B346 		.ascii	"\350\270\263Fn'6\330pJ\3038o\301-\251\3340q\227a\360"
 253      6E2736D8 
 253      704AC338 
 253      6FC12DA9 
 253      DC307197 
ARM GAS  /tmp/cccBwPxo.s 			page 20


 254 0253 7225076A 		.ascii	"r%\007j-]#X\200\377g\374c\357\022\223}i1&\356\223\342"
 254      2D5D2358 
 254      80FF67FC 
 254      63EF1293 
 254      7D693126 
 255 026a FD92D897 		.ascii	"\375\222\330\227\214\247\217\213;\343\322\341t\352\250"
 255      8CA78F8B 
 255      3BE3D2E1 
 255      74EAA8
 256 0279 B823D11B 		.ascii	"\270#\321\033\355\335\275W\214\245\222\311\201\276\336"
 256      EDDDBD57 
 256      8CA592C9 
 256      81BEDE
 257 0288 F4313125 		.ascii	"\36411%\211\211\003GD\251?&\016H\321\004%=\024\364\034"
 257      89890347 
 257      44A93F26 
 257      0E48D104 
 257      253D14F4 
 258 029d 8C47070E 		.ascii	"\214G\007\016m\217\261\377S=\027\343"
 258      6D8FB1FF 
 258      533D17E3 
 259              		.text
 260              		.section	.gnu.lto_usb_debug_thread.1750ee06c3e56d92,"",%progbits
 261 0000 789C8D58 		.ascii	"x\234\215XyP\224G\026\357\367\365\0143\014\003\303}"
 261      79509447 
 261      16EFF7F5 
 261      0C330C03 
 261      C37D
 262 0012 0E0CA3E2 		.ascii	"\016\014\243\342\221D\307J\2644\226\321E\255\354Z\225"
 262      9144C74A 
 262      B43496D1 
 262      45ADEC5A 
 262      95
 263 0023 CAD65636 		.ascii	"\312\326V6\177\355\037YD\024j\003&\200U\233M\3252\002"
 263      7FED1F59 
 263      44146A03 
 263      2680559B 
 263      4DD53202 
 264 0037 020226B1 		.ascii	"\002\002&\261\242\021L\246\206\254\272\206\020\343\221"
 264      A2114CA6 
 264      86ACBA86 
 264      10E391
 265 0046 0D899808 		.ascii	"\015\211\230\010\036L\022\003DMd#\254Y\017\304x\006"
 265      1E4C1203 
 265      444D6423 
 265      AC590FC4 
 265      7806
 266 0058 EF8871D8 		.ascii	"\357\210q\330\327\257\277o\016\234\260Re\317\367^\277"
 266      D7AFBF6F 
 266      0E9CB052 
 266      65CFF75E 
 266      BF
 267 0069 E3D7AFDF 		.ascii	"\343\327\257\337{\335\255\236)\254:\201\261\357\030"
 267      7BDDAD9E 
 267      29AC3A81 
 267      B1EF18
 268 0078 635DC018 		.ascii	"c]\300\030\214c\240\274\321\303\330*\243\002:\371\301"
ARM GAS  /tmp/cccBwPxo.s 			page 21


 268      8C63A0BC 
 268      D1C3D82A 
 268      A3023AF9 
 268      C1
 269 0089 E547B60E 		.ascii	"\345G\266\016\364\342\027\364\212\275\3470cNS\330\001"
 269      F4E217F4 
 269      8ABDE730 
 269      634E53D8 
 269      01
 270 009a CE9C66BB 		.ascii	"\316\234f\273dg\207)\206\232I\310\015\027\243\331\240"
 270      64678729 
 270      869A49C8 
 270      0D17A3D9 
 270      A0
 271 00ab 18871290 		.ascii	"\030\207\022\220\2625\315F\312\0106i+\\1\021;\222\330"
 271      B235CD46 
 271      CA083669 
 271      2B5C3111 
 271      3B92D8
 272 00be 26C54654 		.ascii	"&\305FT\004Q\021*e&\312\254\251D*Q\375&d\307\177|\020"
 272      0451112A 
 272      6526CAAC 
 272      A9442A51 
 272      FD2664C7 
 273 00d5 9D9AA314 		.ascii	"\235\232\243\024\376F\026\222\026\347\024\244,*\025"
 273      FE461692 
 273      16E714A4 
 273      2C2A15
 274 00e4 4D54B44A 		.ascii	"MT\264J\305\020\025\243R\261D\305\252T\034Qq\232\365"
 274      C51015A3 
 274      52B144C5 
 274      AA541C51 
 274      719AF5
 275 00f7 782581AC 		.ascii	"x%\201\254\247I\353\011\252T\"I%\252T\022QI*\225LT\262"
 275      A749EB09 
 275      AA542249 
 275      25AA5412 
 275      51492A95 
 276 010e 4AA51095 		.ascii	"J\245\020\225\242R\251D\245j\326\323\300J!\263*\351"
 276      A252A944 
 276      A56AD6D3 
 276      C04A21B3 
 276      2AE9
 277 0120 149B0C8A 		.ascii	"\024\233\014\212M\2726\235\241p\021BS&\305\323\234)"
 277      4DBA369D 
 277      A1701142 
 277      5326C5D3 
 277      9C29
 278 0132 A5B36DC0 		.ascii	"\245\263m\300\345<\2602\205\353\364\3660\2031\334\024"
 278      E53CB032 
 278      85EBF4F6 
 278      308331DC 
 278      14
 279 0143 618E8CB2 		.ascii	"a\216\214\262D\307\304\306\305'$&%\247\244\246Y\323"
 279      44C7C4C6 
 279      C5272426 
 279      25A7A4A6 
ARM GAS  /tmp/cccBwPxo.s 			page 22


 279      59D3
 280 0155 33326D50 		.ascii	"32mP\246\3231\371gU\177\365\352\357\353|#\207\003\325"
 280      A6D331F9 
 280      67557FF5 
 280      EAEFEB7C 
 280      238703D5 
 281 0169 837B9429 		.ascii	"\203{\224)\333\234\370\327\261\361\210\315\345<\342"
 281      DB9CF8D7 
 281      B1F188CD 
 281      E53CE2
 282 0178 E46ECE58 		.ascii	"\344n\316X#\227B\260\015\246\240\330\321\312\235\357"
 282      239742B0 
 282      0DA6A0D8 
 282      D1CA9DEF 
 283 0188 F0D77006 		.ascii	"\360\327p\006@\207\344\265\356Mg\243\004\251@&\222\227"
 283      4087E4B5 
 283      EE4D67A3 
 283      04A94026 
 283      9297
 284 019a 9C759F03 		.ascii	"\234u\237\003\377\0030\374>\336\333\374\307I[\235\316"
 284      FF0330FC 
 284      3EDEDBFC 
 284      C7495B9D 
 284      CE
 285 01ab 7267C7C0 		.ascii	"rg\307\300z\356\234\340\346\034\336\007\216\366\240"
 285      7AEE9CE0 
 285      E61CDE07 
 285      8EF6A0
 286 01ba 19ACF01E 		.ascii	"\031\254\360\036X\031\262\030\264\300$!~\322\365\323"
 286      5819B218 
 286      B4C02421 
 286      7ED2F5D3 
 287 01ca 0D1D7F9E 		.ascii	"\015\035\177\236To\234kv\352\2636\223n\2577\376Z\271"
 287      546F9C6B 
 287      76EAB336 
 287      936EAF37 
 287      FE5AB9
 288 01dd B3C1A973 		.ascii	"\263\301\251ss\035| \365\237\260\302t\271\010\024\336"
 288      731D7C20 
 288      F59FB0C2 
 288      74B90814 
 288      DE
 289 01ee 756E6050 		.ascii	"un`P\317\377$}\256:\375O\243\252\330\343\265\256\253"
 289      CFFF247D 
 289      AE3AFD4F 
 289      A3AAD8E3 
 289      B5AEAB
 290 0201 707E2914 		.ascii	"p~)\024\365\360a\260cU\365\314.\357\206\3100\035\354"
 290      F5F061B0 
 290      6355F5CC 
 290      2EEF86C8 
 290      301DEC
 291 0214 802CD80E 		.ascii	"\200,\330\016Y\233\264\345\302N\010\303\0347\010&\212"
 291      599BB4E5 
 291      C24E08C3 
 291      1C370826 
 291      8A
ARM GAS  /tmp/cccBwPxo.s 			page 23


 292 0225 F56CDBBA 		.ascii	"\365l\333\272\336\304\377L\036.n]WA\0360L\267\275\261"
 292      DEC4FF4C 
 292      1E2E6E5D 
 292      57411E30 
 292      4CB7BDB1 
 293 0239 9A8730D8 		.ascii	"\232\2070\330\365\240\007\330M\352\235#w:,2d\012\222"
 293      F5A007D8 
 293      4DEA9D23 
 293      773A2C32 
 293      640A92
 294 024c C786BA5C 		.ascii	"\307\206\272\\\0212d\321Hn\377\361\350\260\201/!\343"
 294      113264D1 
 294      486EFFF1 
 294      E8B0812F 
 294      21E3
 295 025e CD9BEF57 		.ascii	"\315\233\357W\206\251\360=5\334\265\323\351\\\375\033"
 295      86A9F03D 
 295      35DCB5D3 
 295      E95CFD1B 
 296 026e 3737C0C7 		.ascii	"77\300\307\322\370\277\320\370G\232\361V2\336\264w\363"
 296      D2F8BFD0 
 296      F8479AF1 
 296      5632DEB4 
 296      77F3
 297 0280 DE08BE9C 		.ascii	"\336\010\276\234\324\257\237\254\253\214R\325\017\327"
 297      D4AF9FAC 
 297      AB8C52D5 
 297      0FD7
 298 028e F0466747 		.ascii	"\360FgGe\246\233\033\341\223\020\320>%\355\363\235\345"
 298      65A69B1B 
 298      E19310D0 
 298      3E25EDF3 
 298      9DE5
 299 02a0 67155E48 		.ascii	"g\025^H\332\255\2476\\1\250\332\007j\375\332{Bh\267"
 299      DAADA736 
 299      5C31A8DA 
 299      076AFDDA 
 299      7B4268B7 
 300 02b4 917657C7 		.ascii	"\221vW\307\232\035&\276\202\264\275\307.\014i[v8@{o"
 300      9A1D26BE 
 300      82B4BDC7 
 300      2E0C695B 
 300      7638407B 
 301 02c9 08EDCF48 		.ascii	"\010\355\317H\373\336\236N\247\221\277L\332\035W\266"
 301      FBDE9E4E 
 301      A791BF4C 
 301      DA1D57B6 
 302 02d9 F7E954ED 		.ascii	"\367\351T\355\213\001\332\237\207\320\336\007Y;\216"
 302      8B01DA9F 
 302      87D0DE07 
 302      593B8E
 303 02e8 4187D33B 		.ascii	"A\207\323;R\215Q\372\373\211\233\267\033\224g\201\211"
 303      528D51FA 
 303      FB899BB7 
 303      1B946781 
 303      89
 304 02f9 BD5268E4 		.ascii	"\275Rh\344\024x\003}\033A\344\227\0113-\334Ll\013\215"
ARM GAS  /tmp/cccBwPxo.s 			page 24


 304      1478037D 
 304      1B41E497 
 304      09332DDC 
 304      4C6C0B8D 
 305 030d D1C830C5 		.ascii	"\321\3100\305\340\020\021+\20681\304SH\023H-\211\244"
 305      E010112B 
 305      863831C4 
 305      53481348 
 305      2D89A4
 306 0320 92294C69 		.ascii	"\222)Li\364-\222\325\224\216\2039\203\2706\342\332i"
 306      F42D92D5 
 306      948E8339 
 306      83B836E2 
 306      DA69
 307 0332 1C27E6C6 		.ascii	"\034'\346\306\213\271\01147\221\270\223\004w\262\340"
 307      8BB90934 
 307      3791B893 
 307      0477B2E0 
 308 0342 4E21EE23 		.ascii	"N!\356#\024\266G\005\3431\034\"\247\212\257ibpPH\036"
 308      14B64705 
 308      E3311C22 
 308      A78AAF69 
 308      62705048 
 309 0357 27AD1934 		.ascii	"'\255\0314\316\244e\316\242\357\331\302\316\223Bn\016"
 309      CEA465CE 
 309      A2EFD9C2 
 309      CE93426E 
 309      0E
 310 0368 71E712F7 		.ascii	"q\347\022\367)\301\235'\270\363\211\233M\334\005\202"
 310      29C19D27 
 310      B8F3899B 
 310      4DDC0582 
 311 0378 BB507017 		.ascii	"\273Pp\027\021\367i\374\214ZLS\317\340\247\205\261Z"
 311      11F769FC 
 311      8C5A4C53 
 311      CFE0A785 
 311      B15A
 312 038a 2AE73AAE 		.ascii	"*\347:\2560\306\317Ay\323\266\366\014\312v,\001\027"
 312      30C6CF41 
 312      79D3B6F6 
 312      0CCA762C 
 312      0117
 313 039c 3732C16A 		.ascii	"72\301jiO%\226L\376\267V\037\370\306 \322U\2071n\307"
 313      694F2596 
 313      4CFEB756 
 313      1FF8C620 
 313      D2558731 
 314 03b2 4D40914C 		.ascii	"M@\221L1\217s\345gZ{\201\227\320\026\236x{`HK\037\217"
 314      318F73E5 
 314      675A7B81 
 314      97D0169E 
 314      787B6048 
 315 03c9 37552B8C 		.ascii	"7U+\214h\350\010\261\207\373\311\364\325u5\373\303\355"
 315      68E808B1 
 315      87FBC9F4 
 315      D57535FB 
 315      C3ED
ARM GAS  /tmp/cccBwPxo.s 			page 25


 316 03db 7F753B1B 		.ascii	"\177u;\033p\263c\204\221\3017\316\015\351\312\356c\271"
 316      70B36384 
 316      91C137CE 
 316      0DE9CAEE 
 316      63B9
 317 03ed 3B9B3E6A 		.ascii	";\233>j\237\352\346\261p\000\354\302\033\203\203P\306"
 317      9FEAE6B1 
 317      7000ECC2 
 317      1B838350 
 317      C6
 318 03fe 2E4079DB 		.ascii	".@y\333\335\332\325]\273\271\257z+e\307\372\336\246"
 318      DDDAD55D 
 318      BBB9AF7A 
 318      2B65C7FA 
 318      DEA6
 319 0410 08AB54BA 		.ascii	"\010\253T\272\215\034\002\252\233\301!Tg\320\011a.\376"
 319      8D1C02AA 
 319      9BC12154 
 319      67D00961 
 319      2EFE
 320 0422 4CE08AE2 		.ascii	"L\340\212\342Hl\317\236\313\375\006\364iD\306f\324\244"
 320      486CCF9E 
 320      CBFD06F4 
 320      6944C666 
 320      D4A4
 321 0434 2AEF3A7E 		.ascii	"*\357:~\310\344\006\027\270y<|\001e\340\021\310q\342"
 321      C8E40617 
 321      B8793C7C 
 321      0165E011 
 321      C871E2
 322 0447 B54F77AE 		.ascii	"\265Ow\2561:\266\013\237\247Z\326G7\233\334<\001\276"
 322      313AB60B 
 322      9FA75AD6 
 322      47379BDC 
 322      3C01BE
 323 045a 04373460 		.ascii	"\00474`\\\311\221(\370\372\243[T\241\246\"\214:|\005"
 323      5CC99128 
 323      F8FAA35B 
 323      54A1A622 
 323      8C3A7C05 
 324 046e 8E06B44C 		.ascii	"\216\006\264L\363p\030\034b\035\233\276\232# \005\342"
 324      F370181C 
 324      621D9BBE 
 324      9A232005 
 324      E2
 325 047f B1109E3B 		.ascii	"\261\020\236;_\034\2561K\337\211\010\030\276V]o\035"
 325      5F1CAE31 
 325      4BDF8908 
 325      18BE565D 
 325      6F1D
 326 0491 28FFD0A0 		.ascii	"(\377\320\240Z\375\020Dd\273\310\257\242\332\355\006"
 326      5AFD1044 
 326      64BBC8AF 
 326      A2DAED06 
 327 04a1 4770044F 		.ascii	"Gp\004O\325]\266\004\207\260\007C(6\237\263\003\370"
 327      D55DB604 
 327      87B00743 
ARM GAS  /tmp/cccBwPxo.s 			page 26


 327      28369FB3 
 327      03F8
 328 04b3 EF162488 		.ascii	"\357\026$\210\015\215\036n\253O\021\037Q\212\213+6\332"
 328      0D8D1E6E 
 328      AB4F111F 
 328      518A8B2B 
 328      36DA
 329 04c5 648B22C6 		.ascii	"d\213\"\306\014\032ShL\2461\211\306D\032\023h\214\245"
 329      0C1A5368 
 329      4CA63189 
 329      C6441A13 
 329      688CA5
 330 04d8 314641AB 		.ascii	"1FA\253:\264\012h\325\340\342\011\234\314(}\303\337"
 330      3AB40A68 
 330      D5E0E209 
 330      9CCC287D 
 330      C3DF
 331 04ea 02CEE819 		.ascii	"\002\316\350\031\036Sp\016d}\272P\012\0030\\}\345\376"
 331      1E53700E 
 331      647DBA50 
 331      0A03305C 
 331      7DE5FE
 332 04fd CA8026BC 		.ascii	"\312\200&\274[\335=\214\3437b\253L\201\241\321\007\205"
 332      5BDD3D8C 
 332      E33762AB 
 332      4C81A1D1 
 332      0785
 333 050f 6615C600 		.ascii	"f\025\306\000S&\0113\026\216<\030\036\234J\206\243\024"
 333      53260933 
 333      168E3C18 
 333      1E9C4A86 
 333      A314
 334 0521 1C2E1B7D 		.ascii	"\034.\033}\377\226\375[\"0*r2\034\216\341\0360\370\026"
 334      FF96FD5B 
 334      22302A72 
 334      321C8EE1 
 334      1E30F816 
 335 0535 C3710956 		.ascii	"\303q\011V7-\223\016\315\301\311\220\322(\212\004\276"
 335      372D930E 
 335      CDC1C990 
 335      D2288A04 
 335      BE
 336 0546 432109E6 		.ascii	"C!\011\346\344\227\315-t\364\231a\004\377,p\034\254"
 336      E497CD2D 
 336      74F49961 
 336      04FF2C70 
 336      1CAC
 337 0558 6E9E2A0B 		.ascii	"n\236*\013\002-\210\025\240\0256\000\225=\007\275^\263"
 337      022D8815 
 337      A0153600 
 337      953D07BD 
 337      5EB3
 338 056a DFAA6F19 		.ascii	"\337\252o\031x\252@\257,\202[\000.n\320Q\234\354b\013"
 338      78AA40AF 
 338      2C825B00 
 338      2E6ED051 
 338      9CEC620B 
ARM GAS  /tmp/cccBwPxo.s 			page 27


 339 057e B034ED0C 		.ascii	"\2604\355\014\317w\250\343ab\177\320L\337\301\236\021"
 339      CF77A8E3 
 339      61627FD0 
 339      4CDFC19E 
 339      11
 340 058f D50C50ED 		.ascii	"\325\014P\355\311\3325\260\323 \247{G\242\374^\276\255"
 340      C9DA35B0 
 340      D320A77B 
 340      47A2FC5E 
 340      BEAD
 341 05a1 38F40D97 		.ascii	"8\364\015\227^F\000\376\355\0237\262\371T\352\203@("
 341      5E4600FE 
 341      ED1337B2 
 341      F954EA83 
 341      4028
 342 05b3 65597F5C 		.ascii	"eY\177\\\335\265\313$\313\032\340{\222\255\343\341>"
 342      DDB5CB24 
 342      CB1AE07B 
 342      92ADE3E1 
 342      3E
 343 05c4 C33F8CCC 		.ascii	"\303?\214\314\321\374~\3573dBC4;\350s\033\340&\202M"
 343      D1FC7EEF 
 343      33644243 
 343      343BE873 
 343      1BE02682 
 344 05d9 95B35747 		.ascii	"\225\263WGf\373A\365\327\365\256\217\224\240\274\000"
 344      66FB41F5 
 344      D7F5AE8F 
 344      94A0BC00 
 345 05e9 277CD266 		.ascii	"'|\322ff'P\367\332'k\250\324\025\326\361H\366\017\025"
 345      662750F7 
 345      DA276BA8 
 345      D415D6F1 
 345      48F60F15 
 346 05fd 86D70703 		.ascii	"\206\327\007\003M}\346\256oV!+\320\347\263\024\305\022"
 346      4D7DE6AE 
 346      6F56212B 
 346      D0E7B314 
 346      C512
 347 060f C9D28E43 		.ascii	"\311\322\216C\353x@:a/\027]W\364\\\321])\251p;\373\321"
 347      EB78403A 
 347      612F175D 
 347      57F45CD1 
 347      5D29A970 
 348 0626 973C39CF 		.ascii	"\227<9\317_\332\373\342\253w\325\2240\210\265\364\213"
 348      5FDAFBE2 
 348      AB77D594 
 348      3088B5F4 
 348      8B
 349 0637 1AF90FBC 		.ascii	"\032\371\017\274JI\361\321\241\034\301pqK\310\2648)"
 349      4A49F1D1 
 349      A11CC170 
 349      714BC8B4 
 349      3829
 350 0649 D3222807 		.ascii	"\323\"(\007\372\265\034\260\310\034\270\314U\013\332"
 350      FAB51CB0 
 350      C81CB8CC 
ARM GAS  /tmp/cccBwPxo.s 			page 28


 350      550BDA
 351 0658 9E235A0B 		.ascii	"\236#Z\0133\363\013P1Tur]\225ENGK\037\233\366\336<\254"
 351      33F30B50 
 351      31547572 
 351      5D95454E 
 351      474B1F9B 
 352 0670 17CB4B03 		.ascii	"\027\313K\003#\374\200\012X#\327\253\033U\0331('9 \031"
 352      23FC800A 
 352      5823D7AB 
 352      1B551B31 
 352      28273920 
 353 0685 B122D5D0 		.ascii	"\261\"\325\320\322\317U*#\216\204b\203\204\342\221\355"
 353      D2CF552A 
 353      238E8462 
 353      8384E291 
 353      ED
 354 0696 C7D62AB0 		.ascii	"\307\326*\260\305\323\352\332\265\325%\205\\\335\177"
 354      C5D3EADA 
 354      B5D52585 
 354      5CDD7F
 355 06a5 C75A5D52 		.ascii	"\307Z]R\360\352\222\002V\027\315\3028\371_\373fU\244"
 355      F0EA9202 
 355      5617CDC2 
 355      38F95FFB 
 355      6655A4
 356 06b8 9C4E160A 		.ascii	"\234N\026\012>\003\237\012\003\311\004\341\274\006!"
 356      3E039F0A 
 356      03C904E1 
 356      BC0621
 357 06c7 2D248453 		.ascii	"-$\204ScAH\013\206\220\026\000!\206q\031\340\355oz\324"
 357      6341480B 
 357      86901600 
 357      21867119 
 357      E0ED6F7A 
 358 06dc 005B8584 		.ascii	"\000[\205\204/\242jh\322\221/\343\327\254Z\311 \260"
 358      2FA26A68 
 358      D2912FE3 
 358      D7AC5AC9 
 358      20B0
 359 06ee E9A3C066 		.ascii	"\351\243\300f\020\330\2374\260\366\220`O\217\005\326"
 359      10D89F34 
 359      B0F69060 
 359      4F8F05D6 
 360 06fe 1E0CD61E 		.ascii	"\036\014\326\036\0006\226)\022l\267\017\3548\351\303"
 360      00369629 
 360      126CB70F 
 360      EC38E9C3 
 361 070e 774B4C83 		.ascii	"wKL\203h83\012\373x\024\013\306>\201\340\217\037\205"
 361      6838330A 
 361      FB78140B 
 361      C63E81E0 
 361      8F1F85
 362 0721 7D0261BF 		.ascii	"}\002a\277\243a\237\030\022\373\331\261\260O\014\306"
 362      A3619F18 
 362      12FBD9B1 
 362      B04F0CC6 
 363 0731 3E31007B 		.ascii	">1\000{\034\003\211\375\212\017\373$\351\343j\345\271"
ARM GAS  /tmp/cccBwPxo.s 			page 29


 363      1C0389FD 
 363      8A0FFB24 
 363      E9E36AE5 
 363      B9
 364 0742 532AF664 		.ascii	"S*\366d\030\030\205}2\212\005c\237B\360'\217\302>E\010"
 364      1818857D 
 364      328A0563 
 364      9F42F027 
 364      8FC23E45 
 365 0757 FD52B576 		.ascii	"\375R\265v\203'J\212=\202<\321\347\207\357\015\371\272"
 365      83274A8A 
 365      3D823CD1 
 365      E787EF0D 
 365      F9BA
 366 0769 30C743C5 		.ascii	"0\307C\305\352Wl\023\212\217\010\305\353U\256\015U\023"
 366      EA576C13 
 366      8A8F08C5 
 366      EB55AE0D 
 366      5513
 367 077b A4E2A3A8 		.ascii	"\244\342\243\250\250\206\260bg\325\335\010\311}\014"
 367      A886B062 
 367      67D5DD08 
 367      C97D0C
 368 078a 4B01CDB9 		.ascii	"K\001\315\271\032\326\335\017\027\346\"\341G\003\014"
 368      1AD6DD0F 
 368      17E622E1 
 368      47030C
 369 0799 8E023B15 		.ascii	"\216\002;\025\345T\265p\311\231F\366\246\012fC\325\011"
 369      E554B570 
 369      C99946F6 
 369      A60A6643 
 369      D509
 370 07ab 75058E40 		.ascii	"u\005\216@Cfa\350<`\322M\363#\373L s\340vT7\265tfS\247"
 370      436661E8 
 370      3C60D24D 
 370      F323FB4C 
 370      2073E076 
 371 07c6 09DE0C6B 		.ascii	"\011\336\014k\2438\253\340G\334"
 371      A338ABE0 
 371      47DC
 372 07d0 8CC00323 		.ascii	"\214\300\003#}\364\025%}\263\330\264\340+J\006\\\304"
 372      7DF41525 
 372      7DB3D8B4 
 372      E02B4A06 
 372      5CC4
 373 07e2 2BCA05F5 		.ascii	"+\312\005\365 l\032\276{\334\214\3025xOhU\204\211Kx"
 373      206C1ABE 
 373      7BDC8CC2 
 373      35784F68 
 373      5584894B 
 374 07f7 14CAE676 		.ascii	"\024\312\346v\031\312\304\363\352\315\201\357\242\354"
 374      19CAC4F3 
 374      EACD81EF 
 374      A2EC
 375 0805 FB415EBC 		.ascii	"\373A^\274lB\251\374\330\232\257\302\325\213W+\372\315"
 375      6C42A9FC 
 375      D89AAFC2 
ARM GAS  /tmp/cccBwPxo.s 			page 30


 375      D58B572B 
 375      FACD
 376 0817 842B7869 		.ascii	"\204+xi \235\253PF\301w\2701\223\251\321v\276K\353V"
 376      209DAB50 
 376      46C177B8 
 376      3193A9D1 
 376      76BE4BEB 
 377 082c 4F92FDA7 		.ascii	"O\222\375\247v_\213\220mY\007?\251-<\236\325\253-|\260"
 377      765F8B90 
 377      6D59073F 
 377      A92D3C9E 
 377      D5AB2D7C 
 378 0841 76B3C1DF 		.ascii	"v\263\301\337\303\327\274\323\330\242\336&9\014\371"
 378      C3D7BCD3 
 378      D8A2DE26 
 378      390CF9
 379 0850 722981C5 		.ascii	"r)\201\305qjK\2359\001-|\237\277m_\023\006\036\017\231"
 379      716A4B9D 
 379      39012D7C 
 379      9FBF6D5F 
 379      13061E0F 
 380 0865 BFD743E4 		.ascii	"\277\327C\344\3575-\177\037\367\345\257\264\020\220"
 380      EF352D7F 
 380      1FF7E5AF 
 380      B41090
 381 0874 BF89CC44 		.ascii	"\277\211\314D>\317v\346\310\311\031!\315\337\030\313"
 381      3ECF76E6 
 381      C8C91921 
 381      CDDF18CB 
 382 0884 FC8C60F3 		.ascii	"\374\214`\3633\002\314'1\275l\205\3337V\251\3233\205"
 382      3302CC27 
 382      31BD6C85 
 382      DB3756A9 
 382      D33385
 383 0897 82CFC03E 		.ascii	"\202\317\300>a`&U\350\225N\220\022\263BB\2709\026\204"
 383      61602655 
 383      E8954E90 
 383      12B34242 
 383      B8391684 
 384 08ab 59C11066 		.ascii	"Y\301\020f\005@H\326Za\367FO\244\234\236-$\002Z!1\237"
 384      054048D6 
 384      5A61F746 
 384      4FA49C9E 
 384      2D24025A 
 385 08c2 44BE2CC9 		.ascii	"D\276,\311\002\311\230CX\237\034\205u\016a\275\245a"
 385      02C99843 
 385      589F1C85 
 385      750E61BD 
 385      A561
 386 08d4 9D1B12EB 		.ascii	"\235\033\022\353\255\261\260\316\015\306:7\000k\212"
 386      ADB1B0CE 
 386      0DC63A37 
 386      006B8A
 387 08e3 AF9BF8B0 		.ascii	"\257\233\370\260>%$\316\214\302:\017\371AX\347\023\334"
 387      3E2524CE 
 387      8CC23A0F 
 387      F94158E7 
ARM GAS  /tmp/cccBwPxo.s 			page 31


 387      13DC
 388 08f5 79A3B0CE 		.ascii	"y\243\260\316'\254\3675\254\331!\261\336\036\013kv0"
 388      27ACF735 
 388      ACD921B1 
 388      DE1E0B6B 
 388      7630
 389 0907 D6EC00AC 		.ascii	"\326\354\000\254\251\032\326\265\215\032\326\005Bb`"
 389      A91AD6B5 
 389      8D1AD605 
 389      426260
 390 0916 14D685C8 		.ascii	"\024\326\205\310\017\302\272\210\340.\034\205u\021b"
 390      0FC2BA88 
 390      E02E1C85 
 390      751162
 391 0925 AD6A6AF1 		.ascii	"\255jj\361d\013V\350\266pG\266\205\377\333\007~\036"
 391      640B56E8 
 391      B67047B6 
 391      85FFDB07 
 391      7E1E
 392 0937 B30FDC15 		.ascii	"\263\017\334\025}@\370\200a\352\003\325\316\366\213"
 392      7D40F880 
 392      61EA03D5 
 392      CEF68B
 393 0946 60EF56FB 		.ascii	"`\357V\373\3008\241tiK\357\316\300>0\036\356a\037 \235"
 393      C038A174 
 393      694BEFCE 
 393      C03E301E 
 393      EE611F20 
 394 095b 5F441F58 		.ascii	"_D\037X\344k\002\236w)2tq\323\252>\215\335e\342]a\303"
 394      E46B029E 
 394      77293274 
 394      71D3AA3E 
 394      8DDD65E2 
 395 0972 BB497CDF 		.ascii	"\273I|\337\275\257\305\335\337\312\316\203\274\372S"
 395      BDAFC5DD 
 395      DFCACE83 
 395      BCFA53
 396 0981 5839A3AE 		.ascii	"X9\243\256p\273\276\"Lv\005\356\277\020s\027\267\245"
 396      70BBBE22 
 396      4C7605EE 
 396      BF107317 
 396      B7A5
 397 0993 E18E2CCE 		.ascii	"\341\216,\316l\373\244\336\200\272\351\354\006\343\""
 397      6CFBA4DE 
 397      80BAE9EC 
 397      06E322
 398 09a2 38ED9E1C 		.ascii	"8\355\236\034j\004\3011\230\320\210o\016\006\367\037"
 398      6A04C131 
 398      98D0886F 
 398      0E06F71F 
 399 09b2 3238DE80 		.ascii	"28\336\200\340\004\274\343p\351Yxa\026\257\005\235|"
 399      E004BCE3 
 399      70E95978 
 399      6116AF05 
 399      9D7C
 400 09c4 2DD41DD9 		.ascii	"-\324\035\331\367z\224\214\034NN\004\247\342 \357\260"
 400      F77A948C 
ARM GAS  /tmp/cccBwPxo.s 			page 32


 400      1C4E4E04 
 400      A7E220EF 
 400      B0
 401 09d5 4A11611B 		.ascii	"J\021a\033\332\263\365=E\366\260H(W\2542\177&\321.\236"
 401      DAB3F53D 
 401      45F6B048 
 401      2857AC32 
 401      7F26D12E 
 402 09ea F6C0AF03 		.ascii	"\366\300\257\003\255P\036\016h\245\362\353@W+c\000\255"
 402      AD501E0E 
 402      68A5F2EB 
 402      40572B63 
 402      00AD
 403 09fc D2805613 		.ascii	"\322\200V\023\320\356w?\350\011\223@MP\343\007*\366"
 403      D0EE773F 
 403      E8099340 
 403      4D50E307 
 403      2AF6
 404 0a0e EFBC673F 		.ascii	"\357\274g?\177\340\342\235!\342M\031\334\375\266G\221"
 404      7FE0E29D 
 404      21E24D19 
 404      DCFDB647 
 404      91
 405 0a1f FBF3B4D8 		.ascii	"\373\363\264\3303\\Z\346\257\257k\315C\256\253v\214"
 405      335C5AE6 
 405      AFAF6BCD 
 405      43AEAB76 
 405      8C
 406 0a30 75D58DB5 		.ascii	"u\325\215\265\256zm]k\025\314\301\247\375\001\307\313"
 406      AE7A6D5D 
 406      6B15CCC1 
 406      A7FD01C7 
 406      CB
 407 0a41 8DE76589 		.ascii	"\215\347e\211sq\310\022\177My\260\304}O\265\305\262"
 407      7371C812 
 407      7F4D79B0 
 407      C47D4FB5 
 407      C5B2
 408 0a53 C46F72D5 		.ascii	"\304or\325\202\257\304ky&\273*\036b6\266\201s\377\273"
 408      82AFC46B 
 408      7926BB2A 
 408      1E6236B6 
 408      8173FFBB 
 409 0a67 5561B58A 		.ascii	"Ua\265\212\263\361\346\315\2060y,\335\302\207\010>\217"
 409      B3F1E6CD 
 409      8630792C 
 409      DDC28708 
 409      3E8F
 410 0a79 8C7DDEAF 		.ascii	"\214}\336\257\3514\213h\033\271\301E5\304\015\277_\237"
 410      E9348B68 
 410      1BB9C145 
 410      35C40DBF 
 410      5F9F
 411 0a8b 2A3E522F 		.ascii	"*>R/\3566\213\360\246\267\265\326\343\215\000\014L\274"
 411      EE368BF0 
 411      A6B7B5D6 
 411      E38D000C 
ARM GAS  /tmp/cccBwPxo.s 			page 33


 411      4CBC
 412 0a9d 5C4C9B46 		.ascii	"\\L\233FP\001\331\346\276\221\203hT\374\257\003\376"
 412      5001D9E6 
 412      BE918368 
 412      54FCAF03 
 412      FE
 413 0aae 3DEB282C 		.ascii	"=\353(,*u\344:\236/\311+.q\024\025\346\225\376\315\261"
 413      2A75E43A 
 413      9E2FC92B 
 413      2E711415 
 413      E695FECD 
 414 0ac3 28AFE42F 		.ascii	"(\257\344/\245+^r,\314/XR\360\373\347\034\271+\012\013"
 414      A52B5E72 
 414      2CCC2F58 
 414      52F0FBE7 
 414      1CB92B0A 
 415 0ad8 57161594 		.ascii	"W\026\025\224\276\342XQ\342\310\317y\321QR\234\353X"
 415      BEE25851 
 415      E2C8CF79 
 415      D151529C 
 415      EB58
 416 0aea 59B2245F 		.ascii	"Y\262$_\020/\210\217\027\226\346-Y\271|Z.\3439\305\313"
 416      102F888F 
 416      1796E62D 
 416      59B97C5A 
 416      2EE339C5 
 417 0aff F525A539 		.ascii	"\365%\2459\245y\272\374\025%\245\220\253\313_VP\254"
 417      A579BAFC 
 417      1525A590 
 417      ABCB5F56 
 417      50AC
 418 0b11 CF5F56B4 		.ascii	"\317_V\264\262\020\226\301KP\252+\312)\314\013\177\376"
 418      B21096C1 
 418      4B50AA2B 
 418      CA29CC0B 
 418      7FFE
 419 0b23 B905BF7B 		.ascii	"\271\005\277{a\321\202\337\262y\017\341\037\275\026"
 419      61D182DF 
 419      B2790FE1 
 419      1FBD16
 420 0b32 973A0A8A 		.ascii	"\227:\012\212r_\\\2714\317\221\233_\234\267\274\240"
 420      725F5CB9 
 420      34CF919B 
 420      5F9CB7BC 
 420      A0
 421 0b43 A4B4F895 		.ascii	"\244\264\370\225i\371,\"k\372\314\245\323\262\246?\261"
 421      69F92C22 
 421      6BFACCA5 
 421      D3B2A63F 
 421      B1
 422 0b54 3493191E 		.ascii	"4\223\031\036\315\232>\033\177\377\0075\3332\245"
 422      CD9A3E1B 
 422      7FFF0735 
 422      DB32A5
 423              		.text
 424              		.section	.gnu.lto_usbDbgInit.part.0.1750ee06c3e56d92,"",%progbits
 425 0000 789C8D52 		.ascii	"x\234\215R\333K\224A\024\237\337w\276\325u\325\355\362"
ARM GAS  /tmp/cccBwPxo.s 			page 34


 425      DB4B9441 
 425      149FDF77 
 425      BED575D5 
 425      EDF2
 426 0012 BC0F4188 		.ascii	"\274\017A\210(\344\367'\364P\317E\204\317\222\333\322"
 426      28E4F727 
 426      F450CF45 
 426      84CF92DB 
 426      D2
 427 0023 4AAD1BEE 		.ascii	"J\255\033\356\372P/;\332\305R\320\"\312])>QJ\273\230"
 427      FA502F3B 
 427      DAC552D0 
 427      22CA5D29 
 427      3E514ABB 
 428 0038 976C732B 		.ascii	"\227ls+7S\213\015\272X =\004\222\225\373\320\345!\350"
 428      37538B0D 
 428      BA58203D 
 428      049295FB 
 428      D0E521E8 
 429 004c 2105B533 		.ascii	"!\005\2653\363\255\"\231\344\3000sf\316\234\337e\216"
 429      F3AD2299 
 429      E4C03073 
 429      66CE9CDF 
 429      658E
 430 005e 4B182249 		.ascii	"K\030\"IBT\012!v\361\204K\300\274\360\2327&\014\275"
 430      42540A21 
 430      76F1844B 
 430      C0BCF09A 
 430      37260CBD 
 431 0072 1A20B536 		.ascii	"\032 \2656\270\011P\033\351\206\210\231\006!\2066j'"
 431      B809501B 
 431      E9868899 
 431      06218636 
 431      6A27
 432 0084 8C376553 		.ascii	"\2147eSFY\217\3441\326>\263sVNI\262\271b\202\247\032"
 432      46598FE4 
 432      31D63EB3 
 432      73564E49 
 432      B2B96282 
 433 009a E84199E0 		.ascii	"\350A\231\340\274\267\247\007\256R+_\001&\207?_u|\366"
 433      BCB7A707 
 433      AE522B5F 
 433      0126873F 
 433      5F757CF6 
 434 00ae AAD0C00E 		.ascii	"\252\320\300\016\016\007\347\276d]t\000*s\272a\366\206"
 434      0E07E7BE 
 434      645D7400 
 434      2A73BA61 
 434      F686
 435 00c0 BBA45BCA 		.ascii	"\273\244[\312F9\226AF\2326\021n\201\270\"n\302\207^"
 435      46399641 
 435      469A3611 
 435      6E81B822 
 435      6EC2875E 
 436 00d4 F874654E 		.ascii	"\370teN\3754\270t\2718\317\304m\2248\200\270\203<\360"
 436      FD34B874 
 436      B938CFC4 
ARM GAS  /tmp/cccBwPxo.s 			page 35


 436      6D943880 
 436      B8833CF0 
 437 00e8 A24EFADF 		.ascii	"\242N\372\337A\312\245\345&);v\307\015S\210f\316P\022"
 437      41CAA5E5 
 437      26293B76 
 437      C70D5388 
 437      66CE5012 
 438 00fc 5AC8542B 		.ascii	"Z\310T+\315\241Q\003\276\357J_\362\226\367j\011\231"
 438      CDA15103 
 438      BEEF4A5F 
 438      F296F76A 
 438      0999
 439 010e 06038C27 		.ascii	"\006\003\214'r\344\373P\316\011\223g\2633\236\322\353"
 439      72E4FB50 
 439      CE099367 
 439      B3339ED2 
 439      EB
 440 011f 9AD1522B 		.ascii	"\232\321R+\215\016IY\260J\012\253\244\324;\334E\251"
 440      8D0E4959 
 440      B04A0AAB 
 440      A4D43BDC 
 440      45A9
 441 0131 98832114 		.ascii	"\230\203!\024\003\365\\(<C\343}C\\\016/\306MER\341\246"
 441      03F55C28 
 441      3C43E37D 
 441      435C0E2F 
 441      C64D4552 
 442 0147 52DF3FE4 		.ascii	"R\337?\344\307\026\245\333&3\3019\002\375\210\251\213"
 442      C716A5DB 
 442      2633C139 
 442      02FD88A9 
 442      8B
 443 0158 2B67C6DF 		.ascii	"+g\306\337\344+s\010\177\345Q79\312\277\276\234\236"
 443      E42B7308 
 443      7FE55137 
 443      39CABFBE 
 443      9C9E
 444 016a F4D8B8C6 		.ascii	"\364\330\270\306d]\030\344\317\030P\256\360E\353\310"
 444      645D18E4 
 444      CF1850AE 
 444      F045EBC8 
 445 017a C079B7D5 		.ascii	"\300y\267\325\247\304tv\0316\345a\0106\342\224s\254"
 445      A7C47476 
 445      1936E561 
 445      0836E294 
 445      73AC
 446 018c 652ADDE6 		.ascii	"e*\335\346\345Z\347\370\332cS>\356\301\322|0\214\330"
 446      E55AE7F8 
 446      DA63533E 
 446      EEC1D27C 
 446      308CD8
 447 019f 66B0EE6F 		.ascii	"f\260\356o\200\225d\272n$5\026\326c%\231J\001\036\254"
 447      809564BA 
 447      6E243516 
 447      D6632599 
 447      4A011EAC 
 448 01b3 808D68B0 		.ascii	"\200\215h\260\211\345\217v\241\322\351A\357\004\220"
ARM GAS  /tmp/cccBwPxo.s 			page 36


 448      89E58F76 
 448      A1D2E941 
 448      EF0490
 449 01c2 826FADF8 		.ascii	"\202o\255\370B\010<dk+|6\025\011e\336\257\177\233W\234"
 449      42083C64 
 449      6B2B7C36 
 449      150965DE 
 449      AF7F9B57 
 450 01d7 501F8647 		.ascii	"P\037\206G\216y\377U\360x\003\005CL\321\213Q\255\300"
 450      8E79FF55 
 450      F0780305 
 450      434CD18B 
 450      51ADC0
 451 01ea 58AF806D 		.ascii	"X\257\200m\244-H\257(x\242\025\\\234\377}\212\034\005"
 451      A42D48AF 
 451      2878A215 
 451      5C9CFF7D 
 451      8A1C05
 452 01fd 1917C6B4 		.ascii	"\031\027\306\264\200d\366\305s\217:\333\012\011<\325"
 452      8064F6C5 
 452      738F3ADB 
 452      0A093CD5 
 453 020d 672BA472 		.ascii	"g+\244r\266oK\220#\004\343\233s}b\015\347\316\205\371"
 453      B66F4B90 
 453      2304E39B 
 453      737D620D 
 453      E7CE85F9 
 454 0221 E9A25CAD 		.ascii	"\351\242\\\255\005\257j\222I\346\354\224{\206\230M\333"
 454      05AF6A92 
 454      49E6EC94 
 454      7B86984D 
 454      DB
 455 0232 75CF91EE 		.ascii	"u\317\221\356\271\0370\234Vn\346_\341\003\216\366Y\241"
 455      B91F309C 
 455      566EE65F 
 455      E1038EF6 
 455      59A1
 456 0244 DAA8E5B7 		.ascii	"\332\250\345\267*#\201\272\210U\033\012DOZ{\003\221"
 456      2A2381BA 
 456      88551B0A 
 456      444F5A7B 
 456      0391
 457 0256 A3D1F071 		.ascii	"\243\321\360qkO\260\246\272f\377A\313\037\016\205\352"
 457      6B4FB0A6 
 457      BA66FF41 
 457      CB1F0E85 
 457      EA
 458 0267 6B6BA227 		.ascii	"kk\242'\254p\304\012\036:fE\352\374V}\244:\250\202*"
 458      AC70C40A 
 458      1E3A6645 
 458      EAFC567D 
 458      A43AA882 
 459 027c B5A93A1C 		.ascii	"\265\251:\034\250\256?R\341\027f0\034\211\376\001eO"
 459      A8AE3F52 
 459      E1176630 
 459      1C89FE01 
 459      654F
ARM GAS  /tmp/cccBwPxo.s 			page 37


 460 028e 5754     		.ascii	"WT"
 461              		.text
 462              		.section	.gnu.lto__dbg_printf.1750ee06c3e56d92,"",%progbits
 463 0000 789C9D5A 		.ascii	"x\234\235Z\007x\025\325\362?\263\233rs\323h\241\204"
 463      077815D5 
 463      F23FB39B 
 463      7273D368 
 463      A184
 464 0012 125A80D0 		.ascii	"\022Z\200\320\002\250\010\010\322D\005\005\244\311\363"
 464      02A80808 
 464      D2440505 
 464      A4C9F3
 465 0021 15112982 		.ascii	"\025\021)\202R\224\242>\377~/\001B\200\004\020\204\004"
 465      5294A23E 
 465      FF7E2F01 
 465      42800410 
 465      8404
 466 0033 085C82D2 		.ascii	"\010\\\202\322k\350%\020H\241\246Q\244\005\2447i\012"
 466      6BE82510 
 466      48A1A651 
 466      A405A437 
 466      690A
 467 0045 81A00485 		.ascii	"\201\240\004\205\377\314\234\263{\367&\327<y\371\276"
 467      FFCC9CB3 
 467      7BF726D7 
 467      3C79F9BE 
 468 0055 9CBB7B76 		.ascii	"\234\273{v\352o\346\314\231-\236B\023\237\265\022b\273"
 468      EA6FE6CC 
 468      992D9E42 
 468      139FB512 
 468      62BB
 469 0067 1042F714 		.ascii	"\020B\367\024\002\376&@\233\221+\3048\233\006\036\362"
 469      02FE2640 
 469      9B912BC4 
 469      389B061E 
 469      F2
 470 0078 409707ED 		.ascii	"@\227\007\355=4\317(o\021i\367\232z@\210H?O\000\232"
 470      3D34CF28 
 470      6F1169F7 
 470      9A7A4088 
 470      483F4F00 
 471 008d 8EB47969 		.ascii	"\216\264yi\336\023\352\341\274mZ\035\234\366\006]\262"
 471      DE13EAE1 
 471      BC6D5A1D 
 471      9CF6065D 
 471      B2
 472 009e D9349F7B 		.ascii	"\3314\237{A8m_\324\002\247}\300.\247\355\232/O\373\361"
 472      41386D5F 
 472      D402A77D 
 472      C02EA7ED 
 472      9A2F4FFB 
 473 00b3 B42FF8C9 		.ascii	"\264/\370\311i?\315\237\247\003x\332\037\002\344t\000"
 473      693FCD9F 
 473      A70378DA 
 473      1F02E474 
 473      00
 474 00c4 04CA8340 		.ascii	"\004\312\203@\255\314\344\272x\275\024\215~\245\264"
ARM GAS  /tmp/cccBwPxo.s 			page 38


 474      ADCCE4BA 
 474      78BD148D 
 474      7EA5B4
 475 00d3 D26C84BD 		.ascii	"\322l\204\275,Y\344W\032\312H\2522\222<\315VV+\307\342"
 475      2C59E457 
 475      1ACA48AA 
 475      32923CCD 
 475      56562BC7 
 476 00e8 2AB3B872 		.ascii	"*\263\270rZ\020\237\225\347\263 (/\251\313C\005:\200"
 476      5A109F95 
 476      E7B32028 
 476      2FA9CB43 
 476      053A80
 477 00fb 0A5A30CB 		.ascii	"\012Z0\313\256\310\262+j\225\244\354\312,\273\022\004"
 477      AEC8B22B 
 477      6A95A4EC 
 477      CA2CBB12 
 477      04
 478 010c 4BEA6049 		.ascii	"K\352`I\235f\253\254UeiUXZ\025u\026\302gU\265j,\252"
 478      9D66ABAC 
 478      55656955 
 478      585A1575 
 478      16C26755 
 479 0124 3A8BAA06 		.ascii	":\213\252\006\325%o\210qP\335\273C\234/bV\237\307\026"
 479      D5256F88 
 479      7150DDBB 
 479      439C2F62 
 479      569FC716 
 480 0138 3CBECC63 		.ascii	"<\276\314cK\036k\360XS\036CG\311TS\253\365#N\330koN"
 480      4B1E6BF0 
 480      58531E43 
 480      47C95453 
 480      ABF5234E 
 481 0150 27E06B41 		.ascii	"'\340kAm9_[\013eeuXY(\324\221\323u\240\036\273UW\376"
 481      6D395F5B 
 481      0B656575 
 481      585928D4 
 481      91D375A0 
 482 0169 A6D9EA69 		.ascii	"\246\331\352ia\271\231\344Q\307t\035\011\303\264\272"
 482      61B999E4 
 482      51C7741D 
 482      09C3B4BA 
 483 0179 D6D3FA5A 		.ascii	"\326\323\372Z\003\226\322\220\2454\200FRJC\343\240\221"
 483      0396D290 
 483      A5348046 
 483      524A43E3 
 483      A091
 484 018b D6782A39 		.ascii	"\326x*9\030\036\325\022\2577\206\246r:\\k\302lM\231"
 484      181ED512 
 484      AF3786A6 
 484      723A5C6B 
 484      C26C4D99 
 485 019f AD8931DD 		.ascii	"\255\2111\335\024\232\311\203f\332\013|\375E\276\376"
 485      149AC983 
 485      66DA0B7C 
 485      FD45BEFE 
 486 01af 02BC28A7 		.ascii	"\002\274(\247_\324\372Ht_btO\010I\337\376%h.\011\232"
ARM GAS  /tmp/cccBwPxo.s 			page 39


 486      5FD4FA48 
 486      745F6274 
 486      4F0849DF 
 486      FE25682E 
 487 01c5 6BBD2541 		.ascii	"k\275%AG&8.\344\205\366/CKI\320\3028h\251\265b\015\257"
 487      4726382E 
 487      E485F62F 
 487      434B49D0 
 487      C23868A9 
 488 01dd B08656D0 		.ascii	"\260\206V\320ZN\277b\034\264\2066\362\240\215\366*\023"
 488      5A4EBF62 
 488      1CB48636 
 488      F2A08DF6 
 488      2A13
 489 01ef B665C257 		.ascii	"\266e\302W\241\255\234n\253\365\225\232\332\261\246"
 489      A1AD9C6E 
 489      ABF5959A 
 489      DAB1A6
 490 01fe 5342D2B7 		.ascii	"SB\322\267O\025\320^R\244\011\355]\2531'\325\225\366"
 490      4F15D05E 
 490      52A409ED 
 490      5DAB3127 
 490      D595F6
 491 0211 E9C2884D 		.ascii	"\351\302\210M\206\320^cx:1<{\005t\222\027\366\011\355"
 491      86D05E63 
 491      783A313C 
 491      7B057492 
 491      17F609ED 
 492 0225 75D6F706 		.ascii	"u\326\367\006\353\336/\340\015y\341\200\320\336d\216"
 492      EBDE2FE0 
 492      0D79E180 
 492      D0DE648E 
 493 0235 AECC7150 		.ascii	"\256\314qPh\235\231\342-\246>$\264.g\355t\272%\203\202"
 493      689D99E2 
 493      2DA63E24 
 493      B42E67ED 
 493      74BA2583 
 494 024a 9D29E02D 		.ascii	"\235)\340-\311\227%\340m\216k\266\320zI\253\272\262"
 494      C99725E0 
 494      6D8E6BB6 
 494      D07A49AB 
 494      BAB2
 495 025c 553FA80B 		.ascii	"U?\250\013\355s\004tg\212\\u\220f;,\264n\222\366\035"
 495      ED730474 
 495      678A5C75 
 495      90663B2C 
 495      B46E92F6 
 496 0271 A63D22A0 		.ascii	"\246=\"\240'\223\034U\007i\266cB\353!It&\001\021\241"
 496      27931C55 
 496      0769B663 
 496      42EB2149 
 496      74260111 
 497 0286 E91E9E5E 		.ascii	"\351\036\236^\3366\037\273\257\237\177@`\251\322e\312"
 497      DE361FBB 
 497      AF9F7F40 
 497      60A9D265 
 497      CA
ARM GAS  /tmp/cccBwPxo.s 			page 40


 498 0297 960B2A5F 		.ascii	"\226\013*_\241b\245\340\312U\252V\013\251^\243f\255"
 498      A162A5E0 
 498      CA55AA56 
 498      0BA95EA3 
 498      66AD
 499 02a9 DAA175EA 		.ascii	"\332\241u\352\326\013\253\337\240a\243\306\341M\232"
 499      D60BABDF 
 499      A061A3C6 
 499      E14D9A
 500 02b8 367BE1C5 		.ascii	"6{\341\305\023\342\245\346\307\305\313-Z\266z\245u\233"
 500      13E2A5E6 
 500      C7C5CB2D 
 500      5AB67AA5 
 500      759B
 501 02ca 57DB9E12 		.ascii	"W\333\236\022\251\"M\234\024\351\"C\354\025\373\304"
 501      A9224D9C 
 501      14E92243 
 501      EC15FBC4 
 502 02da 7E71401C 		.ascii	"~q@\034\024\207D\246\310\022\331\342\007\221#r\305a"
 502      148744A6 
 502      C812D9E2 
 502      07912372 
 502      C561
 503 02ec 71441C15 		.ascii	"qD\034\025\307\004D\370y\010\371\027\250~+\250\337z"
 503      C70444F8 
 503      7908F917 
 503      A87E2BA8 
 503      DF7A
 504 02fe 02523DE0 		.ascii	"\002R=\340\031\376y\363y\2660'$\351aQ\204\342XQ\212"
 504      19FE79F3 
 504      79B63027 
 504      24E96151 
 504      84E25851 
 505 0313 E67CFED4 		.ascii	"\346|\376\324$h\246D\247\211\"\027\332\250\013\337\350"
 505      2468A644 
 505      A7892217 
 505      DAA80BDF 
 505      E8
 506 0324 7374381A 		.ascii	"st8\032\265~\201>]O\324\005x\340\351\375\234\204+\001"
 506      B57E813E 
 506      5D4FD405 
 506      78E0E9FD 
 506      9C842B01 
 507 0338 740A501D 		.ascii	"t\012P\035OO\314^\267\332/ly$\376\245\316y\344\0357"
 507      4F4FCC5E 
 507      B7DA2F6C 
 507      7924FEA5 
 507      CE79E41D 
 508 034d 61E29B89 		.ascii	"a\342\233\211\272&\346!\365\012\250\002\313\241\012"
 508      BA26E621 
 508      F50AA802 
 508      CBA10A
 509 035c CA819510 		.ascii	"\312\201\225\020\206\264y\207\237\254\011\320{\200\300"
 509      86B47987 
 509      9FAC09D0 
 509      7B80C0
 510 036b E387577F 		.ascii	"\343\207W\177\377\336\247\356\322\310\310\361\221\251"
ARM GAS  /tmp/cccBwPxo.s 			page 41


 510      FFDEA7EE 
 510      D2C8C8F1 
 510      91A9
 511 0379 7766E991 		.ascii	"wf\351\221\265\023u\035V\201ne\304)\001\253\241.\251"
 511      B513751D 
 511      56816E65 
 511      C42901AB 
 511      A12EA9
 512 038c 495E1DA7 		.ascii	"I^\035\247\351}\230\365\354\372)[l\310\232\212*\217"
 512      E97D98F5 
 512      ECFA295B 
 512      6CC89A8A 
 512      2A8F
 513 039e C731AB07 		.ascii	"\3071\253\007\254)\312\352!`-\324%\372'?\315\316\003"
 513      AC29CAEA 
 513      21602DD4 
 513      25FA273F 
 513      CDCE03
 514 03b1 E9801F9E 		.ascii	"\351\200\037\236\216\337\23173P:p\221.OZ\033{\335S\377"
 514      8EDF9937 
 514      33503A70 
 514      912E4F5A 
 514      1B7BDD53 
 515 03c6 1B8B7E34 		.ascii	"\033\213~4\367\304^\337\320\305,\372\347\025\001\343"
 515      F7C45EDF 
 515      D0C52CFA 
 515      E71501E3 
 516 03d6 2253A3AA 		.ascii	"\"S\243\252'\352\236\260^JOB\351\353\330#A\324I\331"
 516      27EA9EB0 
 516      5E4A4F42 
 516      E9EBD823 
 516      41D449D9 
 517 03ea 279607EA 		.ascii	"'\226\007\352\375\230\363\334\232y\207\0019\011\207"
 517      FD98F3DC 
 517      9A798701 
 517      390987
 518 03f9 F47AF324 		.ascii	"\364z\363$\243\027lt5K1\306^\236\206\022\3733\343\344"
 518      A3176C74 
 518      354B31C6 
 518      5E9E8612 
 518      FB33E3E4 
 519 040d D9BB8FFB 		.ascii	"\331\273\217\373\021#\002\3614\261\342\203\361\221s"
 519      112302F1 
 519      34B1E283 
 519      F19173
 520 041c 233D1275 		.ascii	"#=\022uo\330,Y_\250\002ML\306\370\254\245\016\177}0"
 520      6FD82C59 
 520      5FA8024D 
 520      4CC6F8AC 
 520      A50E7F7D 
 521 0431 337EB7F1 		.ascii	"3~\267\361`\244\247b\334\233\257EN\215\324\210m\253"
 521      60A4A762 
 521      DC9BAF45 
 521      4E8DD488 
 521      6DAB
 522 0443 1BB603DF 		.ascii	"\033\266\003\337/O\360\323?c\266\303\333\343N\005*\266"
 522      2F4FF0D3 
ARM GAS  /tmp/cccBwPxo.s 			page 42


 522      3F63B6C3 
 522      DBE34E05 
 522      2AB6
 523 0455 5D152E46 		.ascii	"]\025.F\226\"\246\355n\230\376\210\234\035\037\240\377"
 523      9622A6ED 
 523      6E98FE88 
 523      9C1D1FA0 
 523      FF
 524 0466 9B999647 		.ascii	"\233\231\226G^\373!Py\367(\321O\271\247A\262[\367\326"
 524      5EFB2150 
 524      79F728D1 
 524      4FB9A741 
 524      B25BF7D6 
 525 047a CCFD651D 		.ascii	"\314\375e\035\350\377\307\234\031\371O\367j\212\363"
 525      E8FFC79C 
 525      19F94FF7 
 525      6A8AF3
 526 0489 E7C48ADF 		.ascii	"\347\304\212\337N\210<H\356i\260\313-\353\265\223\361"
 526      4E883C48 
 526      EE69B0CB 
 526      2DEBB593 
 526      F1
 527 049a 57BDF571 		.ascii	"W\275\365q\300\274\373of\367Q\254\3313\365\310%\344"
 527      C0BCFB6F 
 527      66F751AC 
 527      D933F5C8 
 527      25E4
 528 04ac A006BBDD 		.ascii	"\240\006\273\3352.\315\312\330\035\240\307J\306[\271"
 528      322ECDCA 
 528      D81DA0C7 
 528      4AC65BB9 
 529 04bc 1BCEDA14 		.ascii	"\033\316\332\024\347\346J\213\306\227\"\276T\267|\205"
 529      E7E64A8B 
 529      C69722BE 
 529      54B77C85 
 530 04cc 59738F7A 		.ascii	"Ys\217z\353\323$\337\366\003+\366\351\012\233\353\211"
 530      EBD324DF 
 530      F6032BF6 
 530      E90A9BEB 
 530      89
 531 04dd E5F2552C 		.ascii	"\345\362U,l\220\356\006\237\334\345Kg\333\365\331\222"
 531      6C90EE06 
 531      9FDCE54B 
 531      67DBF5D9 
 531      92
 532 04ee 33313EF9 		.ascii	"31>\371\264\217\342\374\375\276\012\206\015\366\272"
 532      B48FE2FC 
 532      FDBE0A86 
 532      0DF6BA
 533 04fd E14BDF3F 		.ascii	"\341K\337??\311[\217\227|\223\013\362\326\031\321\277"
 533      3FC95B8F 
 533      977C930B 
 533      F2D619D1 
 533      BF
 534 050e 6AF8E803 		.ascii	"j\370\350\003\373\335\332\232\235:%\311\256\317\225"
 534      FBDDDA9A 
 534      9D3A25C9 
ARM GAS  /tmp/cccBwPxo.s 			page 43


 534      AECF95
 535 051d 9C4F8FDD 		.ascii	"\234O\217\335\274g\206\337\311y\320-\347\345\015O\343"
 535      BC6786DF 
 535      C979D02D 
 535      E7E50D4F 
 535      E3
 536 052e FCBD3CE0 		.ascii	"\374\275<\340\020\204\302\001\374\337\207\377\031\370"
 536      1084C201 
 536      FCDF87FF 
 536      19F8
 537 053c 9F86FF7B 		.ascii	"\237\206\377{\360?\005\377w\342\377\016\374\337\206"
 537      F03F05FF 
 537      77E2FF0E 
 537      FCDF86
 538 054b FF5BF07F 		.ascii	"\377[\360\177\023\376o\200\320\004]\320j\306E\234\011"
 538      13FE6F80 
 538      D0045DD0 
 538      6AC6459C 
 538      09
 539 055c 5E2044D0 		.ascii	"^ D\320\377\"\244HLr\007\232\031\344&*\220\305\014\017"
 539      FF22A448 
 539      4C72079A 
 539      19E4262A 
 539      90C50C0F 
 540 0570 2FCC1FAF 		.ascii	"/\314\037\257\351\011\322\333\244\214\325{\355\312\333"
 540      E909D2DB 
 540      A48CD57B 
 540      EDCADB
 541 057f 9351BA62 		.ascii	"\223Q\272b\367\201l7\3549\314n]\220\347\307\224\264"
 541      F7816C37 
 541      EC39CC6E 
 541      5D90E7C7 
 541      94B4
 542 0591 20219719 		.ascii	" !\227\031\254\200>\275\341T\341\006Q8\374\274.\035"
 542      AC803EBD 
 542      E154E106 
 542      5138FCBC 
 542      2E1D
 543 05a3 6186E7F1 		.ascii	"a\206\347\361\342\350\363zq\354\271\275\370\001B\223"
 543      E2E8F37A 
 543      71ECB9BD 
 543      F8014293 
 544 05b3 7AA6463E 		.ascii	"z\246F>}6\011\205\207\234\177x*\350\004\242M\025W\343"
 544      7D360985 
 544      879C7F78 
 544      2AE804A2 
 544      4D1557E3 
 545 05c7 51565F0F 		.ascii	"QV_\017\036=y\364\342\321\233G\033\217>\202\362\301"
 545      1E3D79F4 
 545      E2D19B47 
 545      1B8F3E82 
 545      F2C1
 546 05d9 CEA32F8F 		.ascii	"\316\243/\217~\202\262\303\237\307\000\036\003y,%(c"
 546      7E82B2C3 
 546      9FC7001E 
 546      03792C25 
 546      2863
ARM GAS  /tmp/cccBwPxo.s 			page 44


 547 05eb 4AF35886 		.ascii	"J\363X\206\307\262<\226\3431HP.\225\347\261\202\240"
 547      C7B23C96 
 547      E3314850 
 547      2E95E7B1 
 547      82A0
 548 05fd 9CAAC863 		.ascii	"\234\252\310c%A\271\025\314ce\326X\205\217\253\012\312"
 548      2541B915 
 548      CC6365D6 
 548      58858FAB 
 548      0ACA
 549 060f B76A3C86 		.ascii	"\267j<\206\360X\235\307\032<\326\344\261\226\240|\254"
 549      F0589DC7 
 549      1A3CD6E4 
 549      B196A07C 
 549      AC
 550 0620 CD63288F 		.ascii	"\315c(\217ux\254+(GqC\305,\015\023\224\247\365yl\300"
 550      7578AC2B 
 550      28477143 
 550      C52C0D13 
 550      94A7F579 
 551 0636 63434159 		.ascii	"cCAY\333\210\307\306<\266f\2566@\332\333\262\015\355"
 551      DB88C7C6 
 551      3CB666AE 
 551      3640DADB 
 551      B20DED
 552 0649 D8E6F6EC 		.ascii	"\330\346\366\354W\007\266\263#k|\0157\036['&y\235\231"
 552      5707B6B3 
 552      236B7C0D 
 552      371E5B27 
 552      26799D99 
 553 065d DEA489CE 		.ascii	"\336\244\211\316<\321\205\251\337b\352\267i\272+Owc"
 553      3CD185A9 
 553      DF62EAB7 
 553      69BA2B4F 
 553      7763
 554 066f C6EE4CDD 		.ascii	"\306\356L\335\203gz\262\360^D\322\233\247\373\340\241"
 554      83677AB2 
 554      F05E44D2 
 554      9BA7FBE0 
 554      A1
 555 0680 F62E0D7D 		.ascii	"\366.\015}\231\370=:\374;S\375\203!\377'\321\376\213"
 555      99F83D3A 
 555      FC3B53FD 
 555      8321FF27 
 555      D1FE8B
 556 0693 99DF6774 		.ascii	"\231\337gt\372\361\361\007L\322\237.\016 \226\2014\014"
 556      FAF1F107 
 556      4CD29F2E 
 556      0E209681 
 556      340C
 557 06a5 62828FE8 		.ascii	"b\202\217\350p\010_\037J\327?fH>a\266a41\234\311F\360"
 557      70085F1F 
 557      4AD73F66 
 557      483E61B6 
 557      6134319C 
 558 06bc C448D6FA 		.ascii	"\304H\326\372\031\261\214\242kc\331\223\317\351\360"
 558      19B18CA2 
ARM GAS  /tmp/cccBwPxo.s 			page 45


 558      6B63D993 
 558      CFE9F0
 559 06cb 0B26FB92 		.ascii	"\013&\373\222\255\370\212\301\372\232\307\377\3608\016"
 559      ADF88AC1 
 559      FA9AC7FF 
 559      F0380E
 560 06da 90C63E1E 		.ascii	"\220\306>\036\370$\212N|'\312\223h>\231L\2436\205\307"
 560      F8248A4E 
 560      7C27CA93 
 560      683E994C 
 560      A33685C7 
 561 06ee 18606462 		.ascii	"\030`db\201\225M\225?\323\200UM'\012\333\014`4fJ\302"
 561      81954D95 
 561      3FD38055 
 561      4D270ADB 
 561      0C603466 
 562 0704 59F26CB6 		.ascii	"Y\362l\266$\214\223\223\361\222~\016\323\317\223\024"
 562      248C9393 
 562      F1927E0E 
 562      D3CF9314 
 563 0714 F3E5CF02 		.ascii	"\363\345\317\002I\270P\236-\002\256\023\337\001\257"
 563      49B8509E 
 563      2D02AE13 
 563      DF01AF
 564 0723 FEEFD9CE 		.ascii	"\376\357\331\316\305<.\001.@K\345\3172\371\263\\\222"
 564      C53C2E01 
 564      2E404BE5 
 564      CF32F9B3 
 564      5C92
 565 0735 AF903F2B 		.ascii	"\257\220?+\345\344*\326\262\232\271\326HAk\331\225u"
 565      E5E42AD6 
 565      B29AB9D6 
 565      48416BD9 
 565      9575
 566 0747 3C2649AA 		.ascii	"<&I\252\365\300\345b\203\374\331(%l\222?\233Y\302\026"
 566      F5C0E562 
 566      83FCD928 
 566      256C923F 
 566      9B59C216 
 567 075b 49B855FE 		.ascii	"I\270U\376l\003^\312\333Y\354\016\036\223\201\013\310"
 567      6C035ECA 
 567      DB59EC0E 
 567      1E93810B 
 567      C8
 568 076c 4EF9B34B 		.ascii	"N\371\263K\376\244\000\327\210\335\362g\217\234Le\201"
 568      FEA400D7 
 568      88DDF267 
 568      8F9C4C65 
 568      81
 569 077d 69CC952E 		.ascii	"i\314\225.\005e\2601{y\334'\251\366\003\257\375\003"
 569      0565B031 
 569      7B79DC27 
 569      A9F603AF 
 569      FD03
 570 078f F2E7A094 		.ascii	"\362\347\240\224pH\376d\262\204,I\230-\177\204\210\301"
 570      7048FE64 
 570      B2842C49 
ARM GAS  /tmp/cccBwPxo.s 			page 46


 570      982D7F84 
 570      88C1
 571 07a1 0DE0AC10 		.ascii	"\015\340\254\020\261\330\331\235\025\3725\030\277\350"
 571      B1D8D99D 
 571      15FA3518 
 571      BFE8
 572 07af C9375EBC 		.ascii	"\3117^\274!P\301\257O\365$\026\233\265\371\336\272("
 572      2150C1AF 
 572      4FF52416 
 572      9BB5F9DE 
 572      BA28
 573 07c1 80CA0EBD 		.ascii	"\200\312\016\275\255w\341\262<p\350\266\236x\336"
 573      AD77E1B2 
 573      3C70E8B6 
 573      9E78DE
 574 07d0 DBA12F04 		.ascii	"\333\241/\004\357\302Ua\016\275NO\"\364\020\217\274"
 574      EFC25561 
 574      0EBD4E4F 
 574      22F4108F 
 574      BC
 575 07e1 E11A681C 		.ascii	"\341\032h\034\011\207^K\3601&\232C\007q\023&,\210N\371"
 575      09875E4B 
 575      F031269A 
 575      43077113 
 575      262C884E 
 576 07f6 61184947 		.ascii	"a\030IGA8E{'\252\254\316\372\230\252-R\215/\214yO\322"
 576      4138457B 
 576      27AAACCE 
 576      FA98AA2D 
 576      528D2F8C 
 577 080d B4A3C668 		.ascii	"\264\243\306hb\372aoj\352t\336.~=\2209\331/\021\034"
 577      62FA616F 
 577      6AEA74DE 
 577      2E7E3D90 
 577      39D92F11 
 578 0822 E3B06E2E 		.ascii	"\343\260n.\252\226\250\373\221\230\343T\367\340\004"
 578      AA96A8FB 
 578      9198E354 
 578      F7E004
 579 0831 2402895B 		.ascii	"$\002\211[T\236\345\355#\013\332\211\253\020u&\343\321"
 579      549EE5ED 
 579      230BDA89 
 579      AB107526 
 579      E3D1
 580 0843 4A3F3712 		.ascii	"J?7\022m\010\302IY2\013\000}\252\254\013\207\336F\303"
 580      6D08C249 
 580      59320B00 
 580      7DAAAC0B 
 580      87DE46C3 
 581 0857 935A0EBD 		.ascii	"\223Z\016\2757\326\310\372U\264\314\010t\313\223\260"
 581      37D6C8FA 
 581      55B4CC08 
 581      74CB93B0 
 582 0867 B909E93F 		.ascii	"\271\011\351?\002K\226\333\336\274\213\251\337z\266"
 582      024B96DB 
 582      DEBC8BA9 
 582      DF7AB6
ARM GAS  /tmp/cccBwPxo.s 			page 47


 583 0876 D81A3919 		.ascii	"\330\0329\031\260\217\024p\012Z\210\273\004\337\354"
 583      B08F1470 
 583      0A5A88BB 
 583      04DFEC
 584 0885 C652552D 		.ascii	"\306RU-\301\330y\021vh\304\331\214\334U\026#~\334q<"
 584      C1D87911 
 584      7668C4D9 
 584      8CDC5516 
 584      237EDC71 
 585 089a DF4B1A11 		.ascii	"\337K\032\021\012\247U\335\216\325\275E\236\256\337"
 585      0AA755DD 
 585      8ED5BD45 
 585      9EAEDF
 586 08a9 86A845AB 		.ascii	"\206\250E\253\343<\210\230\\\336\261\343\316Y\357\210"
 586      E33C8898 
 586      5CDEB1E3 
 586      CE59EF88 
 587 08b9 3F226D89 		.ascii	"?\"m\211\272\377<DA@\036D\240\245\355\022\365\000\002"
 587      BAFF3C44 
 587      41401E44 
 587      A0A5ED12 
 587      F50002
 588 08cc 353E3AE5 		.ascii	"5>:\345D9)y!zQ\013\032XP\3458\340\322\210\321\"\347"
 588      44392979 
 588      217A510B 
 588      1A5850E5 
 588      38E0D288 
 589 08e3 6D3ED981 		.ascii	"m>\331\201e\222\"\233H\3279\334W\342<\231\360\020;5"
 589      6592229B 
 589      48D739DC 
 589      57E23C99 
 589      F0103B35 
 590 08f7 EDDBC7B5 		.ascii	"\355\333\307\265Q\225\0027\220\\E}gP\037\321\336P\264"
 590      51950237 
 590      905C457D 
 590      67501FD1 
 590      DE50B4
 591 090a 074AA03D 		.ascii	"\007J\240=\253h\037\304Uc\332mLkb\356\215\230\377\210"
 591      AB681FC4 
 591      5563DA6D 
 591      4C6B62EE 
 591      8D98FF88 
 592 091e EE7298CF 		.ascii	"\356r\230\317\235\252\"\355~\255Hd\253s`\333\252\300"
 592      9DAA22ED 
 592      7EAD4864 
 592      AB7360DB 
 592      AAC0
 593 0930 9EA3C072 		.ascii	"\236\243\300r\034_t\222\317\373)\3468\337\255\370A#"
 593      1C5F7492 
 593      CFFB29E6 
 593      38DFADF8 
 593      4123
 594 0942 386F02E8 		.ascii	"8o\002\350#\236R\2500\323\356\032\302;a\212 \303\276"
 594      239E52A8 
 594      30D3EE1A 
 594      C23B618A 
 594      20C3BE
ARM GAS  /tmp/cccBwPxo.s 			page 48


 595 0955 67BFA606 		.ascii	"g\277\246\006\312\233\005\015.@\321\314\353\304V?\213"
 595      CA9B050D 
 595      2E40D1CC 
 595      EBC4563F 
 595      8B
 596 0966 0BB158BD 		.ascii	"\013\261X\275eR\366\006\273\264\032o)@.\006\273DN\343"
 596      6552F606 
 596      BBB41A6F 
 596      29402E06 
 596      BB444EE3 
 597 097a 4DC6A1D7 		.ascii	"M\306\241\327\263\344\270\3062V\307Wd\031\324%\231\256"
 597      B3E4B8C6 
 597      3256C757 
 597      6419D425 
 597      99AE
 598 098c A6E4296B 		.ascii	"\246\344)k\336t\353\252\246\\\275T\324U\"_s5\377\261"
 598      DE74EBAA 
 598      A65CBD54 
 598      D455225F 
 598      7335FFB1 
 599 09a0 5DBADA00 		.ascii	"]\272\332\000.\033\011\253!@6\271\030;\371\234IjY\000"
 599      2E1B09AB 
 599      214036B9 
 599      183BF99C 
 599      496A5900 
 600 09b4 F5489D2D 		.ascii	"\365H\235-!\351>\033\353S\230\364\030\320^_\023\221"
 600      21E93E1B 
 600      EB5398F4 
 600      18D05E5F 
 600      1391
 601 09c6 1CC386CE 		.ascii	"\034\303\206\316\244\260\330\332\353\314\326o\213\257"
 601      A4B0D8DA 
 601      EBCCD66F 
 601      8BAF
 602 09d4 645A6FB8 		.ascii	"dZo\270\354g\272\274\205\\\016\263\270\254\313\304\210"
 602      EC67BABC 
 602      855C0EB3 
 602      B8ACCBC4 
 602      88
 603 09e5 0F66A60C 		.ascii	"\017f\246\014\206m\322\315\310\024\017\231\333\325\341"
 603      866DD2CD 
 603      C8140F99 
 603      DBD5E1
 604 09f4 8A81C0DA 		.ascii	"\212\201\300\332\263J\373\333n\021\320\025\002W\213"
 604      B34AFBDB 
 604      6E11D015 
 604      02578B
 605 0a03 2240E48B 		.ascii	"\"@\344\213\327\257\210\326%\002M\260\276(\004tt\303"
 605      D7AF88D6 
 605      25024DB0 
 605      BE280474 
 605      74C3
 606 0a15 8E0BA1B3 		.ascii	"\216\013\241\263o\302&t?\214\334\267\237\331\230\306"
 606      6FC22674 
 606      3F8CDCB7 
 606      9FD998C6 
 607 0a25 EEFB266F 		.ascii	"\356\373&o:D\356\373\233\356\247\030\006t%m\305\334"
ARM GAS  /tmp/cccBwPxo.s 			page 49


 607      3A44EEFB 
 607      9BEEA718 
 607      0674256D 
 607      C5DC
 608 0a37 EF2AD336 		.ascii	"\357*\3236\276\262\305\023S\257\015\365^Wh\004\230h"
 608      BEB2C513 
 608      53AF0DF5 
 608      5E576804 
 608      9868
 609 0a49 64101A41 		.ascii	"d\020\032A\0264<X\306\3429\022\302\024UA\013\300\003"
 609      16343C58 
 609      C6E23912 
 609      C2145541 
 609      0BC003
 610 0a5c 35FAA1A5 		.ascii	"5\372\241\245]\375\013\267\242\245A\204\212_\362\326"
 610      5DFD0BB7 
 610      A2A54184 
 610      8A5FF2D6 
 611 0a6c A34042FD 		.ascii	"\243@B\375\023\266\345\221\245\201bF\256\220\202SHp"
 611      13B6E591 
 611      A5816246 
 611      AE908253 
 611      4870
 612 0a7e 558B604F 		.ascii	"U\213`OY=\327\236\373T\272\320\003\247\212\273\320C"
 612      593DD79E 
 612      FB54BAD0 
 612      03A78ABB 
 612      D043
 613 0a90 223D54D2 		.ascii	"\"=T\322\364,Z.?\024\214\264\247B\372\206Q/\203\235"
 613      F42C5A2E 
 613      3F148CB4 
 613      A742FA86 
 613      512F839D 
 614 0aa4 F5B2A72A 		.ascii	"\365\262\247*(\347\226\200\024\322K\312\271\265\353"
 614      28E79680 
 614      14D24BCA 
 614      B9B5EB
 615 0ab3 4AB602E2 		.ascii	"J\266\002\342\010\300O\310\217!:\234\321Z\021\321\012"
 615      08C04FC8 
 615      8F213A9C 
 615      D15A11D1 
 615      0A
 616 0ac4 CF9999AC 		.ascii	"\317\231\231\254\012\232\017\3344B\344\211\230\004\240"
 616      0A9A0FDC 
 616      3442E489 
 616      9804A0
 617 0ad3 E33DCA9C 		.ascii	"\343=\312\234I\276\004\005P\025\001\011HH>\204I\333"
 617      49BE0405 
 617      50150109 
 617      48483E84 
 617      49DB
 618 0ae5 B74CF2EE 		.ascii	"\267L\362\356\243\344w)1\271\256\316\021\377y]\013\247"
 618      A3E47729 
 618      31B9AECE 
 618      11FF795D 
 618      0BA7
 619 0af7 E951EBB2 		.ascii	"\351Q\353\262\246\004J\201\365\341\226\271\300K\213"
ARM GAS  /tmp/cccBwPxo.s 			page 50


 619      A6044A81 
 619      F5E196B9 
 619      C04B8B
 620 0b06 FDB5B042 		.ascii	"\375\265\260BFO\316x\264\256\231\244~\217\357\204\216"
 620      464FCE78 
 620      B4AE99A4 
 620      7E8FEF84 
 620      8E
 621 0b17 3C59B52C 		.ascii	"<Y\265,@\326#\314\250R\364\214\200\253\035\334\206\010"
 621      40D623CC 
 621      A852F48C 
 621      80AB1DDC 
 621      8608
 622 0b29 EAD0EFEC 		.ascii	"\352\320\357\354x\354O\342Jc\005\272\003U\254E\251\024"
 622      78EC4FE2 
 622      4A6305BA 
 622      0355AC45 
 622      A914
 623 0b3b 4EDD852A 		.ascii	"N\335\205*\355\010\276\374I\377\226R\377N\202M|\031"
 623      ED08BEFC 
 623      49FF9652 
 623      FF4E824D 
 623      7C19
 624 0b4d 9DBFB305 		.ascii	"\235\277\263\005eDn\246\212\023\317\226\"\314\022\242"
 624      65446EA6 
 624      8A13CF96 
 624      22CC12A2 
 625 0b5d 1D175628 		.ascii	"\035\027V(\314\372`\354\3506\373\336\221?\374H\274\006"
 625      CCFA60EC 
 625      E836FBDE 
 625      913FFC48 
 625      BC06
 626 0b6f 76F8592E 		.ascii	"v\370Y.\203\374I\217=%\321\273\2121>z\245.g\3722\347"
 626      83FC498F 
 626      3D25D1BB 
 626      8A313E7A 
 626      A52E67FA 
 627 0b85 BB4E9D9C 		.ascii	"\273N\235\234\005}\011\306R\210q`\302\316\226hB\351"
 627      057D09C6 
 627      52887160 
 627      C2CE9668 
 627      42E9
 628 0b97 CC9D045A 		.ascii	"\314\235\004ZY\243~\377:\247*\023\357\221\311&\267\273"
 628      59A37EFF 
 628      3AA72A13 
 628      EF91C926 
 628      B7BB
 629 0ba9 243F278E 		.ascii	"$?'\216\331\217~O\267I\034\033\303/&\216\345\344\272"
 629      D98F7E4F 
 629      B7491C1B 
 629      C32F268E 
 629      E5E4BA
 630 0bbc C0749976 		.ascii	"\300t\231v\377\003I\375O\267\013\263\207J\227{\346\302"
 630      FF0349FD 
 630      4FB70BB3 
 630      874A977B 
 630      E6C2
ARM GAS  /tmp/cccBwPxo.s 			page 51


 631 0bce 6CED243F 		.ascii	"l\355$?\276\355\316\012\2650\177\026p\337\224\036$j"
 631      BEEDCE0A 
 631      B5307F16 
 631      70DF941E 
 631      246A
 632 0be0 C945E730 		.ascii	"\311E\3470\204\377\213\022\257x\331\375\027\223\227"
 632      84FF8B12 
 632      AF78D9FD 
 632      179397
 633 0bef 2763D0CF 		.ascii	"'c\320\317OP]9\312\024\274\020\224|9\0153f8zU.y\317"
 633      4F505D39 
 633      CA14BC10 
 633      947C390D 
 633      3366387A 
 634 0c07 4DC0DF20 		.ascii	"M\300\337 \015i+\210{A\262\307\330C\370T\262\254\022"
 634      0D692B88 
 634      7B41B2C7 
 634      D843F854 
 634      B2AC12
 635 0c1a 2FB94A4E 		.ascii	"/\271JN|&U\366\303\231\342\213\244\237\\$*\312\037\024"
 635      7C2655F6 
 635      C399E28B 
 635      A49F5C24 
 635      2ACA1F14 
 636 0c2e 5D2483E5 		.ascii	"]$\203\345\"\361R^\347\033\213\244\2323\015>\220q\273"
 636      22F1525E 
 636      E71B8BA4 
 636      9A330D3E 
 636      9071BB
 637 0c41 7BDF0878 		.ascii	"{\337\010x\177\234s.\212\275\306\254s\031\340\331'\345"
 637      7F9C732E 
 637      8ABDC6AC 
 637      7319E0D9 
 637      27E5
 638 0c53 7119F40B 		.ascii	"q\031\364\013N\276r\023\235\252\344\320\207\323\371"
 638      4EBE7213 
 638      9DAAE4D0 
 638      87D3F9
 639 0c62 A0E0841B 		.ascii	"\240\340\204\033\\\244+\212\337\354r\015\354\337\321"
 639      5CA42B8A 
 639      DFEC720D 
 639      ECDFD1
 640 0c71 4A596649 		.ascii	"JYfI\372J\242\320G&}\356\016U\026?*9\351\037@\004e\271"
 640      FA4AA2D0 
 640      47267DEE 
 640      0E55163F 
 640      2A39E91F 
 641 0c89 25ADA7A8 		.ascii	"%\255\247\2504\033B\274\256y=\204\225\004\213\374r\226"
 641      341B42BC 
 641      AE793D84 
 641      95048BFC 
 641      7296
 642 0c9b B42E2DD3 		.ascii	"\264.-\323:\347\301\035\345\317\000\004\333\231\307"
 642      3AE7C11D 
 642      E5CF0004 
 642      DB99C7
 643 0caa 537CE4EC 		.ascii	"S|\344\354@E\031\037\375X)\030\304\244\003\235:8N\203"
ARM GAS  /tmp/cccBwPxo.s 			page 52


 643      4045191F 
 643      FD582918 
 643      C4A4039D 
 643      3A384E83 
 644 0cbe 0887D288 		.ascii	"\010\207\322\210J\205\302+i\030\337!\225V]'\317+\233"
 644      4A85C22B 
 644      6918DF21 
 644      95565D27 
 644      CF2B9B
 645 0cd1 D594C982 		.ascii	"\325\224\311\202\205\323\2022\226\320z\313\324\313M"
 645      85D38232 
 645      96D07ACB 
 645      D4CB4D
 646 0ce0 56995D86 		.ascii	"V\231]\206\036\352dl\270\253\311\314\276#\340\241\001"
 646      1EEA646C 
 646      B8ABC9CC 
 646      BE23E0A1 
 646      01
 647 0cf1 B6372651 		.ascii	"\2667&QY\231D\375*J\274\313\340R\300\251\246\210*\316"
 647      599944FD 
 647      2A4ABCCB 
 647      E052C0A9 
 647      A6882ACE 
 648 0d05 60050EC6 		.ascii	"`\005\016\306l*KY\205>U$\347\253\210\275\232\256T\274"
 648      6C2A4B59 
 648      853E5524 
 648      E7AB88BD 
 648      9AAE54BC 
 649 0d19 E3547161 		.ascii	"\343Tqa\315\257wT\257\230-P\220\021\220\252\"\017x\371"
 649      CDAF7754 
 649      AF982D50 
 649      901190AA 
 649      220F78F9 
 650 0d2d AD76F0A6 		.ascii	"\255v\360\246\302\217F.\232\233}\201J\372anW\224\267"
 650      C28F462E 
 650      9A9B7D81 
 650      4AFA616E 
 650      5794B7
 651 0d40 CAAD476A 		.ascii	"\312\255GjE\2355V\3240kQ\362\303\242\364\253\251\260"
 651      459D3556 
 651      D4306B51 
 651      F2C3A2F4 
 651      ABA9B0
 652 0d53 9AB863EC 		.ascii	"\232\270c\354\342\005c$\365\010\222T,\275G\024\315\326"
 652      E2056324 
 652      F5089254 
 652      2CBD4714 
 652      CDD6
 653 0d65 61CC1F82 		.ascii	"a\314\037\202\226\351\034\246?\012\256\252\200\016\225"
 653      96E91CA6 
 653      3F0AAEAA 
 653      800E95
 654 0d74 3EC63EDE 		.ascii	">\306>\336x\302_\372\270\007\3407vb\302\302I\207T8?"
 654      78C25FFA 
 654      B807E037 
 654      7662C2C2 
 654      49875438 
ARM GAS  /tmp/cccBwPxo.s 			page 53


 655 0d89 4642AA66 		.ascii	"FB\252f\353\026\036S\345\270\022<\266\256\343\035\244"
 655      EB161E53 
 655      E5B8123C 
 655      B6AEE31D 
 655      A4
 656 0d9a E563D652 		.ascii	"\345c\326R\335\014&O\326\265\004\263\254%\2306\361\023"
 656      DD0C264F 
 656      D6B504B3 
 656      AC259836 
 656      F113
 657 0dac 2C8CDC7C 		.ascii	",\214\334|\356\005\251\241,\271\235\267\344'\317\231"
 657      EE05A9A1 
 657      2CB99DB7 
 657      E427CF99 
 658 0dbc F0CDB828 		.ascii	"\360\315\270(\\\203)u\0221\370\"\201\232]\001\2050\223"
 658      5C832975 
 658      1231F822 
 658      819A5D01 
 658      853093
 659 0dcf FBB7699B 		.ascii	"\373\267i\233\262}\245\001{)\365\037\334\2775\323\307"
 659      B27DA501 
 659      7B29F51F 
 659      DCBF35D3 
 659      C7
 660 0de0 E0F82E04 		.ascii	"\340\370.\0049\340\011\232\225\200]\0302\375.\231\326"
 660      39E0099A 
 660      95805D18 
 660      32FD2E99 
 660      D6
 661 0df1 2FDEBD5B 		.ascii	"/\336\275[Y}\210\230r\276y\354m\360\254d\236?\234<O"
 661      597D8898 
 661      72BE79EC 
 661      6DF0AC64 
 661      9E3F9C3C 
 662 0e06 25CFC494 		.ascii	"%\317\304\224\233\271\252}9\314\375\367\205\250Y\201"
 662      9BB9AA7D 
 662      39CCFDF7 
 662      85A85981 
 663 0e16 06D3CD50 		.ascii	"\006\323\315Pbz\306L\374\354,Rc\246\204\373\233\226"
 663      627AC64C 
 663      FCEC2C52 
 663      63A684FB 
 663      9B96
 664 0e28 28104F10 		.ascii	"(\020O\020\323\211\333\005\261&\323\016f\032\247\021"
 664      D389DB05 
 664      B126D30E 
 664      661AA711 
 665 0e38 13BD0580 		.ascii	"\023\275\005\200\361\222)v\332\221\213j\317<ML+s\306"
 665      F1922976 
 665      DA918B6A 
 665      CF3C4D4C 
 665      2B73C6
 666 0e4b DDF432CD 		.ascii	"\335\3642\315c\246\011\314\304\017u\242$S~R^\2522\357"
 666      63A609CC 
 666      C40F75A2 
 666      24537E52 
 666      5EAA32EF 
ARM GAS  /tmp/cccBwPxo.s 			page 54


 667 0e5f 0A315DDF 		.ascii	"\0121]\337p\357\022\030L\367\253\022\323Df\362$\246"
 667      70EF1218 
 667      4CF7AB12 
 667      D34466F2 
 667      24A6
 668 0e71 68C994BC 		.ascii	"h\311\224\274*\343\222b\272JL\233\247/_a\202\267\224"
 668      2AE39262 
 668      BA4A4C9B 
 668      A72F5F61 
 668      82B794
 669 0e84 8198A499 		.ascii	"\201\230\244\231@L\226L\367\026_\211\366\223L7\211\351"
 669      404C964C 
 669      F7165F89 
 669      F6934C37 
 669      89E9
 670 0e96 9759472E 		.ascii	"\227YG.\371\031Lk\231i\212\223)F2m\337x,Vi\372\205\237"
 670      F9194C6B 
 670      99698A93 
 670      2946326D 
 670      DF782C56 
 671 0eae 4AFFB666 		.ascii	"J\377\266f\247\335`\272\313>\305j&zS%\323\204\015\347"
 671      A7DD60BA 
 671      CB3EC56A 
 671      267A5325 
 671      D3840DE7 
 672 0ec2 1FAAF6E2 		.ascii	"\037\252\366\342\001?\256\235WXhjZY\215\230\2461\023"
 672      013FAE9D 
 672      5758686A 
 672      5A598D98 
 672      A63113
 673 0ed5 DDBCC074 		.ascii	"\335\274\300t\311\364\360\324\212\233*\266\005\304t"
 673      C9F4F0D4 
 673      8A9B2AB6 
 673      05C474
 674 0ee4 63E5BD07 		.ascii	"c\345\275\007&S\012k\372\306\011\371\014\311\224\372"
 674      26530A6B 
 674      FAC609F9 
 674      0CC994FA 
 675 0ef4 6B7682A7 		.ascii	"kv\202\247d\372\215\203{-6\3374o-3\315tB\376-2QI\261"
 675      64FA8D83 
 675      7B2D36DF 
 675      346F2D33 
 675      CD7442FE 
 676 0f0d E1BAAA96 		.ascii	"\341\272\252\226p\233\312\205w\010\326m\357\2528Y\026"
 676      709BCA85 
 676      7708D66D 
 676      EFAA3859 
 676      16
 677 0f1e D756B57C 		.ascii	"\327V\265|\234*CSeh\252.\325\200jgnQ\355\3718\344\326"
 677      9C2A4353 
 677      6568AA2E 
 677      D5806A67 
 677      6E51EDF9 
 678 0f35 6DEE44AB 		.ascii	"m\356D\253f\336\242BWC\244\012\375\006\360\332\243\340"
 678      66DEA242 
 678      5743A40A 
 678      FD06F0DA 
ARM GAS  /tmp/cccBwPxo.s 			page 55


 678      A3E0
 679 0f47 F0E6ED30 		.ascii	"\360\346\3550\273Mn\224\371\376\333\341e\271!\333\274"
 679      BB4D6E94 
 679      F9FEDBE1 
 679      65B921DB 
 679      BC
 680 0f58 F74034EF 		.ascii	"\367@4\357\336e\001\\\357\271\256\304y\233w]\024\341"
 680      DE65015C 
 680      EFB9AEC4 
 680      799B775D 
 680      14E1
 681 0f6a 27990BBC 		.ascii	"'\231\013\274\260\314\320\335(\314\326\"`\026\272A\027"
 681      B0CCD0DD 
 681      28CCD622 
 681      6016BA41 
 681      17
 682 0f7b 9E5DB812 		.ascii	"\236]\270\022\246XP4\261\304i\211 w\211x-B\360\266\362"
 682      A6585034 
 682      B1C46989 
 682      20778978 
 682      2D42F0B6 
 683 0f90 A32A099F 		.ascii	"\243*\011\237\225\274\253\314\321\212\356*\363T\225"
 683      95BCABCC 
 683      D18AEE2A 
 683      F35495
 684 0f9f 18       		.ascii	"\030"
 685 0fa0 45BC3813 		.ascii	"E\2748\023\317\333\202\265\216\371\360}\373\237\033"
 685      CFDB82B5 
 685      8EF9F07D 
 685      FB9F1B
 686 0faf 7EF7C996 		.ascii	"~\367\311\226\3656c\367}\342\360\240\247\0240\017\025"
 686      F53663F7 
 686      7DE2F0A0 
 686      A714300F 
 686      15
 687 0fc0 CD250720 		.ascii	"\315%\007 \001\215E\361\\^j\272@\350\305p%-t\205\220"
 687      018D45F1 
 687      5C5E6ABA 
 687      40E8C570 
 687      252D7485 
 688 0fd5 DDB9AC0A 		.ascii	"\335\271\254\012\352\330\242\356,\372\334\305\237\371"
 688      EAD8A2EE 
 688      2CFADCC5 
 688      9FF9
 689 0fe3 5A84D5D4 		.ascii	"Z\204\325\324rXr\027h\312=\022>\302\270\335%Q\326\336"
 689      72587217 
 689      68CA3D12 
 689      3EC2B8DD 
 689      2551D6DE 
 690 0ff7 67ACB48E 		.ascii	"g\254\264\216\255\252%\354\274"
 690      ADAA25EC 
 690      BC
 691 1000 156CA966 		.ascii	"\025l\251f\2719\336\227{\374\232W\215\005\220\0309\027"
 691      B939DE97 
 691      7BFC9A57 
 691      8D059018 
 691      3917
ARM GAS  /tmp/cccBwPxo.s 			page 56


 692 1012 210C2233 		.ascii	"!\014\"3~\3343\256\320\216f\314E3\226a\230\312\203C"
 692      7EDC33AE 
 692      D08E66CC 
 692      45339661 
 692      98CA8343 
 693 1026 AB811E2E 		.ascii	"\253\201\036.\304 \220\234\332\344\035\027IV\350\247"
 693      C420909C 
 693      DAE41D17 
 693      4956E8A7 
 694 1036 7AB95D01 		.ascii	"z\271]\001Re\260|\032\203Y\206[\310\330\232\011\017"
 694      5265B07C 
 694      1A835986 
 694      5BC8D89A 
 694      090F
 695 1048 F2A088D0 		.ascii	"\362\240\210\320m\013\303\234R\023\265\210Z\371\224"
 695      6D0BC39C 
 695      5213B588 
 695      5AF994
 696 1057 77A1A23A 		.ascii	"w\241\242:\233\267ga\210\261\033#\337\225\357s\027k"
 696      9BB76761 
 696      88B11B23 
 696      DF95EF73 
 696      176B
 697 1069 B2397DF6 		.ascii	"\2629}\366\014`\221&\357m\352\220\015\250\342\037\250"
 697      0C609126 
 697      EF6DEA90 
 697      0DA8E21F 
 697      A8
 698 107a 3FF4CC23 		.ascii	"?\364\314#\272\271\364\253\255\025\300\373D\021Z\370"
 698      BAB9F4AB 
 698      AD15C0FB 
 698      44115AF8 
 699 108a E0314E04 		.ascii	"\3401N\004\327&\312\272b\276\247\334\220\326>\271\243"
 699      D726CABA 
 699      62BEA7DC 
 699      90D63EB9 
 699      A3
 700 109b 4913BF74 		.ascii	"I\023\277t`\264\255;\322!r\344K\226\\O\234\365\264\264"
 700      60B4AD3B 
 700      D22172E4 
 700      4B965C4F 
 700      9CF5B4B4 
 701 10af 6D55E476 		.ascii	"mU\344v\300\004>r\327\234\242:\343\317\213o\2326\022"
 701      C0043E72 
 701      D79CA23A 
 701      E3CF8B6F 
 701      9A3612
 702 10c2 2CF3E13B 		.ascii	",\363\341;\315\3304k+r\3473\034\037\207\376\217:\270"
 702      CDD8346B 
 702      2B72E733 
 702      1C1F87FE 
 702      8F3AB8
 703 10d5 16BFAC9B 		.ascii	"\026\277\254\233_\036\367j\207\376>\235}Q7\337\216\006"
 703      5F1EF76A 
 703      87FE3E9D 
 703      7D5137DF 
 703      8E06
ARM GAS  /tmp/cccBwPxo.s 			page 57


 704 10e7 8489644F 		.ascii	"\204\211dO\271\003\252\\\377\002\255\200FU\212\364)"
 704      B903AA5C 
 704      FF02AD80 
 704      46558AF4 
 704      29
 705 10f8 5F90F0BC 		.ascii	"_\220\360\274\216\212Da\216\354\365]rO\223&\\\337\255"
 705      8E8A4461 
 705      8EECF55D 
 705      724F9326 
 705      5CDFAD
 706 110b 825397EF 		.ascii	"\202S\227\357\364%e\003\004\234\263\360\326\253\362"
 706      F4256503 
 706      049CB3F0 
 706      D6ABF2
 707 111a E257C5B2 		.ascii	"\342W\305\262p\260K\026~\357\232\205\0250\013\027[\263"
 707      70B04B16 
 707      7EEF9A85 
 707      15300B17 
 707      5BB3
 708 112c 50E6D526 		.ascii	"P\346\325&\262\356+\326\320\320\320P\2504|\375_4,\261"
 708      B2EE2BD6 
 708      D0D0D050 
 708      A8347CFD 
 708      5F342CB1 
 709 1140 AEDB2222 		.ascii	"\256\333\"\"\277f\221\215\314\344\343\311\206\344_n"
 709      BF66918D 
 709      CCE4E3C9 
 709      86E45F6E 
 710 1150 467A5B29 		.ascii	"Fz[)\277\241\365\006\312\013\355[\252)\310\033\242M"
 710      BFA1F506 
 710      CA0BED5B 
 710      AA29C81B 
 710      A24D
 711 1162 0D563DC1 		.ascii	"\015V=\301\264\370\272\341\255'\224o\215Ei\316\267k"
 711      B4F8BAE1 
 711      AD27946F 
 711      8D4569CE 
 711      B76B
 712 1174 21EE9F2B 		.ascii	"!\356\237+]\012\372\323\262\265\314}\331\272\026B\034"
 712      5D0AFAD3 
 712      B2B5CC7D 
 712      D9BA1642 
 712      1C
 713 1185 CBCDAAB5 		.ascii	"\313\315\252\265\002\027\014f\314\303\203\301\252\326"
 713      02170C66 
 713      CCC383C1 
 713      AAD6
 714 1193 FCC5E272 		.ascii	"\374\305\342r#\321\223\213\313J\263\270\254B\231\326"
 714      23D1938B 
 714      CB4AB3B8 
 714      AC4299D6 
 715 11a3 67493668 		.ascii	"gI6h\004\2535\356\342NG\257}\246\236\027\374\207\360"
 715      04AB35EE 
 715      E24E47AF 
 715      7DA69E17 
 715      FC87F0
 716 11b6 30B384F1 		.ascii	"0\263\204\361\371\017\243\370Kbp\261g%\341\"\\>\356"
ARM GAS  /tmp/cccBwPxo.s 			page 58


 716      F90FA3F8 
 716      4B6270B1 
 716      6725E122 
 716      5C3EEE
 717 11c9 BBBE47D5 		.ascii	"\273\276G\325\2120Kn4\021\025\344][\242\367s\243\263"
 717      8A304B6E 
 717      341115E4 
 717      5D5BA2F7 
 717      73A3B3
 718 11dc C63D3A05 		.ascii	"\306=:\005\214\316Z\023\235u\377#:\277*t\222Lt\326K"
 718      8CCE5A13 
 718      9D75FF23 
 718      3ABF2A74 
 718      924C74D6 
 719 11f1 74CCC74F 		.ascii	"t\314\307O6h\000\033T\241h\352\232/\215\204\363\361"
 719      3668001B 
 719      54A168EA 
 719      9A2F8D84 
 719      F3F1
 720 1203 507DCBD2 		.ascii	"P}\313\322\266\363q\221\267WgBJ|y\265Q\2632\236_qp\206"
 720      B6F37191 
 720      B7576742 
 720      4A7C79B5 
 720      51B3329E 
 721 121b 5D5F225F 		.ascii	"]_\"_\026:.>M\011P/\315\016\002\277o\306\200h\305el"
 721      163A2E3E 
 721      4D09502F 
 721      CD0E02BF 
 721      6FC68068 
 722 1232 D64CA390 		.ascii	"\326L\243\220m\352\251\354\3036}\205z1\273\371\332C"
 722      6DEAA9EC 
 722      C3367D85 
 722      7A31BBF9 
 722      DA43
 723 1244 5F658992 		.ascii	"_e\211\222\341\013[\334\310\330\252\205Z\357\342}\361"
 723      E10B5BDC 
 723      C8D8AA85 
 723      5AEFE27D 
 723      F1
 724 1255 2E7E9BA6 		.ascii	".~\233\246\352\326a\027\347\254f9_\315\271\267l\273"
 724      EAD66117 
 724      E7AC6639 
 724      5FCDB9B7 
 724      6CBB
 725 1267 8B657FD9 		.ascii	"\213e\177\331\230\035Z\250\251\035\371\216\335L\331"
 725      981D5AA8 
 725      A91DF98E 
 725      DD4CD9
 726 1276 E3A9AF93 		.ascii	"\343\251\257\223\036E9r/\370\027E%\331\215\220\235("
 726      1E453972 
 726      2FF81745 
 726      25D98D90 
 726      9D28
 727 1288 64A926DB 		.ascii	"d\251&\333\214m5\315\267\307Q\322\360=~\3442AG!\340"
 727      8C6D35CD 
 727      B7C751D2 
 727      F03D7EE4 
ARM GAS  /tmp/cccBwPxo.s 			page 59


 727      32414721 
 728 129d B7C2F374 		.ascii	"\267\302\363tM\024!\313\235[\006X\020Y\204\316\020\024"
 728      4D1421CB 
 728      9D5B0658 
 728      105984CE 
 728      1014
 729 12af 02766948 		.ascii	"\002viH\253\023m\326\355\0111\272\276UZv\357\304\346"
 729      AB136DD6 
 729      ED0931BA 
 729      BE555A76 
 729      EFC4E6
 730 12c2 F78D779C 		.ascii	"\367\215w\234K\234\270\354.n\233\345Uv\026\256\246\034"
 730      4B9CB8EC 
 730      2E6E9BE5 
 730      557616AE 
 730      A61C
 731 12d4 FCCFA5B7 		.ascii	"\374\317\245\267\317dH\212\346E\337\261h^4e\346\332"
 731      CF64488A 
 731      E645DFB1 
 731      685E3465 
 731      E6DA
 732 12e6 1E09A4BC 		.ascii	"\036\011\244\274'\212\005\272\356\320\027a!\262\243"
 732      278A05BA 
 732      EED01761 
 732      21B2A3
 733 12f5 AC537951 		.ascii	"\254SyQ;\324\227!\276\220\246\251\"O\"rH\304\"\356\352"
 733      3BD49721 
 733      BE90A6A9 
 733      224F2272 
 733      48C422EE 
 734 130a EC7FBDA1 		.ascii	"\354\177\275\241J/\2512e\230ko\257\026\321X\373\323"
 734      4A2FA932 
 734      65986B6F 
 734      AF16D158 
 734      FBD3
 735 131c 050DFBB4 		.ascii	"\005\015\373\264\210\360\215E\332\270j\177\252s\177"
 735      88F08D45 
 735      DAB86A7F 
 735      AA737F
 736 132b 49EBFD80 		.ascii	"I\353\375\200\251\363\240\026\321\004w\350\372T\201"
 736      A9F3A016 
 736      D10477E8 
 736      FA5481
 737 133a 1A173E3D 		.ascii	"\032\027>=\212\010\204\205\343\266\027\326\004]l\204"
 737      8A088485 
 737      E3B617D6 
 737      045D6C84 
 738 134a A5AAF199 		.ascii	"\245\252\361\231\247-\261\202\321\\\303&\264v\233\211"
 738      A72DB182 
 738      D15CC326 
 738      B4769B89 
 739 135a 4C4FDD89 		.ascii	"LO\335\211\341w \001ep\215\023\206i9\310&\357\356mo"
 739      E1772001 
 739      65708D13 
 739      866939C8 
 739      26EFEE6D 
 740 136f 09EFF7C0 		.ascii	"\011\357\367\300\024\210\371\366h\205\370b\240i\316"
ARM GAS  /tmp/cccBwPxo.s 			page 60


 740      1488F9F6 
 740      6885F862 
 740      A069CE
 741 137e 4DA67D4F 		.ascii	"M\246}ON/\001\272\344\204=\213\344-\001\371\244\240"
 741      4E2F01BA 
 741      E4843D8B 
 741      E42D01F9 
 741      A4A0
 742 1390 C057122D 		.ascii	"\300W\022-\005\232C\367vn\333\265\337Sv#M\340\2205\\"
 742      059A43F7 
 742      766EDBB5 
 742      DF537623 
 742      4DE09035 
 743 13a5 CCB79477 		.ascii	"\314\267\224w\374\323\031\373\007\033|\310sz\337OF\007"
 743      FCD319FB 
 743      071B7CC8 
 743      737ADF4F 
 743      4607
 744 13b7 D312328D 		.ascii	"\323\0222\215\375h9Pt\233&\314\321\034\270\340\373\024"
 744      FD683950 
 744      749B26CC 
 744      D11CB8E0 
 744      FB14
 745 13c9 26F815C0 		.ascii	"&\370\025\300w8\327\250i\362,\234Z\003}\022\316\322"
 745      7738D7A8 
 745      69F22C9C 
 745      5A037D12 
 745      CED2
 746 13db 53A417C4 		.ascii	"S\244\027\3045Mv\003\216\034\345\3112\303\232\364\263"
 746      354D7603 
 746      8E1CE5C9 
 746      32C39AF4 
 746      B3
 747 13ec 29939535 		.ascii	")\223\2255/CV1k\226\001W\300\027M\024yv\245\361\202"
 747      2F435631 
 747      6B960157 
 747      C0174D14 
 747      7976A5F1 
 748 1401 6B9A9714 		.ascii	"k\232\227\024\267\002\010@z\323\177p\345j\365\231\025"
 748      B7020840 
 748      7AD37F70 
 748      E56AF599 
 748      15
 749 1412 7FB105D9 		.ascii	"\177\261\005\331\305\362q\205\002ZY\262\012\224<j\247"
 749      C5F27185 
 749      025A59B2 
 749      0A943C6A 
 749      A7
 750 1423 71C6D210 		.ascii	"q\306\322\020\0017CX\312d\211\316\341\356x\025\353^"
 750      01374358 
 750      CA6489CE 
 750      E1EE7815 
 750      EB5E
 751 1435 1F9DB356 		.ascii	"\037\235\263V\011X]$(jz\015\320%\247n\216\370\032\371"
 751      09585D24 
 751      286A7A0D 
 751      D025A76E 
ARM GAS  /tmp/cccBwPxo.s 			page 61


 751      8EF81AF9 
 752 1449 7C6BDB13 		.ascii	"|k\333\023&\222)\261F\265X\345\014>\347\206\277\022"
 752      269229B1 
 752      46B558E5 
 752      0C3EE786 
 752      BF12
 753 145b 08FF6685 		.ascii	"\010\377f\205\2474B\342\205d\274S\212\321\373\210\030"
 753      A73442E2 
 753      8564BC53 
 753      8AD1FB88 
 753      18
 754 146c 4F88D55F 		.ascii	"O\210\325_\242M\201\025\026\370K\316\265\034\016\027"
 754      A24D8115 
 754      16F84BCE 
 754      B51C0E17 
 755 147c 23D681F2 		.ascii	"#\326\201\362w\302\334\350\316r*\011$\345\272\242\011"
 755      77C2DCE8 
 755      CE722A09 
 755      24E5BAA2 
 755      09
 756 148d 9324A16E 		.ascii	"\223$\241nnB\315hmT9\312$[\300R\221\327\253 8\222\224"
 756      6E42CD68 
 756      6D5439CA 
 756      245BC052 
 756      91D7AB20 
 757 14a4 B20D4093 		.ascii	"\262\015@\223fOJ\202\231p\203\"<\244K\272M@b]\350X\325"
 757      664F4A82 
 757      99708322 
 757      3CA44BBA 
 757      4D40625D 
 758 14bb 2690BDE9 		.ascii	"&\220\275\351JE\267\031\212\305b\243\021\213\\\352L"
 758      4A45B719 
 758      8AC562A3 
 758      118B5CEA 
 758      4C
 759 14cc 2966872A 		.ascii	")f\207*\272\015\332z\203\3600\007m\263Z\014k\273K\321"
 759      BA0DDA7A 
 759      83F03007 
 759      6DB35A0C 
 759      6BBB4BD1 
 760 14e0 5B819C31 		.ascii	"[\201\2341\033R\023\203\2552\026\035\015*\3636`=\325"
 760      1B521383 
 760      AD32161D 
 760      0D2AF336 
 760      603DD5
 761 14f3 BA970439 		.ascii	"\272\227\0049\323;\371<\226\200-@\210\275T8_#\272\336"
 761      D33BF93C 
 761      96802D40 
 761      88BD5438 
 761      5F23BADE 
 762 1507 67164201 		.ascii	"g\026B\001ld\264_\302u@\316\364N^\030\200\341\352-\303"
 762      6C64B45F 
 762      C27540CE 
 762      F44E5E18 
 762      80E1EA2D 
 763 151c F5B24B4B 		.ascii	"\365\262KK+\337]\\Y\352e<:\242\307%\337\255\311U\017"
 763      2BDF5D5C 
ARM GAS  /tmp/cccBwPxo.s 			page 62


 763      59EA653C 
 763      3AA2C725 
 763      DFADC955 
 764 1531 28EC7044 		.ascii	"(\354pDm\375-\\\330\344\013\240\373\241\026\256\230"
 764      6DFD2D5C 
 764      D8E40BA0 
 764      FBA116AE 
 764      98
 765 1542 C253D3D5 		.ascii	"\302S\323\325\023g\033\034U\\-E\0328\271\204\345\311"
 765      13671B1C 
 765      555C2D45 
 765      1A38B984 
 765      E5C9
 766 1554 5039996B 		.ascii	"P9\231kO\263\212\366\322\005P\216j\303\203\337\263\324"
 766      4FB38AF6 
 766      D205508E 
 766      6AC383DF 
 766      B3D4
 767 1566 53BE5270 		.ascii	"S\276RpL\253R=au3\262\345\345\230u\032Io\021\223D\013"
 767      4CAB523D 
 767      617533B2 
 767      E5E59875 
 767      1A496F11 
 768 157d BA95B828 		.ascii	"\272\225\270(dS\274?[\275\027\030\007%\337\315\376\340"
 768      6453BC3F 
 768      5BBD1718 
 768      0725DFCD 
 768      FEE0
 769 158f DA7757C4 		.ascii	"\332wW\304\276\366\270V\245\370\233\200\361\300\262"
 769      BEF6B856 
 769      A5F89B80 
 769      F1C0B2
 770 159e 5C3BC0F1 		.ascii	"\\;\300\36125_1\325\2364\324F\375\027\265'\\\325V\242"
 770      32355F31 
 770      D59E34D4 
 770      46FD17B5 
 770      275CD556 
 771 15b3 B7D0EED4 		.ascii	"\267\320\356\324N\004\226\345\252v\242T\333\232\320"
 771      4E0496E5 
 771      AA76A254 
 771      DB9AD0
 772 15c2 74B65F8D 		.ascii	"t\266_\215%c\312\274\376\2225\032\010V\203\263H\373"
 772      2563CABC 
 772      FE92351A 
 772      085683B3 
 772      48FB
 773 15d4 753ED15E 		.ascii	"u>\321^b\377uJ\013\375\363\215\021Nk\362\375n\322\262"
 773      62FF754A 
 773      0BFDF38D 
 773      114E6BF2 
 773      FD6ED2B2 
 774 15e8 8A4AB6B5 		.ascii	"\212J\266\265\373q\312v\337\375\344il\255\253\000k\023"
 774      FB71CA76 
 774      DFFDE469 
 774      6CADAB00 
 774      6B13
 775 15fa E414E0BE 		.ascii	"\344\024\340\276\017:C\002\242\325\232\377\241h\367"
ARM GAS  /tmp/cccBwPxo.s 			page 63


 775      0F3A4302 
 775      A2D59AFF 
 775      A168F7
 776 1609 EC62E959 		.ascii	"\354b\351Y\266\364\271\033\264\037\015\023\237\257A"
 776      B6F4B91B 
 776      B41F0D13 
 776      9FAF41
 777 1618 3B6731EC 		.ascii	";g1\354yz\262\363%\365d\347\263\375\310c\202\215\302"
 777      797AB2F3 
 777      25F564E7 
 777      B3FDC863 
 777      828DC2
 778 162b 52624F46 		.ascii	"RbOF\202\320\010\262\237\200\021p\301\354\311\376\247"
 778      82D008B2 
 778      9F801170 
 778      C1ECC9FE 
 778      A7
 779 163c 36EC08B6 		.ascii	"6\354\010\266_G\361\377\030\376_\"\335\027\271\015\273"
 779      5F47F1FF 
 779      18FE5F22 
 779      DD17B90D 
 779      BB
 780 164d 8C75E918 		.ascii	"\214u\351\030\230\020\321%#\242\017j\362U\371}\233\331"
 780      9810D125 
 780      23A20F6A 
 780      F255F97D 
 780      9BD9
 781 165f 819505DF 		.ascii	"\201\225\005\337\022\373\254\234-\323\317\005\030=\317"
 781      12FBAC9C 
 781      2DD3CF05 
 781      183DCF
 782 166e 55EC79AE 		.ascii	"U\354y\256\250\236\347N\312\362\225v\305\363\240&\261"
 782      A89EE74E 
 782      CAF29576 
 782      C5F3A026 
 782      B1
 783 167f 5CA3A607 		.ascii	"\\\243\246\007U\010\270N\317L\012\2401\255\303V\011"
 783      5508B84E 
 783      CF4C0AA0 
 783      31ADC356 
 783      09
 784 1690 1B5BD1C2 		.ascii	"\033[\321\302x%s#\025\2026\342B)\335i\3326\225+l\263"
 784      78257323 
 784      158236E2 
 784      4229DD69 
 784      DA36952B 
 785 16a6 7172944E 		.ascii	"qr\224NR,\335\315e\252\255\333\201)Tw\303S;@NG\203\321"
 785      522CDDCD 
 785      65AAADDB 
 785      81295477 
 785      C3533B40 
 786 16be DDF07432 		.ascii	"\335\360t2\320%\271\300\310\345#$/\331\331\3350\321"
 786      D025B9C0 
 786      C8E52324 
 786      2FD9D9DD 
 786      30D1
 787 16d0 4EA03967 		.ascii	"N\2409g;c\022\356t\2663\212\320\331\277\244\224\374"
ARM GAS  /tmp/cccBwPxo.s 			page 64


 787      3B6312EE 
 787      74B6338A 
 787      D0D9BFA4 
 787      94FC
 788 16e2 94CF05AC 		.ascii	"\224\317\005\254\033%\202\365\223\011\326M-\2425n\011"
 788      1B2582F5 
 788      9309D64D 
 788      2DA2356E 
 788      09
 789 16f3 BBA12FB7 		.ascii	"\273\241/\267C\333\320\256\306\255\271\035J\207\276"
 789      43DBD0AE 
 789      C6ADB91D 
 789      4A87BE
 790 1702 B21D7A55 		.ascii	"\262\035zU\254\2679\333!\266j\2274?\253\230\371\273"
 790      ACB739DB 
 790      21B66A97 
 790      343FAB98 
 790      F9BB
 791 1714 64096A6B 		.ascii	"d\011jk\342\314\263{,\375\017\363\357\006\202\330\331"
 791      E2CCB37B 
 791      2CFD0FF3 
 791      EF0682D8 
 791      D9
 792 1725 ECA8D4A0 		.ascii	"\354\250\324\240\013F?\300t\251\240\230\251\331\271"
 792      0B463FC0 
 792      74A9A098 
 792      A9D9B9
 793 1734 EC66DFDC 		.ascii	"\354f\337\334m\354\233\267x\337L\2654;, \255H\214\324"
 793      6DEC9BB7 
 793      78DF4CB5 
 793      343B2C20 
 793      AD488CD4 
 794 1748 743AD025 		.ascii	"t:\320%\247nN\200tg\263Cs\234!\351f\263\243\370\234"
 794      A76E4E80 
 794      7467B343 
 794      739C21E9 
 794      66B3A3F8 
 795 175d CDCE1EA0 		.ascii	"\315\316\036\240\350\264\341fg\027\274*\233\235\276"
 795      E8B4E166 
 795      6717BC2A 
 795      9B9DBE
 796 176c 22311077 		.ascii	"\"1\020w\317vT\202\215f\20793\236#v\267K\214\335\035"
 796      CF765482 
 796      8D668739 
 796      339E2376 
 796      B74B8CDD 
 797 1781 337677E5 		.ascii	"3vw\345\335|\376\244?\214\270\354\005\005!\367O<\265"
 797      DD7CFEA4 
 797      3F8CB8EC 
 797      050521F7 
 797      4F3CB5
 798 1794 0F48395D 		.ascii	"\017H9]*\022\252}2T\355\315Pq\000\016\252U\300$Y\316"
 798      2A12AA7D 
 798      3254EDCD 
 798      5071000E 
 798      AA55C024 
 799 17aa 5AEAD0F7 		.ascii	"Z\352\320\367[\372'\226|\000h\322\354\213H0\023\036"
ARM GAS  /tmp/cccBwPxo.s 			page 65


 799      5BFA2796 
 799      7C0068D2 
 799      EC8B4830 
 799      131E
 800 17bc 70F64F4C 		.ascii	"p\366OLG/\364\017\272\322\261\252C\316\376\211\3512"
 800      472FF40F 
 800      BAD2B1AA 
 800      43CEFE89 
 800      E932
 801 17ce 8BF7     		.ascii	"\213\367"
 802 17d0 4F078DF0 		.ascii	"O\007\215\360\376l\351\237\334\345\301~\203\360\027"
 802      FE6CE99F 
 802      DCE5C17E 
 802      83F017
 803 17df CE834C67 		.ascii	"\316\203Lg\377\304\242\263\201\2341\373'\023\203l\243"
 803      FFC4A2B3 
 803      819C31FB 
 803      2713836C 
 803      A3
 804 17f0 7F525466 		.ascii	"\177RTf\377\264\277\204p\301=-\242\235 ?\337\345\326"
 804      FFB4BF84 
 804      70C13D2D 
 804      A29D203F 
 804      DFE5D6
 805 1803 2A0B08CC 		.ascii	"*\013\010\314v\334Ze\303\273\334Z\035\344@\264\343\326"
 805      76DC5A65 
 805      C3BBDC5A 
 805      1DE440B4 
 805      E3D6
 806 1815 EA10D271 		.ascii	"\352\020\322qk\365\256L\216\016.=\222L\272+\313\274"
 806      6BF5AE4C 
 806      8E0E2E3D 
 806      924CBA2B 
 806      CBBC
 807 1827 DC3FF329 		.ascii	"\334?\363)\351\306\363\276\373\233@\224E,\371\346]\340"
 807      E9C6F3BE 
 807      FB9B4094 
 807      452CF9E6 
 807      5DE0
 808 1839 039927F1 		.ascii	"\003\231'\361\207*=\337S\237+\313\344\003\367\207\346"
 808      872A3DDF 
 808      539F2BCB 
 808      E403F787 
 808      E6
 809 184a 539F0246 		.ascii	"S\237\002F\267,'NG\327\017\177\032\010\347g/\345\205"
 809      B72C274E 
 809      47D70F7F 
 809      1A08E767 
 809      2FE585
 810 185d F351B5BF 		.ascii	"\363Q\265\277\345\211\217\257L\327s\363\253\312Vd2\230"
 810      E5898FAF 
 810      4CD773F3 
 810      ABCA5664 
 810      3298
 811 186f 73EAB9EB 		.ascii	"s\352\271\353\024 \016\316_\365\235_\014H\272)\226n"
 811      14200ECE 
 811      5FF59D5F 
ARM GAS  /tmp/cccBwPxo.s 			page 66


 811      0C48BA29 
 811      966E
 812 1881 278D84C5 		.ascii	"'\215\204\305\250<\237\346P=Q,RU\345y\327\257$bA>\260"
 812      A83C9FE6 
 812      503D512C 
 812      5255E579 
 812      D7AF2462 
 813 1898 7CD12033 		.ascii	"|\321 3\243\\\362\346\343\202\365\243\022\337\232\374"
 813      A35CF2E6 
 813      E382F5A3 
 813      12DF9AFC 
 814 18a8 6A62FD9B 		.ascii	"jb\375\233\026Q\003\363\300'\214{\357\346\267\236\001"
 814      165103F3 
 814      C0278C7B 
 814      EFE6B79E 
 814      01
 815 18b9 254AFB5B 		.ascii	"%J\373[\033\265\277\256\353q\211q-4u=\321\":\220\256"
 815      1BB5BFAE 
 815      EB718971 
 815      2D34753D 
 815      D1223A90 
 816 18ce 7AE88ABF 		.ascii	"z\350\212\277\253\370\033\326|\375\035m\242^\337/\254"
 816      ABF81BD6 
 816      7CFD1D6D 
 816      A25EDF2F 
 816      AC
 817 18df C8DB16CB 		.ascii	"\310\333\026\313\247y\177h\021\315\377\374\361\003<"
 817      A7797F68 
 817      11CDFFFC 
 817      F1033C
 818 18ee D522DA97 		.ascii	"\325\"\332\227p\371\031Z\302\032\310\224\362\364\256"
 818      70F9195A 
 818      C21AC894 
 818      F2F4AE
 819 18fd A546F22F 		.ascii	"\245F\362/y@\007a\267\3505XPs\304#\250=\015\035\004"
 819      79400761 
 819      B7E83558 
 819      5073C423 
 819      A83D0D1D 
 820 1912 4DD7C385 		.ascii	"M\327\303\205\323\300\241\207\325\240\247\021\004V}"
 820      D3C0A187 
 820      D5A0A711 
 820      04567D
 821 1921 A208238A 		.ascii	"\242\010#\212\260\0164\324\243\034{M\024\312\017O\227"
 821      B00E34D4 
 821      A31C7B4D 
 821      14CA0F4F 
 821      97
 822 1932 2F0F3602 		.ascii	"/\0176\002j|x\332\311\314?\216r5Y\250\317\347\252\217"
 822      6A7C78DA 
 822      C9CC3F8E 
 822      723559A8 
 822      CFE7AA8F 
 823 1946 00EA39EF 		.ascii	"\000\3529\357\024\252Q\320;&$\347S\344_KN>F\217\242"
 823      14AA51D0 
 823      3B2624E7 
 823      53E45F4B 
ARM GAS  /tmp/cccBwPxo.s 			page 67


 823      4E3E468F 
 824 195b 5F1797B8 		.ascii	"_\027\227\270D\237\216\336\347P\3117\025H\214k\362L"
 824      449F8EDE 
 824      E750C937 
 824      15488C6B 
 824      F24C
 825 196d 9555F20D 		.ascii	"\225U\362\015We!2\243\036\031\312B\314\224\012A\021"
 825      57652132 
 825      A31E19CA 
 825      42CC940A 
 825      4111
 826 197f 9D04F1BD 		.ascii	"\235\004\361\275\236\260\223\025\275I>\260m'\017\253"
 826      9EB09315 
 826      BD493EB0 
 826      6D270FAB 
 827 198f BB980696 		.ascii	"\273\230\006\226\247\276\235E\033\371m\201\361)Ey\365"
 827      A7BE9D45 
 827      1BF96D81 
 827      F1294579 
 827      F5
 828 19a0 31195DEC 		.ascii	"1\031]\354\"l\352\373\264D\365\335\3124Z .\357Qx\225"
 828      226CEAFB 
 828      B444F5DD 
 828      CA345A20 
 828      2EEF5178 
 829 19b5 4D03978F 		.ascii	"M\003\227\217c\247[K\251\363=\211\277Z\306\221:V\323"
 829      63A75B4B 
 829      A9F33D89 
 829      BF5AC691 
 829      3A56D3
 830 19c8 DB10C502 		.ascii	"\333\020\305\002\334\177F:N\247\317H\247\203\371\035"
 830      DC7F463A 
 830      4EA7CF48 
 830      A783F91D 
 831 19d8 694E6225 		.ascii	"iNb%){\206\373\357Hg\250\222{\"Q\3711\023h-\272\274"
 831      297B86FB 
 831      EF4867A8 
 831      927B2251 
 831      F9311368 
 832 19ef 44E1753B 		.ascii	"D\341u;S\"\372\026\301\202\200uA\263\336DU\376\235\005"
 832      5322FA16 
 832      C1828075 
 832      41B3DE44 
 832      55FE9D05 
 833 1a03 B9D1A570 		.ascii	"\271\321\245p\367e\254\237o\021\357\233\311\333\352"
 833      F765AC9F 
 833      6F11EF9B 
 833      C9DBEA
 834 1a12 D36F678D 		.ascii	"\323og\215\270\272$\357iV\000\335\020l\"\017!\362\220"
 834      B8BA24EF 
 834      695600DD 
 834      106C220F 
 834      21F290
 835 1a25 2E28A03B 		.ascii	".(\240;\232C3\265hf\006t\211\331CM\313\333b\277\335"
 835      9A4333B5 
 835      68660674 
 835      89D9434D 
ARM GAS  /tmp/cccBwPxo.s 			page 68


 835      CBDB62BF 
 836 1a3a F2B5716D 		.ascii	"\362\265qm\341\014^uy\314\306T\260T\252\000\301\037"
 836      E10C5E75 
 836      79CCC654 
 836      B054AA00 
 836      C11F
 837 1a4c D7AEF1FC 		.ascii	"\327\256\361\374sT\3063*\345\235\037\327nP\240\314B"
 837      7354C633 
 837      2AE59D1F 
 837      D76E50A0 
 837      CC42
 838 1a5e 676B1707 		.ascii	"gk\027\007e\226\002%gCiI7\033\351\252\273\320\261I\263"
 838      65960225 
 838      67436949 
 838      371BE9AA 
 838      BBD0B149 
 839 1a73 8D7D4811 		.ascii	"\215}H\021\231\351\024\340\320\273\274\205*\003z\341"
 839      99E914E0 
 839      D0BBBC85 
 839      2A037AE1 
 840 1a83 490587FE 		.ascii	"I\005\207\376\026\235T\240\223\352\016\275\033\235\314"
 840      169D54A0 
 840      93EA0EBD 
 840      1B9DCC
 841 1a92 865EB894 		.ascii	"\206^\270\224j;\364\356t6\013z\025^n\206{M/\221\343"
 841      6A3BF4EE 
 841      74360B7A 
 841      155E6E86 
 841      7B4D2F91 
 842 1aa7 837B4D57 		.ascii	"\203{MW\312[\244n\217\"\336&\224\337\300\223\016(\202"
 842      CA5BA46E 
 842      8F22DE26 
 842      94DFC093 
 842      0E2882
 843 1aba 4E62E00D 		.ascii	"Nb\340\015D\270\000:\222\224\267\023\256\324DD\351\372"
 843      44B8003A 
 843      9294B713 
 843      AED44444 
 843      E9FA
 844 1acc EB24E76D 		.ascii	"\353$\347m\224\203\240\276A\261\352&\016\030\237lm\032"
 844      9483A0BE 
 844      41B1EA26 
 844      0E189F6C 
 844      6D1A
 845 1ade 2E6D8C47 		.ascii	".m\214GG\002\213\347a\274\312\303\316\222j\216\373<"
 845      47028BE7 
 845      61BCCAC3 
 845      CE926A8E 
 845      FB3C
 846 1af0 0C547938 		.ascii	"\014Ty8\341\277\347a\024#>\307\231\207k7\005I\331\363"
 846      E1BFE761 
 846      14233EC7 
 846      99876B37 
 846      0549D9F3 
 847 1b04 D082D0E2 		.ascii	"\320\202\320\342\220\317\223\351\325]L\251k\211\177"
 847      90CF93E9 
 847      D55D4CA9 
ARM GAS  /tmp/cccBwPxo.s 			page 69


 847      6B897F
 848 1b13 A825FE35 		.ascii	"\250%\3765,\361\257h\211\177\240T0m\323 \251 \016\025"
 848      2CF1AF68 
 848      897FA054 
 848      306DD320 
 848      A9200E15 
 849 1b27 542C9EBF 		.ascii	"T,\236\277q`}\013\030\347\214U\240Co\337U\020\006\335"
 849      71607D0B 
 849      18E78C55 
 849      A0436FDF 
 849      551006DD 
 850 1b3b 92AF9FC1 		.ascii	"\222\257\237\301$\256\350\320;\320D\034tK\270\236\211"
 850      24AEE8D0 
 850      3BD0441C 
 850      744BB89E 
 850      89
 851 1b4c 13351C7A 		.ascii	"\0235\034zG\232\250\321\015\311Q\324\353t2\017\272\235"
 851      479AA8D1 
 851      0DC951D4 
 851      EB74320F 
 851      BA9D
 852 1b5e B95E1F4D 		.ascii	"\271^\037M~G\305j$\022t\307\337\326hvw\362\245\007\301"
 852      7E47C56A 
 852      241274C7 
 852      DFD66876 
 852      77F2A507 
 853 1b73 4FB9F96C 		.ascii	"O\271\371lM\011\037~O,\222\233\323\266(\240\346\243"
 853      4D091F7E 
 853      4F2C929B 
 853      D3B628A0 
 853      E6A3
 854 1b85 1F758A03 		.ascii	"\037u\212\0035_\345\246c\213\362w\001\322\325t\361\227"
 854      355FE5A6 
 854      638BF277 
 854      01D2D574 
 854      F197
 855 1b97 E15A2001 		.ascii	"\341Z \001\355\351\012h\035\013\2405e\351\315W\305\247"
 855      EDE90A68 
 855      1D0BA035 
 855      65E9CD57 
 855      C5A7
 856 1ba9 A6890826 		.ascii	"\246\211\010&\324\310w\004\211\350\261\352\026fi\035"
 856      D4C87704 
 856      89E8B1EA 
 856      1666691D 
 857 1bb9 87DE9ACE 		.ascii	"\207\336\232\316\347C\217\204[\3651KA\234\025\232\020"
 857      E7438F84 
 857      5BF5314B 
 857      419C159A 
 857      10
 858 1bca DDC2878F 		.ascii	"\335\302\207\217\030\023> \274\317\350A\243F\207\217"
 858      18133E20 
 858      BCCFE841 
 858      A346878F 
 859 1bda 183E68CC 		.ascii	"\030>h\314W\341\257\015\032\375\311\230\221\237\206"
 859      57E1AF0D 
 859      1AFDC998 
ARM GAS  /tmp/cccBwPxo.s 			page 70


 859      919F86
 860 1be9 771C32F4 		.ascii	"w\0342\364\303\241\335{\205\017\0309|\370\330\021C\307"
 860      C3A1DD7B 
 860      850F1839 
 860      7CF8D811 
 860      43C7
 861 1bfb FC3B7CE4 		.ascii	"\374;|\344\350\360!\375\207\205\217\0365 |\354\350\017"
 861      E8F021FD 
 861      87858F1E 
 861      35207CEC 
 861      E80F
 862 1c0d 87D0493F 		.ascii	"\207\320I?:\3507p\320\207c?j<@\350\203\207\217\321\372"
 862      3AE83770 
 862      D087633F 
 862      6A3C40E8 
 862      83878FD1 
 863 1c22 7FEA3566 		.ascii	"\177\3525f\370\247\037\216\035\014\303<F\017\375h\204"
 863      F8A71F8E 
 863      1D0CC33C 
 863      460FFD68 
 863      84
 864 1c33 7DD8A0C1 		.ascii	"}\330\240\301c\372\365\037\206\207\336CG\367\0336r\304"
 864      63FAF51F 
 864      8687DE43 
 864      47F71B36 
 864      72C4
 865 1c45 4730C2F3 		.ascii	"G0\302\363\213\241\003\307\014\361\371t\324\240\001"
 865      8BA103C7 
 865      0CF1F974 
 865      D4A001
 866 1c54 43470F1D 		.ascii	"CG\017\0359\002\206z\015\036:l\330\240Q0\000F\303\247"
 866      3902867A 
 866      0D1E3A6C 
 866      D8A05130 
 866      0046C3A7 
 867 1c68 F09977BD 		.ascii	"\360\231w\275\021c\207\015\013\023\372\210\261\303="
 867      1163870D 
 867      0B13FA88 
 867      B1C33D
 868 1c77 47F51F38 		.ascii	"G\365\0378\364K\357\201C?\037:z\344(m\330\260\377\007"
 868      F44BEF81 
 868      433F1F3A 
 868      7AE4286D 
 868      D8B0FF07 
 869 1c8b D29D2CBD 		.ascii	"\322\235,\275"
 870              		.text
 871              		.section	.gnu.lto_usbDbgPrintf.1750ee06c3e56d92,"",%progbits
 872 0000 789C8D56 		.ascii	"x\234\215VkLTG\024\236sg\357\335e\201\245Z^E\2644\251"
 872      6B4C5447 
 872      149E7367 
 872      EFDD6581 
 872      A55A5E45 
 873 0017 B19AA6B7 		.ascii	"\261\232\246\267I\375a\177\267\177\333\246iL\332\037"
 873      49FD617F 
 873      B77FDBA6 
 873      694CDA1F 
 874 0027 8D51A495 		.ascii	"\215Q\244\225\264\250e\361G\373\207\013,\217j#j+\270"
ARM GAS  /tmp/cccBwPxo.s 			page 71


 874      B4A865F1 
 874      47FB870B 
 874      2C8F6A23 
 874      6A2BB8
 875 003a 46BC4BD1 		.ascii	"F\274K\321\342\263\370XTV\253[\020\025\004|\025\212"
 875      E2B3F858 
 875      5456AB5B 
 875      1015047C 
 875      158A
 876 004c 55C1FAC0 		.ascii	"U\301\372\300]\025Q\353\243F\221\2363s\345\321,\217"
 876      5D1551EB 
 876      A346919E 
 876      3373E5D1 
 876      2C8F
 877 005e 9BDCD93B 		.ascii	"\233\334\331;{^\337|\347\314\231Q\231\302z\235\214e"
 877      7B5EDF7C 
 877      E7CC9951 
 877      99C27A9D 
 877      8C65
 878 0070 30C63EC0 		.ascii	"0\306>\300\027\354\014\224Um\214\3459\024\205\007\246"
 878      17EC0C94 
 878      556D8CE5 
 878      39148507 
 878      A6
 879 0081 31C3A975 		.ascii	"1\303\251u\350\314\210\341\212\255d\006\316T\032cl\240"
 879      E8CC88E1 
 879      8AAD6406 
 879      CE541A63 
 879      6CA0
 880 0093 4A251534 		.ascii	"J%\0254\371\241\001\320\207\341\000\226\253p\233\252"
 880      F9A101D0 
 880      87E10096 
 880      AB709BAA 
 881 00a3 412E94F2 		.ascii	"A.\224\362r\016\365\305=u\312\314j\003\237`\371\277"
 881      720EF5C5 
 881      3D75CACC 
 881      6A039F60 
 881      F9BF
 882 00b5 49454661 		.ascii	"IEFa\262\311\031\363\342K\017T\303L\324:\343\331\265"
 882      B2C919F3 
 882      E24B0F54 
 882      C34CD43A 
 882      E3D9B5
 883 00c8 81AFE426 		.ascii	"\201\257\344&\007\260\341\364^\353\372\253.\232*\220"
 883      07B0E1F4 
 883      5EEBFAAB 
 883      2E9A2A90 
 884 00d8 86D3F3A7 		.ascii	"\206\323\363\247\236\356p\361\217\201\341\367\203k\317"
 884      9EEE70F1 
 884      8F81E1F7 
 884      836BCF
 885 00e7 7E8E9AB1 		.ascii	"~\216\232\261\3310\362\215\340\263\037\271\361\272\311"
 885      D930F28D 
 885      E0B31FB9 
 885      F1BAC9
 886 00f6 396C038E 		.ascii	"9l\003\216\016a+\244\302\026He\370\027\203\3550\203"
 886      0E612BA4 
ARM GAS  /tmp/cccBwPxo.s 			page 72


 886      C2164865 
 886      F81783ED 
 886      3083
 887 0108 F4F7549E 		.ascii	"\364\367T\236\334\026\303\347\012[O\217\021rN\257\022"
 887      DC16C3E7 
 887      0A5B4F8F 
 887      11724EAF 
 887      12
 888 0119 583A4231 		.ascii	"X:B1^#\350I3\271\015v\2144\247\007\265+WU\224*\3743"
 888      5E23E849 
 888      33B90D76 
 888      8C34A707 
 888      B52B5755 
 889 0131 6179634B 		.ascii	"aycK\337\200\215,1j[h\362\232\002\343\204a3\271\012"
 889      DF808D2C 
 889      316A5B68 
 889      F29A02E3 
 889      846133B9 
 890 0146 BF4634ED 		.ascii	"\277F4\355,\277t\326\316?\027\246\033\033\036\365\307"
 890      2CBF74D6 
 890      CE3F17A6 
 890      1B1B1EF5 
 890      C7
 891 0157 59A6C742 		.ascii	"Y\246\307B\211\253-S\015vE4m\017l_\253\360\371\302\264"
 891      89AB2D53 
 891      0D764534 
 891      6D0F6C5F 
 891      ABF0F9C2 
 892 016c B2687563 		.ascii	"\262huc,\232\006\021\357\243\356\370\027\246v\330\023"
 892      2C9A0611 
 892      EFA3EEF8 
 892      17A676D8 
 892      13
 893 017d D1F4CAEE 		.ascii	"\321\364\312\356\347kc5\033\354\205\351\260\033\337"
 893      E76B6335 
 893      1BEC85E9 
 893      B01BDF
 894 018c 1A7C77C2 		.ascii	"\032|w\302t\3115\370A\003\306\370\240\024%5g!\230\377"
 894      74C935F8 
 894      4103C6F8 
 894      A0142535 
 894      672198FF 
 895 01a0 7CA0D808 		.ascii	"|\240\330\010\336\231W\371p\366T\225\221DC\376\034v"
 895      DE9957F9 
 895      70F65495 
 895      914443FE 
 895      1C76
 896 01b2 1A1C8CB4 		.ascii	"\032\034\214\264\242\201\270\214\245?\\4\304\343\020"
 896      A281B88C 
 896      A53F5C34 
 896      C4E310
 897 01c1 95404322 		.ascii	"\225@C\"\015I4$\323\300\330r\214De\260\202+\364\313"
 897      0D493424 
 897      D3C0D872 
 897      8C4465B0 
 897      822BF4CB 
 898 01d5 6F41A16F 		.ascii	"oA\241o\240F\241\330\004\260\256\356\366\005{n\277\341"
ARM GAS  /tmp/cccBwPxo.s 			page 73


 898      A046A1D8 
 898      04B0AEEE 
 898      F6057B6E 
 898      BFE1
 899 01e7 30B9D3CB 		.ascii	"0\271\323\313\021\015\324B.\011\016\034\352X\015(\300"
 899      110DD442 
 899      2E090E1C 
 899      EA580D28 
 899      C0
 900 01f8 0713122D 		.ascii	"\007\023\022-0\222\015\354\3032\232\225j\362\030v\013"
 900      30920DEC 
 900      C3329A95 
 900      6AF21876 
 900      0B
 901 0209 0A7C55FE 		.ascii	"\012|U\376)\364w\005WG:\213\365b<\006\373\321\231\311"
 901      29F47705 
 901      57473A8B 
 901      F5623C06 
 901      FBD199C9 
 902 021d 5DEC3AE4 		.ascii	"]\354:\344\247\211\345\342bP\227\346\276j\377L\361\027"
 902      A789E5E2 
 902      625097E6 
 902      BE6AFF4C 
 902      F117
 903 022f 7282B665 		.ascii	"r\202\266e\205\365\247\354T_q\360?\\qU\\\222y\263\245"
 903      85F5A7EC 
 903      545F71F0 
 903      3F5C7155 
 903      5C9279B3 
 904 0244 FDA8D384 		.ascii	"\375\250\323\204\0120\371KP\2070\016\020\321(Xy`\327"
 904      0A30F94B 
 904      5087300E 
 904      10D12858 
 904      7960D7
 905 0257 F70E7D27 		.ascii	"\367\016}'a\365]QL>\011\002`\302:n%a\305\351\303\245"
 905      61F55D51 
 905      4C3E0902 
 905      60C23A6E 
 905      2561C5E9 
 906 026d 2EF45582 		.ascii	".\364U\202\342\303@%r\020t\004w\010\301\205\241>\020"
 906      E2C34025 
 906      72107404 
 906      7708C185 
 906      A13E10
 907 0280 5EDE9B22 		.ascii	"^\336\233\"\027\241\241v\315\235U-\032\001Q\241\244"
 907      17A1A176 
 907      CD9D552D 
 907      1A0151A1 
 907      A4
 908 0291 15468152 		.ascii	"\025F\201R}wc\273\206P\362$=\223\3400\302\371\315\202"
 908      7D7763BB 
 908      8650F224 
 908      3D93E030 
 908      C2F9CD82 
 909 02a5 D3D8B7A9 		.ascii	"\323\330\267\251\205\340x\362H6\031\216\0100@\031\017"
 909      85E078F2 
 909      4836198E 
ARM GAS  /tmp/cccBwPxo.s 			page 74


 909      08304019 
 909      0F
 910 02b6 62E03014 		.ascii	"b\3400\024\254+\012G\313\210v\324o\030\270lFSD\007l"
 910      AC2B0A47 
 910      CB8876D4 
 910      6F18B86C 
 910      46534407 
 911 02cb 6900F81D 		.ascii	"i\000\370\035R\021\011\252\345\337/\316\224Z\016T\034"
 911      521109AA 
 911      E5DF2FCE 
 911      945A0E54 
 911      1C
 912 02dc E2702771 		.ascii	"\342p'q\350`\327\300\323\331\320\025rZ*\350h\375\301"
 912      E860D7C0 
 912      D3D9D015 
 912      725A2AE8 
 912      68FDC1
 913 02ef 07CD2A39 		.ascii	"\007\315*9\262\201\003\352\255*\\\201;/0\215S\262\366"
 913      B28103EA 
 913      AD2A5C81 
 913      3B2F308D 
 913      53B2F6
 914 0302 FA7984BC 		.ascii	"\372y\204\274\277\354E\015\006\015\"U\361\"\253\265"
 914      BFEC450D 
 914      060D2255 
 914      F122ABB5 
 915 0312 B323EBD9 		.ascii	"\263#\353\331P\357\350\240^\241\257.\222^\202\027\023"
 915      50EFE8A0 
 915      5EA1AF2E 
 915      925E8217 
 915      13
 916 0323 CCA011F5 		.ascii	"\314\240\021\365*d\341\230<Q\022]\332\012\022m\354D"
 916      2A64E198 
 916      3C51125D 
 916      DA0A126D 
 916      EC44
 917 0335 793D3606 		.ascii	"y=6\006\257\307\207x=!y-+\362\2522\200K\306\250-n\331"
 917      AFC78778 
 917      3D21792D 
 917      2BF2AA32 
 917      804BC6A8 
 918 034c ED244626 		.ascii	"\355$F&\003@\023\372A\030eQ\2442\001\000\276\024B\320"
 918      034013FA 
 918      41186551 
 918      A4320100 
 918      BE1442D0 
 919 0360 3C068293 		.ascii	"<\006\202\223C\010Z@\257\220\205\356\373\005\254\000"
 919      43085A40 
 919      AF9085EE 
 919      FB05AC00 
 920 0370 C35B544F 		.ascii	"\303[TO\367\213\346\026\261CA\253\330\005\343\226}\333"
 920      F78BE616 
 920      B14341AB 
 920      D805E396 
 920      7DDB
 921 0382 28655FED 		.ascii	"(e_\355\377\224\300\236\032\273\356O\213\272?\203\231"
 921      FF94C09E 
ARM GAS  /tmp/cccBwPxo.s 			page 75


 921      1ABBEE4F 
 921      8BBA3F83 
 921      99
 922 0393 219C47E4 		.ascii	"!\234G\344\006D\315\266\352\315?9\371B\261\363\314\262"
 922      0644CDB6 
 922      EACD3F39 
 922      F942B1F3 
 922      CCB2
 923 03a5 4067D410 		.ascii	"@g\324\020\350r#\230\207\240\223\340\254\004\375N*\274"
 923      E8722398 
 923      87A093E0 
 923      AC04FD4E 
 923      2ABC
 924 03b7 6D413E37 		.ascii	"mA>7r\343&\001\203?\004\305\371\201\255]|\260\373yD"
 924      72E32601 
 924      833F04C5 
 924      F981AD5D 
 924      7CB0FB79 
 925 03cc 733F16D6 		.ascii	"s?\026\326\310\200\326)\032\237\227k\303\032$\203v\254"
 925      C880D629 
 925      1A9F976B 
 925      C31A2483 
 925      76AC
 926 03de 23061D94 		.ascii	"#\006\035\224\273\370qr\003\264\322?\207\245\245\367"
 926      BBF87172 
 926      03B4D23F 
 926      87A5A5F7 
 927 03ee EEFE7336 		.ascii	"\356\376s6\213\210\247+5\354{\320)\210P\244_8/\313c"
 927      8B88A72B 
 927      35EC7BD0 
 927      298850A4 
 927      5F382FCB 
 928 0403 43D1132E 		.ascii	"C\321\023.C$`\024Z\007b\305r\350\030\267\034D\310\277"
 928      43246014 
 928      5A0762C5 
 928      72E818B7 
 928      1C44C8BF 
 929 0417 46099942 		.ascii	"F\011\231B\001/\214\010x\221\252!\201\334\257o\232e"
 929      012F8C08 
 929      7891AA21 
 929      81DCAF6F 
 929      9A65
 930 0429 F91F242A 		.ascii	"\371\037$*J\360\374\370xsI\214t\235Lh.\221g\350B7\203"
 930      4AF0FCF8 
 930      7873498C 
 930      749D4C68 
 930      2E9167E8 
 931 0440 2C86BBAB 		.ascii	",\206\273\2534\2117q\"\370\272#\343K\243\210\227G\300"
 931      34893771 
 931      22F8BA23 
 931      E34BA388 
 931      9747C0
 932 0453 FB5BF091 		.ascii	"\373[\360\221\037hzW\272O\232\210\373+c\270\277*\334"
 932      1F687A57 
 932      BA4F9A88 
 932      FB2B63B8 
 932      BF2ADC
ARM GAS  /tmp/cccBwPxo.s 			page 76


 933 0466 73CBFD35 		.ascii	"s\313\3755t\217\335\351|\303\233\026z\214`\365\"\033"
 933      748FDDE9 
 933      7CC39B16 
 933      7A8C60F5 
 933      221B
 934 0478 AB88E362 		.ascii	"\253\210\343bm\241\252h)M\236H\360\353c\004\357\021"
 934      6DA1AA68 
 934      294D9E48 
 934      F0EB6304 
 934      EF11
 935 048a C1AD1A82 		.ascii	"\301\255\032\202\033rmeMoL4\257\241\261\362\032\036"
 935      1B726D65 
 935      4D6F4C34 
 935      AFA1B1F2 
 935      1A1E
 936 049c 41DC4DCA 		.ascii	"A\334M\312k\262X\211J]\225\266\321U\331UEe\0175\351"
 936      6BB25889 
 936      4A5D95B6 
 936      D155D955 
 936      45650F35 
 937 04b1 7334A31E 		.ascii	"s4\243\036y=R\217|\305\213\015\235\301-y\326\216\273"
 937      793D528F 
 937      7CC58B0D 
 937      9DC12D79 
 937      D68EBB
 938 04c4 EB6F8FB2 		.ascii	"\353o\217\262\353\003\342\260\353\035\276\351\033\177"
 938      EB03E2B0 
 938      EB1DBEE9 
 938      1B7F
 939 04d2 38B3E985 		.ascii	"8\263\351\205\270\007\305)p\007\364u\324\221I\032\356"
 939      B807C529 
 939      7007F475 
 939      D491491A 
 939      EE
 940 04e3 2FAC07AB 		.ascii	"/\254\007\253%\270L>\005\372@\227\307\372]\310\245\303"
 940      25B84C3E 
 940      05FA4097 
 940      C7FA5DC8 
 940      A5C3
 941 04f5 EF76DD93 		.ascii	"\357v\335\223X\252\321T\334\314\367\000\217\371\251"
 941      58AAD154 
 941      DCCCF700 
 941      8FF9A9
 942 0504 62B19A75 		.ascii	"b\261\232uw\360\370\372\374\221\356\016\323\274x 1\270"
 942      77F0F8FA 
 942      FC91EE0E 
 942      D3BC7820 
 942      31B8
 943 0516 2F7ABE6A 		.ascii	"/z\276j\362W\031\351\336\213\264\3644/]K\340\237q\256"
 943      F25719E9 
 943      DE8BB4F4 
 943      342F5D4B 
 943      E09F71AE 
 944 052a 190F20D7 		.ascii	"\031\017 \327\344\257Q\277\276(\332)IP\337{9\270F\235"
 944      E4AF51BF 
 944      BE28DA29 
 944      4950DF7B 
ARM GAS  /tmp/cccBwPxo.s 			page 77


 944      39B8469D 
 945 053e B3CF2841 		.ascii	"\263\317(A^\360b\374\020\346\260^\314\301c\277P\022"
 945      5EF062FC 
 945      10E6B05E 
 945      CCC163BF 
 945      5012
 946 0550 45B61C1B 		.ascii	"E\266\034\0332\242\305\353\307\207z\326\342\034=]\237"
 946      32A2C5EB 
 946      C7877AD6 
 946      E21C3D5D 
 946      9F
 947 0561 EBCEC876 		.ascii	"\353\316\310v\353\213\2632r\276\323\337\317p\177\225"
 947      EB8BB332 
 947      72BED3DF 
 947      CF707F95 
 948 0571 B364A9FE 		.ascii	"\263d\251\376\336\242\314\005\231\037}\242\247/\311"
 948      DEA2CC05 
 948      991F7DA2 
 948      A72FC9
 949 0580 CA5AB638 		.ascii	"\312Z\26683\347[}\211[_4\377k\335\235\235\256/s/XD\223"
 949      33E75B7D 
 949      895B5F34 
 949      FF6BDD9D 
 949      9DAE2F73 
 950 0598 79F4316F 		.ascii	"y\3641oa\306\202e_\276\225\316\370\027Y9<;#\213g~\263"
 950      61C68265 
 950      5FBE95CE 
 950      F8175939 
 950      3C3B238B 
 951 05af 94BB73DC 		.ascii	"\224\273s\334\312\374\245\220\376\037\256\240\264\353"
 951      CAFCA590 
 951      FE1FAEA0 
 951      B4EB
 952              		.text
 953              		.section	.gnu.lto_usbDbgPuts.1750ee06c3e56d92,"",%progbits
 954 0000 789C9D58 		.ascii	"x\234\235XmP\224\327\025\276\347\336ew\331]\226o\241"
 954      6D5094D7 
 954      15BEE7DE 
 954      6577D95D 
 954      966FA1
 955 0013 6635F881 		.ascii	"f5\370\201\010\375\330N;m\247\315\257N\372\243\277\332"
 955      08FDD84E 
 955      3B6DA7CD 
 955      AF4EFAA3 
 955      BFDA
 956 0025 E9A49D76 		.ascii	"\351\244\235v\246?\234Ji%-j\005\247\323\376aA@\224\324"
 956      A63F9C4A 
 956      69252D6A 
 956      05A7D3FE 
 956      61414094 
 957 003a AF242044 		.ascii	"\257$ D\3345hQ\014\256B!\202\211\022P\214\006\211\032"
 957      DC356851 
 957      0CAE4221 
 957      82891250 
 957      8C06891A 
 958 004e 0982F1A3 		.ascii	"\011\202\361\243\250(\037F\264\212\321\004\3509\367"
 958      A8281F46 
ARM GAS  /tmp/cccBwPxo.s 			page 78


 958      B48AD104 
 958      E839F7
 959 005d BECBEE32 		.ascii	"\276\313\3562\273\353\3332\263\227\367\275\367\234\363"
 959      BBEBDB32 
 959      B397F7BD 
 959      F79CF3
 960 006c 3CE7DC73 		.ascii	"<\347\334s\237}\337\215b\234\3754\231\261?0\306\000"
 960      9F7DDF8D 
 960      629CFD34 
 960      99B13F30 
 960      C600
 961 007e F093C880 		.ascii	"\360\223\310\200o\353e\254\310\314\271\361\222\223\271"
 961      6FEB65AC 
 961      C8CCB9F1 
 961      9293B9
 962 008d 2CF1EF2D 		.ascii	",\361\357-d.\233\340\206\362\014\274\213\242\321f\200"
 962      642E9BE0 
 962      86F20CBC 
 962      8BA2D166 
 962      80
 963 009e 286514C5 		.ascii	"(e\024\305\315C\3218\235p\350$\303\371\0040\321\374"
 963      CD43D138 
 963      9D70E824 
 963      C3F90430 
 963      D1FC
 964 00b0 8F8DEA3F 		.ascii	"\217\215\352?\230\270\350=\213\013\026s\247\300e3\330"
 964      98B8E83D 
 964      8B0B1673 
 964      A7C06533 
 964      D8
 965 00c1 945B34B7 		.ascii	"\224[4\267\310hV\031\315\002V5mU\353\037\230m<F\371"
 965      C8685619 
 965      CD025635 
 965      6D55EB1F 
 965      986D3C46 
 966 00d6 D9A55F0C 		.ascii	"\331\245_\014\217\016\274\265\363X\351\035'\275c!Ny"
 966      8F0EBCB5 
 966      F358E91D 
 966      27BD6321 
 966      4E79
 967 00e8 C741BCBA 		.ascii	"\307A\274\272\210\007\240\013\227\031X!\027\206\250"
 967      8807A00B 
 967      97195821 
 967      1786A8
 968 00f7 04A3C91C 		.ascii	"\004\243\311\034m\261\332b\354\261q\361P(L\014:\014"
 968      6DB1DA62 
 968      ECB171F1 
 968      50284C0C 
 968      3A0C
 969 0109 6062F467 		.ascii	"`b\364g\223\327\223333\352~\253\250\022\320\271q\270"
 969      93D79333 
 969      3333EA7E 
 969      ABA812D0 
 969      B971B8
 970 011c 8D67D6BB 		.ascii	"\215g\326\273\360\257\243\352\374\3742Wi\252[0V-\244"
 970      F0AFA3EA 
 970      FCFC3257 
ARM GAS  /tmp/cccBwPxo.s 			page 79


 970      69AA5B30 
 970      562DA4
 971 012f 09837AC8 		.ascii	"\011\203z\310D\253\013%\207w\211-\302-\000\014x\373"
 971      44AB0B25 
 971      8777892D 
 971      C22D000C 
 971      78FB
 972 0141 E05CCD4D 		.ascii	"\340\\\315M;\335rH\243\030\335oyM\342\027\300\360\272"
 972      3BDD7248 
 972      A318DD6F 
 972      794DE217 
 972      C0F0BA
 973 0154 7DF0D681 		.ascii	"}\360\326\201\350\214}.W\261\253c\374u\341Z\352\026"
 973      E88C7D2E 
 973      57B1AB63 
 973      FC75E15A 
 973      EA16
 974 0166 021A4060 		.ascii	"\002\032@`@8\000\016\330\017\016\206S\014\016B\006\331"
 974      4038000E 
 974      D80F0E86 
 974      530C0E42 
 974      06D9
 975 0178 37EDF9A8 		.ascii	"7\355\371\250\301&^\221\276%\303\256\273\226\364:\311"
 975      C1265E91 
 975      BE25C3AE 
 975      BB96F43A 
 975      C9
 976 0189 A57BCC56 		.ascii	"\245{\314V\355\352(Is\013\003\274\023\354N\177h\275"
 976      EDEA2849 
 976      730B03BC 
 976      13EC4E7F 
 976      68BD
 977 019b 675BED56 		.ascii	"g[\355V.~-=\357\354\277?c OD\235\036M\330\261\301\365"
 977      2E7E2D3D 
 977      EFECBF3F 
 977      63204F44 
 977      9D1E4DD8 
 978 01b2 A1CBE016 		.ascii	"\241\313\340\026Qp(\244\353\345\252\253\027M\342\267"
 978      517028A4 
 978      EBE5AAAB 
 978      174DE2B7 
 979 01c2 D27577D7 		.ascii	"\322uw\327\344T\254\346:9:o\273\346j\204\303!]\273J"
 979      E454ACE6 
 979      3A393A6F 
 979      BBE66A84 
 979      C3215DBB 
 980 01d7 4B7F2956 		.ascii	"K\177)VH\317\317\372\256\327p\315s\350U\215\255\011"
 980      48CFCFFA 
 980      AED770CD 
 980      73E8558D 
 980      AD09
 981 01e9 9A42FAF5 		.ascii	"\232B\372\365tl\362ZD\266t\234\27682\021\2459\016\372"
 981      746CF25A 
 981      44B6749C 
 981      BE383211 
 981      A5390EFA 
 982 01fd 1DFF15D2 		.ascii	"\035\377\025\322q\350\310\364\2331F\003\264@:4\343\347"
ARM GAS  /tmp/cccBwPxo.s 			page 80


 982      71E8C8F4 
 982      9B314603 
 982      B4403A34 
 982      E3E7
 983 020f 087EBCF8 		.ascii	"\010~\274\370i\204t\265K\320\012Flg!-\216\250\025\357"
 983      698474B5 
 983      4BD00A46 
 983      6C67212D 
 983      8EA815EF 
 984 0223 45E8704D 		.ascii	"E\350pM\317ltu\364\276\272\347\366\367\177\000\262\336"
 984      CF6C7475 
 984      F4BEBAE7 
 984      F6F77F00 
 984      B2DE
 985 0235 9C910D42 		.ascii	"\234\221\015B\240\205\225\221\255\015\367\302\034C\203"
 985      A0859591 
 985      AD0DF7C2 
 985      1C4383
 986 0244 5DCEC6E2 		.ascii	"]\316\306\342et\2344\213\227\023\011@\216\2118mI\222"
 986      65749C34 
 986      8B971309 
 986      408E8938 
 986      6D4992
 987 0257 D3C9727A 		.ascii	"\323\311rz\236\214\227B\216\2514\320\236\232\026\320"
 987      9E8C9742 
 987      8EA934D0 
 987      9E9A16D0 
 988 0267 B0908617 		.ascii	"\260\220\206\027iH\243a\021\015\213iXB\303R\032\322"
 988      6948A361 
 988      110D8B69 
 988      5842C352 
 988      1AD2
 989 0279 69584643 		.ascii	"iXFC\006\015\313i\310\244!\213\006\3066cVo[Y\205\340"
 989      060DCB69 
 989      C8A4218B 
 989      06C63663 
 989      566F5B59 
 990 028f F84F8CC1 		.ascii	"\370O\214\301\006\317\301\026NYR9\332\332\306\257\230"
 990      06CFC116 
 990      4E595239 
 990      DADAC6AF 
 990      98
 991 02a0 0AA75C66 		.ascii	"\012\247\\f\267\260V\013:\306\357B!\372\331\330m(\366"
 991      B7B0560B 
 991      3AC6EF42 
 991      21FAD9D8 
 991      6D28F6
 992 02b3 785B5E90 		.ascii	"x[^\220\345@\242h[Y\332\371\261\211\3324\006\346\270"
 992      E540A268 
 992      5B59DAF9 
 992      B189DA34 
 992      06E6B8
 993 02c6 C6D40955 		.ascii	"\306\324\011U\335\321\236\276\223\0267\324\202[\330"
 993      DDD19EBE 
 993      931637D4 
 993      825BD8
 994 02d5 A10D0AE1 		.ascii	"\241\015\012\341(U\036\027<\317\236\366\331\320\270"
ARM GAS  /tmp/cccBwPxo.s 			page 81


 994      28551E17 
 994      3CCF9EF6 
 994      D9D0B8
 995 02e4 DCE5F28C 		.ascii	"\334\345\362\214\002\205h\0077\301\035C8\202j\326\240"
 995      02856807 
 995      37C11D43 
 995      38826AD6 
 995      A0
 996 02f5 9A2554CD 		.ascii	"\232%T\315\261Gg\243\010*\026\314\001P\344\355m\371"
 996      B14767A3 
 996      082A16CC 
 996      0150E4ED 
 996      6DF9
 997 0307 5100E08D 		.ascii	"Q\000\340\215\321\355&\037\336\373\210\367\236\206w"
 997      D1ED261F 
 997      DEFB88F7 
 997      9E8677
 998 0316 DCD330E9 		.ascii	"\334\3230\351\363\300\320\004x\034\001e\332p\0021\251"
 998      F3C0D004 
 998      781C0165 
 998      DA700231 
 998      A9
 999 0327 0E6DDFA3 		.ascii	"\016m\337\243\373Za\015\316&\256\032K\205\207[\026\""
 999      FB5A610D 
 999      CE26AE1A 
 999      4B85875B 
 999      1622
 1000 0339 9ED8A549 		.ascii	"\236\330\245Ij\270\301h+\331\236h\311\224S\336\340\302"
 1000      6AB8C168 
 1000      2BD99E68 
 1000      C99453DE 
 1000      E0C2
 1001 034b 24CC2D4C 		.ascii	"$\314-LB\035\3254\2700\211\320\211D?\320\210n9zx\223"
 1001      421DD534 
 1001      B83089D0 
 1001      89443FD0 
 1001      886E397A 
 1002 0361 D9D94887 		.ascii	"\331\331H\207\3243\304\335\"\011\272\220\347N\241\265"
 1002      D433C4DD 
 1002      2209BA90 
 1002      E74EA1B5 
 1003 0371 6BC5F9E3 		.ascii	"k\305\371\343[\355Z\036\230\000\036\301\223\340Dr\247"
 1003      5BED5A1E 
 1003      98001EC1 
 1003      93E04472 
 1003      A7
 1004 0382 90DC0874 		.ascii	"\220\334\010t\266\217\034\2757_%aCk\357\347\333z\214"
 1004      B68F1CBD 
 1004      375F2561 
 1004      436BEFE7 
 1004      DB7A8C
 1005 0395 44240ACA 		.ascii	"D$\012\312\317A\030*\365\023\273\373\214H\245\010!\323"
 1005      CF41182A 
 1005      F513BBFB 
 1005      8C48A508 
 1005      21D3
 1006 03a7 08F034D2 		.ascii	"\010\3604\322\351\326\350\234\272\277\267\207\350\224"
ARM GAS  /tmp/cccBwPxo.s 			page 82


 1006      E9D6E89C 
 1006      BABFB787 
 1006      E894
 1007 03b5 14D15A32 		.ascii	"\024\321Z2|(\311\000\235\2133\010<\002\033v\226\215"
 1007      7C28C900 
 1007      9D8B3308 
 1007      3C021B76 
 1007      968D
 1008 03c7 5815620C 		.ascii	"X\025b\014\235\337\231\033n+!\232a\177\027\300Yp \023"
 1008      9DDF991B 
 1008      6E2B219A 
 1008      617F17C0 
 1008      59702013 
 1009 03db 342B7EB8 		.ascii	"4+~\2701WY\331\321\320_\303F\252\241\235\335\202\222"
 1009      315759D9 
 1009      D1D05FC3 
 1009      46AAA19D 
 1009      DD8292
 1010 03ee CB5DBD63 		.ascii	"\313]\275c\026\315$p\307\015`\206\217\264\363Z\201\312"
 1010      16CD2470 
 1010      C70D6086 
 1010      8FB4F35A 
 1010      81CA
 1011 0400 F6244360 		.ascii	"\366$C`\270g\233\337\357\217W\326\261\201\0257\311\212"
 1011      B8679BDF 
 1011      EF8F57D6 
 1011      B1811537 
 1011      C98A
 1012 0412 3F397DB6 		.ascii	"?9}\266\334\346Oi^-*i\017\305\200s\324e>\3649\312\326"
 1012      DCE64F69 
 1012      5E2D2A69 
 1012      0FC58073 
 1012      D4653EF4 
 1013 0429 3DEAD3C4 		.ascii	"=\352\323\304\220\302\006\275rs\237\273\233\037\207"
 1013      90C206BD 
 1013      72739FBB 
 1013      9B1F87
 1014 0438 D9CD132D 		.ascii	"\331\315\023-\277\241\352\236\217\274\235\027\344v^"
 1014      BFA1EA9E 
 1014      8FBC9D17 
 1014      E4765E
 1015 0447 D44EC1FD 		.ascii	"\324N\301\375\026\203F\264\267~\337\033\026\221#\323"
 1015      168346B4 
 1015      B77EDF1B 
 1015      169123D3 
 1016 0457 7357B65F 		.ascii	"sW\266_\216\366\223\256ru\024!i\013|\242H\177\327\001"
 1016      8EF693AE 
 1016      72751421 
 1016      690B7CA2 
 1016      487FD701 
 1017 046b DFD6285F 		.ascii	"\337\326(_\242\362\306R\375\333\017\\\023\263rW\"\277"
 1017      A2F2C652 
 1017      FDDB0F5C 
 1017      13B37257 
 1017      22BF
 1018 047d 03AE8D99 		.ascii	"\003\256\215\231\311\200\362\222*W\215\325\365+\"\203"
 1018      C980F292 
ARM GAS  /tmp/cccBwPxo.s 			page 83


 1018      2A578DD5 
 1018      F52B2283 
 1019 048d 3E3C1B0C 		.ascii	"><\033\014>\245\032;\236\323;@\231\365\007\364\315\275"
 1019      3EA51A3B 
 1019      9ED33B40 
 1019      99F507F4 
 1019      CDBD
 1020 049f 89773F31 		.ascii	"\211w?1h\211\177\271\305H\033sY&\316U\\\030P\335\263"
 1020      68897FB9 
 1020      C5481B73 
 1020      5926CE55 
 1020      5C1850DD 
 1021 04b4 ABECA950 		.ascii	"\253\354\251P\020\013\020\205x#\327\312h\232\322\003"
 1021      100B1085 
 1021      7823D7CA 
 1021      689AD203 
 1022 04c4 39180672 		.ascii	"9\030\006r>\001^\011\002\374\014\234\010B\341k\316d"
 1022      3E015E09 
 1022      02FC0C9C 
 1022      0842E16B 
 1022      CE64
 1023 04d6 69F17D7D 		.ascii	"i\361}}\002\262G\034Z\217\\E?_\325F\256\327\031\025"
 1023      02B2471C 
 1023      5A8F5C45 
 1023      3F5FD546 
 1023      AED71915 
 1024 04ea BF857AF8 		.ascii	"\277\205z\370\\\013\315G~\377\\\017\242sC\346_\334~"
 1024      5C0BCD47 
 1024      7EFF5C0F 
 1024      A27343E6 
 1024      5FDC7E
 1025 04fd E6872AFC 		.ascii	"\346\207*\374\213z\302\377;B\370!\031^h\341obx<T\003"
 1025      8B7AC2FF 
 1025      3B42F821 
 1025      195E68E1 
 1025      6F62783C 
 1026 0513 5DDFD0D8 		.ascii	"]\337\320\330#\202v\204\014\354\253D!s\273[gU\253iz"
 1026      23827684 
 1026      0CECAB44 
 1026      2173BB5B 
 1026      6755AB69 
 1027 0528 C06F4500 		.ascii	"\300oE\000\277-\301\265\236\201a\225[\345\231\345z\367"
 1027      BF2DC1B5 
 1027      9E816195 
 1027      5BE599E5 
 1027      7AF7
 1028 053a F14EA47D 		.ascii	"\361N\244}\274\033T\270\021\332\3074\231I\024\211A\300"
 1028      BC1B54B8 
 1028      11DAC734 
 1028      99491489 
 1028      41C0
 1029 054c 31919DEC 		.ascii	"1\221\235\354\327\226Kt'{\354\\\377\002\245\025q\244"
 1029      D7964B74 
 1029      277BEC5C 
 1029      FF02A515 
 1029      71A4
 1030 055e 04D864B3 		.ascii	"\004\330d\2636-t@\342\250T\203/k&\272\277_F#\177\277"
ARM GAS  /tmp/cccBwPxo.s 			page 84


 1030      362D7440 
 1030      E2A85483 
 1030      2F6B26BA 
 1030      BF5F4623 
 1031 0574 8CCD7EBF 		.ascii	"\214\315~\277\214\343i\246\277\315\"\201}\261\030*\204"
 1031      8CE369A6 
 1031      BFCD2281 
 1031      7DB1182A 
 1031      84
 1032 0585 914D1805 		.ascii	"\221M\030\005{\014I\341\261\340\036\024\362\207F\314"
 1032      7B0C49E1 
 1032      B1E01E14 
 1032      F28746CC 
 1033 0595 D2C4EE66 		.ascii	"\322\304\356fb\201\325\323\005\362'\262W\272>\035\373"
 1033      6281D5D3 
 1033      05F227B2 
 1033      57BA3E1D 
 1033      FB
 1034 05a6 8E269690 		.ascii	"\216&\226\220%\017\373c\340\265\"\311\3100\203\204\032"
 1034      250FFB63 
 1034      E0B522C9 
 1034      C8308384 
 1034      1A
 1035 05b7 EF4BE868 		.ascii	"\357K\350h&\024\314\277\262\354v?(\343x%\256{\207\037"
 1035      2614CCBF 
 1035      B2EC763F 
 1035      28E37825 
 1035      AE7B871F 
 1036 05cb DC342971 		.ascii	"\3344)q\375+|\016\2169z\034/\253\033\315<\247\231,o"
 1036      FD2B7C0E 
 1036      8E397A1C 
 1036      2FAB1BCD 
 1036      3CA7992C 
 1037 05e0 5DABE1FF 		.ascii	"]\253\341\377\220\313\373\372\344r\"\262\\>\210,\227"
 1037      90CBFBFA 
 1037      E47222B2 
 1037      5C3E882C 
 1037      97
 1038 05f1 0FA55CFE 		.ascii	"\017\245\\\376G\223K?Q\375\022\371\2102N\014#\221\335"
 1038      47934B3F 
 1038      51FD12F9 
 1038      88324E0C 
 1038      2391DD
 1039 0604 E36632A0 		.ascii	"\343f2\240\\BJ\344c)\221\223T\332Ez\372\374Id\211\374"
 1039      5C424AE4 
 1039      63299193 
 1039      54DA457A 
 1039      FAFC4964 
 1040 061a C2D7E914 		.ascii	"\302\327\351\024\027\236\006H\244\204X\214(~\211\234"
 1040      179E0648 
 1040      A484588C 
 1040      287E899C 
 1041 062a D477B49E 		.ascii	"\324w\264\236E:Z_\006\001~EGk\261O\"'CH\344\"M\"\247"
 1041      453A5A5F 
 1041      06017E45 
 1041      476BB14F 
 1041      22274348 
ARM GAS  /tmp/cccBwPxo.s 			page 85


 1042 0643 A44426FA 		.ascii	"\244D&\372%R\362[\242\207\317t\004\031\231\011\242\343"
 1042      2552F25B 
 1042      A287CF74 
 1042      04199909 
 1042      A2E3
 1043 0655 E2B31229 		.ascii	"\342\263\022)\303/\325\023\276\210\207\017_\3145\211"
 1043      C32FD513 
 1043      BE88870F 
 1043      5FCC3589 
 1044 0665 94E137F0 		.ascii	"\224\3417\360Y\211T\354\021A\223H\013;\277\304/\221"
 1044      598954EC 
 1044      11419348 
 1044      0B3BBFC4 
 1044      2F91
 1045 0677 72355C2F 		.ascii	"r5\\/\007\201\227D\000/\345\232DJ\3602>+\221:\367qc"
 1045      07819744 
 1045      002FE59A 
 1045      444AF032 
 1045      3E2B913A 
 1046 068e E8D86A1F 		.ascii	"\350\330j\037\313y`\3416q\334\307t\231\211u\356!\226"
 1046      CB7960E1 
 1046      3671DCC7 
 1046      74998975 
 1046      EE2196
 1047 06a1 ADEC3FEF 		.ascii	"\255\354?\357\2174\215\254,\253\035\32042\271\026_)"
 1047      8F348DAC 
 1047      2CAB1DD0 
 1047      3432B916 
 1047      5F29
 1048 06b3 BF395713 		.ascii	"\2779W\023\222U+6\016$++l\006\010RR|a\301Y\011jc\370"
 1048      92552B36 
 1048      0E242B2B 
 1048      6C060852 
 1048      527C61C1 
 1049 06cc D22CA464 		.ascii	"\322,\244dI_\301\344\265\264\000%_\323>\371\022\263"
 1049      495FC1E4 
 1049      B5B40025 
 1049      5FD33EF9 
 1049      12B3
 1050 06de F2850D95 		.ascii	"\362\205\015\225`F\371\232g\035l\372\372c\020\250C\346"
 1050      6046F99A 
 1050      671D6CFA 
 1050      FA6310A8 
 1050      43E6
 1051 06f0 41EF4B08 		.ascii	"A\357K\010mmh\022\0306\206\341\253\273z\370\233\352"
 1051      6D6D6812 
 1051      183686E1 
 1051      ABBB7AF8 
 1051      9BEA
 1052 0702 DFA7295A 		.ascii	"\337\247)Zb\340\323\237\010\365\364\227BL7sj\333\012"
 1052      62E0D39F 
 1052      08F5F497 
 1052      424C3773 
 1052      6ADB0A
 1053 0715 2C93C27F 		.ascii	",\223\302\177\024\312=\005\337\343^\343\276GM;\311'"
 1053      14CA3D05 
 1053      DFE35EE3 
ARM GAS  /tmp/cccBwPxo.s 			page 86


 1053      BE474D3B 
 1053      C927
 1054 0727 11FF1F75 		.ascii	"\021\377\037u\357\037\\\227\356m\341\021uo+\217\250"
 1054      EF1F5C97 
 1054      EE6DE111 
 1054      756F2B8F 
 1054      A8
 1055 0738 7BDB38E9 		.ascii	"{\3338\351\336v^\3104\206\372\005o\007\017zG\261`\322"
 1055      DE765EC8 
 1055      3486FA05 
 1055      6F070F7A 
 1055      47B160D2 
 1056 074c AF734718 		.ascii	"\257sG\030\001\034\0367\222\003%\025R\000\337\340$\200"
 1056      011C1E37 
 1056      92032515 
 1056      5200DFE0 
 1056      2480
 1057 075e 6F722CE5 		.ascii	"or,\3452=]\\\031\246\2135\001\254\362\3651\305\205\235"
 1057      323D5D5C 
 1057      19A68B35 
 1057      01ACF2F5 
 1057      31C5859D 
 1058 0772 DC2F8012 		.ascii	"\334/\200\022\002\373g\231_\000qJ\017du\244\203S\023"
 1058      02FB6799 
 1058      5F00714A 
 1058      0F6475A4 
 1058      835313
 1059 0785 04F8161D 		.ascii	"\004\370\026\035\234\014\237\000\252\370\301\002\270"
 1059      9C0C9F00 
 1059      AAF8C102 
 1059      B8
 1060 0792 4C13C05D 		.ascii	"L\023\300]\3507[6\251\200\222\340r=\204j#\250\304\356"
 1060      E8375B36 
 1060      A98092E0 
 1060      723D846A 
 1060      23A8C4EE 
 1061 07a6 203E6EBF 		.ascii	" >n\277\002\312\360\231z\302{\"\204\337\343S@\031\376"
 1061      02CAF099 
 1061      7AC27B22 
 1061      84DFE353 
 1061      4019FE
 1062 07b9 6DBF022A 		.ascii	"m\277\002*\366\210\2405\177,;*\374\012(W\263\364\200"
 1062      F688A035 
 1062      7F2C3B2A 
 1062      FC0A2857 
 1062      B3F480
 1063 07cc D74500DF 		.ascii	"\327E\000\337"
 1064 07d0 EB534009 		.ascii	"\353S@\011\276\317\257\200:7\362\237\2216\262>\250p"
 1064      BECFAF80 
 1064      3A37F29F 
 1064      9136B23E 
 1064      A870
 1065 07e2 FB6923B3 		.ascii	"\373i#\263d&q\352\030\027{\232[\205\024*je\277l\355"
 1065      642671EA 
 1065      18177B9A 
 1065      5B85142A 
 1065      6A65BF6C 
ARM GAS  /tmp/cccBwPxo.s 			page 87


 1066 07f7 E05200F1 		.ascii	"\340R\000\361\375\364\352@\233P\242\220B\222%_m5\225"
 1066      FDF4EA40 
 1066      9B50A290 
 1066      4292255F 
 1066      6D3595
 1067 080a 48552FB2 		.ascii	"HU/\262)\364\212]\211\235\321\372\\\311.\322\210%\301"
 1067      29F48A5D 
 1067      899DD1FA 
 1067      5CC92ED2 
 1067      8825C1
 1068 081d 011EFE6D 		.ascii	"\001\036\376m\272\201\317\276M\037$\306\251l\014J=\307"
 1068      BA81CFBE 
 1068      4D1F24C6 
 1068      A96C0C4A 
 1068      3DC7
 1069 082f 14D1393F 		.ascii	"\024\3219?\035\244Vc\351\030\274\203G^\217\2744\206"
 1069      1DA45663 
 1069      E918BC83 
 1069      475E8FBC 
 1069      3486
 1070 0841 919776F9 		.ascii	"\221\227v\371\233\302\241@u9\365\332\205\275\276\345"
 1070      9BC2A140 
 1070      7539F5DA 
 1070      85BDBEE5 
 1071 0851 615CFE1A 		.ascii	"a\\\376\032x\271s'>]\313\325\221\251\322N\320\264\307"
 1071      78B97327 
 1071      3E5DCBD5 
 1071      91A9D24E 
 1071      D0B4C7
 1072 0864 EE16F3E1 		.ascii	"\356\026\363\3410w\252\307\332#\274\220~c\030o{\032"
 1072      3077AAC7 
 1072      DA23BC90 
 1072      7E63186F 
 1072      7B1A
 1073 0876 4342F202 		.ascii	"CB\362\002\012I\023w\270\205C\326=^\375\272T\342\271"
 1073      0A491377 
 1073      B88543D6 
 1073      3D5EFDBA 
 1073      54E2B9
 1074 0889 D91AEAD7 		.ascii	"\331\032\352\327\245\005\325\004\000\315\230N\255\260"
 1074      A505D504 
 1074      00CD984E 
 1074      ADB0
 1075 0897 BAC54276 		.ascii	"\272\305Bv\017\367\350N\253zdVO\313\200!8c?s\346\255"
 1075      0FF7E84E 
 1075      AB7A6456 
 1075      4FCB8021 
 1075      38633F73 
 1076 08ad 2E70663B 		.ascii	".pf;\177\225\237\263.\337\271:/\247\340\357\316\237"
 1076      7F959FB3 
 1076      2EDFB93A 
 1076      2FA7E0EF 
 1076      CE9F
 1077 08bf E4E4FFA9 		.ascii	"\344\344\377\251`\315Z\347\313\253rW\346\376\374\025"
 1077      60CD5AE7 
 1077      CBAB7257 
 1077      E6FEFC15 
ARM GAS  /tmp/cccBwPxo.s 			page 88


 1078 08cf 67F69ABC 		.ascii	"g\366\232\274\274\365\253s\013\376\346\\\223\357\\\365"
 1078      BCF5AB73 
 1078      0BFEE65C 
 1078      93EF5CF5 
 1079 08df BB3F3BF3 		.ascii	"\273?;\363\327e;\327\347\257\\E7+\350b\305\357sV\256"
 1079      D7653BD7 
 1079      E7AF5C45 
 1079      372BE862 
 1079      C5EF7356 
 1080 08f4 FFE3B7B2 		.ascii	"\377\343\267\262\031\344\213u9y\"\367/kE~A\276\300("
 1080      19E48B75 
 1080      397922F7 
 1080      2F6B457E 
 1080      41BEC028 
 1081 0908 B016B2FF 		.ascii	"\260\026\262\377\013\265\237\021\265"
 1081      0BB59F11 
 1081      B5
 1082              		.text
 1083              		.section	.gnu.lto_usbDbgReset.1750ee06c3e56d92,"",%progbits
 1084 0000 789C8D95 		.ascii	"x\234\215\225]l\024U\024\307\357\177\356\314\356v\330"
 1084      5D6C1455 
 1084      14C7EF7F 
 1084      EECCEE76 
 1084      D8
 1085 0011 0F05AD40 		.ascii	"\017\005\255@7d\211\351\003\211q|\363\311\027\245\341"
 1085      376489E9 
 1085      0389717C 
 1085      F3C917A5 
 1085      E1
 1086 0022 C14454BA 		.ascii	"\301DT\272\017>\021[7\264\321m\015\263}\320\230\354"
 1086      0F3E115B 
 1086      37B4D16D 
 1086      0DB37DD0 
 1086      98EC
 1087 0034 74BB1468 		.ascii	"t\273\024h\021\364\301\266\253\254\263Z\025\277V\226"
 1087      11F4C1B6 
 1087      ABACB35A 
 1087      15BF5696 
 1088 0044 0FB7DD82 		.ascii	"\017\267\335\202u\331\026\313G\371h\225H \360\200X\263"
 1088      75D916CB 
 1088      47F96895 
 1088      4820F080 
 1088      58B3
 1089 0056 D49A6823 		.ascii	"\324\232h#\030\015\324sg\266\265\324\245\351M:{\357"
 1089      180DD473 
 1089      67B6B5D4 
 1089      A5E94D3A 
 1089      7BEF
 1090 0068 3DE7DCF3 		.ascii	"=\347\334\363;\347\334{\2520\211\305\034\214\275\301"
 1090      3BE7DC7B 
 1090      AA3089C5 
 1090      1C8CBDC1 
 1091 0078 18DB407F 		.ascii	"\030\333@\177p0Ho\235e\254\325%A\266'\334\236\034s\311"
 1091      7030486F 
 1091      9D65ACD5 
 1091      2541B627 
 1091      DC9E1C73 
ARM GAS  /tmp/cccBwPxo.s 			page 89


 1092 008d 12DF35C2 		.ascii	"\022\3375\302\230\241*q'3\334\012 \366\015\027XT\342"
 1092      98A12A71 
 1092      2733DC0A 
 1092      20F60D17 
 1092      5854E2
 1093 00a0 B282A824 		.ascii	"\262\202\250$3{\354\341\335\034\205\355\0239i\335>\203"
 1093      337BECE1 
 1093      DD1C85ED 
 1093      133969DD 
 1093      3E83
 1094 00b2 46BE3B5B 		.ascii	"F\276;[\325nl[ir\306\022\334\326\301>\254c\2446\026"
 1094      D56E6C5B 
 1094      6972C612 
 1094      DCD6C13E 
 1094      AC63A436 
 1095 00c7 CFECE5BB 		.ascii	"\317\354\345\273\271\311\001\231\226\277\237y\367'\257"
 1095      B9C90199 
 1095      96BF9F79 
 1095      F727AF
 1096 00d6 584A08D0 		.ascii	"XJ\010\320\362b\367\225q'\177\016B\363\375\241\233\267"
 1096      F262F795 
 1096      71277F0E 
 1096      42F3FDA1 
 1096      9BB7
 1097 00e8 7DD5BD86 		.ascii	"}\325\275\206\0213\3627\247*\337n3N\030\262\3119>\007"
 1097      1133F237 
 1097      A72ADF6E 
 1097      334E18B2 
 1097      C9393E07 
 1098 00fc A753F119 		.ascii	"\247S\361\031\374\370\024~\353tR\037\315\344~\224y\320"
 1098      FCF8147E 
 1098      EB74521F 
 1098      CDE47E94 
 1098      79D0
 1099 010e 32FDEBEA 		.ascii	"2\375\353\352\364\232\222\345\304\224\177\326R\306\227"
 1099      F49A92E5 
 1099      C4947FD6 
 1099      52C697
 1100 011d 652DAF1D 		.ascii	"e-\257\035\270\363\216\307!#\215j|\201j\033\031_\301"
 1100      B8F38EC7 
 1100      21238D6A 
 1100      7C816A1B 
 1100      195FC1
 1101 0130 01C6A4D9 		.ascii	"\001\306\244\331\335\375\343\310\033wf\266\033\371\253"
 1101      DDFDE3C8 
 1101      1B7766B6 
 1101      1BF9AB
 1102 013f E1FEC3B7 		.ascii	"\341\376\303\267*\227\203\011\221\302\204\320\305L\256"
 1102      2A978309 
 1102      91C284D0 
 1102      C54CAE
 1103 014e 54D0C7A1 		.ascii	"T\320\307\241\212\217\333\022yi\352\364\211\017c\035"
 1103      8A8FDB12 
 1103      7969EAF4 
 1103      890F631D 
 1104 015e 742465B1 		.ascii	"t$e\261\223K\364\303\177F,5\235]c\271 EB\370\370\267"
 1104      934BF4C3 
ARM GAS  /tmp/cccBwPxo.s 			page 90


 1104      7F462C35 
 1104      9D5D63B9 
 1104      204542F8 
 1105 0174 F49873ED 		.ascii	"\364\230s\355\013\246\321\0230\271K@]z\357\227\242#"
 1105      0BA6D113 
 1105      30B94B40 
 1105      5D7AEF97 
 1105      A223
 1106 0186 7ADBE831 		.ascii	"z\333\3501\214\324A\230\274\002\373\261\226\2602\210"
 1106      8CD44198 
 1106      BC02FBB1 
 1106      96B03288 
 1107 0196 B249B4A5 		.ascii	"\262I\264\245\376\311V\011\373$WH9\227\373\365\262\223"
 1107      FEC95609 
 1107      FB245748 
 1107      3997FBF5 
 1107      B293
 1108 01a8 945D2657 		.ascii	"\224]&W\023\234\260q\200\324L\276\214\221\253\200\345"
 1108      139CB071 
 1108      80D44CBE 
 1108      8C91AB80 
 1108      E5
 1109 01b9 87284997 		.ascii	"\207(I\227L\343\251\231\254$\266\330\335\206\356\004"
 1109      4CE3A999 
 1109      AC24B6D8 
 1109      DD86EE04 
 1110 01c9 C1311C24 		.ascii	"\3011\034$C\022tm+\234s\212\272x\260@\317\323\313\355"
 1110      4312746D 
 1110      2B9C738A 
 1110      BA78B040 
 1110      CFD3CBED 
 1111 01dd B4DD18BD 		.ascii	"\264\335\030\2750\254\232H\022\234\027\207\021\305!"
 1111      30AC9A48 
 1111      129C1787 
 1111      11C521
 1112 01ec 915212EC 		.ascii	"\221R\022\354\356\317\354tiiq\023R\177\220\324\207\257"
 1112      EECFEC74 
 1112      69697113 
 1112      527F90D4 
 1112      87AF
 1113 01fe 61A28797 		.ascii	"a\242\207\227\322\335y~p\217\227\316\332Ab\325\344\367"
 1113      D2DD797E 
 1113      708F97CE 
 1113      DA4162D5 
 1113      E4F7
 1114 0210 210BCDE2 		.ascii	"!\013\315\342A\037\242&\277\337b\374\340\3612\210\313"
 1114      411FA226 
 1114      BFDF62FC 
 1114      E0F13288 
 1114      CB
 1115 0221 139C0E41 		.ascii	"\023\234\016A\377\002\304\025\013\021W\364\212\034\334"
 1115      FF02C415 
 1115      0B1157F4 
 1115      8A1CDC
 1116 0230 8DF80006 		.ascii	"\215\370\000\006\0101W\006q\202\244\017\342\210\205"
 1116      08315706 
 1116      7182A40F 
ARM GAS  /tmp/cccBwPxo.s 			page 91


 1116      E28885
 1117 023f 88B28895 		.ascii	"\210\262\210\2258:\213\370\215@|\210\264:\011\205\236"
 1117      383A8BF8 
 1117      8D407C88 
 1117      B43A0985 
 1117      9E
 1118 0250 072F2236 		.ascii	"\007/\"6P\274\361\246\327.F\305R@\006\357\001\362\211"
 1118      50BCF1A6 
 1118      D72E46C5 
 1118      524006EF 
 1118      01F289
 1119 0263 05F2ED7C 		.ascii	"\005\362\355|\220\343\273\306>\232\025_#\261\003yh="
 1119      90E3BBC6 
 1119      3E9A155F 
 1119      23B10379 
 1119      683D
 1120 0275 A2500CC7 		.ascii	"\242P\014\307\240\261\"\332\366\266\357\254\260\235"
 1120      A0B122DA 
 1120      F6B6EFAC 
 1120      B09D
 1121 0283 ABE41F8F 		.ascii	"\253\344\037\217\371i3\326em-\005\246\260(\314\320\342"
 1121      F96933D6 
 1121      656D2D05 
 1121      A6B028CC 
 1121      D0E2
 1122 0295 30C37330 		.ascii	"0\303s0\307\241\021\200\315\223Xf\363\270\223\364\310"
 1122      C7A11180 
 1122      CD935866 
 1122      F3B893F4 
 1122      C8
 1123 02a6 8967EE0E 		.ascii	"\211g\356\016\246\305\035t[|'\237.\001\316U\321aU\361"
 1123      A6C51D74 
 1123      5B7C279F 
 1123      2E01CE55 
 1123      D16155F1 
 1124 02ba D6C8A91D 		.ascii	"\326\310\251\035nbk\025N\274&_)b\372N\360a\204X\222"
 1124      6E626B15 
 1124      4EBC265F 
 1124      2962FA4E 
 1124      F0618458 
 1125 02cf F4388A28 		.ascii	"\3648\212(\014\024'\247JN\274K\011\362\304=\202\374"
 1125      0C1427A7 
 1125      4A4EBC4B 
 1125      09F2C43D 
 1125      82FC
 1126 02e1 D00AF2E4 		.ascii	"\320\012\362\344\374 \273\322\327e\222\306[\215\324"
 1126      FC20BBD2 
 1126      D76592C6 
 1126      5B8DD4
 1127 02f0 204957E1 		.ascii	" IW\341\224\210\321\352\010\247\355\204w\265'J\011\367"
 1127      9488D1EA 
 1127      08A7ED84 
 1127      77B5274A 
 1127      09F7
 1128 0302 D9EE278F 		.ascii	"\331\356'\217f.*\"\204U\230\241\341\303(D\021\012K/"
 1128      662E2A22 
 1128      845598A1 
ARM GAS  /tmp/cccBwPxo.s 			page 92


 1128      E1C32844 
 1128      110A4B2F 
 1129 0316 C29945F9 		.ascii	"\302\231E\371\316.\312wn\216\357\274\250\201\317\272"
 1129      CE2ECA77 
 1129      6E8EEFBC 
 1129      A881CFBA 
 1130 0326 9B32A35E 		.ascii	"\2332\243^M}Fbv\322!\222\376wG\362J\310&w\315\317\274"
 1130      4D7D4662 
 1130      76D22192 
 1130      FE7747F2 
 1130      4AC82677 
 1131 033d FCBFCC53 		.ascii	"\374\277\314S\023Z-\2127f%~\234\374\263\353\210_\036"
 1131      135A2D8A 
 1131      3766257E 
 1131      9CFCB3EB 
 1131      885F1E
 1132 0350 1A4619F3 		.ascii	"\032F\031\363\325\324\011\277\267\273\351\237\300\202"
 1132      D5D409BF 
 1132      B7BBE99F 
 1132      C082
 1133 035e D6359D7D 		.ascii	"\3265\235}\344\277\336\365\003\375\317\030w\322\025"
 1133      E4BFDEF5 
 1133      03FDCF18 
 1133      77D215
 1134 036d E097064E 		.ascii	"\340\227\006N+\204\251\210n(\236{__\271\226T\225\240"
 1134      2B84A988 
 1134      6E289E7B 
 1134      5F5FB996 
 1134      5495A0
 1135 0380 40182ED0 		.ascii	"@\030.\320{\247\336er?\233\242\316y\244\317\242\260"
 1135      7BA7DE65 
 1135      723F9BA2 
 1135      CE79A4CF 
 1135      A2B0
 1136 0392 BA770745 		.ascii	"\272w\007E\026w\322\015|F\0137E\264z-\250\207\266\352"
 1136      1677D20D 
 1136      7C460B37 
 1136      45B47A2D 
 1136      A887B6EA 
 1137 03a6 5A533814 		.ascii	"ZS8\024y][\037\322_\2164\277\252=\325\320X\327\270q"
 1137      795D5B1F 
 1137      D25F8E34 
 1137      BFAA3DD5 
 1137      D058D7B8 
 1138 03bb 9356DF1C 		.ascii	"\223V\337\034\016\26745F^\323\232u\255\341\305W4}k\275"
 1138      0EB73435 
 1138      465ED39A 
 1138      75ADE1C5 
 1138      57347D6B 
 1139 03d0 D6A2D735 		.ascii	"\326\242\3275\210\305f1\331\374R\250\256e\313\243\365"
 1139      88C56631 
 1139      D9FC52A8 
 1139      AE65CBA3 
 1139      F5
 1140 03e1 8CEB119D 		.ascii	"\214\353\021\235\207\365-\017{T\217\372\004\215\300"
 1140      87F52D0F 
 1140      7B548FFA 
ARM GAS  /tmp/cccBwPxo.s 			page 93


 1140      048DC0
 1141 03f0 FA9A2783 		.ascii	"\372\232'\203\033\002\033\203\265\317\006k\003\317\327"
 1141      1B021B83 
 1141      B5CF066B 
 1141      03CFD7
 1142 03ff 6CAAA90D 		.ascii	"l\252\251\015\210}\217\312\376\005\312\015E\302"
 1142      887D8FCA 
 1142      FE05CA0D 
 1142      45C2
 1143              		.text
 1144              		.section	.gnu.lto_usbDbgSystemHalted.1750ee06c3e56d92,"",%progbits
 1145 0000 789C9D9A 		.ascii	"x\234\235\232y|OW\372\307\317\2717\3137\373\"\004\211"
 1145      797C4F57 
 1145      FAC7CFB9 
 1145      37CB37FB 
 1145      220489
 1146 0013 481064FD 		.ascii	"H\020d\375&\022\204 b\353\276O\333\3512\243hZ\332\242"
 1146      26128420 
 1146      62EBBE4F 
 1146      DBE932A3 
 1146      685ADAA2 
 1147 0027 AFA1AFD7 		.ascii	"\257\241\257\327o\346\237\206F\030kgFm#\023\255\252"
 1147      6FE69F86 
 1147      46186B67 
 1147      466D2313 
 1147      ADAA
 1148 0039 D2DA49D1 		.ascii	"\322\332I\321\"\213 \226(m\325Vm\203\020A,U#\2029\317"
 1148      228B2096 
 1148      286DD556 
 1148      6D831041 
 1148      2C552382 
 1149 004f F39CEFBD 		.ascii	"\363\234\357\275W\362\275\367{\375\362z\365|\357\271"
 1149      57F2BDF7 
 1149      7BFDF27A 
 1149      F57CEFB9 
 1150 005f E739E77C 		.ascii	"\3479\347|\316\363\234\363~\256\333\353\315\024\346"
 1150      CEF39CF3 
 1150      7EAEDBEB 
 1150      CD14E6
 1151 006e D38BB197 		.ascii	"\323\213\261\227\031c\245*c\374!\306\225\017\253\031"
 1151      1963A52A 
 1151      63FC21C6 
 1151      950FAB19 
 1152 007e 9BE450B8 		.ascii	"\233\344P\270\012\027\\\345^\370\353\245x\237\014`\371"
 1152      0A175CE5 
 1152      5EF8EBA5 
 1152      789F0C60 
 1152      F9
 1153 008f FE3E1BCB 		.ascii	"\376>\033\313\031\313\017\364V|\247u\203*\224\201>\334"
 1153      19CB0FF4 
 1153      567CA775 
 1153      832A9481 
 1153      3EDC
 1154 00a1 977AF92A 		.ascii	"\227z\371*\216rU\334\360\253\336+\254\374\035<\030;"
 1154      8E7255DC 
 1154      F0ABDE2B 
 1154      ACFC1D3C 
ARM GAS  /tmp/cccBwPxo.s 			page 94


 1154      183B
 1155 00b3 FB717F6A 		.ascii	"\373q\177j\367W\206\315\334\015-\001\005\276\302l\027"
 1155      F75786CD 
 1155      DC0D2D01 
 1155      05BEC26C 
 1155      17
 1156 00c4 A386DC00 		.ascii	"\243\206\334\000%\020\372\371\017\305~\201\225\214f"
 1156      2510FAF9 
 1156      0FC57E81 
 1156      958C66
 1157 00d3 CD0D2415 		.ascii	"\315\015$\025e\216 \032)7X\011\307yCp\336\020%\024k"
 1157      658E201A 
 1157      29375809 
 1157      C7794370 
 1157      DE102514 
 1158 00e8 61580BE5 		.ascii	"aX\013\345a4K\030\017\247\213pe\300\036.\332[\355\331"
 1158      61344B18 
 1158      0FA78B70 
 1158      65C01E2E 
 1158      DA5BEDD9 
 1159 00fc 0FC3B652 		.ascii	"\017\303\266R\"\320\274\015\232G(\255\257\264\026\265"
 1159      22D0BC0D 
 1159      9A4728AD 
 1159      AFB416B5 
 1160 010c A02559A2 		.ascii	"\240%Y\242\326\232\007Q\2376J$\336n\207\267#\225 \254"
 1160      D69A0751 
 1160      9F364A24 
 1160      DE6E87B7 
 1160      239520AC 
 1161 0120 B5C55A5B 		.ascii	"\265\305Z[\227Q;\245\003\216\324\036Gj\257Da-\032kQ"
 1161      97513BA5 
 1161      038ED41E 
 1161      476AAF44 
 1161      612D1A6B 
 1162 0135 3C9A8CA2 		.ascii	"<\232\214\242y\007\272\350 e\304\220\214\030\245\023"
 1162      7907BAE8 
 1162      2065C490 
 1162      8C18A513 
 1163 0145 9A7744F3 		.ascii	"\232wD\363\216J,\326\342\260\026\313\343\250O\034\357"
 1163      8E4A2CD6 
 1163      E2B016CB 
 1163      E3A84F1C 
 1163      EF
 1164 0156 44179D64 		.ascii	"D\027\235d\347\316\324\271\263\322\015\315\273\240y"
 1164      E7CED4B9 
 1164      B3D20DCD 
 1164      BBA079
 1165 0165 17251E6B 		.ascii	"\027%\036k]\261\026\317\273R\237\256\274\033]t\223\235"
 1165      5DB116CF 
 1165      BB529FAE 
 1165      BC1B5D74 
 1165      939D
 1166 0177 BB53E7EE 		.ascii	"\273S\347\356J2\232'\240y\202\222\210\265$\254%\362"
 1166      4A329A27 
 1166      A0798292 
 1166      88B524AC 
 1166      25F2
ARM GAS  /tmp/cccBwPxo.s 			page 95


 1167 0189 24EA93C4 		.ascii	"$\352\223\304\223\351\"YvN\241\316)J:\232\247\242y\252"
 1167      93E92259 
 1167      764EA1CE 
 1167      294A3A9A 
 1167      A7A279AA 
 1168 019d E2C45A1A 		.ascii	"\342\304Z\032\326\234<\215\372\244\361t\272H\227\235"
 1168      D69C3C8D 
 1168      FAA4F174 
 1168      BA48979D 
 1169 01ad 7B50E71E 		.ascii	"{P\347\036| \356\204R\246\364\302~\031\330/C\311\304"
 1169      7C20EE84 
 1169      52A6F4C2 
 1169      7E19D82F 
 1169      43C9C4
 1170 01c0 5A4FAC65 		.ascii	"ZO\254e\362\236\324\271'\357E\027\275\224\001\270/z"
 1170      F29ED4B9 
 1170      27EF4517 
 1170      BD9401B8 
 1170      2F7A
 1171 01d2 D3BEE8AD 		.ascii	"\323\276\350\255da\265\037U\263x\016\016\232\243\014"
 1171      6461B51F 
 1171      55B3780E 
 1171      0E9AA30C 
 1172 01e2 A65DD507 		.ascii	"\246]\325\007wU\005\243\373\271}x_\032\246\2572\210"
 1172      775505A3 
 1172      FBB97D78 
 1172      5F1AA6AF 
 1172      3288
 1173 01f4 0CB2D1A0 		.ascii	"\014\262\321\240\234QCn\266+\236\375x.\216T\306\224"
 1173      9C51436E 
 1173      B62B9EFD 
 1173      782E8E54 
 1173      C694
 1174 0206 2164D91F 		.ascii	"!d\331\037-w2j\310\355O\372\313\034\0038\207\213|\007"
 1174      2D77326A 
 1174      C8ED4FFA 
 1174      CB1C0338 
 1174      878B7C07 
 1175 021a 67EF2BAA 		.ascii	"g\357+\252\227\267\217\257\303\317\177\027\013\250d"
 1175      97B78FAF 
 1175      C3CF7F17 
 1175      0BA864
 1176 0229 8141C121 		.ascii	"\201A\301!\241a\341\255\"Z\267\211l\333\256}Tt\207\230"
 1176      A161E1AD 
 1176      225AB789 
 1176      6CDBAE7D 
 1176      54748798 
 1177 023d 8EB1719D 		.ascii	"\216\261q\235:w\211\357\332\255{BbRrJ\2523-\275G)\313"
 1177      3A7789EF 
 1177      DAAD7B42 
 1177      6252724A 
 1177      AA332DBD 
 1178 0254 C8ECD9AB 		.ascii	"\310\354\331\253wVN\005\353\323\267\234e\367+c;Y\377"
 1178      77564E05 
 1178      EBD3B79C 
 1178      65F72B63 
 1178      3B59FF
ARM GAS  /tmp/cccBwPxo.s 			page 96


 1179 0267 01FC7D3F 		.ascii	"\001\374}?q\000\361\317_\376\006\313\337R\371\313\312"
 1179      7100F1CF 
 1179      5FFE06CB 
 1179      DF52F9CB 
 1179      CA
 1180 0278 5C1739F2 		.ascii	"\\\0279\362\267\257\374\365\222\277s\324\371*/\237Z"
 1180      B7AFFCF5 
 1180      92BF73D4 
 1180      F92A2F9F 
 1180      5A
 1181 0289 BB454958 		.ascii	"\273EIX\236/\376J\347\317\215)\314\237\322\266X\014"
 1181      9E2FFE4A 
 1181      E7CF8D29 
 1181      CC9FD2B6 
 1181      580C
 1182 029b BD500ECF 		.ascii	"\275P\016\317\227\363\004&\314\016\025\254]\254\316"
 1182      97F30426 
 1182      CC0E15AC 
 1182      5DACCE
 1183 02aa 568B55CE 		.ascii	"V\213U\316\275D\365\352\201E\247\203\241\252\360XQ\375"
 1183      BD44F5EA 
 1183      8145A783 
 1183      A1AAF058 
 1183      51FD
 1184 02bc A9A8E1BA 		.ascii	"\251\250\341\272\227\372\014\007\313\363\313>\335\353"
 1184      97FA0C07 
 1184      CBF3CB3E 
 1184      DDEB
 1185 02ca 1FBF1407 		.ascii	"\037\277\024\007l\374\353\302\374\322\202\330bU\345"
 1185      6CFCEBC2 
 1185      FCD282D8 
 1185      6255E5
 1186 02d9 2BB92AC6 		.ascii	"+\271*\306\344+x4\377\234G\343\330\302\270z\371\262"
 1186      E42B7834 
 1186      FF9C47E3 
 1186      D8C2B87A 
 1186      F9B2
 1187 02eb B9FEEA8B 		.ascii	"\271\376\352\213\330\261\264\254hZ\210\354xM\357\370"
 1187      D8B1B4AC 
 1187      685A88EC 
 1187      784DEFF8 
 1188 02fb A5DB8E35 		.ascii	"\245\333\2165\353\356~\024\344\343\305W\361x\376\005"
 1188      EBEE7E14 
 1188      E4E3C557 
 1188      F178FE05 
 1189 030b 8F27BD7C 		.ascii	"\217'\275|5\367\341\2149\340\216\260Y\\\270\362\254"
 1189      35F7E18C 
 1189      39E08EB0 
 1189      595CB8F2 
 1189      AC
 1190 031c AABE8483 		.ascii	"\252\276\204\203W6\035\333\215\252&\347\227\236j\210"
 1190      57361DDB 
 1190      8DAA26E7 
 1190      979E6A88 
 1191 032c B83A397F 		.ascii	"\270:9\177A\276W\261\352\305\327\320\360\031\321<\215"
 1191      41BE57B1 
 1191      EAC5D7D0 
ARM GAS  /tmp/cccBwPxo.s 			page 97


 1191      F019D13C 
 1191      8D
 1192 033d 06E76BB1 		.ascii	"\006\347k\261\263\261\303fnj\274\356A\214\327?\210\361"
 1192      B3B1C366 
 1192      6E6ABCEE 
 1192      418CD73F 
 1192      88F1
 1193 034f 860731DE 		.ascii	"\206\0071\336\370 \306\233\036\304\270\204\307\2579"
 1193      F820C69B 
 1193      1EC4B884 
 1193      C7AF39
 1194 035e CC4BF3EF 		.ascii	"\314K\363\357\336\233\232_z\344\377vll\210\234\3139"
 1194      DE9B9A5F 
 1194      7AE4FF76 
 1194      6C6C889C 
 1194      CB39
 1195 0370 03172B4C 		.ascii	"\003\027+L\304\307!\012o?(\374E\341\023 \012\337@\270"
 1195      C4C7210A 
 1195      6F3F28FC 
 1195      45E11320 
 1195      0ADF40B8 
 1196 0384 0A822244 		.ascii	"\012\202\"D\024\216PQ\370\205A\021\216\375\"\300\272"
 1196      148E5051 
 1196      F8854111 
 1196      8EFD22C0 
 1196      BA
 1197 0395 8D28FC23 		.ascii	"\215(\374#\341f{\250FA\321\001\254c\340^G(b\321:\016"
 1197      E1667BA8 
 1197      4641D101 
 1197      AC63E05E 
 1197      472862D1 
 1198 03ab 2E3B434B 		.ascii	".;CK\027\270\212\207\242;\024\011P$\301,\311P\244@\221"
 1198      17B88A87 
 1198      A23B1409 
 1198      5024C12C 
 1198      C950A440 
 1199 03c0 0AC338A1 		.ascii	"\012\3038\241H\303@\246\303e\017(2@l&\024=\301\260\027"
 1199      48C340A6 
 1199      C3650F28 
 1199      32406C26 
 1199      143DC1B0 
 1200 03d5 14BDA1C8 		.ascii	"\024\275\241\310\202\326>P\364\305pf\303e?(\372\203"
 1200      82D63E50 
 1200      F4C57066 
 1200      C3653F28 
 1200      FA83
 1201 03e7 F5002872 		.ascii	"\365\000(r\300p \024\271P\014\202\326\301P\014\301\240"
 1201      C0702014 
 1201      B9500C82 
 1201      D6C1500C 
 1201      C1A0
 1202 03f9 0E85CB61 		.ascii	"\016\205\313aP<\004\326\017C\361\010\030>\012\305cP"
 1202      503C04D6 
 1202      0F43F108 
 1202      183E0AC5 
 1202      6350
 1203 040b 3C0EAD4F 		.ascii	"<\016\255O@\361$\206\366)\270|\032\212g\300\372Y(\236"
ARM GAS  /tmp/cccBwPxo.s 			page 98


 1203      40F12486 
 1203      F629B87C 
 1203      1A8A67C0 
 1203      FA59289E 
 1204 041f 03C33F40 		.ascii	"\003\303?@\361<\024/@\353\213P\374\021\003\374\022\\"
 1204      F13C142F 
 1204      40EB8B50 
 1204      FC1103FC 
 1204      125C
 1205 0431 BE0CC52B 		.ascii	"\276\014\305+`\375*\024\177\002\303?C1\034\212\327\240"
 1205      60FD2A14 
 1205      7F02C33F 
 1205      43311C8A 
 1205      D7A0
 1206 0443 75041423 		.ascii	"u\004\024#1\314\243\340\362u(\362\300\372\015(\336\004"
 1206      31CCA3E0 
 1206      F27528F2 
 1206      C0FA0D28 
 1206      DE04
 1207 0455 C3D1508C 		.ascii	"\303\321P\214\201\342-h}\033\212w0\330c\341r\034\024"
 1207      81E22D68 
 1207      7D1B8A77 
 1207      30D863E1 
 1207      721C14
 1208 0468 E3C1FA5D 		.ascii	"\343\301\372](\030\233.\376K\024\245\302\022\371\014"
 1208      28189B2E 
 1208      FE4B14A5 
 1208      C212F90C 
 1209 0478 71E33B26 		.ascii	"q\343;&n\314P\275\330j_^\307'o\255\233\271\246\025\234"
 1209      6ECC50BD 
 1209      D86A5F5E 
 1209      C7276FAD 
 1209      9BB9A615 
 1210 048d BE22D521 		.ascii	"\276\"\325!\266\326\274)\345\007}\201\016\001x\366\266"
 1210      B6D6BC29 
 1210      E5077D81 
 1210      0E0178F6 
 1210      B6
 1211 049e 6CB978C2 		.ascii	"l\271x\302\367\375;\371\016qc\251J\347\367\302\376\037"
 1211      F7FD3BF9 
 1211      0E7163A9 
 1211      4AE7F7C2 
 1211      FE1F
 1212 04b0 76FA17F3 		.ascii	"v\372\027\363\"^\254\006\362\315\374}\376\025\234m\321"
 1212      225EAC06 
 1212      F2CDFC7D 
 1212      FE159C6D 
 1212      D1
 1213 04c1 307BF3DA 		.ascii	"0{\363\332\277;\234\253\200\002K\032Ek\020\337\302\213"
 1213      BF3B9CAB 
 1213      80024B1A 
 1213      456B10DF 
 1213      C28B
 1214 04d3 F902559E 		.ascii	"\371\002U\236\373\312\231\207>u5\227(B%\337\312\235"
 1214      FBCA9987 
 1214      3E753597 
 1214      284225DF 
ARM GAS  /tmp/cccBwPxo.s 			page 99


 1214      CA9D
 1215 04e5 0B540E5B 		.ascii	"\013T\016[\365k\356d \246j\226JZ\374\354L\376\215\331"
 1215      F56BEE64 
 1215      20A66A96 
 1215      4A5AFCEC 
 1215      4CFE8DD9 
 1216 04f9 E42A4CBE 		.ascii	"\344*L\276\315t\362@\230|;L\256\300\344;\304\344gx\301"
 1216      CD74F240 
 1216      987C3B4C 
 1216      AEC0E43B 
 1216      C4E46778 
 1217 050e F18AA676 		.ascii	"\361\212\246v\322\021b~<B3To6\213\253u\274|k\325A\251"
 1217      D211627E 
 1217      3C423354 
 1217      6F368BAB 
 1217      75BC7C6B 
 1218 0525 CCDF8EB2 		.ascii	"\314\337\216\262R\023e\237\004\203\2622\243\262y\253"
 1218      5213659F 
 1218      0483B232 
 1218      A3B279AB 
 1219 0535 CE7889D6 		.ascii	"\316x\211\326\202I\371K\266\213\326`^\016\302\220\211"
 1219      8249F94B 
 1219      B68BD660 
 1219      5E0EC290 
 1219      89
 1220 0546 1524EC84 		.ascii	"\025$\354\204&\314\337\030\241`q\224wJ\254NW}\330y\037"
 1220      26CCDF18 
 1220      A1607194 
 1220      774AAC4E 
 1220      577DD879 
 1221 055b 7586EA2B 		.ascii	"u\206\352+\302*\364N\2766u\241\324\033P$V\211\243d\312"
 1221      C22AF44E 
 1221      BE3675A1 
 1221      D41B5024 
 1221      5689A364 
 1222 0570 1BC6417C 		.ascii	"\033\306A|\305 \2254\310\015\256\360\244h\357ko\362"
 1222      C5209534 
 1222      C80DAEF0 
 1222      A468EF6B 
 1222      6FF2
 1223 0582 C4681F45 		.ascii	"\304h\037E\254\335!v\214\270\033+\352\276\215\3472\304"
 1223      ACDD2176 
 1223      8CB81B2B 
 1223      EABE8DE7 
 1223      32C4
 1224 0594 1D3F56E0 		.ascii	"\035?V\340\213\336\250\233\335\020@\243\005\332q\307"
 1224      8BDEA89B 
 1224      DD1040A3 
 1224      05DA71C7 
 1225 05a4 2E3377E0 		.ascii	".3w\340.\331m\346\016\016\213\334\243\271\243\0127\311"
 1225      2ED96DE6 
 1225      0E0E8BDC 
 1225      A3B9A30A 
 1225      37C9
 1226 05b6 07F30A17 		.ascii	"\007\363\012\027\372\321\334A4\375\246\251\373\327\371"
 1226      FAD1DC41 
 1226      34FDA6A9 
ARM GAS  /tmp/cccBwPxo.s 			page 100


 1226      FBD7F9
 1227 05c5 934738DF 		.ascii	"\223G8\337+\246\021\012\347\241\211\035m\373,\265\355"
 1227      2BA6110A 
 1227      E7A1891D 
 1227      6DFB2CB5 
 1227      ED
 1228 05d6 B7D47640 		.ascii	"\267\324v@\323V\315\235B\017n\031\177&\236\033T<Zs\326"
 1228      D356CD9D 
 1228      420F6E19 
 1228      7F269E1B 
 1228      543C5A73 
 1229 05eb 0493D210 		.ascii	"\004\223\322\020;J\016\272W\"R\251\203\177\213: \375"
 1229      3B4A0EBA 
 1229      572252A9 
 1229      837F8B3A 
 1229      20FD
 1230 05fd F343E806 		.ascii	"\363C\350\006\261#sh\354Pc<\035xlo\356\336;-P\014;\211"
 1230      B1237368 
 1230      EC50633C 
 1230      1D786C6F 
 1230      EEDE3B2D 
 1231 0615 BA870801 		.ascii	"\272\207\010\001\374\260\034\371\307k\327*\002i\025"
 1231      FCB01CF9 
 1231      C76BD72A 
 1231      026915
 1232 0624 A229947F 		.ascii	"\242)\224\177\207#{\303\310\337\223\203\233\012\253"
 1232      87237BC3 
 1232      C8DF9383 
 1232      9B0AAB
 1233 0633 A483C368 		.ascii	"\244\203\303h\364\222\332\252]\350`?\236\317\371\017"
 1233      F492DAAA 
 1233      5DE8603F 
 1233      9ECFF90F 
 1234 0643 62203C2E 		.ascii	"b <.\373\271\264\022&k.n\271\025D&\214\037\321v\345"
 1234      FBB9B412 
 1234      266B2E6E 
 1234      B9154426 
 1234      8C1FD176 
 1235 0658 30261EB2 		.ascii	"0&\036\262\004v\002h\343|\260\270p\326\365:\2711#\304"
 1235      04760268 
 1235      E37CB0B8 
 1235      70D6F53A 
 1235      B93123C4 
 1236 066c 29835C25 		.ascii	")\203\\%<e?Z?\232D\353\262\002\321:jv\344W\252p\344"
 1236      3C653F5A 
 1236      3F9A44EB 
 1236      B202D13A 
 1236      6A76E457 
 1237 0683 8F6947FE 		.ascii	"\217iG\3768\204+\002\246n\234~\314\227\364\2641\372"
 1237      38842B02 
 1237      A66E9C7E 
 1237      CC97F4B4 
 1237      31FA
 1238 0695 D1DB9D1F 		.ascii	"\321\333\235\037\275@\361\011\230\235\237\02431<g\322"
 1238      BD40F109 
 1238      989D9F14 
 1238      33313C67 
ARM GAS  /tmp/cccBwPxo.s 			page 101


 1238      D2
 1239 06a6 09916200 		.ascii	"\011\221b\000\334xU\331r-\306\316K\266r\346!\016?\241"
 1239      DC7855D9 
 1239      722DC6CE 
 1239      4BB672E6 
 1239      210E3FA1 
 1240 06ba 761F5077 		.ascii	"v\037Pw\012\324E\"\020\353\0266\304\320\004\355\355"
 1240      0AD44522 
 1240      10EB1636 
 1240      C4D004ED 
 1240      ED
 1241 06cb B8E76713 		.ascii	"\270\347g\023\367\254G\"\376b\346\236\313\270\342_\301"
 1241      F7AC4722 
 1241      FE62E69E 
 1241      CBB8E25F 
 1241      C1
 1242 06dc 3DBE20A0 		.ascii	"=\276 \240\206\300s\314\205\014\021\252\3662\242C\331"
 1242      86C073CC 
 1242      850C11AA 
 1242      F632A243 
 1242      D9
 1243 06ed 091F11D0 		.ascii	"\011\037\021\320@\226@[|QC\024\331D\331\321w\332\354"
 1243      4096405B 
 1243      7C514314 
 1243      D944D9D1 
 1243      77DAEC
 1244 0700 B0A1BE33 		.ascii	"\260\241\2763f\372\266\243\276\263\240\317\001\372j"
 1244      66FAB6A3 
 1244      BEB3A0CF 
 1244      01FA6A
 1245 070f 295DCCAB 		.ascii	")]\314\253z\304\356\2769g2\361gx\312\317\233M\\\303"
 1245      7AC4EEBE 
 1245      396732F1 
 1245      6778CACF 
 1245      9B4D5CC3 
 1246 0723 61E23A6D 		.ascii	"a\342:m\337\\\200\310D\3411\017b\013\271*\360\030.\360"
 1246      DF5C80C8 
 1246      44E1310F 
 1246      620BB92A 
 1246      F0182EF0 
 1247 0737 987DFCFA 		.ascii	"\230}\374\372i.~\3336\326W\000D[/\252\337\007O\350\225"
 1247      692E7EDB 
 1247      36D65700 
 1247      445B2FAA 
 1247      DF074FE8 
 1248 074c F76E9686 		.ascii	"\367n\226\206\300vR\005[\353yt\344\336z\265H\345\021"
 1248      C0765205 
 1248      5BEB7974 
 1248      E4DE7AB5 
 1248      48E511
 1249 075f D03F9855 		.ascii	"\320?\230Up\261$\005\237\224\304M<\323u\267\016\004"
 1249      70B12405 
 1249      9F94C44D 
 1249      3CD375B7 
 1249      0E04
 1250 0771 6B8FC805 		.ascii	"k\217\310\005\370<]\335\350\217O\307\202\347\306\247"
 1250      F83C5DDD 
ARM GAS  /tmp/cccBwPxo.s 			page 102


 1250      E88F4FC7 
 1250      82E7C6A7 
 1251 0781 67F184C4 		.ascii	"g\361\204\304\370E.\366\013\277\004\356O2\356\336\260"
 1251      F8452EF6 
 1251      0BBF04EE 
 1251      4F32EEDE 
 1251      B0
 1252 0792 E6C93B6C 		.ascii	"\346\311;l)\344\331\373\235\022\316\033\204S.\273q\312"
 1252      29E4D9FB 
 1252      9D12CE1B 
 1252      84532EBB 
 1252      71CA
 1253 07a4 B9AF9CC5 		.ascii	"\271\257\234\305j+~\005\275\342G\323\334\217\277\013"
 1253      6A2B7E05 
 1253      BDE247D3 
 1253      DC8FBF0B 
 1254 07b4 88BFAB84 		.ascii	"\210\277\253\204?l\347\327\\Y4Y\012r%\247\033\234\027"
 1254      3F6CE7D7 
 1254      5C593459 
 1254      0A7225A7 
 1254      1B9C17
 1255 07c7 A9B10E56 		.ascii	"\251\261\016V\244\206\007\301\302"
 1255      A48607C1 
 1255      C2
 1256 07d0 43580DA3 		.ascii	"CX\015\243$\322\270*\200l\223\355\250\275n\242v%\007"
 1256      24D2B82A 
 1256      806C93ED 
 1256      A8BD6EA2 
 1256      762507
 1257 07e3 B1BF998B 		.ascii	"\261\277\231\213-A\2617\214b\177w\245\222[\276\244 "
 1257      2D41B137 
 1257      8C627F77 
 1257      A5925BBE 
 1257      A420
 1258 07f5 8544D47F 		.ascii	"\205D\324\177\263\366\2507\245\222{\342/\204\337\324"
 1258      B3F6A837 
 1258      A5927BE2 
 1258      2F84DFD4 
 1259 0805 D2C9A5E6 		.ascii	"\322\311\245\346\033\315\275\312\377Z\252\274\345Ie"
 1259      1BCDBDCA 
 1259      FF5AAABC 
 1259      E54965
 1260 0814 A351E56D 		.ascii	"\243Q\345m\330m)\304\201\333\007\302Ii\252\035\025M"
 1260      D86D29C4 
 1260      81DB07C2 
 1260      4969AA1D 
 1260      154D
 1261 0826 262AEEA2 		.ascii	"&*\356\242\212;\315T\334GJ|2\273K;\236d\334#g-.\\!\303"
 1261      8A3BCD54 
 1261      DC474A7C 
 1261      32BB4B3B 
 1261      9E64DC23 
 1262 0840 2554A5EA 		.ascii	"%T\245\352\344\266\351\230|\305J\322$\305\223\244\311"
 1262      E4B6E998 
 1262      7CC54AD2 
 1262      24C593A4 
 1262      C9
ARM GAS  /tmp/cccBwPxo.s 			page 103


 1263 0851 8A41D207 		.ascii	"\212A\322\007\212\320\340$~\257PIU\232\201\271\034a"
 1263      8AD0E024 
 1263      7EAF5049 
 1263      559A81B9 
 1263      1C61
 1264 0863 9D2A615D 		.ascii	"\235*a] \006gg\371\344X0\204\223#\214\311\253M\263b"
 1264      20066767 
 1264      F9E45830 
 1264      8493238C 
 1264      C9AB4DB3 
 1265 0878 A873BA9D 		.ascii	"\250s\272\235%L1YB\211\012K(\264XB\015\002l\252\202"
 1265      254C3159 
 1265      42890A4B 
 1265      28B45842 
 1265      0D026CAA 
 1266 088d 80A5254C 		.ascii	"\200\245%LS$c\2235\247\246\313\207\316P\226Np\2753+"
 1266      53246393 
 1266      35A7A6CB 
 1266      87CE5096 
 1266      4E70BD33 
 1267 08a2 8A1A7BD8 		.ascii	"\212\032{\330\221\367w\023y\237\241\274\351\026\362"
 1267      91F77713 
 1267      799FA1BC 
 1267      E916F2
 1268 08b1 D6A3BC19 		.ascii	"\326\243\274\031\012\362\225\344\315T$bs\354\006x\226"
 1268      0AF295E4 
 1268      CD542462 
 1268      73EC0678 
 1268      96
 1269 08c2 C9F4AB31 		.ascii	"\311\364\2531\300\263-\246\337\212\224\235c\014\360"
 1269      C0B32DA6 
 1269      DF8A949D 
 1269      630CF0
 1270 08d1 8710E01E 		.ascii	"\207\020\340\036\350\2150\342\205H\265w~\316#wd@\000"
 1270      E88D30E2 
 1270      8548B577 
 1270      7ECE2377 
 1270      644000
 1271 08e4 A12D5C40 		.ascii	"\241-\\@T\025\221]\262|\2337\276B\000,R\250\241\266"
 1271      5415915D 
 1271      B27C9B37 
 1271      BE42002C 
 1271      52A8A1B6 
 1272 08f8 0A6AC2C9 		.ascii	"\012j\302\311\325\025\337+\224\2452\005\245\011J\231"
 1272      D515DF2B 
 1272      94A53205 
 1272      A5094A99 
 1273 0908 3C253A78 		.ascii	"<%:x\353\366zo1\\X\343\216}\\\014\327\212\225r\025!"
 1273      EBF67A6F 
 1273      315C58E3 
 1273      8E7D5C0C 
 1273      D78A9572 
 1274 091e 76AA3190 		.ascii	"v\2521\220:p\331A\264F\260_\030\265\3266\312\347\272"
 1274      3A70D941 
 1274      B446B05F 
 1274      18B5D636 
 1274      CAE7BA
ARM GAS  /tmp/cccBwPxo.s 			page 104


 1275 0931 4C78F499 		.ascii	"Lx\364\231rf\205\203 \177\217\363\177(.\363\326,\012"
 1275      72668583 
 1275      207F8FF3 
 1275      7F282EF3 
 1275      D62C0A
 1276 0944 A5D5E213 		.ascii	"\245\325\342\023\002P^d\006li\243\015t\271\261\257k"
 1276      02505E64 
 1276      066C69A3 
 1276      0D74B9B1 
 1276      AF6B
 1277 0956 9A2457BF 		.ascii	"\232$W\277H\321\017\033\177\327f1\214\332\226\265\302"
 1277      48D10F1B 
 1277      7FD76631 
 1277      8CDA96B5 
 1277      C2
 1278 0967 51776CEB 		.ascii	"Qwl\353\256\015\233H\303\266c\225\022\254n\262\310\355"
 1278      AE0D9B48 
 1278      C3B66395 
 1278      12AC6EB2 
 1278      C8ED
 1279 0979 40775964 		.ascii	"@wYd\035d\221\177*\220E\376\245\210\231z\332\011\364"
 1279      1D64917F 
 1279      2A9045FE 
 1279      A588997A 
 1279      DA09F4
 1280 098c 5C9340CB 		.ascii	"\\\223@\313\264\361\221+\3220\256\273\2641O!\306A;\237"
 1280      B4F1912B 
 1280      D230AEBB 
 1280      B4314F21 
 1280      C6413B9F 
 1281 09a0 AF686983 		.ascii	"\257hi\203\024h\377\246\231!\2369:\351\211\002[{\331"
 1281      1468FFA6 
 1281      99219E39 
 1281      3AE98902 
 1281      5B7BD9
 1282 09b3 D1B7C044 		.ascii	"\321\267\300D\037!x\241\271<B\360\"\243\274\177+z\242"
 1282      1F2178A1 
 1282      B93C42F0 
 1282      22A3BC7F 
 1282      2B7AA2
 1283 09c6 4005BD85 		.ascii	"@\005\275\205\010CV\020\367\354HZl)\251\310\223\244"
 1283      08435610 
 1283      F7EC485A 
 1283      6C29A9C8 
 1283      93A4
 1284 09d8 FF182515 		.ascii	"\377\030%\025\303\321\350\255g\005\224\225eG\305\022"
 1284      C3D1E8AD 
 1284      67059495 
 1284      6547C512 
 1285 09e8 4B047FDC 		.ascii	"K\004\177\334LEK\004\177\"O(\312X\252\350Y\001%\364"
 1285      4C454B04 
 1285      7F224F28 
 1285      CA58AAE8 
 1285      590125F4 
 1286 09fc 112AF4AC 		.ascii	"\021*\364\254`\3231\237ZJZ\346Q\322gFI\313\3013}\264"
 1286      60D3319F 
 1286      5A4A5AE6 
ARM GAS  /tmp/cccBwPxo.s 			page 105


 1286      51D26746 
 1286      49CBC133 
 1287 0a12 AC80AAFA 		.ascii	"\254\200\252\372\266\310\012Y2+|\256e\005a\010'A\030"
 1287      B6C80A59 
 1287      322B7CAE 
 1287      65056108 
 1287      274118
 1288 0a25 EB59013B 		.ascii	"\353Y\001;g\333Y\302\012\313\254\260\322b\011\224\025"
 1288      67DB59C2 
 1288      0ACBACB0 
 1288      D2620994 
 1288      15
