ARM GAS  /tmp/ccNxQr94.s 			page 1


   1              		.cpu cortex-m4
   2              		.eabi_attribute 20, 1
   3              		.eabi_attribute 21, 1
   4              		.eabi_attribute 23, 3
   5              		.eabi_attribute 24, 1
   6              		.eabi_attribute 25, 1
   7              		.eabi_attribute 26, 1
   8              		.eabi_attribute 30, 2
   9              		.eabi_attribute 34, 1
  10              		.eabi_attribute 18, 4
  11              		.file	"hal_pal_lld.c"
  12              		.text
  13              	.Ltext0:
  14              		.section	.gnu.lto_.profile.74f38e1a95419172,"",%progbits
  15 0000 789C6365 		.ascii	"x\234ce`b`a```d\360\367\005\000\001k\000\251"
  15      60626061 
  15      60606064 
  15      F0F70500 
  15      016B00A9 
  16              		.text
  17              		.section	.gnu.lto_.icf.74f38e1a95419172,"",%progbits
  18 0000 789C6365 		.ascii	"x\234ce`b\020a@\000f\206\336\326'\267\271\030\257?^"
  18      60621061 
  18      40006686 
  18      DED627B7 
  18      B918AF3F 
  19 0015 FB9095E9 		.ascii	"\373\220\225\351\367\213\255\313\231\030\000d2\011\213"
  19      F78BADCB 
  19      99180064 
  19      32098B
  20              		.text
  21              		.section	.gnu.lto_.jmpfuncs.74f38e1a95419172,"",%progbits
  22 0000 789C6365 		.ascii	"x\234ce`b\340c@\000& fdfddd\257\257\257g\000\000\007"
  22      6062E063 
  22      40002620 
  22      66646664 
  22      6464AFAF 
  23 0019 4801A3   		.ascii	"H\001\243"
  24              		.text
  25              		.section	.gnu.lto_.inline.74f38e1a95419172,"",%progbits
  26 0000 789C6365 		.ascii	"x\234ce`b0c@\000&\006\006f&F\020\305\300\266@\036D1"
  26      60623063 
  26      40002606 
  26      06662646 
  26      10C5C0B6 
  27 0018 30329C63 		.ascii	"02\234c\330\313\304\310\310\244\300\010\224\314k9\257"
  27      D8CBC4C8 
  27      C8A4C008 
  27      94CC6B39 
  27      AF
  28 0029 C02031E7 		.ascii	"\300 1\347\"3\023\203\330\234]L,`]\000\260\005\007\242"
  28      22331383 
  28      D89C5D4C 
  28      2C605D00 
  28      B00507A2 
  29              		.text
  30              		.section	.gnu.lto_.pureconst.74f38e1a95419172,"",%progbits
ARM GAS  /tmp/ccNxQr94.s 			page 2


  31 0000 789C6365 		.ascii	"x\234ce`b`e`\000\222\014\214R\000\000\267\000*"
  31      60626065 
  31      6000920C 
  31      8C520000 
  31      B7002A
  32              		.text
  33              		.section	.gnu.lto__pal_lld_init.74f38e1a95419172,"",%progbits
  34 0000 789C6365 		.ascii	"x\234ce`b\250d``\010\004bi fdf`d\232p\216\201\241\221"
  34      6062A864 
  34      60600804 
  34      62692066 
  34      64666064 
  35 001a 83899111 		.ascii	"\203\211\221\021\304h\340`d\250gb\254g\354g\236\316"
  35      C468E060 
  35      64A86762 
  35      AC67EC67 
  35      9ECE
  36 002c CC78A8FD 		.ascii	"\314x\250\375\331N&\315\345\015@p`\372?\311\206\025"
  36      D94E26CD 
  36      E50D4070 
  36      60FA3FC9 
  36      8615
  37 003e 0718E733 		.ascii	"\007\030\347330\314\004b\020`\\\316\250\311\000T\366"
  37      3330CC04 
  37      6210605C 
  37      CEA8C900 
  37      54F6
  38 0050 68E3BFA9 		.ascii	"h\343\277\251\274l,\020q\306\025\214l\214@z\375%\306"
  38      BC6C2C10 
  38      71C6158C 
  38      6C8C407A 
  38      FD25C6
  39 0063 030DFFFE 		.ascii	"\003\015\377\376\2677\034\270\262\230q\243\033\023\003"
  39      B7371CB8 
  39      B29871A3 
  39      1B1303
  40 0072 4317501A 		.ascii	"C\027P\032dG73\023\210f~\313\330\244\000R\0156\253\213"
  40      64473733 
  40      1388667E 
  40      CBD8A400 
  40      520D36AB 
  41 0087 99112408 		.ascii	"\231\021$\010T\346\257\237\233W\242\237\254\037Z\234"
  41      54E6AF9F 
  41      9B57A29F 
  41      AC1F5A9C 
  42 0097 5A54AC9F 		.ascii	"ZT\254\237\227\233ZR\245\357\222Z\234]\222_\240\357"
  42      979B5A52 
  42      A5EF925A 
  42      9C5D925F 
  42      A0EF
  43 00a9 9C919994 		.ascii	"\234\221\231\224\351\037\254\237_\254\237\221\230\243"
  43      E91FAC9F 
  43      5FAC9F91 
  43      98A3
  44 00b7 5F905F54 		.ascii	"_\220_TR\254\037\034\342kl\244\357\343\343\242\357\036"
  44      52AC1F1C 
  44      E26B6CA4 
ARM GAS  /tmp/ccNxQr94.s 			page 3


  44      EFE3E3A2 
  44      EF1E
  45 00c9 E0E95F66 		.ascii	"\340\351_f\004\222\212/\000\342\234\234\024\275d\006"
  45      04928A2F 
  45      00E29C9C 
  45      14BD6406 
  46 00d9 00027E44 		.ascii	"\000\002~D\223"
  46      93
  47              		.text
  48              		.section	.gnu.lto__pal_lld_setgroupmode.74f38e1a95419172,"",%progbits
  49 0000 789CA557 		.ascii	"x\234\245W{P\224\327\025\277\347\273\337>Xv\027\305"
  49      7B5094D7 
  49      15BFE7BB 
  49      DF3E5876 
  49      17C5
  50 0012 3421420C 		.ascii	"4!B\014I\244D\243\254b\022\031\343\250\023q|\014\010"
  50      49A444A3 
  50      AC621219 
  50      E3A81371 
  50      7C0C08
  51 0025 34EDB47F 		.ascii	"4\355\264\177t\2465\221\031m@\030\240\231\264\223iV"
  51      74A63591 
  51      196D4018 
  51      A099B493 
  51      6956
  52 0037 C1F54D4C 		.ascii	"\301\365MLD\215\306\035\214&AMU\250X\304h\203\242\""
  52      448DC61D 
  52      8C26414D 
  52      55A858C4 
  52      6883A222 
  53 004b 465062D2 		.ascii	"FPb\322\004\214\306wDC4\250\365Q\220\236s\356\267\354"
  53      048CC677 
  53      444334A8 
  53      F551909E 
  53      73EEB7EC 
  54 005f 433A0E03 		.ascii	"C:\016\0033\337\341~\347\376~\347\236\337\275\347\336"
  54      33DFE17E 
  54      E7FE7EE7 
  54      9EDFBDE7 
  54      DE
  55 0070 EFAE4968 		.ascii	"\357\256Ih\";R\210UB\210\235\370@\204\000my\243\020"
  55      223B5288 
  55      5542889D 
  55      F8408400 
  55      6D79A310 
  56 0084 73AD1A48 		.ascii	"s\255\032H\325\220\232\2760^\270mv\262v]3]\377\005\276"
  56      D5909ABE 
  56      305EB86D 
  56      76B2765D 
  56      335DFF05 
  57 0099 85AD4FC2 		.ascii	"\205\255O\3027\223f\346>\013\367\231\301\252(\026_\303"
  57      379366E6 
  57      3E0BF799 
  57      C1AA2816 
  57      5FC3
  58 00ab 0A76D508 		.ascii	"\012v\325\010\323l\014\014g\240\315\347\016\3675\354"
  58      D36C0C0C 
ARM GAS  /tmp/ccNxQr94.s 			page 4


  58      67A0CDE7 
  58      0EF735EC 
  59 00bb 9AB3C882 		.ascii	"\232\263\310\202\375\216\245u\002\001\0165\370>\253"
  59      FD8EA575 
  59      02010E35 
  59      F83EAB
  60 00ca 13801A6E 		.ascii	"\023\200\032n+\210\2675\251\233\314\026k\230-\334\356"
  60      2B88B735 
  60      A99BCC16 
  60      6B982DDC 
  60      EE
  61 00db 7002BE0A 		.ascii	"p\002\276\012\365\367\216\\-a\377\202K\325\332\2202"
  61      F5F78E5C 
  61      2D61FF82 
  61      4BD5DA90 
  61      32
  62 00ec 37FED5AC 		.ascii	"7\376\325\254>m\366\270\347G\225\"`\215\001\2022\030"
  62      3E6DF6B8 
  62      E7479522 
  62      608D0182 
  62      3218
  63 00fe 82A8A6A2 		.ascii	"\202\250\246\242\362u\262X\226J\000\035_\177nX{\336"
  63      F275B258 
  63      964A001D 
  63      5F7F6E58 
  63      7BDE
  64 0110 49AF1AC4 		.ascii	"I\257\032\304\342kmc\327.\233\374\025\010l\317\333\260"
  64      E26B6D63 
  64      D72E9BFC 
  64      15086CCF 
  64      DBB0
  65 0122 E68023FE 		.ascii	"\346\200#\376c\267{\236\273\246\243D\272\007\227J\011"
  65      63B77B9E 
  65      BBA6A344 
  65      BA07974A 
  65      09
  66 0133 5B406240 		.ascii	"[@b@\330\0141\260\011b\004\272\004|\012\361\010\357"
  66      D80C31B0 
  66      096204BA 
  66      047C0AF1 
  66      08EF
  67 0145 FAA47C91 		.ascii	"\372\244|\221U\376\226\251wW\036\366\202A=\364A\344"
  67      55FE96A9 
  67      77571EF6 
  67      82413DF4 
  67      41E4
  68 0157 CA42F794 		.ascii	"\312B\367\224R\251\303\337C\311\272\200\255L\276\261"
  68      52A9C3DF 
  68      43C9BA80 
  68      AD4CBEB1 
  69 0167 E3E315E1 		.ascii	"\343\343\025\341\362\367L\376\242x\357\357\014n\343"
  69      F2F74CFE 
  69      A278EFEF 
  69      0C6EE3
  70 0176 07034B98 		.ascii	"\007\003K\230k\202m\241\\\223\200\355\020O\204\245s"
  70      6B826DA1 
  70      5C9380ED 
ARM GAS  /tmp/ccNxQr94.s 			page 5


  70      104F84A5 
  70      73
  71 0187 379F9172 		.ascii	"7\237\221r\006\223/\2368\177\031\3426\252\221\327E\275"
  71      06932F9E 
  71      387F19E2 
  71      36AA91D7 
  71      45BD
  72 0199 5BE83EEC 		.ascii	"[\350>\354\326K\245\031\312\203\371\364\207\360\315"
  72      D64BA519 
  72      CA83F9F4 
  72      87F0CD
  73 01a8 5DC7DEB3 		.ascii	"]\307\336\263\312L\246\376\367x\207\307jP\357E\257q"
  73      CA4CA6FE 
  73      F77887C7 
  73      6A50EF45 
  73      AF71
  74 01ba D714C512 		.ascii	"\327\024\305\022\361\037=\022\257\2558\330\240\311?"
  74      F11F3D12 
  74      AFAD38D8 
  74      A0C93F
  75 01c9 31B1B8B4 		.ascii	"1\261\270\264\341\254\323 \266\373\211\225=\022/}[\270"
  75      E1ACD320 
  75      B6FB8995 
  75      3D122F7D 
  75      5BB8
  76 01db C62C7399 		.ascii	"\306,s\231x\245\270\362\204\315 ^\361\023\377\331#q"
  76      78A5B8F2 
  76      84CD205E 
  76      F113FFD9 
  76      2371
  77 01ed 7967B3DB 		.ascii	"yg\263\333,\337db\323\215\035[t\203x\316O\334\325#q"
  77      2CDF6462 
  77      D38D1D5B 
  77      748378CE 
  77      4FDCD523 
  78 0202 D9B53B1F 		.ascii	"\331\265;\037\352\362m&\326}\327t\331\227j\213\237\270"
  78      EAF26D26 
  78      D67DD774 
  78      D9976A8B 
  78      9FB8
  79 0214 BB47E2B9 		.ascii	"\273G\342\271\212\373+\035f\035>\2038\250\306\247\012"
  79      8AFB2B1D 
  79      661D3E83 
  79      38A8C6A7 
  79      0A
  80 0225 9F9DF8EC 		.ascii	"\237\235\370\354\300\247\002\342Te\301\0360\203\020"
  80      C0A702E2 
  80      5465C11E 
  80      308310
  81 0234 B6FF87C2 		.ascii	"\266\377\207\3028\235\255\025\237\332\344|\340\014>"
  81      389DAD15 
  81      9FDAE47C 
  81      E00C3E
  82 0243 D9D3B9CC 		.ascii	"\331\323\271\314\227\301\351u\375\336\353^\240\275\017"
  82      97C1E975 
  82      FDDEEB5E 
  82      A0BD0F
ARM GAS  /tmp/ccNxQr94.s 			page 6


  83 0252 E600FF62 		.ascii	"\346\000\377b\376\312\326K\025\272,V\374\366\373\207"
  83      FECAD64B 
  83      15BA2C56 
  83      FCF6FB87 
  84 0262 BEF72DF0 		.ascii	"\276\367-\360W+\244\373#\267F\354\317{`\3270{\331\325"
  84      572BA4FB 
  84      23B746EC 
  84      CF7B60D7 
  84      307BD9D5 
  85 0276 7796807C 		.ascii	"w\226\200|W\261\177\360\\-\264\033\354\233~\366\276"
  85      57B17FF0 
  85      5C2DB41B 
  85      EC9B7EF6 
  85      BE
  86 0287 1ED8FB99 		.ascii	"\036\330\373\231\275\364\354\372\2620Y\242\330\213w"
  86      BDF4ECFA 
  86      B23059A2 
  86      D88B77
  87 0296 5DF8A56F 		.ascii	"]\370\245o\350\222nrm\017\344\003\020\267\375K\250q"
  87      E8926E72 
  87      6D0FE403 
  87      10B7FD4B 
  87      A871
  88 02a8 DFEF5A80 		.ascii	"\337\357Z\200U\034}\262\362h$n**vM\320L!\036\347\012"
  88      551C7DB2 
  88      F268246E 
  88      2A2A764D 
  88      D04C211E 
  89 02be CB1F670B 		.ascii	"\313\037g\013\013\031\347\313,h\266l@E\035\316\030;"
  89      0B19E7CB 
  89      2C68B66C 
  89      40451DCE 
  89      183B
  90 02d0 16B9C5C1 		.ascii	"\026\271\305\301@'5#\030\335\217\232\375\231\022I\315"
  90      40273523 
  90      18DD8F9A 
  90      FD991249 
  90      CD
  91 02e1 018266FA 		.ascii	"\001\202f\372\021\240\330\217\222\34312Qd\036\347\011"
  91      11A0D88F 
  91      92E33132 
  91      51641EE7 
  91      09
  92 02f2 1C884D6B 		.ascii	"\034\210Mk4\317\006m\033\313\023\364>\210\365=I\315"
  92      34CF066D 
  92      1BCB13F4 
  92      3E88F53D 
  92      49CD
  93 0304 58CEF629 		.ascii	"X\316\366)\240m\3744\001\236!3\230L\034\231x2\317\222"
  93      A06DFC34 
  93      019E2133 
  93      984C1C99 
  93      7832CF92 
  94 0318 19426628 		.ascii	"\031Bf(\231ad\206\223I 3\202\314H2\211dF\221y\201\314"
  94      99616486 
  94      93492033 
  94      82CC4832 
ARM GAS  /tmp/ccNxQr94.s 			page 7


  94      89644691 
  95 032f 8B644693 		.ascii	"\213dF\223I\"3\206\314Kd\306\222\031Gf<\231\011d^&3"
  95      49223386 
  95      CC4B64C6 
  95      92194766 
  95      3C990964 
  96 0346 914C3299 		.ascii	"\221L2\231Id&\223\231Bf*\231idRx\036Syb\246\363\234"
  96      49642693 
  96      9942662A 
  96      99696452 
  96      781E5379 
  97 035e A4F174A4 		.ascii	"\244\361t\244\363\254e\360<\012\261\030\213\023\317"
  97      F3AC65F0 
  97      3C0AB118 
  97      8B13CF
  98 036d D32552C3 		.ascii	"\323%R\303\177\262\025\012;<{\253r\251Z\2752\334+mt"
  98      7FB2150A 
  98      3B3C7BAB 
  98      72A95ABD 
  98      32DC2B6D 
  99 0382 60B69797 		.ascii	"`\266\227\227\331\351\354\263\200\204\203\270t\027a"
  99      D9E9ECB3 
  99      808483B8 
  99      741761
 100 0391 5E2CD733 		.ascii	"^,\3273\306A\224@V\273\247\241\252\\*\232]\321\016v"
 100      C6419440 
 100      56BBA7A1 
 100      AA5C2A9A 
 100      5DD10E76 
 101 03a5 DDAE8920 		.ascii	"\335\256\211 \232\02548\2044\016^o\200\034\210CP\345"
 101      9A153438 
 101      84340E5E 
 101      6F801C88 
 101      4350E5
 102 03b8 813A8F55 		.ascii	"\201:\217U\305\006\250\013\214]M\261\035*\366\251\252"
 102      C506A80B 
 102      8C5D4DB1 
 102      1D2AF6A9 
 102      AA
 103 03c9 4A83E6C4 		.ascii	"J\203\346\304\3300,$V\004\372\203\023\253\"r\204\"\267"
 103      D8302C24 
 103      5604FA83 
 103      13AB2272 
 103      8422B7
 104 03dc 7527D64F 		.ascii	"u'\326O%V\377\321\356\016\273J\314\004\207C\023\353"
 104      2556FFD1 
 104      EE0EBB4A 
 104      CC048743 
 104      13EB
 105 03ee 8FB8E060 		.ascii	"\217\270\340`;)X\177\025\254\263\352\214\201\213T\301"
 105      3B29587F 
 105      15ACB3EA 
 105      8C818B54 
 105      C1
 106 03ff 6E2E9E7F 		.ascii	"n.\236\177[\252`\026\250\017\0156\000q\010\332\326~"
 106      5BAA6016 
 106      A80F0D36 
ARM GAS  /tmp/ccNxQr94.s 			page 8


 106      007108DA 
 106      D67E
 107 0411 739B59A9 		.ascii	"s\233Y\251\214\200#\201\261wP\354\001\364\276\376C'"
 107      8C802381 
 107      B17750EC 
 107      01F4BEFE 
 107      4327
 108 0423 7BD459B0 		.ascii	"{\324Y\260j\376\376c\026b\340\241\001_\360vY\202\337"
 108      6AFEFE63 
 108      1662E0A1 
 108      015FF076 
 108      5982DF
 109 0436 10FCC2C9 		.ascii	"\020\374\302\311\213\240\361\332y\245Yp\233\3633\251"
 109      8BA0F1DA 
 109      79A55970 
 109      9BF333A9 
 110 0446 360BD755 		.ascii	"6\013\327U\233gP\2526\257\224\246\332X\025^\011*\321"
 110      9B6750AA 
 110      36AF94A6 
 110      DA58155E 
 110      092AD1
 111 0459 ADD56FA9 		.ascii	"\255\325o\251L\037E\027/\300\005(:Y{\000\014/\246\262"
 111      4C1F4517 
 111      2FC00528 
 111      3A597B00 
 111      0C2FA6B2 
 112 046d FDC7EABB 		.ascii	"\375\307\352\273\016\225\274\200\243j\347\336\002\360"
 112      0E95BC80 
 112      A36AE7DE 
 112      02F0
 113 047b CA4734E1 		.ascii	"\312G4\341\225)\216{]\307\341\026hX\010\332\275\237"
 113      95298E7B 
 113      5DC7E116 
 113      685808DA 
 113      BD9F
 114 048d CEA03FDD 		.ascii	"\316\240?\335\261{c3\272$\256\237\266\366\032\271R\035"
 114      B17B6333 
 114      BA24AE9F 
 114      B6F61AB9 
 114      521D
 115 049f 4736A047 		.ascii	"G6\240G\307E\321\266\344x\345t\307\275\015\255\3500"
 115      C745D1B6 
 115      E478E574 
 115      C7BD0DAD 
 115      E830
 116 04b1 E1C46A2D 		.ascii	"\341\304j-\014Is\254e\226\231\344jk\333\311\227\341"
 116      0C4973AC 
 116      659699E4 
 116      6A6BDBC9 
 116      97E1
 117 04c3 68D9B80F 		.ascii	"h\331\270\017P\271.\026\306\253\342<U\275^\0138sq\343"
 117      50B92E16 
 117      C6ABE23C 
 117      55BD5E0B 
 117      387371E3 
 118 04d7 D28EA55D 		.ascii	"\322\216\245]J\333\223\217Y<W\032(\371\307p\206\002"
 118      4ADB938F 
ARM GAS  /tmp/ccNxQr94.s 			page 9


 118      593C571A 
 118      28F9C770 
 118      8602
 119 04e9 57C8822B 		.ascii	"W\310\202+\324\250Vh\255\2479L\201\242\020\027\370\271"
 119      D4A85668 
 119      ADA7394C 
 119      81A21017 
 119      F8B9
 120 04fb B7800EC7 		.ascii	"\267\200\016\307\024\350\272g\221I\201\036\347\225\214"
 120      14E8BA67 
 120      9149811E 
 120      E7958C
 121 050a 52CB861E 		.ascii	"R\313\206\036\032\026\275\012\324V\375\246B\015\204"
 121      1A16BD0A 
 121      D456FDA6 
 121      420D84
 122 0519 E7626851 		.ascii	"\347bhQZa^\373\202\315R9\243\321\357\347\325\020/Ze"
 122      5A615EFB 
 122      82CD5239 
 122      A3D1EFE7 
 122      D5102F5A 
 123 052e D059BD0B 		.ascii	"\320Y\275\013\024&F%\332\275a,\270a\216\373rh5\002="
 123      14264625 
 123      DABD612C 
 123      B8618EFB 
 123      72683502 
 124 0543 81658FD0 		.ascii	"\201e\217\320\340\350\203\320\357\217\276\237\242\017"
 124      E0E883D0 
 124      EF8FBE9F 
 124      A20F
 125 0551 52B4659F 		.ascii	"R\264e\237\275\245 O\006\326\237\025\353\257\011bHK"
 125      BDA5204F 
 125      06D69F15 
 125      EBAF0962 
 125      484B
 126 0563 509C58C4 		.ascii	"P\234X\304\371\343\034\2408\261\210\330\277\273\265"
 126      F9E31CA0 
 126      38B188D8 
 126      BFBBB5
 127 0572 B9304241 		.ascii	"\2710BA\236\016\254J\311\347\374\355\272#\013\355\245"
 127      9E0EAC4A 
 127      C9E7FCED 
 127      BA230BED 
 127      A5
 128 0583 E09D8B57 		.ascii	"\340\235\213W)\374>\206y\345S\360%\025\010\366}\323"
 128      29FC3E86 
 128      79E553F0 
 128      251508F6 
 128      7DD3
 129 0595 DE5E6B77 		.ascii	"\336^kwmu\027\315\245.\033\234\200Rx\237\257X\360\025"
 129      6D7517CD 
 129      A52E1B9C 
 129      8052789F 
 129      AF58F015 
 130 05a9 B868F4FB 		.ascii	"\270h\364\373\236\273\306\032<c\314IG\367\252\014\306"
 130      9EBBC61A 
 130      3C63CC49 
ARM GAS  /tmp/ccNxQr94.s 			page 10


 130      47F7AA0C 
 130      C6
 131 05ba F1D04FCE 		.ascii	"\361\320O\316;\236\372p\345\244j\306.\312kU\375p\362"
 131      3B9EFA70 
 131      E5A46AC6 
 131      2ECA6B55 
 131      FD70F2
 132 05cd 85E4B07E 		.ascii	"\205\344\260~\216xH\026_\373\263\3707\2700\244\022\331"
 132      8E784816 
 132      5FFBB3F8 
 132      37B830A4 
 132      12D9
 133 05df E21319DF 		.ascii	"\342\023\031\337KU\337p<\240x\337\372T-2\322}\326X\213"
 133      4B55DF70 
 133      3CA078DF 
 133      FA542D32 
 133      D27DD658 
 134 05f4 0E4FABA1 		.ascii	"\016O\253\241j\010\016\200~\245\252\331\200\015\305"
 134      6A080E80 
 134      7EA5AAD9 
 134      800DC5
 135 0603 FD8A5D7D 		.ascii	"\375\212]}Q\325\354\317\242\205T\015U\252N\372T\015"
 135      51D5ECCF 
 135      A285540D 
 135      55AA4EFA 
 135      540D
 136 0615 EBA5AA93 		.ascii	"\353\245\252\223\034O\243x\337\261*:\321\014\015\303"
 136      1C4FA378 
 136      DFB12A3A 
 136      D10C0DC3 
 137 0625 59D830A5 		.ascii	"Y\3300\245\241\332\320\220\200\347\017v\365E\303)\377"
 137      A1DAD090 
 137      80E70F76 
 137      F545C329 
 137      FF
 138 0636 98A74943 		.ascii	"\230\247IC\002\035D-\265\227\274\317\253!\302yG\010"
 138      021D442D 
 138      B597BCCF 
 138      AB21C279 
 138      4708
 139 0648 3E074DE2 		.ascii	">\007M\342\216Mb\367\261\332\373\336$\325M\003\326\037"
 139      8E4D62F7 
 139      B1DAFBDE 
 139      24D54D03 
 139      D61F
 140 065a 59BDC9AE 		.ascii	"Y\275\311\256\316L\013|\337\2156\213=&\311\023ry\243"
 140      CE4C0B7C 
 140      DF8D368B 
 140      3D26C913 
 140      7279A3
 141 066d 3121237A 		.ascii	"1!#z9!g89\276\306\235\365-\263oQG\252\255\0220E\211"
 141      39216738 
 141      39BEC69D 
 141      F52DB36F 
 141      5147AAAD 
 142 0685 3800FA83 		.ascii	"8\000\372\203\247h\024\237\"\211j\212\022z\232\242\277"
 142      A768149F 
ARM GAS  /tmp/ccNxQr94.s 			page 11


 142      22896A8A 
 142      127A9AA2 
 142      BF
 143 0696 3D6C8ACE 		.ascii	"=l\212\316\371\2638OS4\212\345Y\272\345]\361\311{\241"
 143      F9B3384F 
 143      53348AE5 
 143      59BAE55D 
 143      F1C97BA1 
 144 06aa 97F22E70 		.ascii	"\227\362.p`\235\002_\014\225\367\342\003\362F\343\000"
 144      609D025F 
 144      0C95F7E2 
 144      03F246E3 
 144      00
 145 06bb E80F9697 		.ascii	"\350\017\226\227\304\362F\367E\336%\177\026?\220\274"
 145      C4F246F7 
 145      45DE257F 
 145      163F90BC 
 146 06cb 249667A5 		.ascii	"$\226g\245\265fyWk\015ycz)\3572\0076Q\340V_9\373\344"
 146      B5667957 
 146      6B0D7963 
 146      7A29EF32 
 146      073651E0 
 147 06e4 BDC4E53C 		.ascii	"\275\304\345<&xK\216\305O%v)1\256\236\304\274\36101"
 147      26784B8E 
 147      C54F2576 
 147      2931AE9E 
 147      C4BCF130 
 148 06f9 57FC635E 		.ascii	"W\374c^%1cYL\230X\036\243\304\334\361\211\031\327K1"
 148      25316359 
 148      4C98581E 
 148      A3C4DCF1 
 148      8919D74B 
 149 070e 3FFA03B7 		.ascii	"?\372\003\267\205\212\031\317b\306\005\213\231\300b"
 149      858A19CF 
 149      62C6058B 
 149      99C062
 150 071d C6F745CC 		.ascii	"\306\367E\314O\3761\257\221\230\011\2027_c\251o\363"
 150      4FFE31AF 
 150      91980982 
 150      375F63A9 
 150      6FF3
 151 072f 05EC369B 		.ascii	"\005\3546\233X\350T\022\357\371\312\361\345^J\274\356"
 151      58E85412 
 151      EFF9CAF1 
 151      E55E4ABC 
 151      EE
 152 0740 AFF39F43 		.ascii	"\257\363\237C\313q\342\003\345\230\214\003\240?\270"
 152      CB71E203 
 152      E5988C03 
 152      A03FB8
 153 074f 1C277139 		.ascii	"\034'q9&\367\245\034\333\375Y\334 \321\223X^x\267\274"
 153      26F7A51C 
 153      DBFD59DC 
 153      20D19358 
 153      5E78B7BC 
 154 0763 0E9FBCC9 		.ascii	"\016\237\274\311\275\224w\323_\347\267B\345My@\336T"
 154      BD9477D3 
ARM GAS  /tmp/ccNxQr94.s 			page 12


 154      5FE7B742 
 154      E54D7940 
 154      DE54
 155 0775 1C00FDC1 		.ascii	"\034\000\375\301\362\246\261\274\251}\221\367\037\177"
 155      F2A6B1BC 
 155      A97D91F7 
 155      1F7F
 156 0783 16B749DE 		.ascii	"\026\267I\3364\226g\347\033\246\272\351~>K\335\001S"
 156      349667E7 
 156      1BA6BAE9 
 156      7E3E4BDD 
 156      0153
 157 0795 E866F85C 		.ascii	"\350f\370\\\300\235\225\357\217)\352|>\264i\204\201"
 157      C09D95EF 
 157      8F29EA7C 
 157      3EB46984 
 157      81
 158 07a6 0ABC1EE8 		.ascii	"\012\274\036\350xS\274\323]\022\016\261\264\216\203"
 158      7853BCD3 
 158      5D120EB1 
 158      B48E83
 159 07b5 5EF76C6D 		.ascii	"^\367lm2~Z\244\342\267<((_VS\325\335eoS\201BM\307o#"
 159      327E5AA4 
 159      E2B73C28 
 159      285F5653 
 159      D5DD656F 
 160 07d0 FF7408BE 		.ascii	"\377t\010\276\330OW\260\206\246,\005K\303\317O0\214"
 160      D84F57B0 
 160      86A62C05 
 160      4BC3CF4F 
 160      308C
 161 07e2 AFC4690A 		.ascii	"\257\304i\012\366u\206B\245\343F\010F\361\2458\235P"
 161      F6758642 
 161      A5E34608 
 161      46F1A538 
 161      9D50
 162 07f4 AB3C6D4D 		.ascii	"\253<mM\177T\260\014\3651\331\271\340h\205M}L\000\356"
 162      7F54B00C 
 162      F531D9B9 
 162      E068854D 
 162      7D4C00EE 
 163 0808 06B2F8EA 		.ascii	"\006\262\370\352\235\301\312\234\364\233\251\015\357"
 163      9DC1CA9C 
 163      F49BA90D 
 163      EF
 164 0815 EE652516 		.ascii	"\356e%\026u\363\024\364\213\012\320\215_\2624W\366\234"
 164      75F314F4 
 164      8B0AD08D 
 164      5FB23457 
 164      F69C
 165 0827 02D76BAE 		.ascii	"\002\327k\256\337\344g\346\345\273\346dg\026\374\325"
 165      DFE467E6 
 165      E5BBE664 
 165      6716FCD5 
 166 0837 959C99FF 		.ascii	"\225\234\231\377zAN\256k\342\254\331\257\316N{\305\225"
 166      7A414EAE 
 166      6BE2ACD9 
ARM GAS  /tmp/ccNxQr94.s 			page 13


 166      AFCE4E7B 
 166      C595
 167 0849 93EF9A35 		.ascii	"\223\357\2325#\313\225\233\223W\220\357z\345\327\251"
 167      23CB959B 
 167      935790EF 
 167      7AE5D7A9 
 168 0859 A3125D29 		.ascii	"\243\022]))\311\256\311\351S\323\336H\244\256?\344\342"
 168      29C9AEC9 
 168      E953D3DE 
 168      48A4AE3F 
 168      E4E2
 169 086b 93953533 		.ascii	"\223\22553\3415\241\023J\317\236\221\377\272\236\235"
 169      E135A113 
 169      4ACF9E91 
 169      FFBA9E9D 
 170 087b 333353BE 		.ascii	"33S\276:\273@\237\221U\220g\312\375s\356\314<KN~nf\346"
 170      3ABB409F 
 170      91559067 
 170      CAFD73EE 
 170      CC3C4B4E 
 171 0893 CC3C734E 		.ascii	"\314<sN\301_r3\363L\004\311\263R?1\264\354\221Zv\242"
 171      C15F7233 
 171      F34C04C9 
 171      B3523F31 
 171      B4EC915A 
 172 08a9 96FDFCFF 		.ascii	"\226\375\374\377\000tX\0056"
 172      00745805 
 172      36
 173              		.text
 174              		.section	.gnu.lto_.symbol_nodes.74f38e1a95419172,"",%progbits
 175 0000 789C6365 		.ascii	"x\234ce`b\320g\000\002\246]L\365\014\014\023\31610\000"
 175      6062D067 
 175      0002A65D 
 175      4CF50C0C 
 175      13CE3130 
 176 0015 A95D0D8E 		.ascii	"\251]\015\216@\221\335L\365\214(\"\254;\231\030\032"
 176      4091DD4C 
 176      F58C2822 
 176      AC3B9918 
 176      1A
 177 0026 9540AA01 		.ascii	"\225@\252\001\037\360\012\306"
 177      1FF00AC6 
 178              		.text
 179              		.section	.gnu.lto_.refs.74f38e1a95419172,"",%progbits
 180 0000 789C6365 		.ascii	"x\234ce`b`d\000\002\000\000I\000\011"
 180      60626064 
 180      00020000 
 180      490009
 181              		.text
 182              		.section	.gnu.lto_.decls.74f38e1a95419172,"",%progbits
 183 0000 789CAD56 		.ascii	"x\234\255V}PT\327\025\177\347\335]\\\036\273\352\000"
 183      7D5054D7 
 183      157FE7DD 
 183      5D5C1EBB 
 183      EA00
 184 0012 CD38AD33 		.ascii	"\3158\2553u\234\015\356L\247\274j:\235\376\221?l\305"
 184      759C0DEE 
ARM GAS  /tmp/ccNxQr94.s 			page 14


 184      4CA7BC6A 
 184      3A9DFE91 
 184      3F6CC5
 185 0025 C44C4D60 		.ascii	"\304LM`\326\230N\377hw\020\266a'|\015\373H'\375\247"
 185      D6984EFF 
 185      687710B6 
 185      61277C0D 
 185      FB4827FD 
 186 003a 0F9604AB 		.ascii	"\017\226\004\253U\301X#B[b\324\270\212@SbP\300l\000"
 186      55C15823 
 186      425B62D4 
 186      B88A4053 
 186      6250C06C 
 187 004f 15414489 		.ascii	"\025AD\211H\374\340C\004\277\242|\207\000~\320s\357"
 187      48FCE043 
 187      04BFA27C 
 187      87007ED0 
 187      73EF
 188 0061 7DBB6FD9 		.ascii	"}\273o\331.3\231\266w8\313\273\367\376\3169\277s\356"
 188      2E3399B6 
 188      7738CBBB 
 188      F7FECE39 
 188      BF73EE
 189 0074 B91F4641 		.ascii	"\271\037FA\024.\231\005\341w\242 \370\004A\230\303F"
 189      142E9905 
 189      E177A220 
 189      F8044198 
 189      C346
 190 0086 F0FF7141 		.ascii	"\360\377qAo8%T\242<E\001\224E \314k\277\005>\376\206"
 190      6F382554 
 190      A23C4501 
 190      944520CC 
 190      6BBF053E 
 191 009c D6070D1F 		.ascii	"\326\007\015\037\332\036\343D\224\206\213F\211E\231"
 191      DA1EE344 
 191      94868B46 
 191      894599
 192 00ab 11B8DF3A 		.ascii	"\021\270\337:\224Z\224U(I(S(\315(\021(\367P\276F\031"
 192      945A9455 
 192      28492853 
 192      28CD2811 
 192      28F750BE 
 193 00c1 46B98FF2 		.ascii	"F\271\217\362\000\345\221\346\347i\030?\037\0208\261"
 193      00E591E6 
 193      E769183F 
 193      1F1038B1 
 194 00d1 A3B941EC 		.ascii	"\243\271A\354\205\233\200\334a)g\005\374\027\230\260"
 194      859B80DC 
 194      61296705 
 194      FC1798B0 
 195 00e1 EE9CBF01 		.ascii	"\356\234\277\001\260q\034\025\005-\030\377\020\3705"
 195      B0711C15 
 195      052D18FF 
 195      10F835
 196 00f0 B4BEA875 		.ascii	"\264\276\250uE\315$\373\323\224!\310\"\237\346\236\374"
 196      45CD24FB 
 196      D39421C8 
ARM GAS  /tmp/ccNxQr94.s 			page 15


 196      229FE69E 
 196      FC
 197 0101 8D73E61F 		.ascii	"\215s\346\037L\315\257\015\242\356\000 X!\310 \247\255"
 197      4CCDAF0D 
 197      A2EE0020 
 197      5821C820 
 197      A7AD
 198 0113 CD07F809 		.ascii	"\315\007\370\011zp\340\217~\254\344\302\035\251\017"
 198      7A70E08F 
 198      7EACE4C2 
 198      1DA90F
 199 0122 7AE868F9 		.ascii	"z\350h\371Z`cG+J\206\"\211\010\364\273o\346\310K\361"
 199      5A606347 
 199      2B4A8622 
 199      8908F4BB 
 199      6FE6C84B 
 200 0137 152A6F26 		.ascii	"\025*o&\233\236\2663s\337\372\226\354$\020-\201\210"
 200      9B9EB633 
 200      73DFFA96 
 200      EC24102D 
 200      8188
 201 0149 DDCED10B 		.ascii	"\335\316\321\013\177\213\302n\254\004K\261;\235\327"
 201      7F8BC26E 
 201      AC044BB1 
 201      3B9DD7
 202 0158 F585B46C 		.ascii	"\365\205\264l/\323\362\250KEx\3439\250\200\345p\014"
 202      2FD3F2A8 
 202      4B4578E3 
 202      39A880E5 
 202      700C
 203 016a 96A3F3E3 		.ascii	"\226\243\363\343\260\014\177\267\030\270\245\246\203"
 203      B00C7FB7 
 203      18B8A5A6 
 203      83
 204 0177 E55BA356 		.ascii	"\345[\243V\226\253\325\375\252\257\343\366\017\367z"
 204      96ABD5FD 
 204      AAAFE3F6 
 204      0FF77A
 205 0186 D423A8B5 		.ascii	"\324#\250\265\202\242\300\013H\007\342)c\374\304\337"
 205      82A2C00B 
 205      4807E229 
 205      63FCC4DF 
 206 0196 23D007F0 		.ascii	"#\320\007\3601\364b<\225\260\022\265\037\035\362\274"
 206      31F4623C 
 206      95B012B5 
 206      1F1DF2BC 
 207 01a6 BF84B818 		.ascii	"\277\204\270\030\331\236\026\3571\202$VI@\363\260\004"
 207      D99E16EF 
 207      31822456 
 207      4940F3B0 
 207      04
 208 01b7 87AA1E9E 		.ascii	"\207\252\036\236\234\261\360!\212\350\3345~p\021\371"
 208      9CB1F021 
 208      8AE8DC35 
 208      7E7011F9 
 209 01c7 13FBBE5C 		.ascii	"\023\373\276\\P]Fx\004\006\232\211\366\375\267\027\363"
 209      505D4678 
ARM GAS  /tmp/ccNxQr94.s 			page 16


 209      04069A89 
 209      F6FDB717 
 209      F3
 210 01d8 08567C40 		.ascii	"\010V|@\304\222\326\356F\003\330\244\3034\004_\2677"
 210      C492D6EE 
 210      4603D8A4 
 210      C334045F 
 210      B737
 211 01ea 6EDF3825 		.ascii	"n\3378%u\002$\370D'\265J\302\337\255\252\232\257\026"
 211      750224F8 
 211      4427B54A 
 211      C2DFADAA 
 211      9AAF16
 212 01fd 79D4C80D 		.ascii	"y\324\310\015\002\324`\220\377\302 \341S\260Q\247\024"
 212      02D46090 
 212      FFC220E1 
 212      53B051A7 
 212      14
 213 020e 07FFC4C1 		.ascii	"\007\377\304\301j\034D/\336\203\305\007\"H-P\006\342"
 213      6A1C442F 
 213      DE83C507 
 213      22482D50 
 213      06E2
 214 0220 D9D337BE 		.ascii	"\331\3237\2762\200d\013k\340d\030\003\234LG\355\312"
 214      3280640B 
 214      6BE06418 
 214      039C4C47 
 214      EDCA
 215 0232 B3EFAAAA 		.ascii	"\263\357\252\252\010\265H\3463\235\014r\343\031=\332"
 215      08B548E6 
 215      339D0C72 
 215      E3193DDA 
 216 0242 EE7D6220 		.ascii	"\356}b \203\334\311\216\306\262\207\346\205\234\324"
 216      83DCC98E 
 216      C6B287E6 
 216      859CD4
 217 0251 2FE864A4 		.ascii	"/\350d\244\341\305\332+4\342:trJwR\353wrj\327\241ib"
 217      E1C5DA2B 
 217      34E23A74 
 217      724A7752 
 217      EB77726A 
 218 0269 A09B8622 		.ascii	"\240\233\206\"p1q\254\240y\252\330B\032X\351\210;\317"
 218      703171AC 
 218      A079AAD8 
 218      421A58E9 
 218      883BCF
 219 027c 9C9B3106 		.ascii	"\234\2331\0062\330\371s\254\037\360!\364t\250\261\260"
 219      32D8F973 
 219      AC1FF021 
 219      F474A8B1 
 219      B0
 220 028d CC3E0F9F 		.ascii	"\314>\017\237\277o\012\207.\002\363JM5\000s\353_\272"
 220      BF6F0A87 
 220      2E02F34A 
 220      4D350073 
 220      EB5FBA
 221 02a0 68B67450 		.ascii	"h\266tP=\267\247\337BZy\001o\255\330\331D\244\255\264"
ARM GAS  /tmp/ccNxQr94.s 			page 17


 221      3DB7A7DF 
 221      425A7901 
 221      6FADD8D9 
 221      44A4ADB4 
 222 02b4 0CBF4B86 		.ascii	"\014\277K\206Qc\270`\250?\212[[\206\335\201\374\232"
 222      5163B860 
 222      A83F8A5B 
 222      5B86DD81 
 222      FC9A
 223 02c6 160BE9E0 		.ascii	"\026\013\351\340\326v\354il4\220.\336\371\250\244\270"
 223      D676EC69 
 223      6C34902E 
 223      DEF9A8A4 
 223      B8
 224 02d7 D048AEF3 		.ascii	"\320H\256\363\216wwQ\265Dn\362\316\276\243\335\263\221"
 224      8E777751 
 224      B5446EF2 
 224      CEBEA3DD 
 224      B391
 225 02e9 A497770E 		.ascii	"\244\227w\016\315>\036\245u\026G\253\222\004\325d\034"
 225      CD3E1EA5 
 225      751647AB 
 225      9204D564 
 225      1C
 226 02fa AFC9CFDB 		.ascii	"\257\311\317\333\316\0376\223A\236\264\242\017\217m"
 226      CE1F3693 
 226      419EB4A2 
 226      0F8F6D
 227 0309 8FF4AF16 		.ascii	"\217\364\257\026r6\332\204\300\306\201\016$\034\247"
 227      7236DA84 
 227      C0C6810E 
 227      241CA7
 228 0318 11BE8083 		.ascii	"\021\276\200\203m\201\325\352\366\306\377\265\220\226"
 228      6D81D5EA 
 228      F6C6FFB5 
 228      9096
 229 0326 C445CC4A 		.ascii	"\304E\314J\273\236\3408m\261N\027\337\270#\221\021\356"
 229      BB9EE038 
 229      6DB14E17 
 229      DFB82391 
 229      11EE
 230 0338 E38967EF 		.ascii	"\343\211g\357\210^\332\035\265k\232Y5u\242\352%]\365"
 230      885EDA1D 
 230      B56B9A59 
 230      3575A2EA 
 230      255DF5
 231 034b A2BE36A1 		.ascii	"\242\2766\241<.\207\341\201N\362\247\017\324\233\310"
 231      3C2E87E1 
 231      814EF2A7 
 231      0FD49BC8 
 232 035b 34736298 		.ascii	"4sb\230\230\372\313u\011b\254V[1uS\244\252kE=\367\002"
 232      98FACB75 
 232      0962AC56 
 232      5B317553 
 232      A4AA6B45 
 233 0372 5C81186A 		.ascii	"\\\201\030j\000\272\321\326U\260B\027X\331\321r\200"
 233      00BAD1D6 
ARM GAS  /tmp/ccNxQr94.s 			page 18


 233      55B04217 
 233      58D9D172 
 233      80
 234 0383 3AF4DDED 		.ascii	":\364\335\355\373i\351x\277\252n33Z\255H\213*\004\030"
 234      FB69E978 
 234      BFAA6E33 
 234      335AAD48 
 234      8B2A0418 
 235 0397 C8D44405 		.ascii	"\310\324D\0055\244)\014\374`\237\352\313'\014\375eX"
 235      35A4290C 
 235      FC609FEA 
 235      CB270CFD 
 235      6558
 236 03a9 F46A0AE6 		.ascii	"\364j\012\346!\367\226J\264\030\021#h\321\362C\315p"
 236      21F7964A 
 236      B4181123 
 236      68D1F243 
 236      CD70
 237 03bb A5777837 		.ascii	"\245wx7\2005\326f=\300\200S\245\213\363\230Yj\356<\232"
 237      8035D666 
 237      3DC08053 
 237      A58BF398 
 237      596AEE3C 
 238 03d0 BD06B17A 		.ascii	"\275\006\261z\375\350fw\263\020=\352ZCp\210\024LC\274"
 238      FDE86677 
 238      B3103DEA 
 238      5A437088 
 238      144C43BC 
 239 03e4 8E21DEC0 		.ascii	"\216!\336\300\020\277\322B\344$.\226.\313SU\240\250"
 239      10BFD242 
 239      E4242E96 
 239      2ECB5355 
 239      A0A8
 240 03f6 60163C9C 		.ascii	"`\026<\234\253\245\321\357{\324\226\237\260-\336\262"
 240      ABA5D1EF 
 240      7BD4969F 
 240      B02DDEB2 
 241 0406 B063CCFA 		.ascii	"\260c\314\372x}\333\0051\026\031\344-\310@\230\347>"
 241      787DDB05 
 241      311619E4 
 241      2DC84098 
 241      E73E
 242 0418 E8B48EE6 		.ascii	"\350\264\216\346\247uAS\327\247f\322FX9\016\265U\345"
 242      A7754153 
 242      D7A766D2 
 242      4658390E 
 242      B555E5
 243 042b 9B4807EF 		.ascii	"\233H\007\357\354\257\233l5r\240\011\273\177o\257l3"
 243      ECAF9B6C 
 243      3572A009 
 243      BB7F6FAF 
 243      6C33
 244 043d 922FF95C 		.ascii	"\222/\371\\\335\261\312N\221\\\343\235\212\223\243\333"
 244      DDB1CA4E 
 244      915CE39D 
 244      8A93A3DB 
 245 044d 81DCE29D 		.ascii	"\201\334\342\235\261\302*\205\334\343\337\245\023=\367"
ARM GAS  /tmp/ccNxQr94.s 			page 19


 245      B1C22A85 
 245      DCE3DFA5 
 245      133DF7
 246 045c 23B9051B 		.ascii	"#\271\005\033vw]\372\307\015\023?e}\364\336\230\376"
 246      76775DFA 
 246      C70D133F 
 246      657DF4DE 
 246      98FE
 247 046e 7070B748 		.ascii	"pp\267H\206\031\326\374\254\242\315\012V\177\213\241"
 247      8619D6FC 
 247      ACA2CD0A 
 247      567F8BA1 
 248 047e AB50E0C1 		.ascii	"\253P\340\301\265\375~\211\352+ \320\214\271\270\215"
 248      B5FD7E89 
 248      EA2B20D0 
 248      8CB9B88D 
 249 048e B918C3C5 		.ascii	"\271\030\303\305\230\237\213\032\255\022(\272u\271\216"
 249      989F8B1A 
 249      AD1228BA 
 249      75B98E
 250 049d 6E0A4537 		.ascii	"n\012E7B u\034\335\031\204\276\033\036\035l\374A\020"
 250      4220751C 
 250      DD1984BE 
 250      1B1E1D6C 
 250      FC4110
 251 04b0 95815078 		.ascii	"\225\201Px\177\250\361\331 t_(\272'\024}=\010=\0306"
 251      7FA8F1D9 
 251      20745F28 
 251      BA27147D 
 251      3D083D18 
 252 04c5 CC20F078 		.ascii	"\314 \360x\020\370Vx\"\001\336X\302\317J%\216\277\211"
 252      10F85678 
 252      2201DE58 
 252      C2CF4A25 
 252      8EBF89
 253 04d8 15712E14 		.ascii	"\025q.\024\177&\224\312Y\177\371Q\363\275\341\231s\363"
 253      7F2694CA 
 253      597FF951 
 253      F3BDE199 
 253      73F3
 254 04ea 81CD8D75 		.ascii	"\201\315\215uw\007\001ClnL\333\334\343X\371\217\260"
 254      77070143 
 254      6C6E4CDB 
 254      DCE358F9 
 254      8FB0
 255 04fc F4EEA17C 		.ascii	"\364\356\241|\2152\214\362\020e\024e\004e\002\345>\312"
 255      8D328CF2 
 255      10651465 
 255      046502E5 
 255      3ECA
 256 050e 83F93B63 		.ascii	"\203\371;c\1774\333\031c\363\367\247F\255,\210\332\331"
 256      7F34DB19 
 256      63F3F7A7 
 256      46AD2C88 
 256      DAD9
 257 0520 F091706A 		.ascii	"\360\221pjX]\276\366\351\032#\231`\325%\316\266\324"
 257      585DBEF6 
ARM GAS  /tmp/ccNxQr94.s 			page 20


 257      E91A2399 
 257      60D525CE 
 257      B6D4
 258 0532 B4E07D14 		.ascii	"\264\340}\024\243\235\001e\021\364\014\230B\355I\375"
 258      A39D0165 
 258      11F40C98 
 258      42ED49FD 
 259 0542 D0A32EC3 		.ascii	"\320\243.\303\007\005\337`,\377m\\He\362r\2377\312\274"
 259      0705DF60 
 259      2CFF6D5C 
 259      4865F272 
 259      9F37CABC 
 260 0556 2D70D531 		.ascii	"-p\3251\317\372N\375\026\314\032\007\304~\366\347}w"
 260      CFFA4EFD 
 260      16CC1A07 
 260      C47EF6E7 
 260      7D77
 261 0568 2D443530 		.ascii	"-D50\332\243\037{OD\201\331\266\200*\314\"\027]\333"
 261      DAA31F7B 
 261      4F4481D9 
 261      B6802ACC 
 261      22175DDB 
 262 057c 7F795BEB 		.ascii	"\177y[\353F\351\345=\203\023\323zx\210\343\036.=>|\316"
 262      46E9E53D 
 262      8313D37A 
 262      7888E31E 
 262      2E3D3E7C 
 263 0591 C8AE518A 		.ascii	"\310\256Q\212\370\202_\243\003\267\256\325\223\005\037"
 263      F8825FA3 
 263      03B7AED5 
 263      93051F
 264 05a0 6D4FD8A3 		.ascii	"mO\330\243\3551h\257\266\247\267K\333,\370j+g\257\266"
 264      ED3168AF 
 264      B6A7B74B 
 264      DB2CF86A 
 264      2B67AFB6 
 265 05b4 1FDDFA44 		.ascii	"\037\335\372DU\361\026A\316\210\203*\335eU\350\263\355"
 265      55F11641 
 265      CE88832A 
 265      DD6555E8 
 265      B3ED
 266 05c6 297BB695 		.ascii	"){\266\225w\365\014\232\311v\026\"T\216OVF\3603\202"
 266      77F50C9A 
 266      C9761622 
 266      548E4F56 
 266      46F03382 
 267 05da BED96626 		.ascii	"\276\331f&|\325&ze\253Z\2748\256gJ\025\361^\302\375"
 267      7CD5267A 
 267      65AB5ABC 
 267      38AE674A 
 267      15F15EC2 
 268 05ef 0073ECD6 		.ascii	"\000s\354\326\021\033\216\214\215[ F\277f\200\2262\337"
 268      111B8E8C 
 268      8D5B2046 
 268      BF668096 
 268      32DF
 269 0601 3079225F 		.ascii	"0y\"_\257|\321\026T_s\333\310\311C\357Q\2568?\377\006"
ARM GAS  /tmp/ccNxQr94.s 			page 21


 269      AF7CD116 
 269      545F73DB 
 269      C8C943EF 
 269      51AE383F 
 270 0617 80FA3D03 		.ascii	"\200\372=\003\205Q\344\012O}\375\344\371>K\240b\256"
 270      8551E40A 
 270      4F7DFDE4 
 270      F93E4BA0 
 270      62AE
 271 0629 1E6715F3 		.ascii	"\036g\025\363.\332\364\210\201\370\250\211\240\212\011"
 271      2EDAF488 
 271      81F8A889 
 271      A08A09
 272 0638 388702D1 		.ascii	"8\207\002\321\366\037\376\351\001xj\377\364\342\350"
 272      F61FFEE9 
 272      01786AFF 
 272      F4E2E8
 273 0647 220DBF02 		.ascii	"\"\015\277\002\230=?\337\367\304h\177\204\354\361=2"
 273      983D3FDF 
 273      F7C4687F 
 273      84ECF13D 
 273      32
 274 0658 D2243EFF 		.ascii	"\322$>\377\221Z\356\303\034{\236+\303\2338\222b\340"
 274      915AEEC3 
 274      1C7B9E2B 
 274      C39B3892 
 274      62E0
 275 066a 19CF6F40 		.ascii	"\031\317o@\357\031Kr\241\370\274`qd'\247;\322\323S\035"
 275      EF194B72 
 275      A1F8BC60 
 275      716427A7 
 275      3BD2D353 
 276 067f AE4C9762 		.ascii	"\256L\227bz\371\265\315+\326\255^-$\312\031\231\212"
 276      7AF9B5CD 
 276      2BD6AD5E 
 276      2D24CA19 
 276      998A
 277 0691 9C226F76 		.ascii	"\234\"ov;s\334rf\206S\371\243\234\340t\277\245de\313"
 277      3B73DC72 
 277      668653F9 
 277      A39CE074 
 277      BFA56465 
 278 06a6 EBD25C5B 		.ascii	"\353\322\\[\\\211\233\344,\267\234\226\234.gg\345(n"
 278      5C899BE4 
 278      2CB79C96 
 278      9C2E6767 
 278      E5286E
 279 06b9 79D3EBAF 		.ascii	"y\323\353\257\276\260F\336\2701A~9\351\225\304\267\327"
 279      BEB046DE 
 279      B831417E 
 279      39E995C4 
 279      B7D7
 280 06cb D029BFE9 		.ascii	"\320)\277\351\370\024\341{\0017n\247\362fNVnvFV\252"
 280      F814E17B 
 280      01376EA7 
 280      F2664E56 
 280      6E764656 
ARM GAS  /tmp/ccNxQr94.s 			page 22


 281 06e0 53723872 		.ascii	"Sr8r]\231\312\013k\034\312\217\345\\w\216\354\312LI"
 281      5D99CA0B 
 281      6B1CCA8F 
 281      E55C778E 
 281      ECCA4C49 
 282 06f4 CF4D75CA 		.ascii	"\317Mu\312\231\316?\244\273\266\310\031\311)i\256L\247"
 282      99CE3FA4 
 282      BBB6C819 
 282      C92969AE 
 282      4CA7
 283 0706 EC4875FE 		.ascii	"\354Hu\376>97]q(\357d;\335\361i\202\311\257\2662\234"
 283      3E39375D 
 283      7128EF64 
 283      3BDDF169 
 283      82C9AFB6 
 284 071c 9AFB1DB7 		.ascii	"\232\373\035\267\354p+\251\210\241XW\026\365\345P\376"
 284      EC702BA9 
 284      88A15857 
 284      16F5E550 
 284      FE
 285 072d BF31A509 		.ascii	"\2771\245\011fW\026\305e$\273\337r(\206_\274d\337h\334"
 285      665716C5 
 285      6524BBDF 
 285      7228865F 
 285      BC64DF68 
 286 0742 98B8EE57 		.ascii	"\230\270\356Wv\303/7\331\355\360k\330`LIw&\347hA\256"
 286      76C32F37 
 286      D9EDF06B 
 286      D8604C49 
 286      7726E768 
 287 0758 FE994331 		.ascii	"\376\231C1\371?\010f\341\265\377\231\216[\311\300\034"
 287      F93F0866 
 287      E1B5FF99 
 287      8E5BC9C0 
 287      1C
 288 0769 BC99EDCA 		.ascii	"\274\231\355\312B6$1\301N^I\260\033\2236'%\330\027%"
 288      42362431 
 288      C14E5E49 
 288      B01B9336 
 288      2725D817 
 289 077e 6E4A5ABF 		.ascii	"nJZ\277>\301\036\221\370\372o\222\326\333\215\257&&"
 289      3EC11E91 
 289      F8FA6F92 
 289      D6DB8DAF 
 289      2626
 290 0790 ACB7538E 		.ascii	"\254\267S\216\033\314\272\226C\221x\010\256T\207\022"
 290      1BCCBA96 
 290      43917808 
 290      AE548712 
 291 07a0 C52273BE 		.ascii	"\305\"s\276\355\314T\334/~wj\376\324k\251A\"\022\376"
 291      EDCC54DC 
 291      2F7E776A 
 291      FED46BA9 
 291      412212FE 
 292 07b4 63661CCA 		.ascii	"cf\034\312\277\001\270kc\235"
 292      BF01B86B 
 292      639D
ARM GAS  /tmp/ccNxQr94.s 			page 23


 293              		.text
 294              		.section	.gnu.lto_.symtab.74f38e1a95419172,"",%progbits
 295 0000 5F70616C 		.ascii	"_pal_lld_init\000"
 295      5F6C6C64 
 295      5F696E69 
 295      7400
 296 000e 00       		.ascii	"\000"
 297 000f 00       		.ascii	"\000"
 298 0010 00       		.ascii	"\000"
 299 0011 00000000 		.ascii	"\000\000\000\000\000\000\000\000"
 299      00000000 
 300 0019 AE000000 		.ascii	"\256\000\000\000"
 301 001d 5F70616C 		.ascii	"_pal_lld_setgroupmode\000"
 301      5F6C6C64 
 301      5F736574 
 301      67726F75 
 301      706D6F64 
 302 0033 00       		.ascii	"\000"
 303 0034 00       		.ascii	"\000"
 304 0035 00       		.ascii	"\000"
 305 0036 00000000 		.ascii	"\000\000\000\000\000\000\000\000"
 305      00000000 
 306 003e FD000000 		.ascii	"\375\000\000\000"
 307 0042 5F70616C 		.ascii	"_pal_events\000"
 307      5F657665 
 307      6E747300 
 308 004e 00       		.ascii	"\000"
 309 004f 00       		.ascii	"\000"
 310 0050 00       		.ascii	"\000"
 311 0051 00000000 		.ascii	"\000\000\000\000\000\000\000\000"
 311      00000000 
 312 0059 07010000 		.ascii	"\007\001\000\000"
 313              		.text
 314              		.section	.gnu.lto_.opts,"",%progbits
 315 0000 272D666D 		.ascii	"'-fmath-errno' '-fsigned-zeros' '-ftrapping-math' '"
 315      6174682D 
 315      6572726E 
 315      6F272027 
 315      2D667369 
 316 0033 2D666E6F 		.ascii	"-fno-trapv' '-fno-openmp' '-fno-openacc' '-mcpu=cor"
 316      2D747261 
 316      70762720 
 316      272D666E 
 316      6F2D6F70 
 317 0066 7465782D 		.ascii	"tex-m4' '-mno-thumb-interwork' '-mthumb' '-ggdb' '-"
 317      6D342720 
 317      272D6D6E 
 317      6F2D7468 
 317      756D622D 
 318 0099 4F322720 		.ascii	"O2' '-fomit-frame-pointer' '-falign-functions=16' '"
 318      272D666F 
 318      6D69742D 
 318      6672616D 
 318      652D706F 
 319 00cc 2D666675 		.ascii	"-ffunction-sections' '-fdata-sections' '-fno-common"
 319      6E637469 
 319      6F6E2D73 
ARM GAS  /tmp/ccNxQr94.s 			page 24


 319      65637469 
 319      6F6E7327 
 320 00ff 2720272D 		.ascii	"' '-flto'\000"
 320      666C746F 
 320      2700
 321              		.text
 322              		.comm	__gnu_lto_v1,1,1
 323              		.comm	__gnu_lto_slim,1,1
 324              		.ident	"GCC: (15:6.3.1+svn253039-1build1) 6.3.1 20170620"
ARM GAS  /tmp/ccNxQr94.s 			page 25


DEFINED SYMBOLS
                            *ABS*:0000000000000000 hal_pal_lld.c
                            *COM*:0000000000000001 __gnu_lto_v1
                            *COM*:0000000000000001 __gnu_lto_slim

NO UNDEFINED SYMBOLS
